{
	"Week6/ex1.sol": {
		"Square": {
			"abi": [
				{
					"anonymous": false,
					"inputs": [
						{
							"indexed": false,
							"internalType": "string",
							"name": "",
							"type": "string"
						},
						{
							"indexed": false,
							"internalType": "string",
							"name": "",
							"type": "string"
						},
						{
							"indexed": false,
							"internalType": "uint32",
							"name": "",
							"type": "uint32"
						},
						{
							"indexed": false,
							"internalType": "uint32",
							"name": "",
							"type": "uint32"
						}
					],
					"name": "display",
					"type": "event"
				},
				{
					"inputs": [],
					"name": "area",
					"outputs": [
						{
							"internalType": "uint32",
							"name": "",
							"type": "uint32"
						}
					],
					"stateMutability": "view",
					"type": "function"
				},
				{
					"inputs": [],
					"name": "colour",
					"outputs": [
						{
							"internalType": "string",
							"name": "",
							"type": "string"
						}
					],
					"stateMutability": "view",
					"type": "function"
				},
				{
					"inputs": [],
					"name": "displayAll",
					"outputs": [
						{
							"internalType": "string",
							"name": "",
							"type": "string"
						},
						{
							"internalType": "string",
							"name": "",
							"type": "string"
						},
						{
							"internalType": "uint32",
							"name": "",
							"type": "uint32"
						},
						{
							"internalType": "uint32",
							"name": "",
							"type": "uint32"
						}
					],
					"stateMutability": "nonpayable",
					"type": "function"
				},
				{
					"inputs": [],
					"name": "getPerimeter",
					"outputs": [
						{
							"internalType": "uint32",
							"name": "",
							"type": "uint32"
						}
					],
					"stateMutability": "view",
					"type": "function"
				},
				{
					"inputs": [],
					"name": "perimeter",
					"outputs": [
						{
							"internalType": "uint32",
							"name": "",
							"type": "uint32"
						}
					],
					"stateMutability": "view",
					"type": "function"
				},
				{
					"inputs": [],
					"name": "setArea",
					"outputs": [],
					"stateMutability": "nonpayable",
					"type": "function"
				},
				{
					"inputs": [
						{
							"internalType": "string",
							"name": "_colour",
							"type": "string"
						},
						{
							"internalType": "string",
							"name": "_shape",
							"type": "string"
						}
					],
					"name": "setColourAndShape",
					"outputs": [],
					"stateMutability": "nonpayable",
					"type": "function"
				},
				{
					"inputs": [],
					"name": "setPerimeter",
					"outputs": [],
					"stateMutability": "nonpayable",
					"type": "function"
				},
				{
					"inputs": [
						{
							"internalType": "uint32",
							"name": "_width",
							"type": "uint32"
						}
					],
					"name": "setWidth",
					"outputs": [],
					"stateMutability": "nonpayable",
					"type": "function"
				},
				{
					"inputs": [],
					"name": "shape",
					"outputs": [
						{
							"internalType": "string",
							"name": "",
							"type": "string"
						}
					],
					"stateMutability": "view",
					"type": "function"
				},
				{
					"inputs": [],
					"name": "width",
					"outputs": [
						{
							"internalType": "uint32",
							"name": "",
							"type": "uint32"
						}
					],
					"stateMutability": "view",
					"type": "function"
				}
			],
			"devdoc": {
				"kind": "dev",
				"methods": {},
				"version": 1
			},
			"evm": {
				"assembly": "    /* \"Week6/ex1.sol\":679:953  contract Square is Quadrangle{... */\n  mstore(0x40, 0x80)\n  callvalue\n  dup1\n  iszero\n  tag_1\n  jumpi\n  0x00\n  dup1\n  revert\ntag_1:\n  pop\n  dataSize(sub_0)\n  dup1\n  dataOffset(sub_0)\n  0x00\n  codecopy\n  0x00\n  return\nstop\n\nsub_0: assembly {\n        /* \"Week6/ex1.sol\":679:953  contract Square is Quadrangle{... */\n      mstore(0x40, 0x80)\n      callvalue\n      dup1\n      iszero\n      tag_1\n      jumpi\n      0x00\n      dup1\n      revert\n    tag_1:\n      pop\n      jumpi(tag_2, lt(calldatasize, 0x04))\n      shr(0xe0, calldataload(0x00))\n      dup1\n      0x4d41892f\n      gt\n      tag_14\n      jumpi\n      dup1\n      0x4d41892f\n      eq\n      tag_8\n      jumpi\n      dup1\n      0x779a7737\n      eq\n      tag_9\n      jumpi\n      dup1\n      0x7ebeb19c\n      eq\n      tag_10\n      jumpi\n      dup1\n      0x9ededf77\n      eq\n      tag_11\n      jumpi\n      dup1\n      0xb812978d\n      eq\n      tag_12\n      jumpi\n      dup1\n      0xf4823026\n      eq\n      tag_13\n      jumpi\n      jump(tag_2)\n    tag_14:\n      dup1\n      0x0f7514a2\n      eq\n      tag_3\n      jumpi\n      dup1\n      0x2cf6598f\n      eq\n      tag_4\n      jumpi\n      dup1\n      0x3dbc0610\n      eq\n      tag_5\n      jumpi\n      dup1\n      0x4309f065\n      eq\n      tag_6\n      jumpi\n      dup1\n      0x4c9beb53\n      eq\n      tag_7\n      jumpi\n    tag_2:\n      0x00\n      dup1\n      revert\n        /* \"Week6/ex1.sol\":163:182  string public shape */\n    tag_3:\n      tag_15\n      tag_16\n      jump\t// in\n    tag_15:\n      mload(0x40)\n      tag_17\n      swap2\n      swap1\n      tag_18\n      jump\t// in\n    tag_17:\n      mload(0x40)\n      dup1\n      swap2\n      sub\n      swap1\n      return\n        /* \"Week6/ex1.sol\":108:131  uint32 public perimeter */\n    tag_4:\n      tag_19\n      tag_20\n      jump\t// in\n    tag_19:\n      mload(0x40)\n      tag_21\n      swap2\n      swap1\n      tag_22\n      jump\t// in\n    tag_21:\n      mload(0x40)\n      dup1\n      swap2\n      sub\n      swap1\n      return\n        /* \"Week6/ex1.sol\":137:157  string public colour */\n    tag_5:\n      tag_23\n      tag_24\n      jump\t// in\n    tag_23:\n      mload(0x40)\n      tag_25\n      swap2\n      swap1\n      tag_18\n      jump\t// in\n    tag_25:\n      mload(0x40)\n      dup1\n      swap2\n      sub\n      swap1\n      return\n        /* \"Week6/ex1.sol\":252:389  function setColourAndShape(string memory _colour, string memory _shape) public {... */\n    tag_6:\n      tag_26\n      0x04\n      dup1\n      calldatasize\n      sub\n      dup2\n      add\n      swap1\n      tag_27\n      swap2\n      swap1\n      tag_28\n      jump\t// in\n    tag_27:\n      tag_29\n      jump\t// in\n    tag_26:\n      stop\n        /* \"Week6/ex1.sol\":483:675  function displayAll() public returns (string memory, string memory, uint32, uint32){... */\n    tag_7:\n      tag_30\n      tag_31\n      jump\t// in\n    tag_30:\n      mload(0x40)\n      tag_32\n      swap5\n      swap4\n      swap3\n      swap2\n      swap1\n      tag_33\n      jump\t// in\n    tag_32:\n      mload(0x40)\n      dup1\n      swap2\n      sub\n      swap1\n      return\n        /* \"Week6/ex1.sol\":84:102  uint32 public area */\n    tag_8:\n      tag_34\n      tag_35\n      jump\t// in\n    tag_34:\n      mload(0x40)\n      tag_36\n      swap2\n      swap1\n      tag_22\n      jump\t// in\n    tag_36:\n      mload(0x40)\n      dup1\n      swap2\n      sub\n      swap1\n      return\n        /* \"Week6/ex1.sol\":739:810  function setWidth(uint32 _width) public {... */\n    tag_9:\n      tag_37\n      0x04\n      dup1\n      calldatasize\n      sub\n      dup2\n      add\n      swap1\n      tag_38\n      swap2\n      swap1\n      tag_39\n      jump\t// in\n    tag_38:\n      tag_40\n      jump\t// in\n    tag_37:\n      stop\n        /* \"Week6/ex1.sol\":394:478  function getPerimeter() public view returns(uint32){... */\n    tag_10:\n      tag_41\n      tag_42\n      jump\t// in\n    tag_41:\n      mload(0x40)\n      tag_43\n      swap2\n      swap1\n      tag_22\n      jump\t// in\n    tag_43:\n      mload(0x40)\n      dup1\n      swap2\n      sub\n      swap1\n      return\n        /* \"Week6/ex1.sol\":714:733  uint32 public width */\n    tag_11:\n      tag_44\n      tag_45\n      jump\t// in\n    tag_44:\n      mload(0x40)\n      tag_46\n      swap2\n      swap1\n      tag_22\n      jump\t// in\n    tag_46:\n      mload(0x40)\n      dup1\n      swap2\n      sub\n      swap1\n      return\n        /* \"Week6/ex1.sol\":883:951  function setPerimeter() public{... */\n    tag_12:\n      tag_47\n      tag_48\n      jump\t// in\n    tag_47:\n      stop\n        /* \"Week6/ex1.sol\":815:878  function setArea() public {... */\n    tag_13:\n      tag_49\n      tag_50\n      jump\t// in\n    tag_49:\n      stop\n        /* \"Week6/ex1.sol\":163:182  string public shape */\n    tag_16:\n      0x02\n      dup1\n      sload\n      tag_51\n      swap1\n      tag_52\n      jump\t// in\n    tag_51:\n      dup1\n      0x1f\n      add\n      0x20\n      dup1\n      swap2\n      div\n      mul\n      0x20\n      add\n      mload(0x40)\n      swap1\n      dup2\n      add\n      0x40\n      mstore\n      dup1\n      swap3\n      swap2\n      swap1\n      dup2\n      dup2\n      mstore\n      0x20\n      add\n      dup3\n      dup1\n      sload\n      tag_53\n      swap1\n      tag_52\n      jump\t// in\n    tag_53:\n      dup1\n      iszero\n      tag_54\n      jumpi\n      dup1\n      0x1f\n      lt\n      tag_55\n      jumpi\n      0x0100\n      dup1\n      dup4\n      sload\n      div\n      mul\n      dup4\n      mstore\n      swap2\n      0x20\n      add\n      swap2\n      jump(tag_54)\n    tag_55:\n      dup3\n      add\n      swap2\n      swap1\n      0x00\n      mstore\n      keccak256(0x00, 0x20)\n      swap1\n    tag_56:\n      dup2\n      sload\n      dup2\n      mstore\n      swap1\n      0x01\n      add\n      swap1\n      0x20\n      add\n      dup1\n      dup4\n      gt\n      tag_56\n      jumpi\n      dup3\n      swap1\n      sub\n      0x1f\n      and\n      dup3\n      add\n      swap2\n    tag_54:\n      pop\n      pop\n      pop\n      pop\n      pop\n      dup2\n      jump\t// out\n        /* \"Week6/ex1.sol\":108:131  uint32 public perimeter */\n    tag_20:\n      0x00\n      0x04\n      swap1\n      sload\n      swap1\n      0x0100\n      exp\n      swap1\n      div\n      0xffffffff\n      and\n      dup2\n      jump\t// out\n        /* \"Week6/ex1.sol\":137:157  string public colour */\n    tag_24:\n      0x01\n      dup1\n      sload\n      tag_57\n      swap1\n      tag_52\n      jump\t// in\n    tag_57:\n      dup1\n      0x1f\n      add\n      0x20\n      dup1\n      swap2\n      div\n      mul\n      0x20\n      add\n      mload(0x40)\n      swap1\n      dup2\n      add\n      0x40\n      mstore\n      dup1\n      swap3\n      swap2\n      swap1\n      dup2\n      dup2\n      mstore\n      0x20\n      add\n      dup3\n      dup1\n      sload\n      tag_58\n      swap1\n      tag_52\n      jump\t// in\n    tag_58:\n      dup1\n      iszero\n      tag_59\n      jumpi\n      dup1\n      0x1f\n      lt\n      tag_60\n      jumpi\n      0x0100\n      dup1\n      dup4\n      sload\n      div\n      mul\n      dup4\n      mstore\n      swap2\n      0x20\n      add\n      swap2\n      jump(tag_59)\n    tag_60:\n      dup3\n      add\n      swap2\n      swap1\n      0x00\n      mstore\n      keccak256(0x00, 0x20)\n      swap1\n    tag_61:\n      dup2\n      sload\n      dup2\n      mstore\n      swap1\n      0x01\n      add\n      swap1\n      0x20\n      add\n      dup1\n      dup4\n      gt\n      tag_61\n      jumpi\n      dup3\n      swap1\n      sub\n      0x1f\n      and\n      dup3\n      add\n      swap2\n    tag_59:\n      pop\n      pop\n      pop\n      pop\n      pop\n      dup2\n      jump\t// out\n        /* \"Week6/ex1.sol\":252:389  function setColourAndShape(string memory _colour, string memory _shape) public {... */\n    tag_29:\n        /* \"Week6/ex1.sol\":350:357  _colour */\n      dup2\n        /* \"Week6/ex1.sol\":341:347  colour */\n      0x01\n        /* \"Week6/ex1.sol\":341:357  colour = _colour */\n      swap1\n      dup2\n      tag_63\n      swap2\n      swap1\n      tag_64\n      jump\t// in\n    tag_63:\n      pop\n        /* \"Week6/ex1.sol\":376:382  _shape */\n      dup1\n        /* \"Week6/ex1.sol\":367:372  shape */\n      0x02\n        /* \"Week6/ex1.sol\":367:382  shape  = _shape */\n      swap1\n      dup2\n      tag_65\n      swap2\n      swap1\n      tag_64\n      jump\t// in\n    tag_65:\n      pop\n        /* \"Week6/ex1.sol\":252:389  function setColourAndShape(string memory _colour, string memory _shape) public {... */\n      pop\n      pop\n      jump\t// out\n        /* \"Week6/ex1.sol\":483:675  function displayAll() public returns (string memory, string memory, uint32, uint32){... */\n    tag_31:\n        /* \"Week6/ex1.sol\":521:534  string memory */\n      0x60\n        /* \"Week6/ex1.sol\":536:549  string memory */\n      dup1\n        /* \"Week6/ex1.sol\":551:557  uint32 */\n      0x00\n        /* \"Week6/ex1.sol\":559:565  uint32 */\n      dup1\n        /* \"Week6/ex1.sol\":581:620  display(colour, shape, area, perimeter) */\n      0x5c50b0c58eefa375548738c7bfe7fc846e8e57587d61efae305435d5c9a746aa\n        /* \"Week6/ex1.sol\":589:595  colour */\n      0x01\n        /* \"Week6/ex1.sol\":597:602  shape */\n      0x02\n        /* \"Week6/ex1.sol\":604:608  area */\n      0x00\n      dup1\n      sload\n      swap1\n      0x0100\n      exp\n      swap1\n      div\n      0xffffffff\n      and\n        /* \"Week6/ex1.sol\":610:619  perimeter */\n      0x00\n      0x04\n      swap1\n      sload\n      swap1\n      0x0100\n      exp\n      swap1\n      div\n      0xffffffff\n      and\n        /* \"Week6/ex1.sol\":581:620  display(colour, shape, area, perimeter) */\n      mload(0x40)\n      tag_67\n      swap5\n      swap4\n      swap3\n      swap2\n      swap1\n      tag_68\n      jump\t// in\n    tag_67:\n      mload(0x40)\n      dup1\n      swap2\n      sub\n      swap1\n      log1\n        /* \"Week6/ex1.sol\":637:643  colour */\n      0x01\n        /* \"Week6/ex1.sol\":645:650  shape */\n      0x02\n        /* \"Week6/ex1.sol\":652:656  area */\n      0x00\n      dup1\n      sload\n      swap1\n      0x0100\n      exp\n      swap1\n      div\n      0xffffffff\n      and\n        /* \"Week6/ex1.sol\":658:667  perimeter */\n      0x00\n      0x04\n      swap1\n      sload\n      swap1\n      0x0100\n      exp\n      swap1\n      div\n      0xffffffff\n      and\n        /* \"Week6/ex1.sol\":630:668  return(colour, shape, area, perimeter) */\n      dup4\n      dup1\n      sload\n      tag_69\n      swap1\n      tag_52\n      jump\t// in\n    tag_69:\n      dup1\n      0x1f\n      add\n      0x20\n      dup1\n      swap2\n      div\n      mul\n      0x20\n      add\n      mload(0x40)\n      swap1\n      dup2\n      add\n      0x40\n      mstore\n      dup1\n      swap3\n      swap2\n      swap1\n      dup2\n      dup2\n      mstore\n      0x20\n      add\n      dup3\n      dup1\n      sload\n      tag_70\n      swap1\n      tag_52\n      jump\t// in\n    tag_70:\n      dup1\n      iszero\n      tag_71\n      jumpi\n      dup1\n      0x1f\n      lt\n      tag_72\n      jumpi\n      0x0100\n      dup1\n      dup4\n      sload\n      div\n      mul\n      dup4\n      mstore\n      swap2\n      0x20\n      add\n      swap2\n      jump(tag_71)\n    tag_72:\n      dup3\n      add\n      swap2\n      swap1\n      0x00\n      mstore\n      keccak256(0x00, 0x20)\n      swap1\n    tag_73:\n      dup2\n      sload\n      dup2\n      mstore\n      swap1\n      0x01\n      add\n      swap1\n      0x20\n      add\n      dup1\n      dup4\n      gt\n      tag_73\n      jumpi\n      dup3\n      swap1\n      sub\n      0x1f\n      and\n      dup3\n      add\n      swap2\n    tag_71:\n      pop\n      pop\n      pop\n      pop\n      pop\n      swap4\n      pop\n      dup3\n      dup1\n      sload\n      tag_74\n      swap1\n      tag_52\n      jump\t// in\n    tag_74:\n      dup1\n      0x1f\n      add\n      0x20\n      dup1\n      swap2\n      div\n      mul\n      0x20\n      add\n      mload(0x40)\n      swap1\n      dup2\n      add\n      0x40\n      mstore\n      dup1\n      swap3\n      swap2\n      swap1\n      dup2\n      dup2\n      mstore\n      0x20\n      add\n      dup3\n      dup1\n      sload\n      tag_75\n      swap1\n      tag_52\n      jump\t// in\n    tag_75:\n      dup1\n      iszero\n      tag_76\n      jumpi\n      dup1\n      0x1f\n      lt\n      tag_77\n      jumpi\n      0x0100\n      dup1\n      dup4\n      sload\n      div\n      mul\n      dup4\n      mstore\n      swap2\n      0x20\n      add\n      swap2\n      jump(tag_76)\n    tag_77:\n      dup3\n      add\n      swap2\n      swap1\n      0x00\n      mstore\n      keccak256(0x00, 0x20)\n      swap1\n    tag_78:\n      dup2\n      sload\n      dup2\n      mstore\n      swap1\n      0x01\n      add\n      swap1\n      0x20\n      add\n      dup1\n      dup4\n      gt\n      tag_78\n      jumpi\n      dup3\n      swap1\n      sub\n      0x1f\n      and\n      dup3\n      add\n      swap2\n    tag_76:\n      pop\n      pop\n      pop\n      pop\n      pop\n      swap3\n      pop\n      swap4\n      pop\n      swap4\n      pop\n      swap4\n      pop\n      swap4\n      pop\n        /* \"Week6/ex1.sol\":483:675  function displayAll() public returns (string memory, string memory, uint32, uint32){... */\n      swap1\n      swap2\n      swap3\n      swap4\n      jump\t// out\n        /* \"Week6/ex1.sol\":84:102  uint32 public area */\n    tag_35:\n      0x00\n      dup1\n      sload\n      swap1\n      0x0100\n      exp\n      swap1\n      div\n      0xffffffff\n      and\n      dup2\n      jump\t// out\n        /* \"Week6/ex1.sol\":739:810  function setWidth(uint32 _width) public {... */\n    tag_40:\n        /* \"Week6/ex1.sol\":797:803  _width */\n      dup1\n        /* \"Week6/ex1.sol\":789:794  width */\n      0x03\n      0x00\n        /* \"Week6/ex1.sol\":789:803  width = _width */\n      0x0100\n      exp\n      dup2\n      sload\n      dup2\n      0xffffffff\n      mul\n      not\n      and\n      swap1\n      dup4\n      0xffffffff\n      and\n      mul\n      or\n      swap1\n      sstore\n      pop\n        /* \"Week6/ex1.sol\":739:810  function setWidth(uint32 _width) public {... */\n      pop\n      jump\t// out\n        /* \"Week6/ex1.sol\":394:478  function getPerimeter() public view returns(uint32){... */\n    tag_42:\n        /* \"Week6/ex1.sol\":438:444  uint32 */\n      0x00\n        /* \"Week6/ex1.sol\":462:471  perimeter */\n      dup1\n      0x04\n      swap1\n      sload\n      swap1\n      0x0100\n      exp\n      swap1\n      div\n      0xffffffff\n      and\n        /* \"Week6/ex1.sol\":455:471  return perimeter */\n      swap1\n      pop\n        /* \"Week6/ex1.sol\":394:478  function getPerimeter() public view returns(uint32){... */\n      swap1\n      jump\t// out\n        /* \"Week6/ex1.sol\":714:733  uint32 public width */\n    tag_45:\n      0x03\n      0x00\n      swap1\n      sload\n      swap1\n      0x0100\n      exp\n      swap1\n      div\n      0xffffffff\n      and\n      dup2\n      jump\t// out\n        /* \"Week6/ex1.sol\":883:951  function setPerimeter() public{... */\n    tag_48:\n        /* \"Week6/ex1.sol\":939:944  width */\n      0x03\n      0x00\n      swap1\n      sload\n      swap1\n      0x0100\n      exp\n      swap1\n      div\n      0xffffffff\n      and\n        /* \"Week6/ex1.sol\":935:936  4 */\n      0x04\n        /* \"Week6/ex1.sol\":935:944  4 * width */\n      tag_82\n      swap2\n      swap1\n      tag_83\n      jump\t// in\n    tag_82:\n        /* \"Week6/ex1.sol\":923:932  perimeter */\n      0x00\n      0x04\n        /* \"Week6/ex1.sol\":923:944  perimeter = 4 * width */\n      0x0100\n      exp\n      dup2\n      sload\n      dup2\n      0xffffffff\n      mul\n      not\n      and\n      swap1\n      dup4\n      0xffffffff\n      and\n      mul\n      or\n      swap1\n      sstore\n      pop\n        /* \"Week6/ex1.sol\":883:951  function setPerimeter() public{... */\n      jump\t// out\n        /* \"Week6/ex1.sol\":815:878  function setArea() public {... */\n    tag_50:\n        /* \"Week6/ex1.sol\":866:871  width */\n      0x03\n      0x00\n      swap1\n      sload\n      swap1\n      0x0100\n      exp\n      swap1\n      div\n      0xffffffff\n      and\n        /* \"Week6/ex1.sol\":858:863  width */\n      0x03\n      0x00\n      swap1\n      sload\n      swap1\n      0x0100\n      exp\n      swap1\n      div\n      0xffffffff\n      and\n        /* \"Week6/ex1.sol\":858:871  width * width */\n      tag_85\n      swap2\n      swap1\n      tag_83\n      jump\t// in\n    tag_85:\n        /* \"Week6/ex1.sol\":851:855  area */\n      0x00\n      dup1\n        /* \"Week6/ex1.sol\":851:871  area = width * width */\n      0x0100\n      exp\n      dup2\n      sload\n      dup2\n      0xffffffff\n      mul\n      not\n      and\n      swap1\n      dup4\n      0xffffffff\n      and\n      mul\n      or\n      swap1\n      sstore\n      pop\n        /* \"Week6/ex1.sol\":815:878  function setArea() public {... */\n      jump\t// out\n        /* \"#utility.yul\":7:106   */\n    tag_86:\n        /* \"#utility.yul\":59:65   */\n      0x00\n        /* \"#utility.yul\":93:98   */\n      dup2\n        /* \"#utility.yul\":87:99   */\n      mload\n        /* \"#utility.yul\":77:99   */\n      swap1\n      pop\n        /* \"#utility.yul\":7:106   */\n      swap2\n      swap1\n      pop\n      jump\t// out\n        /* \"#utility.yul\":112:281   */\n    tag_87:\n        /* \"#utility.yul\":196:207   */\n      0x00\n        /* \"#utility.yul\":230:236   */\n      dup3\n        /* \"#utility.yul\":225:228   */\n      dup3\n        /* \"#utility.yul\":218:237   */\n      mstore\n        /* \"#utility.yul\":270:274   */\n      0x20\n        /* \"#utility.yul\":265:268   */\n      dup3\n        /* \"#utility.yul\":261:275   */\n      add\n        /* \"#utility.yul\":246:275   */\n      swap1\n      pop\n        /* \"#utility.yul\":112:281   */\n      swap3\n      swap2\n      pop\n      pop\n      jump\t// out\n        /* \"#utility.yul\":287:426   */\n    tag_88:\n        /* \"#utility.yul\":376:382   */\n      dup3\n        /* \"#utility.yul\":371:374   */\n      dup2\n        /* \"#utility.yul\":366:369   */\n      dup4\n        /* \"#utility.yul\":360:383   */\n      mcopy\n        /* \"#utility.yul\":417:418   */\n      0x00\n        /* \"#utility.yul\":408:414   */\n      dup4\n        /* \"#utility.yul\":403:406   */\n      dup4\n        /* \"#utility.yul\":399:415   */\n      add\n        /* \"#utility.yul\":392:419   */\n      mstore\n        /* \"#utility.yul\":287:426   */\n      pop\n      pop\n      pop\n      jump\t// out\n        /* \"#utility.yul\":432:534   */\n    tag_89:\n        /* \"#utility.yul\":473:479   */\n      0x00\n        /* \"#utility.yul\":524:526   */\n      0x1f\n        /* \"#utility.yul\":520:527   */\n      not\n        /* \"#utility.yul\":515:517   */\n      0x1f\n        /* \"#utility.yul\":508:513   */\n      dup4\n        /* \"#utility.yul\":504:518   */\n      add\n        /* \"#utility.yul\":500:528   */\n      and\n        /* \"#utility.yul\":490:528   */\n      swap1\n      pop\n        /* \"#utility.yul\":432:534   */\n      swap2\n      swap1\n      pop\n      jump\t// out\n        /* \"#utility.yul\":540:917   */\n    tag_90:\n        /* \"#utility.yul\":628:631   */\n      0x00\n        /* \"#utility.yul\":656:695   */\n      tag_132\n        /* \"#utility.yul\":689:694   */\n      dup3\n        /* \"#utility.yul\":656:695   */\n      tag_86\n      jump\t// in\n    tag_132:\n        /* \"#utility.yul\":711:782   */\n      tag_133\n        /* \"#utility.yul\":775:781   */\n      dup2\n        /* \"#utility.yul\":770:773   */\n      dup6\n        /* \"#utility.yul\":711:782   */\n      tag_87\n      jump\t// in\n    tag_133:\n        /* \"#utility.yul\":704:782   */\n      swap4\n      pop\n        /* \"#utility.yul\":791:856   */\n      tag_134\n        /* \"#utility.yul\":849:855   */\n      dup2\n        /* \"#utility.yul\":844:847   */\n      dup6\n        /* \"#utility.yul\":837:841   */\n      0x20\n        /* \"#utility.yul\":830:835   */\n      dup7\n        /* \"#utility.yul\":826:842   */\n      add\n        /* \"#utility.yul\":791:856   */\n      tag_88\n      jump\t// in\n    tag_134:\n        /* \"#utility.yul\":881:910   */\n      tag_135\n        /* \"#utility.yul\":903:909   */\n      dup2\n        /* \"#utility.yul\":881:910   */\n      tag_89\n      jump\t// in\n    tag_135:\n        /* \"#utility.yul\":876:879   */\n      dup5\n        /* \"#utility.yul\":872:911   */\n      add\n        /* \"#utility.yul\":865:911   */\n      swap2\n      pop\n        /* \"#utility.yul\":632:917   */\n      pop\n        /* \"#utility.yul\":540:917   */\n      swap3\n      swap2\n      pop\n      pop\n      jump\t// out\n        /* \"#utility.yul\":923:1236   */\n    tag_18:\n        /* \"#utility.yul\":1036:1040   */\n      0x00\n        /* \"#utility.yul\":1074:1076   */\n      0x20\n        /* \"#utility.yul\":1063:1072   */\n      dup3\n        /* \"#utility.yul\":1059:1077   */\n      add\n        /* \"#utility.yul\":1051:1077   */\n      swap1\n      pop\n        /* \"#utility.yul\":1123:1132   */\n      dup2\n        /* \"#utility.yul\":1117:1121   */\n      dup2\n        /* \"#utility.yul\":1113:1133   */\n      sub\n        /* \"#utility.yul\":1109:1110   */\n      0x00\n        /* \"#utility.yul\":1098:1107   */\n      dup4\n        /* \"#utility.yul\":1094:1111   */\n      add\n        /* \"#utility.yul\":1087:1134   */\n      mstore\n        /* \"#utility.yul\":1151:1229   */\n      tag_137\n        /* \"#utility.yul\":1224:1228   */\n      dup2\n        /* \"#utility.yul\":1215:1221   */\n      dup5\n        /* \"#utility.yul\":1151:1229   */\n      tag_90\n      jump\t// in\n    tag_137:\n        /* \"#utility.yul\":1143:1229   */\n      swap1\n      pop\n        /* \"#utility.yul\":923:1236   */\n      swap3\n      swap2\n      pop\n      pop\n      jump\t// out\n        /* \"#utility.yul\":1242:1335   */\n    tag_91:\n        /* \"#utility.yul\":1278:1285   */\n      0x00\n        /* \"#utility.yul\":1318:1328   */\n      0xffffffff\n        /* \"#utility.yul\":1311:1316   */\n      dup3\n        /* \"#utility.yul\":1307:1329   */\n      and\n        /* \"#utility.yul\":1296:1329   */\n      swap1\n      pop\n        /* \"#utility.yul\":1242:1335   */\n      swap2\n      swap1\n      pop\n      jump\t// out\n        /* \"#utility.yul\":1341:1456   */\n    tag_92:\n        /* \"#utility.yul\":1426:1449   */\n      tag_140\n        /* \"#utility.yul\":1443:1448   */\n      dup2\n        /* \"#utility.yul\":1426:1449   */\n      tag_91\n      jump\t// in\n    tag_140:\n        /* \"#utility.yul\":1421:1424   */\n      dup3\n        /* \"#utility.yul\":1414:1450   */\n      mstore\n        /* \"#utility.yul\":1341:1456   */\n      pop\n      pop\n      jump\t// out\n        /* \"#utility.yul\":1462:1680   */\n    tag_22:\n        /* \"#utility.yul\":1553:1557   */\n      0x00\n        /* \"#utility.yul\":1591:1593   */\n      0x20\n        /* \"#utility.yul\":1580:1589   */\n      dup3\n        /* \"#utility.yul\":1576:1594   */\n      add\n        /* \"#utility.yul\":1568:1594   */\n      swap1\n      pop\n        /* \"#utility.yul\":1604:1673   */\n      tag_142\n        /* \"#utility.yul\":1670:1671   */\n      0x00\n        /* \"#utility.yul\":1659:1668   */\n      dup4\n        /* \"#utility.yul\":1655:1672   */\n      add\n        /* \"#utility.yul\":1646:1652   */\n      dup5\n        /* \"#utility.yul\":1604:1673   */\n      tag_92\n      jump\t// in\n    tag_142:\n        /* \"#utility.yul\":1462:1680   */\n      swap3\n      swap2\n      pop\n      pop\n      jump\t// out\n        /* \"#utility.yul\":1686:1761   */\n    tag_93:\n        /* \"#utility.yul\":1719:1725   */\n      0x00\n        /* \"#utility.yul\":1752:1754   */\n      0x40\n        /* \"#utility.yul\":1746:1755   */\n      mload\n        /* \"#utility.yul\":1736:1755   */\n      swap1\n      pop\n        /* \"#utility.yul\":1686:1761   */\n      swap1\n      jump\t// out\n        /* \"#utility.yul\":1767:1884   */\n    tag_94:\n        /* \"#utility.yul\":1876:1877   */\n      0x00\n        /* \"#utility.yul\":1873:1874   */\n      dup1\n        /* \"#utility.yul\":1866:1878   */\n      revert\n        /* \"#utility.yul\":1890:2007   */\n    tag_95:\n        /* \"#utility.yul\":1999:2000   */\n      0x00\n        /* \"#utility.yul\":1996:1997   */\n      dup1\n        /* \"#utility.yul\":1989:2001   */\n      revert\n        /* \"#utility.yul\":2013:2130   */\n    tag_96:\n        /* \"#utility.yul\":2122:2123   */\n      0x00\n        /* \"#utility.yul\":2119:2120   */\n      dup1\n        /* \"#utility.yul\":2112:2124   */\n      revert\n        /* \"#utility.yul\":2136:2253   */\n    tag_97:\n        /* \"#utility.yul\":2245:2246   */\n      0x00\n        /* \"#utility.yul\":2242:2243   */\n      dup1\n        /* \"#utility.yul\":2235:2247   */\n      revert\n        /* \"#utility.yul\":2259:2439   */\n    tag_98:\n        /* \"#utility.yul\":2307:2384   */\n      0x4e487b7100000000000000000000000000000000000000000000000000000000\n        /* \"#utility.yul\":2304:2305   */\n      0x00\n        /* \"#utility.yul\":2297:2385   */\n      mstore\n        /* \"#utility.yul\":2404:2408   */\n      0x41\n        /* \"#utility.yul\":2401:2402   */\n      0x04\n        /* \"#utility.yul\":2394:2409   */\n      mstore\n        /* \"#utility.yul\":2428:2432   */\n      0x24\n        /* \"#utility.yul\":2425:2426   */\n      0x00\n        /* \"#utility.yul\":2418:2433   */\n      revert\n        /* \"#utility.yul\":2445:2726   */\n    tag_99:\n        /* \"#utility.yul\":2528:2555   */\n      tag_150\n        /* \"#utility.yul\":2550:2554   */\n      dup3\n        /* \"#utility.yul\":2528:2555   */\n      tag_89\n      jump\t// in\n    tag_150:\n        /* \"#utility.yul\":2520:2526   */\n      dup2\n        /* \"#utility.yul\":2516:2556   */\n      add\n        /* \"#utility.yul\":2658:2664   */\n      dup2\n        /* \"#utility.yul\":2646:2656   */\n      dup2\n        /* \"#utility.yul\":2643:2665   */\n      lt\n        /* \"#utility.yul\":2622:2640   */\n      0xffffffffffffffff\n        /* \"#utility.yul\":2610:2620   */\n      dup3\n        /* \"#utility.yul\":2607:2641   */\n      gt\n        /* \"#utility.yul\":2604:2666   */\n      or\n        /* \"#utility.yul\":2601:2689   */\n      iszero\n      tag_151\n      jumpi\n        /* \"#utility.yul\":2669:2687   */\n      tag_152\n      tag_98\n      jump\t// in\n    tag_152:\n        /* \"#utility.yul\":2601:2689   */\n    tag_151:\n        /* \"#utility.yul\":2709:2719   */\n      dup1\n        /* \"#utility.yul\":2705:2707   */\n      0x40\n        /* \"#utility.yul\":2698:2720   */\n      mstore\n        /* \"#utility.yul\":2488:2726   */\n      pop\n        /* \"#utility.yul\":2445:2726   */\n      pop\n      pop\n      jump\t// out\n        /* \"#utility.yul\":2732:2861   */\n    tag_100:\n        /* \"#utility.yul\":2766:2772   */\n      0x00\n        /* \"#utility.yul\":2793:2813   */\n      tag_154\n      tag_93\n      jump\t// in\n    tag_154:\n        /* \"#utility.yul\":2783:2813   */\n      swap1\n      pop\n        /* \"#utility.yul\":2822:2855   */\n      tag_155\n        /* \"#utility.yul\":2850:2854   */\n      dup3\n        /* \"#utility.yul\":2842:2848   */\n      dup3\n        /* \"#utility.yul\":2822:2855   */\n      tag_99\n      jump\t// in\n    tag_155:\n        /* \"#utility.yul\":2732:2861   */\n      swap2\n      swap1\n      pop\n      jump\t// out\n        /* \"#utility.yul\":2867:3175   */\n    tag_101:\n        /* \"#utility.yul\":2929:2933   */\n      0x00\n        /* \"#utility.yul\":3019:3037   */\n      0xffffffffffffffff\n        /* \"#utility.yul\":3011:3017   */\n      dup3\n        /* \"#utility.yul\":3008:3038   */\n      gt\n        /* \"#utility.yul\":3005:3061   */\n      iszero\n      tag_157\n      jumpi\n        /* \"#utility.yul\":3041:3059   */\n      tag_158\n      tag_98\n      jump\t// in\n    tag_158:\n        /* \"#utility.yul\":3005:3061   */\n    tag_157:\n        /* \"#utility.yul\":3079:3108   */\n      tag_159\n        /* \"#utility.yul\":3101:3107   */\n      dup3\n        /* \"#utility.yul\":3079:3108   */\n      tag_89\n      jump\t// in\n    tag_159:\n        /* \"#utility.yul\":3071:3108   */\n      swap1\n      pop\n        /* \"#utility.yul\":3163:3167   */\n      0x20\n        /* \"#utility.yul\":3157:3161   */\n      dup2\n        /* \"#utility.yul\":3153:3168   */\n      add\n        /* \"#utility.yul\":3145:3168   */\n      swap1\n      pop\n        /* \"#utility.yul\":2867:3175   */\n      swap2\n      swap1\n      pop\n      jump\t// out\n        /* \"#utility.yul\":3181:3329   */\n    tag_102:\n        /* \"#utility.yul\":3279:3285   */\n      dup3\n        /* \"#utility.yul\":3274:3277   */\n      dup2\n        /* \"#utility.yul\":3269:3272   */\n      dup4\n        /* \"#utility.yul\":3256:3286   */\n      calldatacopy\n        /* \"#utility.yul\":3320:3321   */\n      0x00\n        /* \"#utility.yul\":3311:3317   */\n      dup4\n        /* \"#utility.yul\":3306:3309   */\n      dup4\n        /* \"#utility.yul\":3302:3318   */\n      add\n        /* \"#utility.yul\":3295:3322   */\n      mstore\n        /* \"#utility.yul\":3181:3329   */\n      pop\n      pop\n      pop\n      jump\t// out\n        /* \"#utility.yul\":3335:3760   */\n    tag_103:\n        /* \"#utility.yul\":3413:3418   */\n      0x00\n        /* \"#utility.yul\":3438:3504   */\n      tag_162\n        /* \"#utility.yul\":3454:3503   */\n      tag_163\n        /* \"#utility.yul\":3496:3502   */\n      dup5\n        /* \"#utility.yul\":3454:3503   */\n      tag_101\n      jump\t// in\n    tag_163:\n        /* \"#utility.yul\":3438:3504   */\n      tag_100\n      jump\t// in\n    tag_162:\n        /* \"#utility.yul\":3429:3504   */\n      swap1\n      pop\n        /* \"#utility.yul\":3527:3533   */\n      dup3\n        /* \"#utility.yul\":3520:3525   */\n      dup2\n        /* \"#utility.yul\":3513:3534   */\n      mstore\n        /* \"#utility.yul\":3565:3569   */\n      0x20\n        /* \"#utility.yul\":3558:3563   */\n      dup2\n        /* \"#utility.yul\":3554:3570   */\n      add\n        /* \"#utility.yul\":3603:3606   */\n      dup5\n        /* \"#utility.yul\":3594:3600   */\n      dup5\n        /* \"#utility.yul\":3589:3592   */\n      dup5\n        /* \"#utility.yul\":3585:3601   */\n      add\n        /* \"#utility.yul\":3582:3607   */\n      gt\n        /* \"#utility.yul\":3579:3691   */\n      iszero\n      tag_164\n      jumpi\n        /* \"#utility.yul\":3610:3689   */\n      tag_165\n      tag_97\n      jump\t// in\n    tag_165:\n        /* \"#utility.yul\":3579:3691   */\n    tag_164:\n        /* \"#utility.yul\":3700:3754   */\n      tag_166\n        /* \"#utility.yul\":3747:3753   */\n      dup5\n        /* \"#utility.yul\":3742:3745   */\n      dup3\n        /* \"#utility.yul\":3737:3740   */\n      dup6\n        /* \"#utility.yul\":3700:3754   */\n      tag_102\n      jump\t// in\n    tag_166:\n        /* \"#utility.yul\":3419:3760   */\n      pop\n        /* \"#utility.yul\":3335:3760   */\n      swap4\n      swap3\n      pop\n      pop\n      pop\n      jump\t// out\n        /* \"#utility.yul\":3780:4120   */\n    tag_104:\n        /* \"#utility.yul\":3836:3841   */\n      0x00\n        /* \"#utility.yul\":3885:3888   */\n      dup3\n        /* \"#utility.yul\":3878:3882   */\n      0x1f\n        /* \"#utility.yul\":3870:3876   */\n      dup4\n        /* \"#utility.yul\":3866:3883   */\n      add\n        /* \"#utility.yul\":3862:3889   */\n      slt\n        /* \"#utility.yul\":3852:3974   */\n      tag_168\n      jumpi\n        /* \"#utility.yul\":3893:3972   */\n      tag_169\n      tag_96\n      jump\t// in\n    tag_169:\n        /* \"#utility.yul\":3852:3974   */\n    tag_168:\n        /* \"#utility.yul\":4010:4016   */\n      dup2\n        /* \"#utility.yul\":3997:4017   */\n      calldataload\n        /* \"#utility.yul\":4035:4114   */\n      tag_170\n        /* \"#utility.yul\":4110:4113   */\n      dup5\n        /* \"#utility.yul\":4102:4108   */\n      dup3\n        /* \"#utility.yul\":4095:4099   */\n      0x20\n        /* \"#utility.yul\":4087:4093   */\n      dup7\n        /* \"#utility.yul\":4083:4100   */\n      add\n        /* \"#utility.yul\":4035:4114   */\n      tag_103\n      jump\t// in\n    tag_170:\n        /* \"#utility.yul\":4026:4114   */\n      swap2\n      pop\n        /* \"#utility.yul\":3842:4120   */\n      pop\n        /* \"#utility.yul\":3780:4120   */\n      swap3\n      swap2\n      pop\n      pop\n      jump\t// out\n        /* \"#utility.yul\":4126:4960   */\n    tag_28:\n        /* \"#utility.yul\":4214:4220   */\n      0x00\n        /* \"#utility.yul\":4222:4228   */\n      dup1\n        /* \"#utility.yul\":4271:4273   */\n      0x40\n        /* \"#utility.yul\":4259:4268   */\n      dup4\n        /* \"#utility.yul\":4250:4257   */\n      dup6\n        /* \"#utility.yul\":4246:4269   */\n      sub\n        /* \"#utility.yul\":4242:4274   */\n      slt\n        /* \"#utility.yul\":4239:4358   */\n      iszero\n      tag_172\n      jumpi\n        /* \"#utility.yul\":4277:4356   */\n      tag_173\n      tag_94\n      jump\t// in\n    tag_173:\n        /* \"#utility.yul\":4239:4358   */\n    tag_172:\n        /* \"#utility.yul\":4425:4426   */\n      0x00\n        /* \"#utility.yul\":4414:4423   */\n      dup4\n        /* \"#utility.yul\":4410:4427   */\n      add\n        /* \"#utility.yul\":4397:4428   */\n      calldataload\n        /* \"#utility.yul\":4455:4473   */\n      0xffffffffffffffff\n        /* \"#utility.yul\":4447:4453   */\n      dup2\n        /* \"#utility.yul\":4444:4474   */\n      gt\n        /* \"#utility.yul\":4441:4558   */\n      iszero\n      tag_174\n      jumpi\n        /* \"#utility.yul\":4477:4556   */\n      tag_175\n      tag_95\n      jump\t// in\n    tag_175:\n        /* \"#utility.yul\":4441:4558   */\n    tag_174:\n        /* \"#utility.yul\":4582:4645   */\n      tag_176\n        /* \"#utility.yul\":4637:4644   */\n      dup6\n        /* \"#utility.yul\":4628:4634   */\n      dup3\n        /* \"#utility.yul\":4617:4626   */\n      dup7\n        /* \"#utility.yul\":4613:4635   */\n      add\n        /* \"#utility.yul\":4582:4645   */\n      tag_104\n      jump\t// in\n    tag_176:\n        /* \"#utility.yul\":4572:4645   */\n      swap3\n      pop\n        /* \"#utility.yul\":4368:4655   */\n      pop\n        /* \"#utility.yul\":4722:4724   */\n      0x20\n        /* \"#utility.yul\":4711:4720   */\n      dup4\n        /* \"#utility.yul\":4707:4725   */\n      add\n        /* \"#utility.yul\":4694:4726   */\n      calldataload\n        /* \"#utility.yul\":4753:4771   */\n      0xffffffffffffffff\n        /* \"#utility.yul\":4745:4751   */\n      dup2\n        /* \"#utility.yul\":4742:4772   */\n      gt\n        /* \"#utility.yul\":4739:4856   */\n      iszero\n      tag_177\n      jumpi\n        /* \"#utility.yul\":4775:4854   */\n      tag_178\n      tag_95\n      jump\t// in\n    tag_178:\n        /* \"#utility.yul\":4739:4856   */\n    tag_177:\n        /* \"#utility.yul\":4880:4943   */\n      tag_179\n        /* \"#utility.yul\":4935:4942   */\n      dup6\n        /* \"#utility.yul\":4926:4932   */\n      dup3\n        /* \"#utility.yul\":4915:4924   */\n      dup7\n        /* \"#utility.yul\":4911:4933   */\n      add\n        /* \"#utility.yul\":4880:4943   */\n      tag_104\n      jump\t// in\n    tag_179:\n        /* \"#utility.yul\":4870:4943   */\n      swap2\n      pop\n        /* \"#utility.yul\":4665:4953   */\n      pop\n        /* \"#utility.yul\":4126:4960   */\n      swap3\n      pop\n      swap3\n      swap1\n      pop\n      jump\t// out\n        /* \"#utility.yul\":4966:5693   */\n    tag_33:\n        /* \"#utility.yul\":5179:5183   */\n      0x00\n        /* \"#utility.yul\":5217:5220   */\n      0x80\n        /* \"#utility.yul\":5206:5215   */\n      dup3\n        /* \"#utility.yul\":5202:5221   */\n      add\n        /* \"#utility.yul\":5194:5221   */\n      swap1\n      pop\n        /* \"#utility.yul\":5267:5276   */\n      dup2\n        /* \"#utility.yul\":5261:5265   */\n      dup2\n        /* \"#utility.yul\":5257:5277   */\n      sub\n        /* \"#utility.yul\":5253:5254   */\n      0x00\n        /* \"#utility.yul\":5242:5251   */\n      dup4\n        /* \"#utility.yul\":5238:5255   */\n      add\n        /* \"#utility.yul\":5231:5278   */\n      mstore\n        /* \"#utility.yul\":5295:5373   */\n      tag_181\n        /* \"#utility.yul\":5368:5372   */\n      dup2\n        /* \"#utility.yul\":5359:5365   */\n      dup8\n        /* \"#utility.yul\":5295:5373   */\n      tag_90\n      jump\t// in\n    tag_181:\n        /* \"#utility.yul\":5287:5373   */\n      swap1\n      pop\n        /* \"#utility.yul\":5420:5429   */\n      dup2\n        /* \"#utility.yul\":5414:5418   */\n      dup2\n        /* \"#utility.yul\":5410:5430   */\n      sub\n        /* \"#utility.yul\":5405:5407   */\n      0x20\n        /* \"#utility.yul\":5394:5403   */\n      dup4\n        /* \"#utility.yul\":5390:5408   */\n      add\n        /* \"#utility.yul\":5383:5431   */\n      mstore\n        /* \"#utility.yul\":5448:5526   */\n      tag_182\n        /* \"#utility.yul\":5521:5525   */\n      dup2\n        /* \"#utility.yul\":5512:5518   */\n      dup7\n        /* \"#utility.yul\":5448:5526   */\n      tag_90\n      jump\t// in\n    tag_182:\n        /* \"#utility.yul\":5440:5526   */\n      swap1\n      pop\n        /* \"#utility.yul\":5536:5606   */\n      tag_183\n        /* \"#utility.yul\":5602:5604   */\n      0x40\n        /* \"#utility.yul\":5591:5600   */\n      dup4\n        /* \"#utility.yul\":5587:5605   */\n      add\n        /* \"#utility.yul\":5578:5584   */\n      dup6\n        /* \"#utility.yul\":5536:5606   */\n      tag_92\n      jump\t// in\n    tag_183:\n        /* \"#utility.yul\":5616:5686   */\n      tag_184\n        /* \"#utility.yul\":5682:5684   */\n      0x60\n        /* \"#utility.yul\":5671:5680   */\n      dup4\n        /* \"#utility.yul\":5667:5685   */\n      add\n        /* \"#utility.yul\":5658:5664   */\n      dup5\n        /* \"#utility.yul\":5616:5686   */\n      tag_92\n      jump\t// in\n    tag_184:\n        /* \"#utility.yul\":4966:5693   */\n      swap6\n      swap5\n      pop\n      pop\n      pop\n      pop\n      pop\n      jump\t// out\n        /* \"#utility.yul\":5699:5819   */\n    tag_105:\n        /* \"#utility.yul\":5771:5794   */\n      tag_186\n        /* \"#utility.yul\":5788:5793   */\n      dup2\n        /* \"#utility.yul\":5771:5794   */\n      tag_91\n      jump\t// in\n    tag_186:\n        /* \"#utility.yul\":5764:5769   */\n      dup2\n        /* \"#utility.yul\":5761:5795   */\n      eq\n        /* \"#utility.yul\":5751:5813   */\n      tag_187\n      jumpi\n        /* \"#utility.yul\":5809:5810   */\n      0x00\n        /* \"#utility.yul\":5806:5807   */\n      dup1\n        /* \"#utility.yul\":5799:5811   */\n      revert\n        /* \"#utility.yul\":5751:5813   */\n    tag_187:\n        /* \"#utility.yul\":5699:5819   */\n      pop\n      jump\t// out\n        /* \"#utility.yul\":5825:5962   */\n    tag_106:\n        /* \"#utility.yul\":5870:5875   */\n      0x00\n        /* \"#utility.yul\":5908:5914   */\n      dup2\n        /* \"#utility.yul\":5895:5915   */\n      calldataload\n        /* \"#utility.yul\":5886:5915   */\n      swap1\n      pop\n        /* \"#utility.yul\":5924:5956   */\n      tag_189\n        /* \"#utility.yul\":5950:5955   */\n      dup2\n        /* \"#utility.yul\":5924:5956   */\n      tag_105\n      jump\t// in\n    tag_189:\n        /* \"#utility.yul\":5825:5962   */\n      swap3\n      swap2\n      pop\n      pop\n      jump\t// out\n        /* \"#utility.yul\":5968:6295   */\n    tag_39:\n        /* \"#utility.yul\":6026:6032   */\n      0x00\n        /* \"#utility.yul\":6075:6077   */\n      0x20\n        /* \"#utility.yul\":6063:6072   */\n      dup3\n        /* \"#utility.yul\":6054:6061   */\n      dup5\n        /* \"#utility.yul\":6050:6073   */\n      sub\n        /* \"#utility.yul\":6046:6078   */\n      slt\n        /* \"#utility.yul\":6043:6162   */\n      iszero\n      tag_191\n      jumpi\n        /* \"#utility.yul\":6081:6160   */\n      tag_192\n      tag_94\n      jump\t// in\n    tag_192:\n        /* \"#utility.yul\":6043:6162   */\n    tag_191:\n        /* \"#utility.yul\":6201:6202   */\n      0x00\n        /* \"#utility.yul\":6226:6278   */\n      tag_193\n        /* \"#utility.yul\":6270:6277   */\n      dup5\n        /* \"#utility.yul\":6261:6267   */\n      dup3\n        /* \"#utility.yul\":6250:6259   */\n      dup6\n        /* \"#utility.yul\":6246:6268   */\n      add\n        /* \"#utility.yul\":6226:6278   */\n      tag_106\n      jump\t// in\n    tag_193:\n        /* \"#utility.yul\":6216:6278   */\n      swap2\n      pop\n        /* \"#utility.yul\":6172:6288   */\n      pop\n        /* \"#utility.yul\":5968:6295   */\n      swap3\n      swap2\n      pop\n      pop\n      jump\t// out\n        /* \"#utility.yul\":6301:6481   */\n    tag_107:\n        /* \"#utility.yul\":6349:6426   */\n      0x4e487b7100000000000000000000000000000000000000000000000000000000\n        /* \"#utility.yul\":6346:6347   */\n      0x00\n        /* \"#utility.yul\":6339:6427   */\n      mstore\n        /* \"#utility.yul\":6446:6450   */\n      0x22\n        /* \"#utility.yul\":6443:6444   */\n      0x04\n        /* \"#utility.yul\":6436:6451   */\n      mstore\n        /* \"#utility.yul\":6470:6474   */\n      0x24\n        /* \"#utility.yul\":6467:6468   */\n      0x00\n        /* \"#utility.yul\":6460:6475   */\n      revert\n        /* \"#utility.yul\":6487:6807   */\n    tag_52:\n        /* \"#utility.yul\":6531:6537   */\n      0x00\n        /* \"#utility.yul\":6568:6569   */\n      0x02\n        /* \"#utility.yul\":6562:6566   */\n      dup3\n        /* \"#utility.yul\":6558:6570   */\n      div\n        /* \"#utility.yul\":6548:6570   */\n      swap1\n      pop\n        /* \"#utility.yul\":6615:6616   */\n      0x01\n        /* \"#utility.yul\":6609:6613   */\n      dup3\n        /* \"#utility.yul\":6605:6617   */\n      and\n        /* \"#utility.yul\":6636:6654   */\n      dup1\n        /* \"#utility.yul\":6626:6707   */\n      tag_196\n      jumpi\n        /* \"#utility.yul\":6692:6696   */\n      0x7f\n        /* \"#utility.yul\":6684:6690   */\n      dup3\n        /* \"#utility.yul\":6680:6697   */\n      and\n        /* \"#utility.yul\":6670:6697   */\n      swap2\n      pop\n        /* \"#utility.yul\":6626:6707   */\n    tag_196:\n        /* \"#utility.yul\":6754:6756   */\n      0x20\n        /* \"#utility.yul\":6746:6752   */\n      dup3\n        /* \"#utility.yul\":6743:6757   */\n      lt\n        /* \"#utility.yul\":6723:6741   */\n      dup2\n        /* \"#utility.yul\":6720:6758   */\n      sub\n        /* \"#utility.yul\":6717:6801   */\n      tag_197\n      jumpi\n        /* \"#utility.yul\":6773:6791   */\n      tag_198\n      tag_107\n      jump\t// in\n    tag_198:\n        /* \"#utility.yul\":6717:6801   */\n    tag_197:\n        /* \"#utility.yul\":6538:6807   */\n      pop\n        /* \"#utility.yul\":6487:6807   */\n      swap2\n      swap1\n      pop\n      jump\t// out\n        /* \"#utility.yul\":6813:6954   */\n    tag_108:\n        /* \"#utility.yul\":6862:6866   */\n      0x00\n        /* \"#utility.yul\":6885:6888   */\n      dup2\n        /* \"#utility.yul\":6877:6888   */\n      swap1\n      pop\n        /* \"#utility.yul\":6908:6911   */\n      dup2\n        /* \"#utility.yul\":6905:6906   */\n      0x00\n        /* \"#utility.yul\":6898:6912   */\n      mstore\n        /* \"#utility.yul\":6942:6946   */\n      0x20\n        /* \"#utility.yul\":6939:6940   */\n      0x00\n        /* \"#utility.yul\":6929:6947   */\n      keccak256\n        /* \"#utility.yul\":6921:6947   */\n      swap1\n      pop\n        /* \"#utility.yul\":6813:6954   */\n      swap2\n      swap1\n      pop\n      jump\t// out\n        /* \"#utility.yul\":6960:7053   */\n    tag_109:\n        /* \"#utility.yul\":6997:7003   */\n      0x00\n        /* \"#utility.yul\":7044:7046   */\n      0x20\n        /* \"#utility.yul\":7039:7041   */\n      0x1f\n        /* \"#utility.yul\":7032:7037   */\n      dup4\n        /* \"#utility.yul\":7028:7042   */\n      add\n        /* \"#utility.yul\":7024:7047   */\n      div\n        /* \"#utility.yul\":7014:7047   */\n      swap1\n      pop\n        /* \"#utility.yul\":6960:7053   */\n      swap2\n      swap1\n      pop\n      jump\t// out\n        /* \"#utility.yul\":7059:7166   */\n    tag_110:\n        /* \"#utility.yul\":7103:7111   */\n      0x00\n        /* \"#utility.yul\":7153:7158   */\n      dup3\n        /* \"#utility.yul\":7147:7151   */\n      dup3\n        /* \"#utility.yul\":7143:7159   */\n      shl\n        /* \"#utility.yul\":7122:7159   */\n      swap1\n      pop\n        /* \"#utility.yul\":7059:7166   */\n      swap3\n      swap2\n      pop\n      pop\n      jump\t// out\n        /* \"#utility.yul\":7172:7565   */\n    tag_111:\n        /* \"#utility.yul\":7241:7247   */\n      0x00\n        /* \"#utility.yul\":7291:7292   */\n      0x08\n        /* \"#utility.yul\":7279:7289   */\n      dup4\n        /* \"#utility.yul\":7275:7293   */\n      mul\n        /* \"#utility.yul\":7314:7411   */\n      tag_203\n        /* \"#utility.yul\":7344:7410   */\n      0xffffffffffffffffffffffffffffffffffffffffffffffffffffffffffffffff\n        /* \"#utility.yul\":7333:7342   */\n      dup3\n        /* \"#utility.yul\":7314:7411   */\n      tag_110\n      jump\t// in\n    tag_203:\n        /* \"#utility.yul\":7432:7471   */\n      tag_204\n        /* \"#utility.yul\":7462:7470   */\n      dup7\n        /* \"#utility.yul\":7451:7460   */\n      dup4\n        /* \"#utility.yul\":7432:7471   */\n      tag_110\n      jump\t// in\n    tag_204:\n        /* \"#utility.yul\":7420:7471   */\n      swap6\n      pop\n        /* \"#utility.yul\":7504:7508   */\n      dup1\n        /* \"#utility.yul\":7500:7509   */\n      not\n        /* \"#utility.yul\":7493:7498   */\n      dup5\n        /* \"#utility.yul\":7489:7510   */\n      and\n        /* \"#utility.yul\":7480:7510   */\n      swap4\n      pop\n        /* \"#utility.yul\":7553:7557   */\n      dup1\n        /* \"#utility.yul\":7543:7551   */\n      dup7\n        /* \"#utility.yul\":7539:7558   */\n      and\n        /* \"#utility.yul\":7532:7537   */\n      dup5\n        /* \"#utility.yul\":7529:7559   */\n      or\n        /* \"#utility.yul\":7519:7559   */\n      swap3\n      pop\n        /* \"#utility.yul\":7248:7565   */\n      pop\n      pop\n        /* \"#utility.yul\":7172:7565   */\n      swap4\n      swap3\n      pop\n      pop\n      pop\n      jump\t// out\n        /* \"#utility.yul\":7571:7648   */\n    tag_112:\n        /* \"#utility.yul\":7608:7615   */\n      0x00\n        /* \"#utility.yul\":7637:7642   */\n      dup2\n        /* \"#utility.yul\":7626:7642   */\n      swap1\n      pop\n        /* \"#utility.yul\":7571:7648   */\n      swap2\n      swap1\n      pop\n      jump\t// out\n        /* \"#utility.yul\":7654:7714   */\n    tag_113:\n        /* \"#utility.yul\":7682:7685   */\n      0x00\n        /* \"#utility.yul\":7703:7708   */\n      dup2\n        /* \"#utility.yul\":7696:7708   */\n      swap1\n      pop\n        /* \"#utility.yul\":7654:7714   */\n      swap2\n      swap1\n      pop\n      jump\t// out\n        /* \"#utility.yul\":7720:7862   */\n    tag_114:\n        /* \"#utility.yul\":7770:7779   */\n      0x00\n        /* \"#utility.yul\":7803:7856   */\n      tag_208\n        /* \"#utility.yul\":7821:7855   */\n      tag_209\n        /* \"#utility.yul\":7830:7854   */\n      tag_210\n        /* \"#utility.yul\":7848:7853   */\n      dup5\n        /* \"#utility.yul\":7830:7854   */\n      tag_112\n      jump\t// in\n    tag_210:\n        /* \"#utility.yul\":7821:7855   */\n      tag_113\n      jump\t// in\n    tag_209:\n        /* \"#utility.yul\":7803:7856   */\n      tag_112\n      jump\t// in\n    tag_208:\n        /* \"#utility.yul\":7790:7856   */\n      swap1\n      pop\n        /* \"#utility.yul\":7720:7862   */\n      swap2\n      swap1\n      pop\n      jump\t// out\n        /* \"#utility.yul\":7868:7943   */\n    tag_115:\n        /* \"#utility.yul\":7911:7914   */\n      0x00\n        /* \"#utility.yul\":7932:7937   */\n      dup2\n        /* \"#utility.yul\":7925:7937   */\n      swap1\n      pop\n        /* \"#utility.yul\":7868:7943   */\n      swap2\n      swap1\n      pop\n      jump\t// out\n        /* \"#utility.yul\":7949:8218   */\n    tag_116:\n        /* \"#utility.yul\":8059:8098   */\n      tag_213\n        /* \"#utility.yul\":8090:8097   */\n      dup4\n        /* \"#utility.yul\":8059:8098   */\n      tag_114\n      jump\t// in\n    tag_213:\n        /* \"#utility.yul\":8120:8211   */\n      tag_214\n        /* \"#utility.yul\":8169:8210   */\n      tag_215\n        /* \"#utility.yul\":8193:8209   */\n      dup3\n        /* \"#utility.yul\":8169:8210   */\n      tag_115\n      jump\t// in\n    tag_215:\n        /* \"#utility.yul\":8161:8167   */\n      dup5\n        /* \"#utility.yul\":8154:8158   */\n      dup5\n        /* \"#utility.yul\":8148:8159   */\n      sload\n        /* \"#utility.yul\":8120:8211   */\n      tag_111\n      jump\t// in\n    tag_214:\n        /* \"#utility.yul\":8114:8118   */\n      dup3\n        /* \"#utility.yul\":8107:8212   */\n      sstore\n        /* \"#utility.yul\":8025:8218   */\n      pop\n        /* \"#utility.yul\":7949:8218   */\n      pop\n      pop\n      pop\n      jump\t// out\n        /* \"#utility.yul\":8224:8297   */\n    tag_117:\n        /* \"#utility.yul\":8269:8272   */\n      0x00\n        /* \"#utility.yul\":8224:8297   */\n      swap1\n      jump\t// out\n        /* \"#utility.yul\":8303:8492   */\n    tag_118:\n        /* \"#utility.yul\":8380:8412   */\n      tag_218\n      tag_117\n      jump\t// in\n    tag_218:\n        /* \"#utility.yul\":8421:8486   */\n      tag_219\n        /* \"#utility.yul\":8479:8485   */\n      dup2\n        /* \"#utility.yul\":8471:8477   */\n      dup5\n        /* \"#utility.yul\":8465:8469   */\n      dup5\n        /* \"#utility.yul\":8421:8486   */\n      tag_116\n      jump\t// in\n    tag_219:\n        /* \"#utility.yul\":8356:8492   */\n      pop\n        /* \"#utility.yul\":8303:8492   */\n      pop\n      pop\n      jump\t// out\n        /* \"#utility.yul\":8498:8684   */\n    tag_119:\n        /* \"#utility.yul\":8558:8678   */\n    tag_221:\n        /* \"#utility.yul\":8575:8578   */\n      dup2\n        /* \"#utility.yul\":8568:8573   */\n      dup2\n        /* \"#utility.yul\":8565:8579   */\n      lt\n        /* \"#utility.yul\":8558:8678   */\n      iszero\n      tag_223\n      jumpi\n        /* \"#utility.yul\":8629:8668   */\n      tag_224\n        /* \"#utility.yul\":8666:8667   */\n      0x00\n        /* \"#utility.yul\":8659:8664   */\n      dup3\n        /* \"#utility.yul\":8629:8668   */\n      tag_118\n      jump\t// in\n    tag_224:\n        /* \"#utility.yul\":8602:8603   */\n      0x01\n        /* \"#utility.yul\":8595:8600   */\n      dup2\n        /* \"#utility.yul\":8591:8604   */\n      add\n        /* \"#utility.yul\":8582:8604   */\n      swap1\n      pop\n        /* \"#utility.yul\":8558:8678   */\n      jump(tag_221)\n    tag_223:\n        /* \"#utility.yul\":8498:8684   */\n      pop\n      pop\n      jump\t// out\n        /* \"#utility.yul\":8690:9233   */\n    tag_120:\n        /* \"#utility.yul\":8791:8793   */\n      0x1f\n        /* \"#utility.yul\":8786:8789   */\n      dup3\n        /* \"#utility.yul\":8783:8794   */\n      gt\n        /* \"#utility.yul\":8780:9226   */\n      iszero\n      tag_226\n      jumpi\n        /* \"#utility.yul\":8825:8863   */\n      tag_227\n        /* \"#utility.yul\":8857:8862   */\n      dup2\n        /* \"#utility.yul\":8825:8863   */\n      tag_108\n      jump\t// in\n    tag_227:\n        /* \"#utility.yul\":8909:8938   */\n      tag_228\n        /* \"#utility.yul\":8927:8937   */\n      dup5\n        /* \"#utility.yul\":8909:8938   */\n      tag_109\n      jump\t// in\n    tag_228:\n        /* \"#utility.yul\":8899:8907   */\n      dup2\n        /* \"#utility.yul\":8895:8939   */\n      add\n        /* \"#utility.yul\":9092:9094   */\n      0x20\n        /* \"#utility.yul\":9080:9090   */\n      dup6\n        /* \"#utility.yul\":9077:9095   */\n      lt\n        /* \"#utility.yul\":9074:9123   */\n      iszero\n      tag_229\n      jumpi\n        /* \"#utility.yul\":9113:9121   */\n      dup2\n        /* \"#utility.yul\":9098:9121   */\n      swap1\n      pop\n        /* \"#utility.yul\":9074:9123   */\n    tag_229:\n        /* \"#utility.yul\":9136:9216   */\n      tag_230\n        /* \"#utility.yul\":9192:9214   */\n      tag_231\n        /* \"#utility.yul\":9210:9213   */\n      dup6\n        /* \"#utility.yul\":9192:9214   */\n      tag_109\n      jump\t// in\n    tag_231:\n        /* \"#utility.yul\":9182:9190   */\n      dup4\n        /* \"#utility.yul\":9178:9215   */\n      add\n        /* \"#utility.yul\":9165:9176   */\n      dup3\n        /* \"#utility.yul\":9136:9216   */\n      tag_119\n      jump\t// in\n    tag_230:\n        /* \"#utility.yul\":8795:9226   */\n      pop\n      pop\n        /* \"#utility.yul\":8780:9226   */\n    tag_226:\n        /* \"#utility.yul\":8690:9233   */\n      pop\n      pop\n      pop\n      jump\t// out\n        /* \"#utility.yul\":9239:9356   */\n    tag_121:\n        /* \"#utility.yul\":9293:9301   */\n      0x00\n        /* \"#utility.yul\":9343:9348   */\n      dup3\n        /* \"#utility.yul\":9337:9341   */\n      dup3\n        /* \"#utility.yul\":9333:9349   */\n      shr\n        /* \"#utility.yul\":9312:9349   */\n      swap1\n      pop\n        /* \"#utility.yul\":9239:9356   */\n      swap3\n      swap2\n      pop\n      pop\n      jump\t// out\n        /* \"#utility.yul\":9362:9531   */\n    tag_122:\n        /* \"#utility.yul\":9406:9412   */\n      0x00\n        /* \"#utility.yul\":9439:9490   */\n      tag_234\n        /* \"#utility.yul\":9487:9488   */\n      0x00\n        /* \"#utility.yul\":9483:9489   */\n      not\n        /* \"#utility.yul\":9475:9480   */\n      dup5\n        /* \"#utility.yul\":9472:9473   */\n      0x08\n        /* \"#utility.yul\":9468:9481   */\n      mul\n        /* \"#utility.yul\":9439:9490   */\n      tag_121\n      jump\t// in\n    tag_234:\n        /* \"#utility.yul\":9435:9491   */\n      not\n        /* \"#utility.yul\":9520:9524   */\n      dup1\n        /* \"#utility.yul\":9514:9518   */\n      dup4\n        /* \"#utility.yul\":9510:9525   */\n      and\n        /* \"#utility.yul\":9500:9525   */\n      swap2\n      pop\n        /* \"#utility.yul\":9413:9531   */\n      pop\n        /* \"#utility.yul\":9362:9531   */\n      swap3\n      swap2\n      pop\n      pop\n      jump\t// out\n        /* \"#utility.yul\":9536:9831   */\n    tag_123:\n        /* \"#utility.yul\":9612:9616   */\n      0x00\n        /* \"#utility.yul\":9758:9787   */\n      tag_236\n        /* \"#utility.yul\":9783:9786   */\n      dup4\n        /* \"#utility.yul\":9777:9781   */\n      dup4\n        /* \"#utility.yul\":9758:9787   */\n      tag_122\n      jump\t// in\n    tag_236:\n        /* \"#utility.yul\":9750:9787   */\n      swap2\n      pop\n        /* \"#utility.yul\":9820:9823   */\n      dup3\n        /* \"#utility.yul\":9817:9818   */\n      0x02\n        /* \"#utility.yul\":9813:9824   */\n      mul\n        /* \"#utility.yul\":9807:9811   */\n      dup3\n        /* \"#utility.yul\":9804:9825   */\n      or\n        /* \"#utility.yul\":9796:9825   */\n      swap1\n      pop\n        /* \"#utility.yul\":9536:9831   */\n      swap3\n      swap2\n      pop\n      pop\n      jump\t// out\n        /* \"#utility.yul\":9836:11231   */\n    tag_64:\n        /* \"#utility.yul\":9953:9990   */\n      tag_238\n        /* \"#utility.yul\":9986:9989   */\n      dup3\n        /* \"#utility.yul\":9953:9990   */\n      tag_86\n      jump\t// in\n    tag_238:\n        /* \"#utility.yul\":10055:10073   */\n      0xffffffffffffffff\n        /* \"#utility.yul\":10047:10053   */\n      dup2\n        /* \"#utility.yul\":10044:10074   */\n      gt\n        /* \"#utility.yul\":10041:10097   */\n      iszero\n      tag_239\n      jumpi\n        /* \"#utility.yul\":10077:10095   */\n      tag_240\n      tag_98\n      jump\t// in\n    tag_240:\n        /* \"#utility.yul\":10041:10097   */\n    tag_239:\n        /* \"#utility.yul\":10121:10159   */\n      tag_241\n        /* \"#utility.yul\":10153:10157   */\n      dup3\n        /* \"#utility.yul\":10147:10158   */\n      sload\n        /* \"#utility.yul\":10121:10159   */\n      tag_52\n      jump\t// in\n    tag_241:\n        /* \"#utility.yul\":10206:10273   */\n      tag_242\n        /* \"#utility.yul\":10266:10272   */\n      dup3\n        /* \"#utility.yul\":10258:10264   */\n      dup3\n        /* \"#utility.yul\":10252:10256   */\n      dup6\n        /* \"#utility.yul\":10206:10273   */\n      tag_120\n      jump\t// in\n    tag_242:\n        /* \"#utility.yul\":10300:10301   */\n      0x00\n        /* \"#utility.yul\":10324:10328   */\n      0x20\n        /* \"#utility.yul\":10311:10328   */\n      swap1\n      pop\n        /* \"#utility.yul\":10356:10358   */\n      0x1f\n        /* \"#utility.yul\":10348:10354   */\n      dup4\n        /* \"#utility.yul\":10345:10359   */\n      gt\n        /* \"#utility.yul\":10373:10374   */\n      0x01\n        /* \"#utility.yul\":10368:10986   */\n      dup2\n      eq\n      tag_244\n      jumpi\n        /* \"#utility.yul\":11030:11031   */\n      0x00\n        /* \"#utility.yul\":11047:11053   */\n      dup5\n        /* \"#utility.yul\":11044:11121   */\n      iszero\n      tag_245\n      jumpi\n        /* \"#utility.yul\":11096:11105   */\n      dup3\n        /* \"#utility.yul\":11091:11094   */\n      dup8\n        /* \"#utility.yul\":11087:11106   */\n      add\n        /* \"#utility.yul\":11081:11107   */\n      mload\n        /* \"#utility.yul\":11072:11107   */\n      swap1\n      pop\n        /* \"#utility.yul\":11044:11121   */\n    tag_245:\n        /* \"#utility.yul\":11147:11214   */\n      tag_246\n        /* \"#utility.yul\":11207:11213   */\n      dup6\n        /* \"#utility.yul\":11200:11205   */\n      dup3\n        /* \"#utility.yul\":11147:11214   */\n      tag_123\n      jump\t// in\n    tag_246:\n        /* \"#utility.yul\":11141:11145   */\n      dup7\n        /* \"#utility.yul\":11134:11215   */\n      sstore\n        /* \"#utility.yul\":11003:11225   */\n      pop\n        /* \"#utility.yul\":10338:11225   */\n      jump(tag_243)\n        /* \"#utility.yul\":10368:10986   */\n    tag_244:\n        /* \"#utility.yul\":10420:10424   */\n      0x1f\n        /* \"#utility.yul\":10416:10425   */\n      not\n        /* \"#utility.yul\":10408:10414   */\n      dup5\n        /* \"#utility.yul\":10404:10426   */\n      and\n        /* \"#utility.yul\":10454:10491   */\n      tag_247\n        /* \"#utility.yul\":10486:10490   */\n      dup7\n        /* \"#utility.yul\":10454:10491   */\n      tag_108\n      jump\t// in\n    tag_247:\n        /* \"#utility.yul\":10513:10514   */\n      0x00\n        /* \"#utility.yul\":10527:10735   */\n    tag_248:\n        /* \"#utility.yul\":10541:10548   */\n      dup3\n        /* \"#utility.yul\":10538:10539   */\n      dup2\n        /* \"#utility.yul\":10535:10549   */\n      lt\n        /* \"#utility.yul\":10527:10735   */\n      iszero\n      tag_250\n      jumpi\n        /* \"#utility.yul\":10620:10629   */\n      dup5\n        /* \"#utility.yul\":10615:10618   */\n      dup10\n        /* \"#utility.yul\":10611:10630   */\n      add\n        /* \"#utility.yul\":10605:10631   */\n      mload\n        /* \"#utility.yul\":10597:10603   */\n      dup3\n        /* \"#utility.yul\":10590:10632   */\n      sstore\n        /* \"#utility.yul\":10671:10672   */\n      0x01\n        /* \"#utility.yul\":10663:10669   */\n      dup3\n        /* \"#utility.yul\":10659:10673   */\n      add\n        /* \"#utility.yul\":10649:10673   */\n      swap2\n      pop\n        /* \"#utility.yul\":10718:10720   */\n      0x20\n        /* \"#utility.yul\":10707:10716   */\n      dup6\n        /* \"#utility.yul\":10703:10721   */\n      add\n        /* \"#utility.yul\":10690:10721   */\n      swap5\n      pop\n        /* \"#utility.yul\":10564:10568   */\n      0x20\n        /* \"#utility.yul\":10561:10562   */\n      dup2\n        /* \"#utility.yul\":10557:10569   */\n      add\n        /* \"#utility.yul\":10552:10569   */\n      swap1\n      pop\n        /* \"#utility.yul\":10527:10735   */\n      jump(tag_248)\n    tag_250:\n        /* \"#utility.yul\":10763:10769   */\n      dup7\n        /* \"#utility.yul\":10754:10761   */\n      dup4\n        /* \"#utility.yul\":10751:10770   */\n      lt\n        /* \"#utility.yul\":10748:10927   */\n      iszero\n      tag_251\n      jumpi\n        /* \"#utility.yul\":10821:10830   */\n      dup5\n        /* \"#utility.yul\":10816:10819   */\n      dup10\n        /* \"#utility.yul\":10812:10831   */\n      add\n        /* \"#utility.yul\":10806:10832   */\n      mload\n        /* \"#utility.yul\":10864:10912   */\n      tag_252\n        /* \"#utility.yul\":10906:10910   */\n      0x1f\n        /* \"#utility.yul\":10898:10904   */\n      dup10\n        /* \"#utility.yul\":10894:10911   */\n      and\n        /* \"#utility.yul\":10883:10892   */\n      dup3\n        /* \"#utility.yul\":10864:10912   */\n      tag_122\n      jump\t// in\n    tag_252:\n        /* \"#utility.yul\":10856:10862   */\n      dup4\n        /* \"#utility.yul\":10849:10913   */\n      sstore\n        /* \"#utility.yul\":10771:10927   */\n      pop\n        /* \"#utility.yul\":10748:10927   */\n    tag_251:\n        /* \"#utility.yul\":10973:10974   */\n      0x01\n        /* \"#utility.yul\":10969:10970   */\n      0x02\n        /* \"#utility.yul\":10961:10967   */\n      dup9\n        /* \"#utility.yul\":10957:10971   */\n      mul\n        /* \"#utility.yul\":10953:10975   */\n      add\n        /* \"#utility.yul\":10947:10951   */\n      dup9\n        /* \"#utility.yul\":10940:10976   */\n      sstore\n        /* \"#utility.yul\":10375:10986   */\n      pop\n      pop\n      pop\n        /* \"#utility.yul\":10338:11225   */\n    tag_243:\n      pop\n        /* \"#utility.yul\":9928:11231   */\n      pop\n      pop\n      pop\n        /* \"#utility.yul\":9836:11231   */\n      pop\n      pop\n      jump\t// out\n        /* \"#utility.yul\":11261:12092   */\n    tag_124:\n        /* \"#utility.yul\":11346:11349   */\n      0x00\n        /* \"#utility.yul\":11383:11388   */\n      dup2\n        /* \"#utility.yul\":11377:11389   */\n      sload\n        /* \"#utility.yul\":11412:11448   */\n      tag_254\n        /* \"#utility.yul\":11438:11447   */\n      dup2\n        /* \"#utility.yul\":11412:11448   */\n      tag_52\n      jump\t// in\n    tag_254:\n        /* \"#utility.yul\":11464:11535   */\n      tag_255\n        /* \"#utility.yul\":11528:11534   */\n      dup2\n        /* \"#utility.yul\":11523:11526   */\n      dup7\n        /* \"#utility.yul\":11464:11535   */\n      tag_87\n      jump\t// in\n    tag_255:\n        /* \"#utility.yul\":11457:11535   */\n      swap5\n      pop\n        /* \"#utility.yul\":11566:11567   */\n      0x01\n        /* \"#utility.yul\":11555:11564   */\n      dup3\n        /* \"#utility.yul\":11551:11568   */\n      and\n        /* \"#utility.yul\":11582:11583   */\n      0x00\n        /* \"#utility.yul\":11577:11741   */\n      dup2\n      eq\n      tag_257\n      jumpi\n        /* \"#utility.yul\":11755:11756   */\n      0x01\n        /* \"#utility.yul\":11750:12086   */\n      dup2\n      eq\n      tag_258\n      jumpi\n        /* \"#utility.yul\":11544:12086   */\n      jump(tag_256)\n        /* \"#utility.yul\":11577:11741   */\n    tag_257:\n        /* \"#utility.yul\":11661:11665   */\n      0xff\n        /* \"#utility.yul\":11657:11666   */\n      not\n        /* \"#utility.yul\":11646:11655   */\n      dup4\n        /* \"#utility.yul\":11642:11667   */\n      and\n        /* \"#utility.yul\":11637:11640   */\n      dup7\n        /* \"#utility.yul\":11630:11668   */\n      mstore\n        /* \"#utility.yul\":11721:11727   */\n      dup2\n        /* \"#utility.yul\":11714:11728   */\n      iszero\n        /* \"#utility.yul\":11707:11729   */\n      iszero\n        /* \"#utility.yul\":11701:11705   */\n      0x20\n        /* \"#utility.yul\":11697:11730   */\n      mul\n        /* \"#utility.yul\":11692:11695   */\n      dup7\n        /* \"#utility.yul\":11688:11731   */\n      add\n        /* \"#utility.yul\":11681:11731   */\n      swap4\n      pop\n        /* \"#utility.yul\":11577:11741   */\n      jump(tag_256)\n        /* \"#utility.yul\":11750:12086   */\n    tag_258:\n        /* \"#utility.yul\":11817:11855   */\n      tag_259\n        /* \"#utility.yul\":11849:11854   */\n      dup6\n        /* \"#utility.yul\":11817:11855   */\n      tag_108\n      jump\t// in\n    tag_259:\n        /* \"#utility.yul\":11877:11878   */\n      0x00\n        /* \"#utility.yul\":11891:12045   */\n    tag_260:\n        /* \"#utility.yul\":11905:11911   */\n      dup4\n        /* \"#utility.yul\":11902:11903   */\n      dup2\n        /* \"#utility.yul\":11899:11912   */\n      lt\n        /* \"#utility.yul\":11891:12045   */\n      iszero\n      tag_262\n      jumpi\n        /* \"#utility.yul\":11979:11986   */\n      dup2\n        /* \"#utility.yul\":11973:11987   */\n      sload\n        /* \"#utility.yul\":11969:11970   */\n      dup2\n        /* \"#utility.yul\":11964:11967   */\n      dup10\n        /* \"#utility.yul\":11960:11971   */\n      add\n        /* \"#utility.yul\":11953:11988   */\n      mstore\n        /* \"#utility.yul\":12029:12030   */\n      0x01\n        /* \"#utility.yul\":12020:12027   */\n      dup3\n        /* \"#utility.yul\":12016:12031   */\n      add\n        /* \"#utility.yul\":12005:12031   */\n      swap2\n      pop\n        /* \"#utility.yul\":11927:11931   */\n      0x20\n        /* \"#utility.yul\":11924:11925   */\n      dup2\n        /* \"#utility.yul\":11920:11932   */\n      add\n        /* \"#utility.yul\":11915:11932   */\n      swap1\n      pop\n        /* \"#utility.yul\":11891:12045   */\n      jump(tag_260)\n    tag_262:\n        /* \"#utility.yul\":12074:12075   */\n      dup1\n        /* \"#utility.yul\":12069:12072   */\n      dup9\n        /* \"#utility.yul\":12065:12076   */\n      add\n        /* \"#utility.yul\":12058:12076   */\n      swap6\n      pop\n        /* \"#utility.yul\":11757:12086   */\n      pop\n      pop\n        /* \"#utility.yul\":11544:12086   */\n    tag_256:\n      pop\n        /* \"#utility.yul\":11350:12092   */\n      pop\n      pop\n        /* \"#utility.yul\":11261:12092   */\n      swap3\n      swap2\n      pop\n      pop\n      jump\t// out\n        /* \"#utility.yul\":12098:12813   */\n    tag_68:\n        /* \"#utility.yul\":12305:12309   */\n      0x00\n        /* \"#utility.yul\":12343:12346   */\n      0x80\n        /* \"#utility.yul\":12332:12341   */\n      dup3\n        /* \"#utility.yul\":12328:12347   */\n      add\n        /* \"#utility.yul\":12320:12347   */\n      swap1\n      pop\n        /* \"#utility.yul\":12393:12402   */\n      dup2\n        /* \"#utility.yul\":12387:12391   */\n      dup2\n        /* \"#utility.yul\":12383:12403   */\n      sub\n        /* \"#utility.yul\":12379:12380   */\n      0x00\n        /* \"#utility.yul\":12368:12377   */\n      dup4\n        /* \"#utility.yul\":12364:12381   */\n      add\n        /* \"#utility.yul\":12357:12404   */\n      mstore\n        /* \"#utility.yul\":12421:12496   */\n      tag_264\n        /* \"#utility.yul\":12491:12495   */\n      dup2\n        /* \"#utility.yul\":12482:12488   */\n      dup8\n        /* \"#utility.yul\":12421:12496   */\n      tag_124\n      jump\t// in\n    tag_264:\n        /* \"#utility.yul\":12413:12496   */\n      swap1\n      pop\n        /* \"#utility.yul\":12543:12552   */\n      dup2\n        /* \"#utility.yul\":12537:12541   */\n      dup2\n        /* \"#utility.yul\":12533:12553   */\n      sub\n        /* \"#utility.yul\":12528:12530   */\n      0x20\n        /* \"#utility.yul\":12517:12526   */\n      dup4\n        /* \"#utility.yul\":12513:12531   */\n      add\n        /* \"#utility.yul\":12506:12554   */\n      mstore\n        /* \"#utility.yul\":12571:12646   */\n      tag_265\n        /* \"#utility.yul\":12641:12645   */\n      dup2\n        /* \"#utility.yul\":12632:12638   */\n      dup7\n        /* \"#utility.yul\":12571:12646   */\n      tag_124\n      jump\t// in\n    tag_265:\n        /* \"#utility.yul\":12563:12646   */\n      swap1\n      pop\n        /* \"#utility.yul\":12656:12726   */\n      tag_266\n        /* \"#utility.yul\":12722:12724   */\n      0x40\n        /* \"#utility.yul\":12711:12720   */\n      dup4\n        /* \"#utility.yul\":12707:12725   */\n      add\n        /* \"#utility.yul\":12698:12704   */\n      dup6\n        /* \"#utility.yul\":12656:12726   */\n      tag_92\n      jump\t// in\n    tag_266:\n        /* \"#utility.yul\":12736:12806   */\n      tag_267\n        /* \"#utility.yul\":12802:12804   */\n      0x60\n        /* \"#utility.yul\":12791:12800   */\n      dup4\n        /* \"#utility.yul\":12787:12805   */\n      add\n        /* \"#utility.yul\":12778:12784   */\n      dup5\n        /* \"#utility.yul\":12736:12806   */\n      tag_92\n      jump\t// in\n    tag_267:\n        /* \"#utility.yul\":12098:12813   */\n      swap6\n      swap5\n      pop\n      pop\n      pop\n      pop\n      pop\n      jump\t// out\n        /* \"#utility.yul\":12819:12999   */\n    tag_125:\n        /* \"#utility.yul\":12867:12944   */\n      0x4e487b7100000000000000000000000000000000000000000000000000000000\n        /* \"#utility.yul\":12864:12865   */\n      0x00\n        /* \"#utility.yul\":12857:12945   */\n      mstore\n        /* \"#utility.yul\":12964:12968   */\n      0x11\n        /* \"#utility.yul\":12961:12962   */\n      0x04\n        /* \"#utility.yul\":12954:12969   */\n      mstore\n        /* \"#utility.yul\":12988:12992   */\n      0x24\n        /* \"#utility.yul\":12985:12986   */\n      0x00\n        /* \"#utility.yul\":12978:12993   */\n      revert\n        /* \"#utility.yul\":13005:13280   */\n    tag_83:\n        /* \"#utility.yul\":13044:13051   */\n      0x00\n        /* \"#utility.yul\":13067:13086   */\n      tag_270\n        /* \"#utility.yul\":13084:13085   */\n      dup3\n        /* \"#utility.yul\":13067:13086   */\n      tag_91\n      jump\t// in\n    tag_270:\n        /* \"#utility.yul\":13062:13086   */\n      swap2\n      pop\n        /* \"#utility.yul\":13100:13119   */\n      tag_271\n        /* \"#utility.yul\":13117:13118   */\n      dup4\n        /* \"#utility.yul\":13100:13119   */\n      tag_91\n      jump\t// in\n    tag_271:\n        /* \"#utility.yul\":13095:13119   */\n      swap3\n      pop\n        /* \"#utility.yul\":13154:13155   */\n      dup3\n        /* \"#utility.yul\":13151:13152   */\n      dup3\n        /* \"#utility.yul\":13147:13156   */\n      mul\n        /* \"#utility.yul\":13176:13205   */\n      tag_272\n        /* \"#utility.yul\":13193:13204   */\n      dup2\n        /* \"#utility.yul\":13176:13205   */\n      tag_91\n      jump\t// in\n    tag_272:\n        /* \"#utility.yul\":13165:13205   */\n      swap2\n      pop\n        /* \"#utility.yul\":13237:13248   */\n      dup1\n        /* \"#utility.yul\":13228:13235   */\n      dup3\n        /* \"#utility.yul\":13225:13249   */\n      eq\n        /* \"#utility.yul\":13215:13273   */\n      tag_273\n      jumpi\n        /* \"#utility.yul\":13253:13271   */\n      tag_274\n      tag_125\n      jump\t// in\n    tag_274:\n        /* \"#utility.yul\":13215:13273   */\n    tag_273:\n        /* \"#utility.yul\":13052:13280   */\n      pop\n        /* \"#utility.yul\":13005:13280   */\n      swap3\n      swap2\n      pop\n      pop\n      jump\t// out\n\n    auxdata: 0xa2646970667358221220cc5545b288c638bc34a0a8f32a461e4c1b80e70681fe07792c650a489a0b2fd164736f6c634300081a0033\n}\n",
				"bytecode": {
					"linkReferences": {},
					"object": "6080604052348015600e575f80fd5b50610d1c8061001c5f395ff3fe608060405234801561000f575f80fd5b50600436106100a7575f3560e01c80634d41892f1161006f5780634d41892f14610142578063779a7737146101605780637ebeb19c1461017c5780639ededf771461019a578063b812978d146101b8578063f4823026146101c2576100a7565b80630f7514a2146100ab5780632cf6598f146100c95780633dbc0610146100e75780634309f065146101055780634c9beb5314610121575b5f80fd5b6100b36101cc565b6040516100c09190610629565b60405180910390f35b6100d1610258565b6040516100de9190610667565b60405180910390f35b6100ef61026d565b6040516100fc9190610629565b60405180910390f35b61011f600480360381019061011a91906107bd565b6102f9565b005b61012961031d565b6040516101399493929190610833565b60405180910390f35b61014a6104c9565b6040516101579190610667565b60405180910390f35b61017a600480360381019061017591906108ae565b6104dc565b005b6101846104ff565b6040516101919190610667565b60405180910390f35b6101a2610517565b6040516101af9190610667565b60405180910390f35b6101c061052c565b005b6101ca61056b565b005b600280546101d990610906565b80601f016020809104026020016040519081016040528092919081815260200182805461020590610906565b80156102505780601f1061022757610100808354040283529160200191610250565b820191905f5260205f20905b81548152906001019060200180831161023357829003601f168201915b505050505081565b5f60049054906101000a900463ffffffff1681565b6001805461027a90610906565b80601f01602080910402602001604051908101604052809291908181526020018280546102a690610906565b80156102f15780601f106102c8576101008083540402835291602001916102f1565b820191905f5260205f20905b8154815290600101906020018083116102d457829003601f168201915b505050505081565b81600190816103089190610adc565b5080600290816103189190610adc565b505050565b6060805f807f5c50b0c58eefa375548738c7bfe7fc846e8e57587d61efae305435d5c9a746aa600160025f8054906101000a900463ffffffff165f60049054906101000a900463ffffffff166040516103799493929190610c2c565b60405180910390a1600160025f8054906101000a900463ffffffff165f60049054906101000a900463ffffffff168380546103b390610906565b80601f01602080910402602001604051908101604052809291908181526020018280546103df90610906565b801561042a5780601f106104015761010080835404028352916020019161042a565b820191905f5260205f20905b81548152906001019060200180831161040d57829003601f168201915b5050505050935082805461043d90610906565b80601f016020809104026020016040519081016040528092919081815260200182805461046990610906565b80156104b45780601f1061048b576101008083540402835291602001916104b4565b820191905f5260205f20905b81548152906001019060200180831161049757829003601f168201915b50505050509250935093509350935090919293565b5f8054906101000a900463ffffffff1681565b8060035f6101000a81548163ffffffff021916908363ffffffff16021790555050565b5f8060049054906101000a900463ffffffff16905090565b60035f9054906101000a900463ffffffff1681565b60035f9054906101000a900463ffffffff16600461054a9190610caa565b5f60046101000a81548163ffffffff021916908363ffffffff160217905550565b60035f9054906101000a900463ffffffff1660035f9054906101000a900463ffffffff166105999190610caa565b5f806101000a81548163ffffffff021916908363ffffffff160217905550565b5f81519050919050565b5f82825260208201905092915050565b8281835e5f83830152505050565b5f601f19601f8301169050919050565b5f6105fb826105b9565b61060581856105c3565b93506106158185602086016105d3565b61061e816105e1565b840191505092915050565b5f6020820190508181035f83015261064181846105f1565b905092915050565b5f63ffffffff82169050919050565b61066181610649565b82525050565b5f60208201905061067a5f830184610658565b92915050565b5f604051905090565b5f80fd5b5f80fd5b5f80fd5b5f80fd5b7f4e487b71000000000000000000000000000000000000000000000000000000005f52604160045260245ffd5b6106cf826105e1565b810181811067ffffffffffffffff821117156106ee576106ed610699565b5b80604052505050565b5f610700610680565b905061070c82826106c6565b919050565b5f67ffffffffffffffff82111561072b5761072a610699565b5b610734826105e1565b9050602081019050919050565b828183375f83830152505050565b5f61076161075c84610711565b6106f7565b90508281526020810184848401111561077d5761077c610695565b5b610788848285610741565b509392505050565b5f82601f8301126107a4576107a3610691565b5b81356107b484826020860161074f565b91505092915050565b5f80604083850312156107d3576107d2610689565b5b5f83013567ffffffffffffffff8111156107f0576107ef61068d565b5b6107fc85828601610790565b925050602083013567ffffffffffffffff81111561081d5761081c61068d565b5b61082985828601610790565b9150509250929050565b5f6080820190508181035f83015261084b81876105f1565b9050818103602083015261085f81866105f1565b905061086e6040830185610658565b61087b6060830184610658565b95945050505050565b61088d81610649565b8114610897575f80fd5b50565b5f813590506108a881610884565b92915050565b5f602082840312156108c3576108c2610689565b5b5f6108d08482850161089a565b91505092915050565b7f4e487b71000000000000000000000000000000000000000000000000000000005f52602260045260245ffd5b5f600282049050600182168061091d57607f821691505b6020821081036109305761092f6108d9565b5b50919050565b5f819050815f5260205f209050919050565b5f6020601f8301049050919050565b5f82821b905092915050565b5f600883026109927fffffffffffffffffffffffffffffffffffffffffffffffffffffffffffffffff82610957565b61099c8683610957565b95508019841693508086168417925050509392505050565b5f819050919050565b5f819050919050565b5f6109e06109db6109d6846109b4565b6109bd565b6109b4565b9050919050565b5f819050919050565b6109f9836109c6565b610a0d610a05826109e7565b848454610963565b825550505050565b5f90565b610a21610a15565b610a2c8184846109f0565b505050565b5b81811015610a4f57610a445f82610a19565b600181019050610a32565b5050565b601f821115610a9457610a6581610936565b610a6e84610948565b81016020851015610a7d578190505b610a91610a8985610948565b830182610a31565b50505b505050565b5f82821c905092915050565b5f610ab45f1984600802610a99565b1980831691505092915050565b5f610acc8383610aa5565b9150826002028217905092915050565b610ae5826105b9565b67ffffffffffffffff811115610afe57610afd610699565b5b610b088254610906565b610b13828285610a53565b5f60209050601f831160018114610b44575f8415610b32578287015190505b610b3c8582610ac1565b865550610ba3565b601f198416610b5286610936565b5f5b82811015610b7957848901518255600182019150602085019450602081019050610b54565b86831015610b965784890151610b92601f891682610aa5565b8355505b6001600288020188555050505b505050505050565b5f8154610bb781610906565b610bc181866105c3565b9450600182165f8114610bdb5760018114610bf157610c23565b60ff198316865281151560200286019350610c23565b610bfa85610936565b5f5b83811015610c1b57815481890152600182019150602081019050610bfc565b808801955050505b50505092915050565b5f6080820190508181035f830152610c448187610bab565b90508181036020830152610c588186610bab565b9050610c676040830185610658565b610c746060830184610658565b95945050505050565b7f4e487b71000000000000000000000000000000000000000000000000000000005f52601160045260245ffd5b5f610cb482610649565b9150610cbf83610649565b9250828202610ccd81610649565b9150808214610cdf57610cde610c7d565b5b509291505056fea2646970667358221220cc5545b288c638bc34a0a8f32a461e4c1b80e70681fe07792c650a489a0b2fd164736f6c634300081a0033",
					"opcodes": "PUSH1 0x80 PUSH1 0x40 MSTORE CALLVALUE DUP1 ISZERO PUSH1 0xE JUMPI PUSH0 DUP1 REVERT JUMPDEST POP PUSH2 0xD1C DUP1 PUSH2 0x1C PUSH0 CODECOPY PUSH0 RETURN INVALID PUSH1 0x80 PUSH1 0x40 MSTORE CALLVALUE DUP1 ISZERO PUSH2 0xF JUMPI PUSH0 DUP1 REVERT JUMPDEST POP PUSH1 0x4 CALLDATASIZE LT PUSH2 0xA7 JUMPI PUSH0 CALLDATALOAD PUSH1 0xE0 SHR DUP1 PUSH4 0x4D41892F GT PUSH2 0x6F JUMPI DUP1 PUSH4 0x4D41892F EQ PUSH2 0x142 JUMPI DUP1 PUSH4 0x779A7737 EQ PUSH2 0x160 JUMPI DUP1 PUSH4 0x7EBEB19C EQ PUSH2 0x17C JUMPI DUP1 PUSH4 0x9EDEDF77 EQ PUSH2 0x19A JUMPI DUP1 PUSH4 0xB812978D EQ PUSH2 0x1B8 JUMPI DUP1 PUSH4 0xF4823026 EQ PUSH2 0x1C2 JUMPI PUSH2 0xA7 JUMP JUMPDEST DUP1 PUSH4 0xF7514A2 EQ PUSH2 0xAB JUMPI DUP1 PUSH4 0x2CF6598F EQ PUSH2 0xC9 JUMPI DUP1 PUSH4 0x3DBC0610 EQ PUSH2 0xE7 JUMPI DUP1 PUSH4 0x4309F065 EQ PUSH2 0x105 JUMPI DUP1 PUSH4 0x4C9BEB53 EQ PUSH2 0x121 JUMPI JUMPDEST PUSH0 DUP1 REVERT JUMPDEST PUSH2 0xB3 PUSH2 0x1CC JUMP JUMPDEST PUSH1 0x40 MLOAD PUSH2 0xC0 SWAP2 SWAP1 PUSH2 0x629 JUMP JUMPDEST PUSH1 0x40 MLOAD DUP1 SWAP2 SUB SWAP1 RETURN JUMPDEST PUSH2 0xD1 PUSH2 0x258 JUMP JUMPDEST PUSH1 0x40 MLOAD PUSH2 0xDE SWAP2 SWAP1 PUSH2 0x667 JUMP JUMPDEST PUSH1 0x40 MLOAD DUP1 SWAP2 SUB SWAP1 RETURN JUMPDEST PUSH2 0xEF PUSH2 0x26D JUMP JUMPDEST PUSH1 0x40 MLOAD PUSH2 0xFC SWAP2 SWAP1 PUSH2 0x629 JUMP JUMPDEST PUSH1 0x40 MLOAD DUP1 SWAP2 SUB SWAP1 RETURN JUMPDEST PUSH2 0x11F PUSH1 0x4 DUP1 CALLDATASIZE SUB DUP2 ADD SWAP1 PUSH2 0x11A SWAP2 SWAP1 PUSH2 0x7BD JUMP JUMPDEST PUSH2 0x2F9 JUMP JUMPDEST STOP JUMPDEST PUSH2 0x129 PUSH2 0x31D JUMP JUMPDEST PUSH1 0x40 MLOAD PUSH2 0x139 SWAP5 SWAP4 SWAP3 SWAP2 SWAP1 PUSH2 0x833 JUMP JUMPDEST PUSH1 0x40 MLOAD DUP1 SWAP2 SUB SWAP1 RETURN JUMPDEST PUSH2 0x14A PUSH2 0x4C9 JUMP JUMPDEST PUSH1 0x40 MLOAD PUSH2 0x157 SWAP2 SWAP1 PUSH2 0x667 JUMP JUMPDEST PUSH1 0x40 MLOAD DUP1 SWAP2 SUB SWAP1 RETURN JUMPDEST PUSH2 0x17A PUSH1 0x4 DUP1 CALLDATASIZE SUB DUP2 ADD SWAP1 PUSH2 0x175 SWAP2 SWAP1 PUSH2 0x8AE JUMP JUMPDEST PUSH2 0x4DC JUMP JUMPDEST STOP JUMPDEST PUSH2 0x184 PUSH2 0x4FF JUMP JUMPDEST PUSH1 0x40 MLOAD PUSH2 0x191 SWAP2 SWAP1 PUSH2 0x667 JUMP JUMPDEST PUSH1 0x40 MLOAD DUP1 SWAP2 SUB SWAP1 RETURN JUMPDEST PUSH2 0x1A2 PUSH2 0x517 JUMP JUMPDEST PUSH1 0x40 MLOAD PUSH2 0x1AF SWAP2 SWAP1 PUSH2 0x667 JUMP JUMPDEST PUSH1 0x40 MLOAD DUP1 SWAP2 SUB SWAP1 RETURN JUMPDEST PUSH2 0x1C0 PUSH2 0x52C JUMP JUMPDEST STOP JUMPDEST PUSH2 0x1CA PUSH2 0x56B JUMP JUMPDEST STOP JUMPDEST PUSH1 0x2 DUP1 SLOAD PUSH2 0x1D9 SWAP1 PUSH2 0x906 JUMP JUMPDEST DUP1 PUSH1 0x1F ADD PUSH1 0x20 DUP1 SWAP2 DIV MUL PUSH1 0x20 ADD PUSH1 0x40 MLOAD SWAP1 DUP2 ADD PUSH1 0x40 MSTORE DUP1 SWAP3 SWAP2 SWAP1 DUP2 DUP2 MSTORE PUSH1 0x20 ADD DUP3 DUP1 SLOAD PUSH2 0x205 SWAP1 PUSH2 0x906 JUMP JUMPDEST DUP1 ISZERO PUSH2 0x250 JUMPI DUP1 PUSH1 0x1F LT PUSH2 0x227 JUMPI PUSH2 0x100 DUP1 DUP4 SLOAD DIV MUL DUP4 MSTORE SWAP2 PUSH1 0x20 ADD SWAP2 PUSH2 0x250 JUMP JUMPDEST DUP3 ADD SWAP2 SWAP1 PUSH0 MSTORE PUSH1 0x20 PUSH0 KECCAK256 SWAP1 JUMPDEST DUP2 SLOAD DUP2 MSTORE SWAP1 PUSH1 0x1 ADD SWAP1 PUSH1 0x20 ADD DUP1 DUP4 GT PUSH2 0x233 JUMPI DUP3 SWAP1 SUB PUSH1 0x1F AND DUP3 ADD SWAP2 JUMPDEST POP POP POP POP POP DUP2 JUMP JUMPDEST PUSH0 PUSH1 0x4 SWAP1 SLOAD SWAP1 PUSH2 0x100 EXP SWAP1 DIV PUSH4 0xFFFFFFFF AND DUP2 JUMP JUMPDEST PUSH1 0x1 DUP1 SLOAD PUSH2 0x27A SWAP1 PUSH2 0x906 JUMP JUMPDEST DUP1 PUSH1 0x1F ADD PUSH1 0x20 DUP1 SWAP2 DIV MUL PUSH1 0x20 ADD PUSH1 0x40 MLOAD SWAP1 DUP2 ADD PUSH1 0x40 MSTORE DUP1 SWAP3 SWAP2 SWAP1 DUP2 DUP2 MSTORE PUSH1 0x20 ADD DUP3 DUP1 SLOAD PUSH2 0x2A6 SWAP1 PUSH2 0x906 JUMP JUMPDEST DUP1 ISZERO PUSH2 0x2F1 JUMPI DUP1 PUSH1 0x1F LT PUSH2 0x2C8 JUMPI PUSH2 0x100 DUP1 DUP4 SLOAD DIV MUL DUP4 MSTORE SWAP2 PUSH1 0x20 ADD SWAP2 PUSH2 0x2F1 JUMP JUMPDEST DUP3 ADD SWAP2 SWAP1 PUSH0 MSTORE PUSH1 0x20 PUSH0 KECCAK256 SWAP1 JUMPDEST DUP2 SLOAD DUP2 MSTORE SWAP1 PUSH1 0x1 ADD SWAP1 PUSH1 0x20 ADD DUP1 DUP4 GT PUSH2 0x2D4 JUMPI DUP3 SWAP1 SUB PUSH1 0x1F AND DUP3 ADD SWAP2 JUMPDEST POP POP POP POP POP DUP2 JUMP JUMPDEST DUP2 PUSH1 0x1 SWAP1 DUP2 PUSH2 0x308 SWAP2 SWAP1 PUSH2 0xADC JUMP JUMPDEST POP DUP1 PUSH1 0x2 SWAP1 DUP2 PUSH2 0x318 SWAP2 SWAP1 PUSH2 0xADC JUMP JUMPDEST POP POP POP JUMP JUMPDEST PUSH1 0x60 DUP1 PUSH0 DUP1 PUSH32 0x5C50B0C58EEFA375548738C7BFE7FC846E8E57587D61EFAE305435D5C9A746AA PUSH1 0x1 PUSH1 0x2 PUSH0 DUP1 SLOAD SWAP1 PUSH2 0x100 EXP SWAP1 DIV PUSH4 0xFFFFFFFF AND PUSH0 PUSH1 0x4 SWAP1 SLOAD SWAP1 PUSH2 0x100 EXP SWAP1 DIV PUSH4 0xFFFFFFFF AND PUSH1 0x40 MLOAD PUSH2 0x379 SWAP5 SWAP4 SWAP3 SWAP2 SWAP1 PUSH2 0xC2C JUMP JUMPDEST PUSH1 0x40 MLOAD DUP1 SWAP2 SUB SWAP1 LOG1 PUSH1 0x1 PUSH1 0x2 PUSH0 DUP1 SLOAD SWAP1 PUSH2 0x100 EXP SWAP1 DIV PUSH4 0xFFFFFFFF AND PUSH0 PUSH1 0x4 SWAP1 SLOAD SWAP1 PUSH2 0x100 EXP SWAP1 DIV PUSH4 0xFFFFFFFF AND DUP4 DUP1 SLOAD PUSH2 0x3B3 SWAP1 PUSH2 0x906 JUMP JUMPDEST DUP1 PUSH1 0x1F ADD PUSH1 0x20 DUP1 SWAP2 DIV MUL PUSH1 0x20 ADD PUSH1 0x40 MLOAD SWAP1 DUP2 ADD PUSH1 0x40 MSTORE DUP1 SWAP3 SWAP2 SWAP1 DUP2 DUP2 MSTORE PUSH1 0x20 ADD DUP3 DUP1 SLOAD PUSH2 0x3DF SWAP1 PUSH2 0x906 JUMP JUMPDEST DUP1 ISZERO PUSH2 0x42A JUMPI DUP1 PUSH1 0x1F LT PUSH2 0x401 JUMPI PUSH2 0x100 DUP1 DUP4 SLOAD DIV MUL DUP4 MSTORE SWAP2 PUSH1 0x20 ADD SWAP2 PUSH2 0x42A JUMP JUMPDEST DUP3 ADD SWAP2 SWAP1 PUSH0 MSTORE PUSH1 0x20 PUSH0 KECCAK256 SWAP1 JUMPDEST DUP2 SLOAD DUP2 MSTORE SWAP1 PUSH1 0x1 ADD SWAP1 PUSH1 0x20 ADD DUP1 DUP4 GT PUSH2 0x40D JUMPI DUP3 SWAP1 SUB PUSH1 0x1F AND DUP3 ADD SWAP2 JUMPDEST POP POP POP POP POP SWAP4 POP DUP3 DUP1 SLOAD PUSH2 0x43D SWAP1 PUSH2 0x906 JUMP JUMPDEST DUP1 PUSH1 0x1F ADD PUSH1 0x20 DUP1 SWAP2 DIV MUL PUSH1 0x20 ADD PUSH1 0x40 MLOAD SWAP1 DUP2 ADD PUSH1 0x40 MSTORE DUP1 SWAP3 SWAP2 SWAP1 DUP2 DUP2 MSTORE PUSH1 0x20 ADD DUP3 DUP1 SLOAD PUSH2 0x469 SWAP1 PUSH2 0x906 JUMP JUMPDEST DUP1 ISZERO PUSH2 0x4B4 JUMPI DUP1 PUSH1 0x1F LT PUSH2 0x48B JUMPI PUSH2 0x100 DUP1 DUP4 SLOAD DIV MUL DUP4 MSTORE SWAP2 PUSH1 0x20 ADD SWAP2 PUSH2 0x4B4 JUMP JUMPDEST DUP3 ADD SWAP2 SWAP1 PUSH0 MSTORE PUSH1 0x20 PUSH0 KECCAK256 SWAP1 JUMPDEST DUP2 SLOAD DUP2 MSTORE SWAP1 PUSH1 0x1 ADD SWAP1 PUSH1 0x20 ADD DUP1 DUP4 GT PUSH2 0x497 JUMPI DUP3 SWAP1 SUB PUSH1 0x1F AND DUP3 ADD SWAP2 JUMPDEST POP POP POP POP POP SWAP3 POP SWAP4 POP SWAP4 POP SWAP4 POP SWAP4 POP SWAP1 SWAP2 SWAP3 SWAP4 JUMP JUMPDEST PUSH0 DUP1 SLOAD SWAP1 PUSH2 0x100 EXP SWAP1 DIV PUSH4 0xFFFFFFFF AND DUP2 JUMP JUMPDEST DUP1 PUSH1 0x3 PUSH0 PUSH2 0x100 EXP DUP2 SLOAD DUP2 PUSH4 0xFFFFFFFF MUL NOT AND SWAP1 DUP4 PUSH4 0xFFFFFFFF AND MUL OR SWAP1 SSTORE POP POP JUMP JUMPDEST PUSH0 DUP1 PUSH1 0x4 SWAP1 SLOAD SWAP1 PUSH2 0x100 EXP SWAP1 DIV PUSH4 0xFFFFFFFF AND SWAP1 POP SWAP1 JUMP JUMPDEST PUSH1 0x3 PUSH0 SWAP1 SLOAD SWAP1 PUSH2 0x100 EXP SWAP1 DIV PUSH4 0xFFFFFFFF AND DUP2 JUMP JUMPDEST PUSH1 0x3 PUSH0 SWAP1 SLOAD SWAP1 PUSH2 0x100 EXP SWAP1 DIV PUSH4 0xFFFFFFFF AND PUSH1 0x4 PUSH2 0x54A SWAP2 SWAP1 PUSH2 0xCAA JUMP JUMPDEST PUSH0 PUSH1 0x4 PUSH2 0x100 EXP DUP2 SLOAD DUP2 PUSH4 0xFFFFFFFF MUL NOT AND SWAP1 DUP4 PUSH4 0xFFFFFFFF AND MUL OR SWAP1 SSTORE POP JUMP JUMPDEST PUSH1 0x3 PUSH0 SWAP1 SLOAD SWAP1 PUSH2 0x100 EXP SWAP1 DIV PUSH4 0xFFFFFFFF AND PUSH1 0x3 PUSH0 SWAP1 SLOAD SWAP1 PUSH2 0x100 EXP SWAP1 DIV PUSH4 0xFFFFFFFF AND PUSH2 0x599 SWAP2 SWAP1 PUSH2 0xCAA JUMP JUMPDEST PUSH0 DUP1 PUSH2 0x100 EXP DUP2 SLOAD DUP2 PUSH4 0xFFFFFFFF MUL NOT AND SWAP1 DUP4 PUSH4 0xFFFFFFFF AND MUL OR SWAP1 SSTORE POP JUMP JUMPDEST PUSH0 DUP2 MLOAD SWAP1 POP SWAP2 SWAP1 POP JUMP JUMPDEST PUSH0 DUP3 DUP3 MSTORE PUSH1 0x20 DUP3 ADD SWAP1 POP SWAP3 SWAP2 POP POP JUMP JUMPDEST DUP3 DUP2 DUP4 MCOPY PUSH0 DUP4 DUP4 ADD MSTORE POP POP POP JUMP JUMPDEST PUSH0 PUSH1 0x1F NOT PUSH1 0x1F DUP4 ADD AND SWAP1 POP SWAP2 SWAP1 POP JUMP JUMPDEST PUSH0 PUSH2 0x5FB DUP3 PUSH2 0x5B9 JUMP JUMPDEST PUSH2 0x605 DUP2 DUP6 PUSH2 0x5C3 JUMP JUMPDEST SWAP4 POP PUSH2 0x615 DUP2 DUP6 PUSH1 0x20 DUP7 ADD PUSH2 0x5D3 JUMP JUMPDEST PUSH2 0x61E DUP2 PUSH2 0x5E1 JUMP JUMPDEST DUP5 ADD SWAP2 POP POP SWAP3 SWAP2 POP POP JUMP JUMPDEST PUSH0 PUSH1 0x20 DUP3 ADD SWAP1 POP DUP2 DUP2 SUB PUSH0 DUP4 ADD MSTORE PUSH2 0x641 DUP2 DUP5 PUSH2 0x5F1 JUMP JUMPDEST SWAP1 POP SWAP3 SWAP2 POP POP JUMP JUMPDEST PUSH0 PUSH4 0xFFFFFFFF DUP3 AND SWAP1 POP SWAP2 SWAP1 POP JUMP JUMPDEST PUSH2 0x661 DUP2 PUSH2 0x649 JUMP JUMPDEST DUP3 MSTORE POP POP JUMP JUMPDEST PUSH0 PUSH1 0x20 DUP3 ADD SWAP1 POP PUSH2 0x67A PUSH0 DUP4 ADD DUP5 PUSH2 0x658 JUMP JUMPDEST SWAP3 SWAP2 POP POP JUMP JUMPDEST PUSH0 PUSH1 0x40 MLOAD SWAP1 POP SWAP1 JUMP JUMPDEST PUSH0 DUP1 REVERT JUMPDEST PUSH0 DUP1 REVERT JUMPDEST PUSH0 DUP1 REVERT JUMPDEST PUSH0 DUP1 REVERT JUMPDEST PUSH32 0x4E487B7100000000000000000000000000000000000000000000000000000000 PUSH0 MSTORE PUSH1 0x41 PUSH1 0x4 MSTORE PUSH1 0x24 PUSH0 REVERT JUMPDEST PUSH2 0x6CF DUP3 PUSH2 0x5E1 JUMP JUMPDEST DUP2 ADD DUP2 DUP2 LT PUSH8 0xFFFFFFFFFFFFFFFF DUP3 GT OR ISZERO PUSH2 0x6EE JUMPI PUSH2 0x6ED PUSH2 0x699 JUMP JUMPDEST JUMPDEST DUP1 PUSH1 0x40 MSTORE POP POP POP JUMP JUMPDEST PUSH0 PUSH2 0x700 PUSH2 0x680 JUMP JUMPDEST SWAP1 POP PUSH2 0x70C DUP3 DUP3 PUSH2 0x6C6 JUMP JUMPDEST SWAP2 SWAP1 POP JUMP JUMPDEST PUSH0 PUSH8 0xFFFFFFFFFFFFFFFF DUP3 GT ISZERO PUSH2 0x72B JUMPI PUSH2 0x72A PUSH2 0x699 JUMP JUMPDEST JUMPDEST PUSH2 0x734 DUP3 PUSH2 0x5E1 JUMP JUMPDEST SWAP1 POP PUSH1 0x20 DUP2 ADD SWAP1 POP SWAP2 SWAP1 POP JUMP JUMPDEST DUP3 DUP2 DUP4 CALLDATACOPY PUSH0 DUP4 DUP4 ADD MSTORE POP POP POP JUMP JUMPDEST PUSH0 PUSH2 0x761 PUSH2 0x75C DUP5 PUSH2 0x711 JUMP JUMPDEST PUSH2 0x6F7 JUMP JUMPDEST SWAP1 POP DUP3 DUP2 MSTORE PUSH1 0x20 DUP2 ADD DUP5 DUP5 DUP5 ADD GT ISZERO PUSH2 0x77D JUMPI PUSH2 0x77C PUSH2 0x695 JUMP JUMPDEST JUMPDEST PUSH2 0x788 DUP5 DUP3 DUP6 PUSH2 0x741 JUMP JUMPDEST POP SWAP4 SWAP3 POP POP POP JUMP JUMPDEST PUSH0 DUP3 PUSH1 0x1F DUP4 ADD SLT PUSH2 0x7A4 JUMPI PUSH2 0x7A3 PUSH2 0x691 JUMP JUMPDEST JUMPDEST DUP2 CALLDATALOAD PUSH2 0x7B4 DUP5 DUP3 PUSH1 0x20 DUP7 ADD PUSH2 0x74F JUMP JUMPDEST SWAP2 POP POP SWAP3 SWAP2 POP POP JUMP JUMPDEST PUSH0 DUP1 PUSH1 0x40 DUP4 DUP6 SUB SLT ISZERO PUSH2 0x7D3 JUMPI PUSH2 0x7D2 PUSH2 0x689 JUMP JUMPDEST JUMPDEST PUSH0 DUP4 ADD CALLDATALOAD PUSH8 0xFFFFFFFFFFFFFFFF DUP2 GT ISZERO PUSH2 0x7F0 JUMPI PUSH2 0x7EF PUSH2 0x68D JUMP JUMPDEST JUMPDEST PUSH2 0x7FC DUP6 DUP3 DUP7 ADD PUSH2 0x790 JUMP JUMPDEST SWAP3 POP POP PUSH1 0x20 DUP4 ADD CALLDATALOAD PUSH8 0xFFFFFFFFFFFFFFFF DUP2 GT ISZERO PUSH2 0x81D JUMPI PUSH2 0x81C PUSH2 0x68D JUMP JUMPDEST JUMPDEST PUSH2 0x829 DUP6 DUP3 DUP7 ADD PUSH2 0x790 JUMP JUMPDEST SWAP2 POP POP SWAP3 POP SWAP3 SWAP1 POP JUMP JUMPDEST PUSH0 PUSH1 0x80 DUP3 ADD SWAP1 POP DUP2 DUP2 SUB PUSH0 DUP4 ADD MSTORE PUSH2 0x84B DUP2 DUP8 PUSH2 0x5F1 JUMP JUMPDEST SWAP1 POP DUP2 DUP2 SUB PUSH1 0x20 DUP4 ADD MSTORE PUSH2 0x85F DUP2 DUP7 PUSH2 0x5F1 JUMP JUMPDEST SWAP1 POP PUSH2 0x86E PUSH1 0x40 DUP4 ADD DUP6 PUSH2 0x658 JUMP JUMPDEST PUSH2 0x87B PUSH1 0x60 DUP4 ADD DUP5 PUSH2 0x658 JUMP JUMPDEST SWAP6 SWAP5 POP POP POP POP POP JUMP JUMPDEST PUSH2 0x88D DUP2 PUSH2 0x649 JUMP JUMPDEST DUP2 EQ PUSH2 0x897 JUMPI PUSH0 DUP1 REVERT JUMPDEST POP JUMP JUMPDEST PUSH0 DUP2 CALLDATALOAD SWAP1 POP PUSH2 0x8A8 DUP2 PUSH2 0x884 JUMP JUMPDEST SWAP3 SWAP2 POP POP JUMP JUMPDEST PUSH0 PUSH1 0x20 DUP3 DUP5 SUB SLT ISZERO PUSH2 0x8C3 JUMPI PUSH2 0x8C2 PUSH2 0x689 JUMP JUMPDEST JUMPDEST PUSH0 PUSH2 0x8D0 DUP5 DUP3 DUP6 ADD PUSH2 0x89A JUMP JUMPDEST SWAP2 POP POP SWAP3 SWAP2 POP POP JUMP JUMPDEST PUSH32 0x4E487B7100000000000000000000000000000000000000000000000000000000 PUSH0 MSTORE PUSH1 0x22 PUSH1 0x4 MSTORE PUSH1 0x24 PUSH0 REVERT JUMPDEST PUSH0 PUSH1 0x2 DUP3 DIV SWAP1 POP PUSH1 0x1 DUP3 AND DUP1 PUSH2 0x91D JUMPI PUSH1 0x7F DUP3 AND SWAP2 POP JUMPDEST PUSH1 0x20 DUP3 LT DUP2 SUB PUSH2 0x930 JUMPI PUSH2 0x92F PUSH2 0x8D9 JUMP JUMPDEST JUMPDEST POP SWAP2 SWAP1 POP JUMP JUMPDEST PUSH0 DUP2 SWAP1 POP DUP2 PUSH0 MSTORE PUSH1 0x20 PUSH0 KECCAK256 SWAP1 POP SWAP2 SWAP1 POP JUMP JUMPDEST PUSH0 PUSH1 0x20 PUSH1 0x1F DUP4 ADD DIV SWAP1 POP SWAP2 SWAP1 POP JUMP JUMPDEST PUSH0 DUP3 DUP3 SHL SWAP1 POP SWAP3 SWAP2 POP POP JUMP JUMPDEST PUSH0 PUSH1 0x8 DUP4 MUL PUSH2 0x992 PUSH32 0xFFFFFFFFFFFFFFFFFFFFFFFFFFFFFFFFFFFFFFFFFFFFFFFFFFFFFFFFFFFFFFFF DUP3 PUSH2 0x957 JUMP JUMPDEST PUSH2 0x99C DUP7 DUP4 PUSH2 0x957 JUMP JUMPDEST SWAP6 POP DUP1 NOT DUP5 AND SWAP4 POP DUP1 DUP7 AND DUP5 OR SWAP3 POP POP POP SWAP4 SWAP3 POP POP POP JUMP JUMPDEST PUSH0 DUP2 SWAP1 POP SWAP2 SWAP1 POP JUMP JUMPDEST PUSH0 DUP2 SWAP1 POP SWAP2 SWAP1 POP JUMP JUMPDEST PUSH0 PUSH2 0x9E0 PUSH2 0x9DB PUSH2 0x9D6 DUP5 PUSH2 0x9B4 JUMP JUMPDEST PUSH2 0x9BD JUMP JUMPDEST PUSH2 0x9B4 JUMP JUMPDEST SWAP1 POP SWAP2 SWAP1 POP JUMP JUMPDEST PUSH0 DUP2 SWAP1 POP SWAP2 SWAP1 POP JUMP JUMPDEST PUSH2 0x9F9 DUP4 PUSH2 0x9C6 JUMP JUMPDEST PUSH2 0xA0D PUSH2 0xA05 DUP3 PUSH2 0x9E7 JUMP JUMPDEST DUP5 DUP5 SLOAD PUSH2 0x963 JUMP JUMPDEST DUP3 SSTORE POP POP POP POP JUMP JUMPDEST PUSH0 SWAP1 JUMP JUMPDEST PUSH2 0xA21 PUSH2 0xA15 JUMP JUMPDEST PUSH2 0xA2C DUP2 DUP5 DUP5 PUSH2 0x9F0 JUMP JUMPDEST POP POP POP JUMP JUMPDEST JUMPDEST DUP2 DUP2 LT ISZERO PUSH2 0xA4F JUMPI PUSH2 0xA44 PUSH0 DUP3 PUSH2 0xA19 JUMP JUMPDEST PUSH1 0x1 DUP2 ADD SWAP1 POP PUSH2 0xA32 JUMP JUMPDEST POP POP JUMP JUMPDEST PUSH1 0x1F DUP3 GT ISZERO PUSH2 0xA94 JUMPI PUSH2 0xA65 DUP2 PUSH2 0x936 JUMP JUMPDEST PUSH2 0xA6E DUP5 PUSH2 0x948 JUMP JUMPDEST DUP2 ADD PUSH1 0x20 DUP6 LT ISZERO PUSH2 0xA7D JUMPI DUP2 SWAP1 POP JUMPDEST PUSH2 0xA91 PUSH2 0xA89 DUP6 PUSH2 0x948 JUMP JUMPDEST DUP4 ADD DUP3 PUSH2 0xA31 JUMP JUMPDEST POP POP JUMPDEST POP POP POP JUMP JUMPDEST PUSH0 DUP3 DUP3 SHR SWAP1 POP SWAP3 SWAP2 POP POP JUMP JUMPDEST PUSH0 PUSH2 0xAB4 PUSH0 NOT DUP5 PUSH1 0x8 MUL PUSH2 0xA99 JUMP JUMPDEST NOT DUP1 DUP4 AND SWAP2 POP POP SWAP3 SWAP2 POP POP JUMP JUMPDEST PUSH0 PUSH2 0xACC DUP4 DUP4 PUSH2 0xAA5 JUMP JUMPDEST SWAP2 POP DUP3 PUSH1 0x2 MUL DUP3 OR SWAP1 POP SWAP3 SWAP2 POP POP JUMP JUMPDEST PUSH2 0xAE5 DUP3 PUSH2 0x5B9 JUMP JUMPDEST PUSH8 0xFFFFFFFFFFFFFFFF DUP2 GT ISZERO PUSH2 0xAFE JUMPI PUSH2 0xAFD PUSH2 0x699 JUMP JUMPDEST JUMPDEST PUSH2 0xB08 DUP3 SLOAD PUSH2 0x906 JUMP JUMPDEST PUSH2 0xB13 DUP3 DUP3 DUP6 PUSH2 0xA53 JUMP JUMPDEST PUSH0 PUSH1 0x20 SWAP1 POP PUSH1 0x1F DUP4 GT PUSH1 0x1 DUP2 EQ PUSH2 0xB44 JUMPI PUSH0 DUP5 ISZERO PUSH2 0xB32 JUMPI DUP3 DUP8 ADD MLOAD SWAP1 POP JUMPDEST PUSH2 0xB3C DUP6 DUP3 PUSH2 0xAC1 JUMP JUMPDEST DUP7 SSTORE POP PUSH2 0xBA3 JUMP JUMPDEST PUSH1 0x1F NOT DUP5 AND PUSH2 0xB52 DUP7 PUSH2 0x936 JUMP JUMPDEST PUSH0 JUMPDEST DUP3 DUP2 LT ISZERO PUSH2 0xB79 JUMPI DUP5 DUP10 ADD MLOAD DUP3 SSTORE PUSH1 0x1 DUP3 ADD SWAP2 POP PUSH1 0x20 DUP6 ADD SWAP5 POP PUSH1 0x20 DUP2 ADD SWAP1 POP PUSH2 0xB54 JUMP JUMPDEST DUP7 DUP4 LT ISZERO PUSH2 0xB96 JUMPI DUP5 DUP10 ADD MLOAD PUSH2 0xB92 PUSH1 0x1F DUP10 AND DUP3 PUSH2 0xAA5 JUMP JUMPDEST DUP4 SSTORE POP JUMPDEST PUSH1 0x1 PUSH1 0x2 DUP9 MUL ADD DUP9 SSTORE POP POP POP JUMPDEST POP POP POP POP POP POP JUMP JUMPDEST PUSH0 DUP2 SLOAD PUSH2 0xBB7 DUP2 PUSH2 0x906 JUMP JUMPDEST PUSH2 0xBC1 DUP2 DUP7 PUSH2 0x5C3 JUMP JUMPDEST SWAP5 POP PUSH1 0x1 DUP3 AND PUSH0 DUP2 EQ PUSH2 0xBDB JUMPI PUSH1 0x1 DUP2 EQ PUSH2 0xBF1 JUMPI PUSH2 0xC23 JUMP JUMPDEST PUSH1 0xFF NOT DUP4 AND DUP7 MSTORE DUP2 ISZERO ISZERO PUSH1 0x20 MUL DUP7 ADD SWAP4 POP PUSH2 0xC23 JUMP JUMPDEST PUSH2 0xBFA DUP6 PUSH2 0x936 JUMP JUMPDEST PUSH0 JUMPDEST DUP4 DUP2 LT ISZERO PUSH2 0xC1B JUMPI DUP2 SLOAD DUP2 DUP10 ADD MSTORE PUSH1 0x1 DUP3 ADD SWAP2 POP PUSH1 0x20 DUP2 ADD SWAP1 POP PUSH2 0xBFC JUMP JUMPDEST DUP1 DUP9 ADD SWAP6 POP POP POP JUMPDEST POP POP POP SWAP3 SWAP2 POP POP JUMP JUMPDEST PUSH0 PUSH1 0x80 DUP3 ADD SWAP1 POP DUP2 DUP2 SUB PUSH0 DUP4 ADD MSTORE PUSH2 0xC44 DUP2 DUP8 PUSH2 0xBAB JUMP JUMPDEST SWAP1 POP DUP2 DUP2 SUB PUSH1 0x20 DUP4 ADD MSTORE PUSH2 0xC58 DUP2 DUP7 PUSH2 0xBAB JUMP JUMPDEST SWAP1 POP PUSH2 0xC67 PUSH1 0x40 DUP4 ADD DUP6 PUSH2 0x658 JUMP JUMPDEST PUSH2 0xC74 PUSH1 0x60 DUP4 ADD DUP5 PUSH2 0x658 JUMP JUMPDEST SWAP6 SWAP5 POP POP POP POP POP JUMP JUMPDEST PUSH32 0x4E487B7100000000000000000000000000000000000000000000000000000000 PUSH0 MSTORE PUSH1 0x11 PUSH1 0x4 MSTORE PUSH1 0x24 PUSH0 REVERT JUMPDEST PUSH0 PUSH2 0xCB4 DUP3 PUSH2 0x649 JUMP JUMPDEST SWAP2 POP PUSH2 0xCBF DUP4 PUSH2 0x649 JUMP JUMPDEST SWAP3 POP DUP3 DUP3 MUL PUSH2 0xCCD DUP2 PUSH2 0x649 JUMP JUMPDEST SWAP2 POP DUP1 DUP3 EQ PUSH2 0xCDF JUMPI PUSH2 0xCDE PUSH2 0xC7D JUMP JUMPDEST JUMPDEST POP SWAP3 SWAP2 POP POP JUMP INVALID LOG2 PUSH5 0x6970667358 0x22 SLT KECCAK256 0xCC SSTORE GASLIMIT 0xB2 DUP9 0xC6 CODESIZE 0xBC CALLVALUE LOG0 0xA8 RETURN 0x2A CHAINID 0x1E 0x4C SHL DUP1 0xE7 MOD DUP2 INVALID SMOD PUSH26 0x2C650A489A0B2FD164736F6C634300081A003300000000000000 "
				},
				"gasEstimates": {
					"creation": {
						"codeDepositCost": "671200",
						"executionCost": "700",
						"totalCost": "671900"
					},
					"external": {
						"area()": "2463",
						"colour()": "infinite",
						"displayAll()": "infinite",
						"getPerimeter()": "2568",
						"perimeter()": "2539",
						"setArea()": "infinite",
						"setColourAndShape(string,string)": "infinite",
						"setPerimeter()": "infinite",
						"setWidth(uint32)": "24695",
						"shape()": "infinite",
						"width()": "2532"
					}
				},
				"methodIdentifiers": {
					"area()": "4d41892f",
					"colour()": "3dbc0610",
					"displayAll()": "4c9beb53",
					"getPerimeter()": "7ebeb19c",
					"perimeter()": "2cf6598f",
					"setArea()": "f4823026",
					"setColourAndShape(string,string)": "4309f065",
					"setPerimeter()": "b812978d",
					"setWidth(uint32)": "779a7737",
					"shape()": "0f7514a2",
					"width()": "9ededf77"
				}
			},
			"storageLayout": {
				"storage": [
					{
						"astId": 3,
						"contract": "Week6/ex1.sol:Square",
						"label": "area",
						"offset": 0,
						"slot": "0",
						"type": "t_uint32"
					},
					{
						"astId": 5,
						"contract": "Week6/ex1.sol:Square",
						"label": "perimeter",
						"offset": 4,
						"slot": "0",
						"type": "t_uint32"
					},
					{
						"astId": 7,
						"contract": "Week6/ex1.sol:Square",
						"label": "colour",
						"offset": 0,
						"slot": "1",
						"type": "t_string_storage"
					},
					{
						"astId": 9,
						"contract": "Week6/ex1.sol:Square",
						"label": "shape",
						"offset": 0,
						"slot": "2",
						"type": "t_string_storage"
					},
					{
						"astId": 73,
						"contract": "Week6/ex1.sol:Square",
						"label": "width",
						"offset": 0,
						"slot": "3",
						"type": "t_uint32"
					}
				],
				"types": {
					"t_string_storage": {
						"encoding": "bytes",
						"label": "string",
						"numberOfBytes": "32"
					},
					"t_uint32": {
						"encoding": "inplace",
						"label": "uint32",
						"numberOfBytes": "4"
					}
				}
			},
			"userdoc": {
				"kind": "user",
				"methods": {},
				"version": 1
			}
		}
	}
}