{
	"Week6/ex1.sol": {
		"Quadrangle": {
			"abi": [
				{
					"anonymous": false,
					"inputs": [
						{
							"indexed": false,
							"internalType": "string",
							"name": "",
							"type": "string"
						},
						{
							"indexed": false,
							"internalType": "string",
							"name": "",
							"type": "string"
						},
						{
							"indexed": false,
							"internalType": "uint32",
							"name": "",
							"type": "uint32"
						},
						{
							"indexed": false,
							"internalType": "uint32",
							"name": "",
							"type": "uint32"
						}
					],
					"name": "display",
					"type": "event"
				},
				{
					"inputs": [],
					"name": "area",
					"outputs": [
						{
							"internalType": "uint32",
							"name": "",
							"type": "uint32"
						}
					],
					"stateMutability": "view",
					"type": "function"
				},
				{
					"inputs": [],
					"name": "colour",
					"outputs": [
						{
							"internalType": "string",
							"name": "",
							"type": "string"
						}
					],
					"stateMutability": "view",
					"type": "function"
				},
				{
					"inputs": [],
					"name": "displayAll",
					"outputs": [
						{
							"internalType": "string",
							"name": "",
							"type": "string"
						},
						{
							"internalType": "string",
							"name": "",
							"type": "string"
						},
						{
							"internalType": "uint32",
							"name": "",
							"type": "uint32"
						},
						{
							"internalType": "uint32",
							"name": "",
							"type": "uint32"
						}
					],
					"stateMutability": "nonpayable",
					"type": "function"
				},
				{
					"inputs": [],
					"name": "getPerimeter",
					"outputs": [
						{
							"internalType": "uint32",
							"name": "",
							"type": "uint32"
						}
					],
					"stateMutability": "view",
					"type": "function"
				},
				{
					"inputs": [],
					"name": "perimeter",
					"outputs": [
						{
							"internalType": "uint32",
							"name": "",
							"type": "uint32"
						}
					],
					"stateMutability": "view",
					"type": "function"
				},
				{
					"inputs": [
						{
							"internalType": "string",
							"name": "_colour",
							"type": "string"
						},
						{
							"internalType": "string",
							"name": "_shape",
							"type": "string"
						}
					],
					"name": "setColourAndShape",
					"outputs": [],
					"stateMutability": "nonpayable",
					"type": "function"
				},
				{
					"inputs": [],
					"name": "shape",
					"outputs": [
						{
							"internalType": "string",
							"name": "",
							"type": "string"
						}
					],
					"stateMutability": "view",
					"type": "function"
				}
			],
			"devdoc": {
				"kind": "dev",
				"methods": {},
				"version": 1
			},
			"evm": {
				"assembly": "    /* \"Week6/ex1.sol\":59:677  contract Quadrangle{... */\n  mstore(0x40, 0x80)\n  callvalue\n  dup1\n  iszero\n  tag_1\n  jumpi\n  0x00\n  dup1\n  revert\ntag_1:\n  pop\n  dataSize(sub_0)\n  dup1\n  dataOffset(sub_0)\n  0x00\n  codecopy\n  0x00\n  return\nstop\n\nsub_0: assembly {\n        /* \"Week6/ex1.sol\":59:677  contract Quadrangle{... */\n      mstore(0x40, 0x80)\n      callvalue\n      dup1\n      iszero\n      tag_1\n      jumpi\n      0x00\n      dup1\n      revert\n    tag_1:\n      pop\n      jumpi(tag_2, lt(calldatasize, 0x04))\n      shr(0xe0, calldataload(0x00))\n      dup1\n      0x4309f065\n      gt\n      tag_10\n      jumpi\n      dup1\n      0x4309f065\n      eq\n      tag_6\n      jumpi\n      dup1\n      0x4c9beb53\n      eq\n      tag_7\n      jumpi\n      dup1\n      0x4d41892f\n      eq\n      tag_8\n      jumpi\n      dup1\n      0x7ebeb19c\n      eq\n      tag_9\n      jumpi\n      jump(tag_2)\n    tag_10:\n      dup1\n      0x0f7514a2\n      eq\n      tag_3\n      jumpi\n      dup1\n      0x2cf6598f\n      eq\n      tag_4\n      jumpi\n      dup1\n      0x3dbc0610\n      eq\n      tag_5\n      jumpi\n    tag_2:\n      0x00\n      dup1\n      revert\n        /* \"Week6/ex1.sol\":163:182  string public shape */\n    tag_3:\n      tag_11\n      tag_12\n      jump\t// in\n    tag_11:\n      mload(0x40)\n      tag_13\n      swap2\n      swap1\n      tag_14\n      jump\t// in\n    tag_13:\n      mload(0x40)\n      dup1\n      swap2\n      sub\n      swap1\n      return\n        /* \"Week6/ex1.sol\":108:131  uint32 public perimeter */\n    tag_4:\n      tag_15\n      tag_16\n      jump\t// in\n    tag_15:\n      mload(0x40)\n      tag_17\n      swap2\n      swap1\n      tag_18\n      jump\t// in\n    tag_17:\n      mload(0x40)\n      dup1\n      swap2\n      sub\n      swap1\n      return\n        /* \"Week6/ex1.sol\":137:157  string public colour */\n    tag_5:\n      tag_19\n      tag_20\n      jump\t// in\n    tag_19:\n      mload(0x40)\n      tag_21\n      swap2\n      swap1\n      tag_14\n      jump\t// in\n    tag_21:\n      mload(0x40)\n      dup1\n      swap2\n      sub\n      swap1\n      return\n        /* \"Week6/ex1.sol\":252:389  function setColourAndShape(string memory _colour, string memory _shape) public {... */\n    tag_6:\n      tag_22\n      0x04\n      dup1\n      calldatasize\n      sub\n      dup2\n      add\n      swap1\n      tag_23\n      swap2\n      swap1\n      tag_24\n      jump\t// in\n    tag_23:\n      tag_25\n      jump\t// in\n    tag_22:\n      stop\n        /* \"Week6/ex1.sol\":483:675  function displayAll() public returns (string memory, string memory, uint32, uint32){... */\n    tag_7:\n      tag_26\n      tag_27\n      jump\t// in\n    tag_26:\n      mload(0x40)\n      tag_28\n      swap5\n      swap4\n      swap3\n      swap2\n      swap1\n      tag_29\n      jump\t// in\n    tag_28:\n      mload(0x40)\n      dup1\n      swap2\n      sub\n      swap1\n      return\n        /* \"Week6/ex1.sol\":84:102  uint32 public area */\n    tag_8:\n      tag_30\n      tag_31\n      jump\t// in\n    tag_30:\n      mload(0x40)\n      tag_32\n      swap2\n      swap1\n      tag_18\n      jump\t// in\n    tag_32:\n      mload(0x40)\n      dup1\n      swap2\n      sub\n      swap1\n      return\n        /* \"Week6/ex1.sol\":394:478  function getPerimeter() public view returns(uint32){... */\n    tag_9:\n      tag_33\n      tag_34\n      jump\t// in\n    tag_33:\n      mload(0x40)\n      tag_35\n      swap2\n      swap1\n      tag_18\n      jump\t// in\n    tag_35:\n      mload(0x40)\n      dup1\n      swap2\n      sub\n      swap1\n      return\n        /* \"Week6/ex1.sol\":163:182  string public shape */\n    tag_12:\n      0x02\n      dup1\n      sload\n      tag_36\n      swap1\n      tag_37\n      jump\t// in\n    tag_36:\n      dup1\n      0x1f\n      add\n      0x20\n      dup1\n      swap2\n      div\n      mul\n      0x20\n      add\n      mload(0x40)\n      swap1\n      dup2\n      add\n      0x40\n      mstore\n      dup1\n      swap3\n      swap2\n      swap1\n      dup2\n      dup2\n      mstore\n      0x20\n      add\n      dup3\n      dup1\n      sload\n      tag_38\n      swap1\n      tag_37\n      jump\t// in\n    tag_38:\n      dup1\n      iszero\n      tag_39\n      jumpi\n      dup1\n      0x1f\n      lt\n      tag_40\n      jumpi\n      0x0100\n      dup1\n      dup4\n      sload\n      div\n      mul\n      dup4\n      mstore\n      swap2\n      0x20\n      add\n      swap2\n      jump(tag_39)\n    tag_40:\n      dup3\n      add\n      swap2\n      swap1\n      0x00\n      mstore\n      keccak256(0x00, 0x20)\n      swap1\n    tag_41:\n      dup2\n      sload\n      dup2\n      mstore\n      swap1\n      0x01\n      add\n      swap1\n      0x20\n      add\n      dup1\n      dup4\n      gt\n      tag_41\n      jumpi\n      dup3\n      swap1\n      sub\n      0x1f\n      and\n      dup3\n      add\n      swap2\n    tag_39:\n      pop\n      pop\n      pop\n      pop\n      pop\n      dup2\n      jump\t// out\n        /* \"Week6/ex1.sol\":108:131  uint32 public perimeter */\n    tag_16:\n      0x00\n      0x04\n      swap1\n      sload\n      swap1\n      0x0100\n      exp\n      swap1\n      div\n      0xffffffff\n      and\n      dup2\n      jump\t// out\n        /* \"Week6/ex1.sol\":137:157  string public colour */\n    tag_20:\n      0x01\n      dup1\n      sload\n      tag_42\n      swap1\n      tag_37\n      jump\t// in\n    tag_42:\n      dup1\n      0x1f\n      add\n      0x20\n      dup1\n      swap2\n      div\n      mul\n      0x20\n      add\n      mload(0x40)\n      swap1\n      dup2\n      add\n      0x40\n      mstore\n      dup1\n      swap3\n      swap2\n      swap1\n      dup2\n      dup2\n      mstore\n      0x20\n      add\n      dup3\n      dup1\n      sload\n      tag_43\n      swap1\n      tag_37\n      jump\t// in\n    tag_43:\n      dup1\n      iszero\n      tag_44\n      jumpi\n      dup1\n      0x1f\n      lt\n      tag_45\n      jumpi\n      0x0100\n      dup1\n      dup4\n      sload\n      div\n      mul\n      dup4\n      mstore\n      swap2\n      0x20\n      add\n      swap2\n      jump(tag_44)\n    tag_45:\n      dup3\n      add\n      swap2\n      swap1\n      0x00\n      mstore\n      keccak256(0x00, 0x20)\n      swap1\n    tag_46:\n      dup2\n      sload\n      dup2\n      mstore\n      swap1\n      0x01\n      add\n      swap1\n      0x20\n      add\n      dup1\n      dup4\n      gt\n      tag_46\n      jumpi\n      dup3\n      swap1\n      sub\n      0x1f\n      and\n      dup3\n      add\n      swap2\n    tag_44:\n      pop\n      pop\n      pop\n      pop\n      pop\n      dup2\n      jump\t// out\n        /* \"Week6/ex1.sol\":252:389  function setColourAndShape(string memory _colour, string memory _shape) public {... */\n    tag_25:\n        /* \"Week6/ex1.sol\":350:357  _colour */\n      dup2\n        /* \"Week6/ex1.sol\":341:347  colour */\n      0x01\n        /* \"Week6/ex1.sol\":341:357  colour = _colour */\n      swap1\n      dup2\n      tag_48\n      swap2\n      swap1\n      tag_49\n      jump\t// in\n    tag_48:\n      pop\n        /* \"Week6/ex1.sol\":376:382  _shape */\n      dup1\n        /* \"Week6/ex1.sol\":367:372  shape */\n      0x02\n        /* \"Week6/ex1.sol\":367:382  shape  = _shape */\n      swap1\n      dup2\n      tag_50\n      swap2\n      swap1\n      tag_49\n      jump\t// in\n    tag_50:\n      pop\n        /* \"Week6/ex1.sol\":252:389  function setColourAndShape(string memory _colour, string memory _shape) public {... */\n      pop\n      pop\n      jump\t// out\n        /* \"Week6/ex1.sol\":483:675  function displayAll() public returns (string memory, string memory, uint32, uint32){... */\n    tag_27:\n        /* \"Week6/ex1.sol\":521:534  string memory */\n      0x60\n        /* \"Week6/ex1.sol\":536:549  string memory */\n      dup1\n        /* \"Week6/ex1.sol\":551:557  uint32 */\n      0x00\n        /* \"Week6/ex1.sol\":559:565  uint32 */\n      dup1\n        /* \"Week6/ex1.sol\":581:620  display(colour, shape, area, perimeter) */\n      0x5c50b0c58eefa375548738c7bfe7fc846e8e57587d61efae305435d5c9a746aa\n        /* \"Week6/ex1.sol\":589:595  colour */\n      0x01\n        /* \"Week6/ex1.sol\":597:602  shape */\n      0x02\n        /* \"Week6/ex1.sol\":604:608  area */\n      0x00\n      dup1\n      sload\n      swap1\n      0x0100\n      exp\n      swap1\n      div\n      0xffffffff\n      and\n        /* \"Week6/ex1.sol\":610:619  perimeter */\n      0x00\n      0x04\n      swap1\n      sload\n      swap1\n      0x0100\n      exp\n      swap1\n      div\n      0xffffffff\n      and\n        /* \"Week6/ex1.sol\":581:620  display(colour, shape, area, perimeter) */\n      mload(0x40)\n      tag_52\n      swap5\n      swap4\n      swap3\n      swap2\n      swap1\n      tag_53\n      jump\t// in\n    tag_52:\n      mload(0x40)\n      dup1\n      swap2\n      sub\n      swap1\n      log1\n        /* \"Week6/ex1.sol\":637:643  colour */\n      0x01\n        /* \"Week6/ex1.sol\":645:650  shape */\n      0x02\n        /* \"Week6/ex1.sol\":652:656  area */\n      0x00\n      dup1\n      sload\n      swap1\n      0x0100\n      exp\n      swap1\n      div\n      0xffffffff\n      and\n        /* \"Week6/ex1.sol\":658:667  perimeter */\n      0x00\n      0x04\n      swap1\n      sload\n      swap1\n      0x0100\n      exp\n      swap1\n      div\n      0xffffffff\n      and\n        /* \"Week6/ex1.sol\":630:668  return(colour, shape, area, perimeter) */\n      dup4\n      dup1\n      sload\n      tag_54\n      swap1\n      tag_37\n      jump\t// in\n    tag_54:\n      dup1\n      0x1f\n      add\n      0x20\n      dup1\n      swap2\n      div\n      mul\n      0x20\n      add\n      mload(0x40)\n      swap1\n      dup2\n      add\n      0x40\n      mstore\n      dup1\n      swap3\n      swap2\n      swap1\n      dup2\n      dup2\n      mstore\n      0x20\n      add\n      dup3\n      dup1\n      sload\n      tag_55\n      swap1\n      tag_37\n      jump\t// in\n    tag_55:\n      dup1\n      iszero\n      tag_56\n      jumpi\n      dup1\n      0x1f\n      lt\n      tag_57\n      jumpi\n      0x0100\n      dup1\n      dup4\n      sload\n      div\n      mul\n      dup4\n      mstore\n      swap2\n      0x20\n      add\n      swap2\n      jump(tag_56)\n    tag_57:\n      dup3\n      add\n      swap2\n      swap1\n      0x00\n      mstore\n      keccak256(0x00, 0x20)\n      swap1\n    tag_58:\n      dup2\n      sload\n      dup2\n      mstore\n      swap1\n      0x01\n      add\n      swap1\n      0x20\n      add\n      dup1\n      dup4\n      gt\n      tag_58\n      jumpi\n      dup3\n      swap1\n      sub\n      0x1f\n      and\n      dup3\n      add\n      swap2\n    tag_56:\n      pop\n      pop\n      pop\n      pop\n      pop\n      swap4\n      pop\n      dup3\n      dup1\n      sload\n      tag_59\n      swap1\n      tag_37\n      jump\t// in\n    tag_59:\n      dup1\n      0x1f\n      add\n      0x20\n      dup1\n      swap2\n      div\n      mul\n      0x20\n      add\n      mload(0x40)\n      swap1\n      dup2\n      add\n      0x40\n      mstore\n      dup1\n      swap3\n      swap2\n      swap1\n      dup2\n      dup2\n      mstore\n      0x20\n      add\n      dup3\n      dup1\n      sload\n      tag_60\n      swap1\n      tag_37\n      jump\t// in\n    tag_60:\n      dup1\n      iszero\n      tag_61\n      jumpi\n      dup1\n      0x1f\n      lt\n      tag_62\n      jumpi\n      0x0100\n      dup1\n      dup4\n      sload\n      div\n      mul\n      dup4\n      mstore\n      swap2\n      0x20\n      add\n      swap2\n      jump(tag_61)\n    tag_62:\n      dup3\n      add\n      swap2\n      swap1\n      0x00\n      mstore\n      keccak256(0x00, 0x20)\n      swap1\n    tag_63:\n      dup2\n      sload\n      dup2\n      mstore\n      swap1\n      0x01\n      add\n      swap1\n      0x20\n      add\n      dup1\n      dup4\n      gt\n      tag_63\n      jumpi\n      dup3\n      swap1\n      sub\n      0x1f\n      and\n      dup3\n      add\n      swap2\n    tag_61:\n      pop\n      pop\n      pop\n      pop\n      pop\n      swap3\n      pop\n      swap4\n      pop\n      swap4\n      pop\n      swap4\n      pop\n      swap4\n      pop\n        /* \"Week6/ex1.sol\":483:675  function displayAll() public returns (string memory, string memory, uint32, uint32){... */\n      swap1\n      swap2\n      swap3\n      swap4\n      jump\t// out\n        /* \"Week6/ex1.sol\":84:102  uint32 public area */\n    tag_31:\n      0x00\n      dup1\n      sload\n      swap1\n      0x0100\n      exp\n      swap1\n      div\n      0xffffffff\n      and\n      dup2\n      jump\t// out\n        /* \"Week6/ex1.sol\":394:478  function getPerimeter() public view returns(uint32){... */\n    tag_34:\n        /* \"Week6/ex1.sol\":438:444  uint32 */\n      0x00\n        /* \"Week6/ex1.sol\":462:471  perimeter */\n      dup1\n      0x04\n      swap1\n      sload\n      swap1\n      0x0100\n      exp\n      swap1\n      div\n      0xffffffff\n      and\n        /* \"Week6/ex1.sol\":455:471  return perimeter */\n      swap1\n      pop\n        /* \"Week6/ex1.sol\":394:478  function getPerimeter() public view returns(uint32){... */\n      swap1\n      jump\t// out\n        /* \"#utility.yul\":7:106   */\n    tag_65:\n        /* \"#utility.yul\":59:65   */\n      0x00\n        /* \"#utility.yul\":93:98   */\n      dup2\n        /* \"#utility.yul\":87:99   */\n      mload\n        /* \"#utility.yul\":77:99   */\n      swap1\n      pop\n        /* \"#utility.yul\":7:106   */\n      swap2\n      swap1\n      pop\n      jump\t// out\n        /* \"#utility.yul\":112:281   */\n    tag_66:\n        /* \"#utility.yul\":196:207   */\n      0x00\n        /* \"#utility.yul\":230:236   */\n      dup3\n        /* \"#utility.yul\":225:228   */\n      dup3\n        /* \"#utility.yul\":218:237   */\n      mstore\n        /* \"#utility.yul\":270:274   */\n      0x20\n        /* \"#utility.yul\":265:268   */\n      dup3\n        /* \"#utility.yul\":261:275   */\n      add\n        /* \"#utility.yul\":246:275   */\n      swap1\n      pop\n        /* \"#utility.yul\":112:281   */\n      swap3\n      swap2\n      pop\n      pop\n      jump\t// out\n        /* \"#utility.yul\":287:426   */\n    tag_67:\n        /* \"#utility.yul\":376:382   */\n      dup3\n        /* \"#utility.yul\":371:374   */\n      dup2\n        /* \"#utility.yul\":366:369   */\n      dup4\n        /* \"#utility.yul\":360:383   */\n      mcopy\n        /* \"#utility.yul\":417:418   */\n      0x00\n        /* \"#utility.yul\":408:414   */\n      dup4\n        /* \"#utility.yul\":403:406   */\n      dup4\n        /* \"#utility.yul\":399:415   */\n      add\n        /* \"#utility.yul\":392:419   */\n      mstore\n        /* \"#utility.yul\":287:426   */\n      pop\n      pop\n      pop\n      jump\t// out\n        /* \"#utility.yul\":432:534   */\n    tag_68:\n        /* \"#utility.yul\":473:479   */\n      0x00\n        /* \"#utility.yul\":524:526   */\n      0x1f\n        /* \"#utility.yul\":520:527   */\n      not\n        /* \"#utility.yul\":515:517   */\n      0x1f\n        /* \"#utility.yul\":508:513   */\n      dup4\n        /* \"#utility.yul\":504:518   */\n      add\n        /* \"#utility.yul\":500:528   */\n      and\n        /* \"#utility.yul\":490:528   */\n      swap1\n      pop\n        /* \"#utility.yul\":432:534   */\n      swap2\n      swap1\n      pop\n      jump\t// out\n        /* \"#utility.yul\":540:917   */\n    tag_69:\n        /* \"#utility.yul\":628:631   */\n      0x00\n        /* \"#utility.yul\":656:695   */\n      tag_108\n        /* \"#utility.yul\":689:694   */\n      dup3\n        /* \"#utility.yul\":656:695   */\n      tag_65\n      jump\t// in\n    tag_108:\n        /* \"#utility.yul\":711:782   */\n      tag_109\n        /* \"#utility.yul\":775:781   */\n      dup2\n        /* \"#utility.yul\":770:773   */\n      dup6\n        /* \"#utility.yul\":711:782   */\n      tag_66\n      jump\t// in\n    tag_109:\n        /* \"#utility.yul\":704:782   */\n      swap4\n      pop\n        /* \"#utility.yul\":791:856   */\n      tag_110\n        /* \"#utility.yul\":849:855   */\n      dup2\n        /* \"#utility.yul\":844:847   */\n      dup6\n        /* \"#utility.yul\":837:841   */\n      0x20\n        /* \"#utility.yul\":830:835   */\n      dup7\n        /* \"#utility.yul\":826:842   */\n      add\n        /* \"#utility.yul\":791:856   */\n      tag_67\n      jump\t// in\n    tag_110:\n        /* \"#utility.yul\":881:910   */\n      tag_111\n        /* \"#utility.yul\":903:909   */\n      dup2\n        /* \"#utility.yul\":881:910   */\n      tag_68\n      jump\t// in\n    tag_111:\n        /* \"#utility.yul\":876:879   */\n      dup5\n        /* \"#utility.yul\":872:911   */\n      add\n        /* \"#utility.yul\":865:911   */\n      swap2\n      pop\n        /* \"#utility.yul\":632:917   */\n      pop\n        /* \"#utility.yul\":540:917   */\n      swap3\n      swap2\n      pop\n      pop\n      jump\t// out\n        /* \"#utility.yul\":923:1236   */\n    tag_14:\n        /* \"#utility.yul\":1036:1040   */\n      0x00\n        /* \"#utility.yul\":1074:1076   */\n      0x20\n        /* \"#utility.yul\":1063:1072   */\n      dup3\n        /* \"#utility.yul\":1059:1077   */\n      add\n        /* \"#utility.yul\":1051:1077   */\n      swap1\n      pop\n        /* \"#utility.yul\":1123:1132   */\n      dup2\n        /* \"#utility.yul\":1117:1121   */\n      dup2\n        /* \"#utility.yul\":1113:1133   */\n      sub\n        /* \"#utility.yul\":1109:1110   */\n      0x00\n        /* \"#utility.yul\":1098:1107   */\n      dup4\n        /* \"#utility.yul\":1094:1111   */\n      add\n        /* \"#utility.yul\":1087:1134   */\n      mstore\n        /* \"#utility.yul\":1151:1229   */\n      tag_113\n        /* \"#utility.yul\":1224:1228   */\n      dup2\n        /* \"#utility.yul\":1215:1221   */\n      dup5\n        /* \"#utility.yul\":1151:1229   */\n      tag_69\n      jump\t// in\n    tag_113:\n        /* \"#utility.yul\":1143:1229   */\n      swap1\n      pop\n        /* \"#utility.yul\":923:1236   */\n      swap3\n      swap2\n      pop\n      pop\n      jump\t// out\n        /* \"#utility.yul\":1242:1335   */\n    tag_70:\n        /* \"#utility.yul\":1278:1285   */\n      0x00\n        /* \"#utility.yul\":1318:1328   */\n      0xffffffff\n        /* \"#utility.yul\":1311:1316   */\n      dup3\n        /* \"#utility.yul\":1307:1329   */\n      and\n        /* \"#utility.yul\":1296:1329   */\n      swap1\n      pop\n        /* \"#utility.yul\":1242:1335   */\n      swap2\n      swap1\n      pop\n      jump\t// out\n        /* \"#utility.yul\":1341:1456   */\n    tag_71:\n        /* \"#utility.yul\":1426:1449   */\n      tag_116\n        /* \"#utility.yul\":1443:1448   */\n      dup2\n        /* \"#utility.yul\":1426:1449   */\n      tag_70\n      jump\t// in\n    tag_116:\n        /* \"#utility.yul\":1421:1424   */\n      dup3\n        /* \"#utility.yul\":1414:1450   */\n      mstore\n        /* \"#utility.yul\":1341:1456   */\n      pop\n      pop\n      jump\t// out\n        /* \"#utility.yul\":1462:1680   */\n    tag_18:\n        /* \"#utility.yul\":1553:1557   */\n      0x00\n        /* \"#utility.yul\":1591:1593   */\n      0x20\n        /* \"#utility.yul\":1580:1589   */\n      dup3\n        /* \"#utility.yul\":1576:1594   */\n      add\n        /* \"#utility.yul\":1568:1594   */\n      swap1\n      pop\n        /* \"#utility.yul\":1604:1673   */\n      tag_118\n        /* \"#utility.yul\":1670:1671   */\n      0x00\n        /* \"#utility.yul\":1659:1668   */\n      dup4\n        /* \"#utility.yul\":1655:1672   */\n      add\n        /* \"#utility.yul\":1646:1652   */\n      dup5\n        /* \"#utility.yul\":1604:1673   */\n      tag_71\n      jump\t// in\n    tag_118:\n        /* \"#utility.yul\":1462:1680   */\n      swap3\n      swap2\n      pop\n      pop\n      jump\t// out\n        /* \"#utility.yul\":1686:1761   */\n    tag_72:\n        /* \"#utility.yul\":1719:1725   */\n      0x00\n        /* \"#utility.yul\":1752:1754   */\n      0x40\n        /* \"#utility.yul\":1746:1755   */\n      mload\n        /* \"#utility.yul\":1736:1755   */\n      swap1\n      pop\n        /* \"#utility.yul\":1686:1761   */\n      swap1\n      jump\t// out\n        /* \"#utility.yul\":1767:1884   */\n    tag_73:\n        /* \"#utility.yul\":1876:1877   */\n      0x00\n        /* \"#utility.yul\":1873:1874   */\n      dup1\n        /* \"#utility.yul\":1866:1878   */\n      revert\n        /* \"#utility.yul\":1890:2007   */\n    tag_74:\n        /* \"#utility.yul\":1999:2000   */\n      0x00\n        /* \"#utility.yul\":1996:1997   */\n      dup1\n        /* \"#utility.yul\":1989:2001   */\n      revert\n        /* \"#utility.yul\":2013:2130   */\n    tag_75:\n        /* \"#utility.yul\":2122:2123   */\n      0x00\n        /* \"#utility.yul\":2119:2120   */\n      dup1\n        /* \"#utility.yul\":2112:2124   */\n      revert\n        /* \"#utility.yul\":2136:2253   */\n    tag_76:\n        /* \"#utility.yul\":2245:2246   */\n      0x00\n        /* \"#utility.yul\":2242:2243   */\n      dup1\n        /* \"#utility.yul\":2235:2247   */\n      revert\n        /* \"#utility.yul\":2259:2439   */\n    tag_77:\n        /* \"#utility.yul\":2307:2384   */\n      0x4e487b7100000000000000000000000000000000000000000000000000000000\n        /* \"#utility.yul\":2304:2305   */\n      0x00\n        /* \"#utility.yul\":2297:2385   */\n      mstore\n        /* \"#utility.yul\":2404:2408   */\n      0x41\n        /* \"#utility.yul\":2401:2402   */\n      0x04\n        /* \"#utility.yul\":2394:2409   */\n      mstore\n        /* \"#utility.yul\":2428:2432   */\n      0x24\n        /* \"#utility.yul\":2425:2426   */\n      0x00\n        /* \"#utility.yul\":2418:2433   */\n      revert\n        /* \"#utility.yul\":2445:2726   */\n    tag_78:\n        /* \"#utility.yul\":2528:2555   */\n      tag_126\n        /* \"#utility.yul\":2550:2554   */\n      dup3\n        /* \"#utility.yul\":2528:2555   */\n      tag_68\n      jump\t// in\n    tag_126:\n        /* \"#utility.yul\":2520:2526   */\n      dup2\n        /* \"#utility.yul\":2516:2556   */\n      add\n        /* \"#utility.yul\":2658:2664   */\n      dup2\n        /* \"#utility.yul\":2646:2656   */\n      dup2\n        /* \"#utility.yul\":2643:2665   */\n      lt\n        /* \"#utility.yul\":2622:2640   */\n      0xffffffffffffffff\n        /* \"#utility.yul\":2610:2620   */\n      dup3\n        /* \"#utility.yul\":2607:2641   */\n      gt\n        /* \"#utility.yul\":2604:2666   */\n      or\n        /* \"#utility.yul\":2601:2689   */\n      iszero\n      tag_127\n      jumpi\n        /* \"#utility.yul\":2669:2687   */\n      tag_128\n      tag_77\n      jump\t// in\n    tag_128:\n        /* \"#utility.yul\":2601:2689   */\n    tag_127:\n        /* \"#utility.yul\":2709:2719   */\n      dup1\n        /* \"#utility.yul\":2705:2707   */\n      0x40\n        /* \"#utility.yul\":2698:2720   */\n      mstore\n        /* \"#utility.yul\":2488:2726   */\n      pop\n        /* \"#utility.yul\":2445:2726   */\n      pop\n      pop\n      jump\t// out\n        /* \"#utility.yul\":2732:2861   */\n    tag_79:\n        /* \"#utility.yul\":2766:2772   */\n      0x00\n        /* \"#utility.yul\":2793:2813   */\n      tag_130\n      tag_72\n      jump\t// in\n    tag_130:\n        /* \"#utility.yul\":2783:2813   */\n      swap1\n      pop\n        /* \"#utility.yul\":2822:2855   */\n      tag_131\n        /* \"#utility.yul\":2850:2854   */\n      dup3\n        /* \"#utility.yul\":2842:2848   */\n      dup3\n        /* \"#utility.yul\":2822:2855   */\n      tag_78\n      jump\t// in\n    tag_131:\n        /* \"#utility.yul\":2732:2861   */\n      swap2\n      swap1\n      pop\n      jump\t// out\n        /* \"#utility.yul\":2867:3175   */\n    tag_80:\n        /* \"#utility.yul\":2929:2933   */\n      0x00\n        /* \"#utility.yul\":3019:3037   */\n      0xffffffffffffffff\n        /* \"#utility.yul\":3011:3017   */\n      dup3\n        /* \"#utility.yul\":3008:3038   */\n      gt\n        /* \"#utility.yul\":3005:3061   */\n      iszero\n      tag_133\n      jumpi\n        /* \"#utility.yul\":3041:3059   */\n      tag_134\n      tag_77\n      jump\t// in\n    tag_134:\n        /* \"#utility.yul\":3005:3061   */\n    tag_133:\n        /* \"#utility.yul\":3079:3108   */\n      tag_135\n        /* \"#utility.yul\":3101:3107   */\n      dup3\n        /* \"#utility.yul\":3079:3108   */\n      tag_68\n      jump\t// in\n    tag_135:\n        /* \"#utility.yul\":3071:3108   */\n      swap1\n      pop\n        /* \"#utility.yul\":3163:3167   */\n      0x20\n        /* \"#utility.yul\":3157:3161   */\n      dup2\n        /* \"#utility.yul\":3153:3168   */\n      add\n        /* \"#utility.yul\":3145:3168   */\n      swap1\n      pop\n        /* \"#utility.yul\":2867:3175   */\n      swap2\n      swap1\n      pop\n      jump\t// out\n        /* \"#utility.yul\":3181:3329   */\n    tag_81:\n        /* \"#utility.yul\":3279:3285   */\n      dup3\n        /* \"#utility.yul\":3274:3277   */\n      dup2\n        /* \"#utility.yul\":3269:3272   */\n      dup4\n        /* \"#utility.yul\":3256:3286   */\n      calldatacopy\n        /* \"#utility.yul\":3320:3321   */\n      0x00\n        /* \"#utility.yul\":3311:3317   */\n      dup4\n        /* \"#utility.yul\":3306:3309   */\n      dup4\n        /* \"#utility.yul\":3302:3318   */\n      add\n        /* \"#utility.yul\":3295:3322   */\n      mstore\n        /* \"#utility.yul\":3181:3329   */\n      pop\n      pop\n      pop\n      jump\t// out\n        /* \"#utility.yul\":3335:3760   */\n    tag_82:\n        /* \"#utility.yul\":3413:3418   */\n      0x00\n        /* \"#utility.yul\":3438:3504   */\n      tag_138\n        /* \"#utility.yul\":3454:3503   */\n      tag_139\n        /* \"#utility.yul\":3496:3502   */\n      dup5\n        /* \"#utility.yul\":3454:3503   */\n      tag_80\n      jump\t// in\n    tag_139:\n        /* \"#utility.yul\":3438:3504   */\n      tag_79\n      jump\t// in\n    tag_138:\n        /* \"#utility.yul\":3429:3504   */\n      swap1\n      pop\n        /* \"#utility.yul\":3527:3533   */\n      dup3\n        /* \"#utility.yul\":3520:3525   */\n      dup2\n        /* \"#utility.yul\":3513:3534   */\n      mstore\n        /* \"#utility.yul\":3565:3569   */\n      0x20\n        /* \"#utility.yul\":3558:3563   */\n      dup2\n        /* \"#utility.yul\":3554:3570   */\n      add\n        /* \"#utility.yul\":3603:3606   */\n      dup5\n        /* \"#utility.yul\":3594:3600   */\n      dup5\n        /* \"#utility.yul\":3589:3592   */\n      dup5\n        /* \"#utility.yul\":3585:3601   */\n      add\n        /* \"#utility.yul\":3582:3607   */\n      gt\n        /* \"#utility.yul\":3579:3691   */\n      iszero\n      tag_140\n      jumpi\n        /* \"#utility.yul\":3610:3689   */\n      tag_141\n      tag_76\n      jump\t// in\n    tag_141:\n        /* \"#utility.yul\":3579:3691   */\n    tag_140:\n        /* \"#utility.yul\":3700:3754   */\n      tag_142\n        /* \"#utility.yul\":3747:3753   */\n      dup5\n        /* \"#utility.yul\":3742:3745   */\n      dup3\n        /* \"#utility.yul\":3737:3740   */\n      dup6\n        /* \"#utility.yul\":3700:3754   */\n      tag_81\n      jump\t// in\n    tag_142:\n        /* \"#utility.yul\":3419:3760   */\n      pop\n        /* \"#utility.yul\":3335:3760   */\n      swap4\n      swap3\n      pop\n      pop\n      pop\n      jump\t// out\n        /* \"#utility.yul\":3780:4120   */\n    tag_83:\n        /* \"#utility.yul\":3836:3841   */\n      0x00\n        /* \"#utility.yul\":3885:3888   */\n      dup3\n        /* \"#utility.yul\":3878:3882   */\n      0x1f\n        /* \"#utility.yul\":3870:3876   */\n      dup4\n        /* \"#utility.yul\":3866:3883   */\n      add\n        /* \"#utility.yul\":3862:3889   */\n      slt\n        /* \"#utility.yul\":3852:3974   */\n      tag_144\n      jumpi\n        /* \"#utility.yul\":3893:3972   */\n      tag_145\n      tag_75\n      jump\t// in\n    tag_145:\n        /* \"#utility.yul\":3852:3974   */\n    tag_144:\n        /* \"#utility.yul\":4010:4016   */\n      dup2\n        /* \"#utility.yul\":3997:4017   */\n      calldataload\n        /* \"#utility.yul\":4035:4114   */\n      tag_146\n        /* \"#utility.yul\":4110:4113   */\n      dup5\n        /* \"#utility.yul\":4102:4108   */\n      dup3\n        /* \"#utility.yul\":4095:4099   */\n      0x20\n        /* \"#utility.yul\":4087:4093   */\n      dup7\n        /* \"#utility.yul\":4083:4100   */\n      add\n        /* \"#utility.yul\":4035:4114   */\n      tag_82\n      jump\t// in\n    tag_146:\n        /* \"#utility.yul\":4026:4114   */\n      swap2\n      pop\n        /* \"#utility.yul\":3842:4120   */\n      pop\n        /* \"#utility.yul\":3780:4120   */\n      swap3\n      swap2\n      pop\n      pop\n      jump\t// out\n        /* \"#utility.yul\":4126:4960   */\n    tag_24:\n        /* \"#utility.yul\":4214:4220   */\n      0x00\n        /* \"#utility.yul\":4222:4228   */\n      dup1\n        /* \"#utility.yul\":4271:4273   */\n      0x40\n        /* \"#utility.yul\":4259:4268   */\n      dup4\n        /* \"#utility.yul\":4250:4257   */\n      dup6\n        /* \"#utility.yul\":4246:4269   */\n      sub\n        /* \"#utility.yul\":4242:4274   */\n      slt\n        /* \"#utility.yul\":4239:4358   */\n      iszero\n      tag_148\n      jumpi\n        /* \"#utility.yul\":4277:4356   */\n      tag_149\n      tag_73\n      jump\t// in\n    tag_149:\n        /* \"#utility.yul\":4239:4358   */\n    tag_148:\n        /* \"#utility.yul\":4425:4426   */\n      0x00\n        /* \"#utility.yul\":4414:4423   */\n      dup4\n        /* \"#utility.yul\":4410:4427   */\n      add\n        /* \"#utility.yul\":4397:4428   */\n      calldataload\n        /* \"#utility.yul\":4455:4473   */\n      0xffffffffffffffff\n        /* \"#utility.yul\":4447:4453   */\n      dup2\n        /* \"#utility.yul\":4444:4474   */\n      gt\n        /* \"#utility.yul\":4441:4558   */\n      iszero\n      tag_150\n      jumpi\n        /* \"#utility.yul\":4477:4556   */\n      tag_151\n      tag_74\n      jump\t// in\n    tag_151:\n        /* \"#utility.yul\":4441:4558   */\n    tag_150:\n        /* \"#utility.yul\":4582:4645   */\n      tag_152\n        /* \"#utility.yul\":4637:4644   */\n      dup6\n        /* \"#utility.yul\":4628:4634   */\n      dup3\n        /* \"#utility.yul\":4617:4626   */\n      dup7\n        /* \"#utility.yul\":4613:4635   */\n      add\n        /* \"#utility.yul\":4582:4645   */\n      tag_83\n      jump\t// in\n    tag_152:\n        /* \"#utility.yul\":4572:4645   */\n      swap3\n      pop\n        /* \"#utility.yul\":4368:4655   */\n      pop\n        /* \"#utility.yul\":4722:4724   */\n      0x20\n        /* \"#utility.yul\":4711:4720   */\n      dup4\n        /* \"#utility.yul\":4707:4725   */\n      add\n        /* \"#utility.yul\":4694:4726   */\n      calldataload\n        /* \"#utility.yul\":4753:4771   */\n      0xffffffffffffffff\n        /* \"#utility.yul\":4745:4751   */\n      dup2\n        /* \"#utility.yul\":4742:4772   */\n      gt\n        /* \"#utility.yul\":4739:4856   */\n      iszero\n      tag_153\n      jumpi\n        /* \"#utility.yul\":4775:4854   */\n      tag_154\n      tag_74\n      jump\t// in\n    tag_154:\n        /* \"#utility.yul\":4739:4856   */\n    tag_153:\n        /* \"#utility.yul\":4880:4943   */\n      tag_155\n        /* \"#utility.yul\":4935:4942   */\n      dup6\n        /* \"#utility.yul\":4926:4932   */\n      dup3\n        /* \"#utility.yul\":4915:4924   */\n      dup7\n        /* \"#utility.yul\":4911:4933   */\n      add\n        /* \"#utility.yul\":4880:4943   */\n      tag_83\n      jump\t// in\n    tag_155:\n        /* \"#utility.yul\":4870:4943   */\n      swap2\n      pop\n        /* \"#utility.yul\":4665:4953   */\n      pop\n        /* \"#utility.yul\":4126:4960   */\n      swap3\n      pop\n      swap3\n      swap1\n      pop\n      jump\t// out\n        /* \"#utility.yul\":4966:5693   */\n    tag_29:\n        /* \"#utility.yul\":5179:5183   */\n      0x00\n        /* \"#utility.yul\":5217:5220   */\n      0x80\n        /* \"#utility.yul\":5206:5215   */\n      dup3\n        /* \"#utility.yul\":5202:5221   */\n      add\n        /* \"#utility.yul\":5194:5221   */\n      swap1\n      pop\n        /* \"#utility.yul\":5267:5276   */\n      dup2\n        /* \"#utility.yul\":5261:5265   */\n      dup2\n        /* \"#utility.yul\":5257:5277   */\n      sub\n        /* \"#utility.yul\":5253:5254   */\n      0x00\n        /* \"#utility.yul\":5242:5251   */\n      dup4\n        /* \"#utility.yul\":5238:5255   */\n      add\n        /* \"#utility.yul\":5231:5278   */\n      mstore\n        /* \"#utility.yul\":5295:5373   */\n      tag_157\n        /* \"#utility.yul\":5368:5372   */\n      dup2\n        /* \"#utility.yul\":5359:5365   */\n      dup8\n        /* \"#utility.yul\":5295:5373   */\n      tag_69\n      jump\t// in\n    tag_157:\n        /* \"#utility.yul\":5287:5373   */\n      swap1\n      pop\n        /* \"#utility.yul\":5420:5429   */\n      dup2\n        /* \"#utility.yul\":5414:5418   */\n      dup2\n        /* \"#utility.yul\":5410:5430   */\n      sub\n        /* \"#utility.yul\":5405:5407   */\n      0x20\n        /* \"#utility.yul\":5394:5403   */\n      dup4\n        /* \"#utility.yul\":5390:5408   */\n      add\n        /* \"#utility.yul\":5383:5431   */\n      mstore\n        /* \"#utility.yul\":5448:5526   */\n      tag_158\n        /* \"#utility.yul\":5521:5525   */\n      dup2\n        /* \"#utility.yul\":5512:5518   */\n      dup7\n        /* \"#utility.yul\":5448:5526   */\n      tag_69\n      jump\t// in\n    tag_158:\n        /* \"#utility.yul\":5440:5526   */\n      swap1\n      pop\n        /* \"#utility.yul\":5536:5606   */\n      tag_159\n        /* \"#utility.yul\":5602:5604   */\n      0x40\n        /* \"#utility.yul\":5591:5600   */\n      dup4\n        /* \"#utility.yul\":5587:5605   */\n      add\n        /* \"#utility.yul\":5578:5584   */\n      dup6\n        /* \"#utility.yul\":5536:5606   */\n      tag_71\n      jump\t// in\n    tag_159:\n        /* \"#utility.yul\":5616:5686   */\n      tag_160\n        /* \"#utility.yul\":5682:5684   */\n      0x60\n        /* \"#utility.yul\":5671:5680   */\n      dup4\n        /* \"#utility.yul\":5667:5685   */\n      add\n        /* \"#utility.yul\":5658:5664   */\n      dup5\n        /* \"#utility.yul\":5616:5686   */\n      tag_71\n      jump\t// in\n    tag_160:\n        /* \"#utility.yul\":4966:5693   */\n      swap6\n      swap5\n      pop\n      pop\n      pop\n      pop\n      pop\n      jump\t// out\n        /* \"#utility.yul\":5699:5879   */\n    tag_84:\n        /* \"#utility.yul\":5747:5824   */\n      0x4e487b7100000000000000000000000000000000000000000000000000000000\n        /* \"#utility.yul\":5744:5745   */\n      0x00\n        /* \"#utility.yul\":5737:5825   */\n      mstore\n        /* \"#utility.yul\":5844:5848   */\n      0x22\n        /* \"#utility.yul\":5841:5842   */\n      0x04\n        /* \"#utility.yul\":5834:5849   */\n      mstore\n        /* \"#utility.yul\":5868:5872   */\n      0x24\n        /* \"#utility.yul\":5865:5866   */\n      0x00\n        /* \"#utility.yul\":5858:5873   */\n      revert\n        /* \"#utility.yul\":5885:6205   */\n    tag_37:\n        /* \"#utility.yul\":5929:5935   */\n      0x00\n        /* \"#utility.yul\":5966:5967   */\n      0x02\n        /* \"#utility.yul\":5960:5964   */\n      dup3\n        /* \"#utility.yul\":5956:5968   */\n      div\n        /* \"#utility.yul\":5946:5968   */\n      swap1\n      pop\n        /* \"#utility.yul\":6013:6014   */\n      0x01\n        /* \"#utility.yul\":6007:6011   */\n      dup3\n        /* \"#utility.yul\":6003:6015   */\n      and\n        /* \"#utility.yul\":6034:6052   */\n      dup1\n        /* \"#utility.yul\":6024:6105   */\n      tag_163\n      jumpi\n        /* \"#utility.yul\":6090:6094   */\n      0x7f\n        /* \"#utility.yul\":6082:6088   */\n      dup3\n        /* \"#utility.yul\":6078:6095   */\n      and\n        /* \"#utility.yul\":6068:6095   */\n      swap2\n      pop\n        /* \"#utility.yul\":6024:6105   */\n    tag_163:\n        /* \"#utility.yul\":6152:6154   */\n      0x20\n        /* \"#utility.yul\":6144:6150   */\n      dup3\n        /* \"#utility.yul\":6141:6155   */\n      lt\n        /* \"#utility.yul\":6121:6139   */\n      dup2\n        /* \"#utility.yul\":6118:6156   */\n      sub\n        /* \"#utility.yul\":6115:6199   */\n      tag_164\n      jumpi\n        /* \"#utility.yul\":6171:6189   */\n      tag_165\n      tag_84\n      jump\t// in\n    tag_165:\n        /* \"#utility.yul\":6115:6199   */\n    tag_164:\n        /* \"#utility.yul\":5936:6205   */\n      pop\n        /* \"#utility.yul\":5885:6205   */\n      swap2\n      swap1\n      pop\n      jump\t// out\n        /* \"#utility.yul\":6211:6352   */\n    tag_85:\n        /* \"#utility.yul\":6260:6264   */\n      0x00\n        /* \"#utility.yul\":6283:6286   */\n      dup2\n        /* \"#utility.yul\":6275:6286   */\n      swap1\n      pop\n        /* \"#utility.yul\":6306:6309   */\n      dup2\n        /* \"#utility.yul\":6303:6304   */\n      0x00\n        /* \"#utility.yul\":6296:6310   */\n      mstore\n        /* \"#utility.yul\":6340:6344   */\n      0x20\n        /* \"#utility.yul\":6337:6338   */\n      0x00\n        /* \"#utility.yul\":6327:6345   */\n      keccak256\n        /* \"#utility.yul\":6319:6345   */\n      swap1\n      pop\n        /* \"#utility.yul\":6211:6352   */\n      swap2\n      swap1\n      pop\n      jump\t// out\n        /* \"#utility.yul\":6358:6451   */\n    tag_86:\n        /* \"#utility.yul\":6395:6401   */\n      0x00\n        /* \"#utility.yul\":6442:6444   */\n      0x20\n        /* \"#utility.yul\":6437:6439   */\n      0x1f\n        /* \"#utility.yul\":6430:6435   */\n      dup4\n        /* \"#utility.yul\":6426:6440   */\n      add\n        /* \"#utility.yul\":6422:6445   */\n      div\n        /* \"#utility.yul\":6412:6445   */\n      swap1\n      pop\n        /* \"#utility.yul\":6358:6451   */\n      swap2\n      swap1\n      pop\n      jump\t// out\n        /* \"#utility.yul\":6457:6564   */\n    tag_87:\n        /* \"#utility.yul\":6501:6509   */\n      0x00\n        /* \"#utility.yul\":6551:6556   */\n      dup3\n        /* \"#utility.yul\":6545:6549   */\n      dup3\n        /* \"#utility.yul\":6541:6557   */\n      shl\n        /* \"#utility.yul\":6520:6557   */\n      swap1\n      pop\n        /* \"#utility.yul\":6457:6564   */\n      swap3\n      swap2\n      pop\n      pop\n      jump\t// out\n        /* \"#utility.yul\":6570:6963   */\n    tag_88:\n        /* \"#utility.yul\":6639:6645   */\n      0x00\n        /* \"#utility.yul\":6689:6690   */\n      0x08\n        /* \"#utility.yul\":6677:6687   */\n      dup4\n        /* \"#utility.yul\":6673:6691   */\n      mul\n        /* \"#utility.yul\":6712:6809   */\n      tag_170\n        /* \"#utility.yul\":6742:6808   */\n      0xffffffffffffffffffffffffffffffffffffffffffffffffffffffffffffffff\n        /* \"#utility.yul\":6731:6740   */\n      dup3\n        /* \"#utility.yul\":6712:6809   */\n      tag_87\n      jump\t// in\n    tag_170:\n        /* \"#utility.yul\":6830:6869   */\n      tag_171\n        /* \"#utility.yul\":6860:6868   */\n      dup7\n        /* \"#utility.yul\":6849:6858   */\n      dup4\n        /* \"#utility.yul\":6830:6869   */\n      tag_87\n      jump\t// in\n    tag_171:\n        /* \"#utility.yul\":6818:6869   */\n      swap6\n      pop\n        /* \"#utility.yul\":6902:6906   */\n      dup1\n        /* \"#utility.yul\":6898:6907   */\n      not\n        /* \"#utility.yul\":6891:6896   */\n      dup5\n        /* \"#utility.yul\":6887:6908   */\n      and\n        /* \"#utility.yul\":6878:6908   */\n      swap4\n      pop\n        /* \"#utility.yul\":6951:6955   */\n      dup1\n        /* \"#utility.yul\":6941:6949   */\n      dup7\n        /* \"#utility.yul\":6937:6956   */\n      and\n        /* \"#utility.yul\":6930:6935   */\n      dup5\n        /* \"#utility.yul\":6927:6957   */\n      or\n        /* \"#utility.yul\":6917:6957   */\n      swap3\n      pop\n        /* \"#utility.yul\":6646:6963   */\n      pop\n      pop\n        /* \"#utility.yul\":6570:6963   */\n      swap4\n      swap3\n      pop\n      pop\n      pop\n      jump\t// out\n        /* \"#utility.yul\":6969:7046   */\n    tag_89:\n        /* \"#utility.yul\":7006:7013   */\n      0x00\n        /* \"#utility.yul\":7035:7040   */\n      dup2\n        /* \"#utility.yul\":7024:7040   */\n      swap1\n      pop\n        /* \"#utility.yul\":6969:7046   */\n      swap2\n      swap1\n      pop\n      jump\t// out\n        /* \"#utility.yul\":7052:7112   */\n    tag_90:\n        /* \"#utility.yul\":7080:7083   */\n      0x00\n        /* \"#utility.yul\":7101:7106   */\n      dup2\n        /* \"#utility.yul\":7094:7106   */\n      swap1\n      pop\n        /* \"#utility.yul\":7052:7112   */\n      swap2\n      swap1\n      pop\n      jump\t// out\n        /* \"#utility.yul\":7118:7260   */\n    tag_91:\n        /* \"#utility.yul\":7168:7177   */\n      0x00\n        /* \"#utility.yul\":7201:7254   */\n      tag_175\n        /* \"#utility.yul\":7219:7253   */\n      tag_176\n        /* \"#utility.yul\":7228:7252   */\n      tag_177\n        /* \"#utility.yul\":7246:7251   */\n      dup5\n        /* \"#utility.yul\":7228:7252   */\n      tag_89\n      jump\t// in\n    tag_177:\n        /* \"#utility.yul\":7219:7253   */\n      tag_90\n      jump\t// in\n    tag_176:\n        /* \"#utility.yul\":7201:7254   */\n      tag_89\n      jump\t// in\n    tag_175:\n        /* \"#utility.yul\":7188:7254   */\n      swap1\n      pop\n        /* \"#utility.yul\":7118:7260   */\n      swap2\n      swap1\n      pop\n      jump\t// out\n        /* \"#utility.yul\":7266:7341   */\n    tag_92:\n        /* \"#utility.yul\":7309:7312   */\n      0x00\n        /* \"#utility.yul\":7330:7335   */\n      dup2\n        /* \"#utility.yul\":7323:7335   */\n      swap1\n      pop\n        /* \"#utility.yul\":7266:7341   */\n      swap2\n      swap1\n      pop\n      jump\t// out\n        /* \"#utility.yul\":7347:7616   */\n    tag_93:\n        /* \"#utility.yul\":7457:7496   */\n      tag_180\n        /* \"#utility.yul\":7488:7495   */\n      dup4\n        /* \"#utility.yul\":7457:7496   */\n      tag_91\n      jump\t// in\n    tag_180:\n        /* \"#utility.yul\":7518:7609   */\n      tag_181\n        /* \"#utility.yul\":7567:7608   */\n      tag_182\n        /* \"#utility.yul\":7591:7607   */\n      dup3\n        /* \"#utility.yul\":7567:7608   */\n      tag_92\n      jump\t// in\n    tag_182:\n        /* \"#utility.yul\":7559:7565   */\n      dup5\n        /* \"#utility.yul\":7552:7556   */\n      dup5\n        /* \"#utility.yul\":7546:7557   */\n      sload\n        /* \"#utility.yul\":7518:7609   */\n      tag_88\n      jump\t// in\n    tag_181:\n        /* \"#utility.yul\":7512:7516   */\n      dup3\n        /* \"#utility.yul\":7505:7610   */\n      sstore\n        /* \"#utility.yul\":7423:7616   */\n      pop\n        /* \"#utility.yul\":7347:7616   */\n      pop\n      pop\n      pop\n      jump\t// out\n        /* \"#utility.yul\":7622:7695   */\n    tag_94:\n        /* \"#utility.yul\":7667:7670   */\n      0x00\n        /* \"#utility.yul\":7622:7695   */\n      swap1\n      jump\t// out\n        /* \"#utility.yul\":7701:7890   */\n    tag_95:\n        /* \"#utility.yul\":7778:7810   */\n      tag_185\n      tag_94\n      jump\t// in\n    tag_185:\n        /* \"#utility.yul\":7819:7884   */\n      tag_186\n        /* \"#utility.yul\":7877:7883   */\n      dup2\n        /* \"#utility.yul\":7869:7875   */\n      dup5\n        /* \"#utility.yul\":7863:7867   */\n      dup5\n        /* \"#utility.yul\":7819:7884   */\n      tag_93\n      jump\t// in\n    tag_186:\n        /* \"#utility.yul\":7754:7890   */\n      pop\n        /* \"#utility.yul\":7701:7890   */\n      pop\n      pop\n      jump\t// out\n        /* \"#utility.yul\":7896:8082   */\n    tag_96:\n        /* \"#utility.yul\":7956:8076   */\n    tag_188:\n        /* \"#utility.yul\":7973:7976   */\n      dup2\n        /* \"#utility.yul\":7966:7971   */\n      dup2\n        /* \"#utility.yul\":7963:7977   */\n      lt\n        /* \"#utility.yul\":7956:8076   */\n      iszero\n      tag_190\n      jumpi\n        /* \"#utility.yul\":8027:8066   */\n      tag_191\n        /* \"#utility.yul\":8064:8065   */\n      0x00\n        /* \"#utility.yul\":8057:8062   */\n      dup3\n        /* \"#utility.yul\":8027:8066   */\n      tag_95\n      jump\t// in\n    tag_191:\n        /* \"#utility.yul\":8000:8001   */\n      0x01\n        /* \"#utility.yul\":7993:7998   */\n      dup2\n        /* \"#utility.yul\":7989:8002   */\n      add\n        /* \"#utility.yul\":7980:8002   */\n      swap1\n      pop\n        /* \"#utility.yul\":7956:8076   */\n      jump(tag_188)\n    tag_190:\n        /* \"#utility.yul\":7896:8082   */\n      pop\n      pop\n      jump\t// out\n        /* \"#utility.yul\":8088:8631   */\n    tag_97:\n        /* \"#utility.yul\":8189:8191   */\n      0x1f\n        /* \"#utility.yul\":8184:8187   */\n      dup3\n        /* \"#utility.yul\":8181:8192   */\n      gt\n        /* \"#utility.yul\":8178:8624   */\n      iszero\n      tag_193\n      jumpi\n        /* \"#utility.yul\":8223:8261   */\n      tag_194\n        /* \"#utility.yul\":8255:8260   */\n      dup2\n        /* \"#utility.yul\":8223:8261   */\n      tag_85\n      jump\t// in\n    tag_194:\n        /* \"#utility.yul\":8307:8336   */\n      tag_195\n        /* \"#utility.yul\":8325:8335   */\n      dup5\n        /* \"#utility.yul\":8307:8336   */\n      tag_86\n      jump\t// in\n    tag_195:\n        /* \"#utility.yul\":8297:8305   */\n      dup2\n        /* \"#utility.yul\":8293:8337   */\n      add\n        /* \"#utility.yul\":8490:8492   */\n      0x20\n        /* \"#utility.yul\":8478:8488   */\n      dup6\n        /* \"#utility.yul\":8475:8493   */\n      lt\n        /* \"#utility.yul\":8472:8521   */\n      iszero\n      tag_196\n      jumpi\n        /* \"#utility.yul\":8511:8519   */\n      dup2\n        /* \"#utility.yul\":8496:8519   */\n      swap1\n      pop\n        /* \"#utility.yul\":8472:8521   */\n    tag_196:\n        /* \"#utility.yul\":8534:8614   */\n      tag_197\n        /* \"#utility.yul\":8590:8612   */\n      tag_198\n        /* \"#utility.yul\":8608:8611   */\n      dup6\n        /* \"#utility.yul\":8590:8612   */\n      tag_86\n      jump\t// in\n    tag_198:\n        /* \"#utility.yul\":8580:8588   */\n      dup4\n        /* \"#utility.yul\":8576:8613   */\n      add\n        /* \"#utility.yul\":8563:8574   */\n      dup3\n        /* \"#utility.yul\":8534:8614   */\n      tag_96\n      jump\t// in\n    tag_197:\n        /* \"#utility.yul\":8193:8624   */\n      pop\n      pop\n        /* \"#utility.yul\":8178:8624   */\n    tag_193:\n        /* \"#utility.yul\":8088:8631   */\n      pop\n      pop\n      pop\n      jump\t// out\n        /* \"#utility.yul\":8637:8754   */\n    tag_98:\n        /* \"#utility.yul\":8691:8699   */\n      0x00\n        /* \"#utility.yul\":8741:8746   */\n      dup3\n        /* \"#utility.yul\":8735:8739   */\n      dup3\n        /* \"#utility.yul\":8731:8747   */\n      shr\n        /* \"#utility.yul\":8710:8747   */\n      swap1\n      pop\n        /* \"#utility.yul\":8637:8754   */\n      swap3\n      swap2\n      pop\n      pop\n      jump\t// out\n        /* \"#utility.yul\":8760:8929   */\n    tag_99:\n        /* \"#utility.yul\":8804:8810   */\n      0x00\n        /* \"#utility.yul\":8837:8888   */\n      tag_201\n        /* \"#utility.yul\":8885:8886   */\n      0x00\n        /* \"#utility.yul\":8881:8887   */\n      not\n        /* \"#utility.yul\":8873:8878   */\n      dup5\n        /* \"#utility.yul\":8870:8871   */\n      0x08\n        /* \"#utility.yul\":8866:8879   */\n      mul\n        /* \"#utility.yul\":8837:8888   */\n      tag_98\n      jump\t// in\n    tag_201:\n        /* \"#utility.yul\":8833:8889   */\n      not\n        /* \"#utility.yul\":8918:8922   */\n      dup1\n        /* \"#utility.yul\":8912:8916   */\n      dup4\n        /* \"#utility.yul\":8908:8923   */\n      and\n        /* \"#utility.yul\":8898:8923   */\n      swap2\n      pop\n        /* \"#utility.yul\":8811:8929   */\n      pop\n        /* \"#utility.yul\":8760:8929   */\n      swap3\n      swap2\n      pop\n      pop\n      jump\t// out\n        /* \"#utility.yul\":8934:9229   */\n    tag_100:\n        /* \"#utility.yul\":9010:9014   */\n      0x00\n        /* \"#utility.yul\":9156:9185   */\n      tag_203\n        /* \"#utility.yul\":9181:9184   */\n      dup4\n        /* \"#utility.yul\":9175:9179   */\n      dup4\n        /* \"#utility.yul\":9156:9185   */\n      tag_99\n      jump\t// in\n    tag_203:\n        /* \"#utility.yul\":9148:9185   */\n      swap2\n      pop\n        /* \"#utility.yul\":9218:9221   */\n      dup3\n        /* \"#utility.yul\":9215:9216   */\n      0x02\n        /* \"#utility.yul\":9211:9222   */\n      mul\n        /* \"#utility.yul\":9205:9209   */\n      dup3\n        /* \"#utility.yul\":9202:9223   */\n      or\n        /* \"#utility.yul\":9194:9223   */\n      swap1\n      pop\n        /* \"#utility.yul\":8934:9229   */\n      swap3\n      swap2\n      pop\n      pop\n      jump\t// out\n        /* \"#utility.yul\":9234:10629   */\n    tag_49:\n        /* \"#utility.yul\":9351:9388   */\n      tag_205\n        /* \"#utility.yul\":9384:9387   */\n      dup3\n        /* \"#utility.yul\":9351:9388   */\n      tag_65\n      jump\t// in\n    tag_205:\n        /* \"#utility.yul\":9453:9471   */\n      0xffffffffffffffff\n        /* \"#utility.yul\":9445:9451   */\n      dup2\n        /* \"#utility.yul\":9442:9472   */\n      gt\n        /* \"#utility.yul\":9439:9495   */\n      iszero\n      tag_206\n      jumpi\n        /* \"#utility.yul\":9475:9493   */\n      tag_207\n      tag_77\n      jump\t// in\n    tag_207:\n        /* \"#utility.yul\":9439:9495   */\n    tag_206:\n        /* \"#utility.yul\":9519:9557   */\n      tag_208\n        /* \"#utility.yul\":9551:9555   */\n      dup3\n        /* \"#utility.yul\":9545:9556   */\n      sload\n        /* \"#utility.yul\":9519:9557   */\n      tag_37\n      jump\t// in\n    tag_208:\n        /* \"#utility.yul\":9604:9671   */\n      tag_209\n        /* \"#utility.yul\":9664:9670   */\n      dup3\n        /* \"#utility.yul\":9656:9662   */\n      dup3\n        /* \"#utility.yul\":9650:9654   */\n      dup6\n        /* \"#utility.yul\":9604:9671   */\n      tag_97\n      jump\t// in\n    tag_209:\n        /* \"#utility.yul\":9698:9699   */\n      0x00\n        /* \"#utility.yul\":9722:9726   */\n      0x20\n        /* \"#utility.yul\":9709:9726   */\n      swap1\n      pop\n        /* \"#utility.yul\":9754:9756   */\n      0x1f\n        /* \"#utility.yul\":9746:9752   */\n      dup4\n        /* \"#utility.yul\":9743:9757   */\n      gt\n        /* \"#utility.yul\":9771:9772   */\n      0x01\n        /* \"#utility.yul\":9766:10384   */\n      dup2\n      eq\n      tag_211\n      jumpi\n        /* \"#utility.yul\":10428:10429   */\n      0x00\n        /* \"#utility.yul\":10445:10451   */\n      dup5\n        /* \"#utility.yul\":10442:10519   */\n      iszero\n      tag_212\n      jumpi\n        /* \"#utility.yul\":10494:10503   */\n      dup3\n        /* \"#utility.yul\":10489:10492   */\n      dup8\n        /* \"#utility.yul\":10485:10504   */\n      add\n        /* \"#utility.yul\":10479:10505   */\n      mload\n        /* \"#utility.yul\":10470:10505   */\n      swap1\n      pop\n        /* \"#utility.yul\":10442:10519   */\n    tag_212:\n        /* \"#utility.yul\":10545:10612   */\n      tag_213\n        /* \"#utility.yul\":10605:10611   */\n      dup6\n        /* \"#utility.yul\":10598:10603   */\n      dup3\n        /* \"#utility.yul\":10545:10612   */\n      tag_100\n      jump\t// in\n    tag_213:\n        /* \"#utility.yul\":10539:10543   */\n      dup7\n        /* \"#utility.yul\":10532:10613   */\n      sstore\n        /* \"#utility.yul\":10401:10623   */\n      pop\n        /* \"#utility.yul\":9736:10623   */\n      jump(tag_210)\n        /* \"#utility.yul\":9766:10384   */\n    tag_211:\n        /* \"#utility.yul\":9818:9822   */\n      0x1f\n        /* \"#utility.yul\":9814:9823   */\n      not\n        /* \"#utility.yul\":9806:9812   */\n      dup5\n        /* \"#utility.yul\":9802:9824   */\n      and\n        /* \"#utility.yul\":9852:9889   */\n      tag_214\n        /* \"#utility.yul\":9884:9888   */\n      dup7\n        /* \"#utility.yul\":9852:9889   */\n      tag_85\n      jump\t// in\n    tag_214:\n        /* \"#utility.yul\":9911:9912   */\n      0x00\n        /* \"#utility.yul\":9925:10133   */\n    tag_215:\n        /* \"#utility.yul\":9939:9946   */\n      dup3\n        /* \"#utility.yul\":9936:9937   */\n      dup2\n        /* \"#utility.yul\":9933:9947   */\n      lt\n        /* \"#utility.yul\":9925:10133   */\n      iszero\n      tag_217\n      jumpi\n        /* \"#utility.yul\":10018:10027   */\n      dup5\n        /* \"#utility.yul\":10013:10016   */\n      dup10\n        /* \"#utility.yul\":10009:10028   */\n      add\n        /* \"#utility.yul\":10003:10029   */\n      mload\n        /* \"#utility.yul\":9995:10001   */\n      dup3\n        /* \"#utility.yul\":9988:10030   */\n      sstore\n        /* \"#utility.yul\":10069:10070   */\n      0x01\n        /* \"#utility.yul\":10061:10067   */\n      dup3\n        /* \"#utility.yul\":10057:10071   */\n      add\n        /* \"#utility.yul\":10047:10071   */\n      swap2\n      pop\n        /* \"#utility.yul\":10116:10118   */\n      0x20\n        /* \"#utility.yul\":10105:10114   */\n      dup6\n        /* \"#utility.yul\":10101:10119   */\n      add\n        /* \"#utility.yul\":10088:10119   */\n      swap5\n      pop\n        /* \"#utility.yul\":9962:9966   */\n      0x20\n        /* \"#utility.yul\":9959:9960   */\n      dup2\n        /* \"#utility.yul\":9955:9967   */\n      add\n        /* \"#utility.yul\":9950:9967   */\n      swap1\n      pop\n        /* \"#utility.yul\":9925:10133   */\n      jump(tag_215)\n    tag_217:\n        /* \"#utility.yul\":10161:10167   */\n      dup7\n        /* \"#utility.yul\":10152:10159   */\n      dup4\n        /* \"#utility.yul\":10149:10168   */\n      lt\n        /* \"#utility.yul\":10146:10325   */\n      iszero\n      tag_218\n      jumpi\n        /* \"#utility.yul\":10219:10228   */\n      dup5\n        /* \"#utility.yul\":10214:10217   */\n      dup10\n        /* \"#utility.yul\":10210:10229   */\n      add\n        /* \"#utility.yul\":10204:10230   */\n      mload\n        /* \"#utility.yul\":10262:10310   */\n      tag_219\n        /* \"#utility.yul\":10304:10308   */\n      0x1f\n        /* \"#utility.yul\":10296:10302   */\n      dup10\n        /* \"#utility.yul\":10292:10309   */\n      and\n        /* \"#utility.yul\":10281:10290   */\n      dup3\n        /* \"#utility.yul\":10262:10310   */\n      tag_99\n      jump\t// in\n    tag_219:\n        /* \"#utility.yul\":10254:10260   */\n      dup4\n        /* \"#utility.yul\":10247:10311   */\n      sstore\n        /* \"#utility.yul\":10169:10325   */\n      pop\n        /* \"#utility.yul\":10146:10325   */\n    tag_218:\n        /* \"#utility.yul\":10371:10372   */\n      0x01\n        /* \"#utility.yul\":10367:10368   */\n      0x02\n        /* \"#utility.yul\":10359:10365   */\n      dup9\n        /* \"#utility.yul\":10355:10369   */\n      mul\n        /* \"#utility.yul\":10351:10373   */\n      add\n        /* \"#utility.yul\":10345:10349   */\n      dup9\n        /* \"#utility.yul\":10338:10374   */\n      sstore\n        /* \"#utility.yul\":9773:10384   */\n      pop\n      pop\n      pop\n        /* \"#utility.yul\":9736:10623   */\n    tag_210:\n      pop\n        /* \"#utility.yul\":9326:10629   */\n      pop\n      pop\n      pop\n        /* \"#utility.yul\":9234:10629   */\n      pop\n      pop\n      jump\t// out\n        /* \"#utility.yul\":10659:11490   */\n    tag_101:\n        /* \"#utility.yul\":10744:10747   */\n      0x00\n        /* \"#utility.yul\":10781:10786   */\n      dup2\n        /* \"#utility.yul\":10775:10787   */\n      sload\n        /* \"#utility.yul\":10810:10846   */\n      tag_221\n        /* \"#utility.yul\":10836:10845   */\n      dup2\n        /* \"#utility.yul\":10810:10846   */\n      tag_37\n      jump\t// in\n    tag_221:\n        /* \"#utility.yul\":10862:10933   */\n      tag_222\n        /* \"#utility.yul\":10926:10932   */\n      dup2\n        /* \"#utility.yul\":10921:10924   */\n      dup7\n        /* \"#utility.yul\":10862:10933   */\n      tag_66\n      jump\t// in\n    tag_222:\n        /* \"#utility.yul\":10855:10933   */\n      swap5\n      pop\n        /* \"#utility.yul\":10964:10965   */\n      0x01\n        /* \"#utility.yul\":10953:10962   */\n      dup3\n        /* \"#utility.yul\":10949:10966   */\n      and\n        /* \"#utility.yul\":10980:10981   */\n      0x00\n        /* \"#utility.yul\":10975:11139   */\n      dup2\n      eq\n      tag_224\n      jumpi\n        /* \"#utility.yul\":11153:11154   */\n      0x01\n        /* \"#utility.yul\":11148:11484   */\n      dup2\n      eq\n      tag_225\n      jumpi\n        /* \"#utility.yul\":10942:11484   */\n      jump(tag_223)\n        /* \"#utility.yul\":10975:11139   */\n    tag_224:\n        /* \"#utility.yul\":11059:11063   */\n      0xff\n        /* \"#utility.yul\":11055:11064   */\n      not\n        /* \"#utility.yul\":11044:11053   */\n      dup4\n        /* \"#utility.yul\":11040:11065   */\n      and\n        /* \"#utility.yul\":11035:11038   */\n      dup7\n        /* \"#utility.yul\":11028:11066   */\n      mstore\n        /* \"#utility.yul\":11119:11125   */\n      dup2\n        /* \"#utility.yul\":11112:11126   */\n      iszero\n        /* \"#utility.yul\":11105:11127   */\n      iszero\n        /* \"#utility.yul\":11099:11103   */\n      0x20\n        /* \"#utility.yul\":11095:11128   */\n      mul\n        /* \"#utility.yul\":11090:11093   */\n      dup7\n        /* \"#utility.yul\":11086:11129   */\n      add\n        /* \"#utility.yul\":11079:11129   */\n      swap4\n      pop\n        /* \"#utility.yul\":10975:11139   */\n      jump(tag_223)\n        /* \"#utility.yul\":11148:11484   */\n    tag_225:\n        /* \"#utility.yul\":11215:11253   */\n      tag_226\n        /* \"#utility.yul\":11247:11252   */\n      dup6\n        /* \"#utility.yul\":11215:11253   */\n      tag_85\n      jump\t// in\n    tag_226:\n        /* \"#utility.yul\":11275:11276   */\n      0x00\n        /* \"#utility.yul\":11289:11443   */\n    tag_227:\n        /* \"#utility.yul\":11303:11309   */\n      dup4\n        /* \"#utility.yul\":11300:11301   */\n      dup2\n        /* \"#utility.yul\":11297:11310   */\n      lt\n        /* \"#utility.yul\":11289:11443   */\n      iszero\n      tag_229\n      jumpi\n        /* \"#utility.yul\":11377:11384   */\n      dup2\n        /* \"#utility.yul\":11371:11385   */\n      sload\n        /* \"#utility.yul\":11367:11368   */\n      dup2\n        /* \"#utility.yul\":11362:11365   */\n      dup10\n        /* \"#utility.yul\":11358:11369   */\n      add\n        /* \"#utility.yul\":11351:11386   */\n      mstore\n        /* \"#utility.yul\":11427:11428   */\n      0x01\n        /* \"#utility.yul\":11418:11425   */\n      dup3\n        /* \"#utility.yul\":11414:11429   */\n      add\n        /* \"#utility.yul\":11403:11429   */\n      swap2\n      pop\n        /* \"#utility.yul\":11325:11329   */\n      0x20\n        /* \"#utility.yul\":11322:11323   */\n      dup2\n        /* \"#utility.yul\":11318:11330   */\n      add\n        /* \"#utility.yul\":11313:11330   */\n      swap1\n      pop\n        /* \"#utility.yul\":11289:11443   */\n      jump(tag_227)\n    tag_229:\n        /* \"#utility.yul\":11472:11473   */\n      dup1\n        /* \"#utility.yul\":11467:11470   */\n      dup9\n        /* \"#utility.yul\":11463:11474   */\n      add\n        /* \"#utility.yul\":11456:11474   */\n      swap6\n      pop\n        /* \"#utility.yul\":11155:11484   */\n      pop\n      pop\n        /* \"#utility.yul\":10942:11484   */\n    tag_223:\n      pop\n        /* \"#utility.yul\":10748:11490   */\n      pop\n      pop\n        /* \"#utility.yul\":10659:11490   */\n      swap3\n      swap2\n      pop\n      pop\n      jump\t// out\n        /* \"#utility.yul\":11496:12211   */\n    tag_53:\n        /* \"#utility.yul\":11703:11707   */\n      0x00\n        /* \"#utility.yul\":11741:11744   */\n      0x80\n        /* \"#utility.yul\":11730:11739   */\n      dup3\n        /* \"#utility.yul\":11726:11745   */\n      add\n        /* \"#utility.yul\":11718:11745   */\n      swap1\n      pop\n        /* \"#utility.yul\":11791:11800   */\n      dup2\n        /* \"#utility.yul\":11785:11789   */\n      dup2\n        /* \"#utility.yul\":11781:11801   */\n      sub\n        /* \"#utility.yul\":11777:11778   */\n      0x00\n        /* \"#utility.yul\":11766:11775   */\n      dup4\n        /* \"#utility.yul\":11762:11779   */\n      add\n        /* \"#utility.yul\":11755:11802   */\n      mstore\n        /* \"#utility.yul\":11819:11894   */\n      tag_231\n        /* \"#utility.yul\":11889:11893   */\n      dup2\n        /* \"#utility.yul\":11880:11886   */\n      dup8\n        /* \"#utility.yul\":11819:11894   */\n      tag_101\n      jump\t// in\n    tag_231:\n        /* \"#utility.yul\":11811:11894   */\n      swap1\n      pop\n        /* \"#utility.yul\":11941:11950   */\n      dup2\n        /* \"#utility.yul\":11935:11939   */\n      dup2\n        /* \"#utility.yul\":11931:11951   */\n      sub\n        /* \"#utility.yul\":11926:11928   */\n      0x20\n        /* \"#utility.yul\":11915:11924   */\n      dup4\n        /* \"#utility.yul\":11911:11929   */\n      add\n        /* \"#utility.yul\":11904:11952   */\n      mstore\n        /* \"#utility.yul\":11969:12044   */\n      tag_232\n        /* \"#utility.yul\":12039:12043   */\n      dup2\n        /* \"#utility.yul\":12030:12036   */\n      dup7\n        /* \"#utility.yul\":11969:12044   */\n      tag_101\n      jump\t// in\n    tag_232:\n        /* \"#utility.yul\":11961:12044   */\n      swap1\n      pop\n        /* \"#utility.yul\":12054:12124   */\n      tag_233\n        /* \"#utility.yul\":12120:12122   */\n      0x40\n        /* \"#utility.yul\":12109:12118   */\n      dup4\n        /* \"#utility.yul\":12105:12123   */\n      add\n        /* \"#utility.yul\":12096:12102   */\n      dup6\n        /* \"#utility.yul\":12054:12124   */\n      tag_71\n      jump\t// in\n    tag_233:\n        /* \"#utility.yul\":12134:12204   */\n      tag_234\n        /* \"#utility.yul\":12200:12202   */\n      0x60\n        /* \"#utility.yul\":12189:12198   */\n      dup4\n        /* \"#utility.yul\":12185:12203   */\n      add\n        /* \"#utility.yul\":12176:12182   */\n      dup5\n        /* \"#utility.yul\":12134:12204   */\n      tag_71\n      jump\t// in\n    tag_234:\n        /* \"#utility.yul\":11496:12211   */\n      swap6\n      swap5\n      pop\n      pop\n      pop\n      pop\n      pop\n      jump\t// out\n\n    auxdata: 0xa26469706673582212203bdb1fb2d19da6e55f8fc29820c76e3d0df3c7baa877fe876ff59aceac1601d864736f6c634300081a0033\n}\n",
				"bytecode": {
					"linkReferences": {},
					"object": "6080604052348015600e575f80fd5b50610b1f8061001c5f395ff3fe608060405234801561000f575f80fd5b506004361061007b575f3560e01c80634309f065116100595780634309f065146100d95780634c9beb53146100f55780634d41892f146101165780637ebeb19c146101345761007b565b80630f7514a21461007f5780632cf6598f1461009d5780633dbc0610146100bb575b5f80fd5b610087610152565b60405161009491906104ea565b60405180910390f35b6100a56101de565b6040516100b29190610528565b60405180910390f35b6100c36101f3565b6040516100d091906104ea565b60405180910390f35b6100f360048036038101906100ee919061067e565b61027f565b005b6100fd6102a3565b60405161010d94939291906106f4565b60405180910390f35b61011e61044f565b60405161012b9190610528565b60405180910390f35b61013c610462565b6040516101499190610528565b60405180910390f35b6002805461015f90610772565b80601f016020809104026020016040519081016040528092919081815260200182805461018b90610772565b80156101d65780601f106101ad576101008083540402835291602001916101d6565b820191905f5260205f20905b8154815290600101906020018083116101b957829003601f168201915b505050505081565b5f60049054906101000a900463ffffffff1681565b6001805461020090610772565b80601f016020809104026020016040519081016040528092919081815260200182805461022c90610772565b80156102775780601f1061024e57610100808354040283529160200191610277565b820191905f5260205f20905b81548152906001019060200180831161025a57829003601f168201915b505050505081565b816001908161028e9190610948565b50806002908161029e9190610948565b505050565b6060805f807f5c50b0c58eefa375548738c7bfe7fc846e8e57587d61efae305435d5c9a746aa600160025f8054906101000a900463ffffffff165f60049054906101000a900463ffffffff166040516102ff9493929190610a98565b60405180910390a1600160025f8054906101000a900463ffffffff165f60049054906101000a900463ffffffff1683805461033990610772565b80601f016020809104026020016040519081016040528092919081815260200182805461036590610772565b80156103b05780601f10610387576101008083540402835291602001916103b0565b820191905f5260205f20905b81548152906001019060200180831161039357829003601f168201915b505050505093508280546103c390610772565b80601f01602080910402602001604051908101604052809291908181526020018280546103ef90610772565b801561043a5780601f106104115761010080835404028352916020019161043a565b820191905f5260205f20905b81548152906001019060200180831161041d57829003601f168201915b50505050509250935093509350935090919293565b5f8054906101000a900463ffffffff1681565b5f8060049054906101000a900463ffffffff16905090565b5f81519050919050565b5f82825260208201905092915050565b8281835e5f83830152505050565b5f601f19601f8301169050919050565b5f6104bc8261047a565b6104c68185610484565b93506104d6818560208601610494565b6104df816104a2565b840191505092915050565b5f6020820190508181035f83015261050281846104b2565b905092915050565b5f63ffffffff82169050919050565b6105228161050a565b82525050565b5f60208201905061053b5f830184610519565b92915050565b5f604051905090565b5f80fd5b5f80fd5b5f80fd5b5f80fd5b7f4e487b71000000000000000000000000000000000000000000000000000000005f52604160045260245ffd5b610590826104a2565b810181811067ffffffffffffffff821117156105af576105ae61055a565b5b80604052505050565b5f6105c1610541565b90506105cd8282610587565b919050565b5f67ffffffffffffffff8211156105ec576105eb61055a565b5b6105f5826104a2565b9050602081019050919050565b828183375f83830152505050565b5f61062261061d846105d2565b6105b8565b90508281526020810184848401111561063e5761063d610556565b5b610649848285610602565b509392505050565b5f82601f83011261066557610664610552565b5b8135610675848260208601610610565b91505092915050565b5f80604083850312156106945761069361054a565b5b5f83013567ffffffffffffffff8111156106b1576106b061054e565b5b6106bd85828601610651565b925050602083013567ffffffffffffffff8111156106de576106dd61054e565b5b6106ea85828601610651565b9150509250929050565b5f6080820190508181035f83015261070c81876104b2565b9050818103602083015261072081866104b2565b905061072f6040830185610519565b61073c6060830184610519565b95945050505050565b7f4e487b71000000000000000000000000000000000000000000000000000000005f52602260045260245ffd5b5f600282049050600182168061078957607f821691505b60208210810361079c5761079b610745565b5b50919050565b5f819050815f5260205f209050919050565b5f6020601f8301049050919050565b5f82821b905092915050565b5f600883026107fe7fffffffffffffffffffffffffffffffffffffffffffffffffffffffffffffffff826107c3565b61080886836107c3565b95508019841693508086168417925050509392505050565b5f819050919050565b5f819050919050565b5f61084c61084761084284610820565b610829565b610820565b9050919050565b5f819050919050565b61086583610832565b61087961087182610853565b8484546107cf565b825550505050565b5f90565b61088d610881565b61089881848461085c565b505050565b5b818110156108bb576108b05f82610885565b60018101905061089e565b5050565b601f821115610900576108d1816107a2565b6108da846107b4565b810160208510156108e9578190505b6108fd6108f5856107b4565b83018261089d565b50505b505050565b5f82821c905092915050565b5f6109205f1984600802610905565b1980831691505092915050565b5f6109388383610911565b9150826002028217905092915050565b6109518261047a565b67ffffffffffffffff81111561096a5761096961055a565b5b6109748254610772565b61097f8282856108bf565b5f60209050601f8311600181146109b0575f841561099e578287015190505b6109a8858261092d565b865550610a0f565b601f1984166109be866107a2565b5f5b828110156109e5578489015182556001820191506020850194506020810190506109c0565b86831015610a0257848901516109fe601f891682610911565b8355505b6001600288020188555050505b505050505050565b5f8154610a2381610772565b610a2d8186610484565b9450600182165f8114610a475760018114610a5d57610a8f565b60ff198316865281151560200286019350610a8f565b610a66856107a2565b5f5b83811015610a8757815481890152600182019150602081019050610a68565b808801955050505b50505092915050565b5f6080820190508181035f830152610ab08187610a17565b90508181036020830152610ac48186610a17565b9050610ad36040830185610519565b610ae06060830184610519565b9594505050505056fea26469706673582212203bdb1fb2d19da6e55f8fc29820c76e3d0df3c7baa877fe876ff59aceac1601d864736f6c634300081a0033",
					"opcodes": "PUSH1 0x80 PUSH1 0x40 MSTORE CALLVALUE DUP1 ISZERO PUSH1 0xE JUMPI PUSH0 DUP1 REVERT JUMPDEST POP PUSH2 0xB1F DUP1 PUSH2 0x1C PUSH0 CODECOPY PUSH0 RETURN INVALID PUSH1 0x80 PUSH1 0x40 MSTORE CALLVALUE DUP1 ISZERO PUSH2 0xF JUMPI PUSH0 DUP1 REVERT JUMPDEST POP PUSH1 0x4 CALLDATASIZE LT PUSH2 0x7B JUMPI PUSH0 CALLDATALOAD PUSH1 0xE0 SHR DUP1 PUSH4 0x4309F065 GT PUSH2 0x59 JUMPI DUP1 PUSH4 0x4309F065 EQ PUSH2 0xD9 JUMPI DUP1 PUSH4 0x4C9BEB53 EQ PUSH2 0xF5 JUMPI DUP1 PUSH4 0x4D41892F EQ PUSH2 0x116 JUMPI DUP1 PUSH4 0x7EBEB19C EQ PUSH2 0x134 JUMPI PUSH2 0x7B JUMP JUMPDEST DUP1 PUSH4 0xF7514A2 EQ PUSH2 0x7F JUMPI DUP1 PUSH4 0x2CF6598F EQ PUSH2 0x9D JUMPI DUP1 PUSH4 0x3DBC0610 EQ PUSH2 0xBB JUMPI JUMPDEST PUSH0 DUP1 REVERT JUMPDEST PUSH2 0x87 PUSH2 0x152 JUMP JUMPDEST PUSH1 0x40 MLOAD PUSH2 0x94 SWAP2 SWAP1 PUSH2 0x4EA JUMP JUMPDEST PUSH1 0x40 MLOAD DUP1 SWAP2 SUB SWAP1 RETURN JUMPDEST PUSH2 0xA5 PUSH2 0x1DE JUMP JUMPDEST PUSH1 0x40 MLOAD PUSH2 0xB2 SWAP2 SWAP1 PUSH2 0x528 JUMP JUMPDEST PUSH1 0x40 MLOAD DUP1 SWAP2 SUB SWAP1 RETURN JUMPDEST PUSH2 0xC3 PUSH2 0x1F3 JUMP JUMPDEST PUSH1 0x40 MLOAD PUSH2 0xD0 SWAP2 SWAP1 PUSH2 0x4EA JUMP JUMPDEST PUSH1 0x40 MLOAD DUP1 SWAP2 SUB SWAP1 RETURN JUMPDEST PUSH2 0xF3 PUSH1 0x4 DUP1 CALLDATASIZE SUB DUP2 ADD SWAP1 PUSH2 0xEE SWAP2 SWAP1 PUSH2 0x67E JUMP JUMPDEST PUSH2 0x27F JUMP JUMPDEST STOP JUMPDEST PUSH2 0xFD PUSH2 0x2A3 JUMP JUMPDEST PUSH1 0x40 MLOAD PUSH2 0x10D SWAP5 SWAP4 SWAP3 SWAP2 SWAP1 PUSH2 0x6F4 JUMP JUMPDEST PUSH1 0x40 MLOAD DUP1 SWAP2 SUB SWAP1 RETURN JUMPDEST PUSH2 0x11E PUSH2 0x44F JUMP JUMPDEST PUSH1 0x40 MLOAD PUSH2 0x12B SWAP2 SWAP1 PUSH2 0x528 JUMP JUMPDEST PUSH1 0x40 MLOAD DUP1 SWAP2 SUB SWAP1 RETURN JUMPDEST PUSH2 0x13C PUSH2 0x462 JUMP JUMPDEST PUSH1 0x40 MLOAD PUSH2 0x149 SWAP2 SWAP1 PUSH2 0x528 JUMP JUMPDEST PUSH1 0x40 MLOAD DUP1 SWAP2 SUB SWAP1 RETURN JUMPDEST PUSH1 0x2 DUP1 SLOAD PUSH2 0x15F SWAP1 PUSH2 0x772 JUMP JUMPDEST DUP1 PUSH1 0x1F ADD PUSH1 0x20 DUP1 SWAP2 DIV MUL PUSH1 0x20 ADD PUSH1 0x40 MLOAD SWAP1 DUP2 ADD PUSH1 0x40 MSTORE DUP1 SWAP3 SWAP2 SWAP1 DUP2 DUP2 MSTORE PUSH1 0x20 ADD DUP3 DUP1 SLOAD PUSH2 0x18B SWAP1 PUSH2 0x772 JUMP JUMPDEST DUP1 ISZERO PUSH2 0x1D6 JUMPI DUP1 PUSH1 0x1F LT PUSH2 0x1AD JUMPI PUSH2 0x100 DUP1 DUP4 SLOAD DIV MUL DUP4 MSTORE SWAP2 PUSH1 0x20 ADD SWAP2 PUSH2 0x1D6 JUMP JUMPDEST DUP3 ADD SWAP2 SWAP1 PUSH0 MSTORE PUSH1 0x20 PUSH0 KECCAK256 SWAP1 JUMPDEST DUP2 SLOAD DUP2 MSTORE SWAP1 PUSH1 0x1 ADD SWAP1 PUSH1 0x20 ADD DUP1 DUP4 GT PUSH2 0x1B9 JUMPI DUP3 SWAP1 SUB PUSH1 0x1F AND DUP3 ADD SWAP2 JUMPDEST POP POP POP POP POP DUP2 JUMP JUMPDEST PUSH0 PUSH1 0x4 SWAP1 SLOAD SWAP1 PUSH2 0x100 EXP SWAP1 DIV PUSH4 0xFFFFFFFF AND DUP2 JUMP JUMPDEST PUSH1 0x1 DUP1 SLOAD PUSH2 0x200 SWAP1 PUSH2 0x772 JUMP JUMPDEST DUP1 PUSH1 0x1F ADD PUSH1 0x20 DUP1 SWAP2 DIV MUL PUSH1 0x20 ADD PUSH1 0x40 MLOAD SWAP1 DUP2 ADD PUSH1 0x40 MSTORE DUP1 SWAP3 SWAP2 SWAP1 DUP2 DUP2 MSTORE PUSH1 0x20 ADD DUP3 DUP1 SLOAD PUSH2 0x22C SWAP1 PUSH2 0x772 JUMP JUMPDEST DUP1 ISZERO PUSH2 0x277 JUMPI DUP1 PUSH1 0x1F LT PUSH2 0x24E JUMPI PUSH2 0x100 DUP1 DUP4 SLOAD DIV MUL DUP4 MSTORE SWAP2 PUSH1 0x20 ADD SWAP2 PUSH2 0x277 JUMP JUMPDEST DUP3 ADD SWAP2 SWAP1 PUSH0 MSTORE PUSH1 0x20 PUSH0 KECCAK256 SWAP1 JUMPDEST DUP2 SLOAD DUP2 MSTORE SWAP1 PUSH1 0x1 ADD SWAP1 PUSH1 0x20 ADD DUP1 DUP4 GT PUSH2 0x25A JUMPI DUP3 SWAP1 SUB PUSH1 0x1F AND DUP3 ADD SWAP2 JUMPDEST POP POP POP POP POP DUP2 JUMP JUMPDEST DUP2 PUSH1 0x1 SWAP1 DUP2 PUSH2 0x28E SWAP2 SWAP1 PUSH2 0x948 JUMP JUMPDEST POP DUP1 PUSH1 0x2 SWAP1 DUP2 PUSH2 0x29E SWAP2 SWAP1 PUSH2 0x948 JUMP JUMPDEST POP POP POP JUMP JUMPDEST PUSH1 0x60 DUP1 PUSH0 DUP1 PUSH32 0x5C50B0C58EEFA375548738C7BFE7FC846E8E57587D61EFAE305435D5C9A746AA PUSH1 0x1 PUSH1 0x2 PUSH0 DUP1 SLOAD SWAP1 PUSH2 0x100 EXP SWAP1 DIV PUSH4 0xFFFFFFFF AND PUSH0 PUSH1 0x4 SWAP1 SLOAD SWAP1 PUSH2 0x100 EXP SWAP1 DIV PUSH4 0xFFFFFFFF AND PUSH1 0x40 MLOAD PUSH2 0x2FF SWAP5 SWAP4 SWAP3 SWAP2 SWAP1 PUSH2 0xA98 JUMP JUMPDEST PUSH1 0x40 MLOAD DUP1 SWAP2 SUB SWAP1 LOG1 PUSH1 0x1 PUSH1 0x2 PUSH0 DUP1 SLOAD SWAP1 PUSH2 0x100 EXP SWAP1 DIV PUSH4 0xFFFFFFFF AND PUSH0 PUSH1 0x4 SWAP1 SLOAD SWAP1 PUSH2 0x100 EXP SWAP1 DIV PUSH4 0xFFFFFFFF AND DUP4 DUP1 SLOAD PUSH2 0x339 SWAP1 PUSH2 0x772 JUMP JUMPDEST DUP1 PUSH1 0x1F ADD PUSH1 0x20 DUP1 SWAP2 DIV MUL PUSH1 0x20 ADD PUSH1 0x40 MLOAD SWAP1 DUP2 ADD PUSH1 0x40 MSTORE DUP1 SWAP3 SWAP2 SWAP1 DUP2 DUP2 MSTORE PUSH1 0x20 ADD DUP3 DUP1 SLOAD PUSH2 0x365 SWAP1 PUSH2 0x772 JUMP JUMPDEST DUP1 ISZERO PUSH2 0x3B0 JUMPI DUP1 PUSH1 0x1F LT PUSH2 0x387 JUMPI PUSH2 0x100 DUP1 DUP4 SLOAD DIV MUL DUP4 MSTORE SWAP2 PUSH1 0x20 ADD SWAP2 PUSH2 0x3B0 JUMP JUMPDEST DUP3 ADD SWAP2 SWAP1 PUSH0 MSTORE PUSH1 0x20 PUSH0 KECCAK256 SWAP1 JUMPDEST DUP2 SLOAD DUP2 MSTORE SWAP1 PUSH1 0x1 ADD SWAP1 PUSH1 0x20 ADD DUP1 DUP4 GT PUSH2 0x393 JUMPI DUP3 SWAP1 SUB PUSH1 0x1F AND DUP3 ADD SWAP2 JUMPDEST POP POP POP POP POP SWAP4 POP DUP3 DUP1 SLOAD PUSH2 0x3C3 SWAP1 PUSH2 0x772 JUMP JUMPDEST DUP1 PUSH1 0x1F ADD PUSH1 0x20 DUP1 SWAP2 DIV MUL PUSH1 0x20 ADD PUSH1 0x40 MLOAD SWAP1 DUP2 ADD PUSH1 0x40 MSTORE DUP1 SWAP3 SWAP2 SWAP1 DUP2 DUP2 MSTORE PUSH1 0x20 ADD DUP3 DUP1 SLOAD PUSH2 0x3EF SWAP1 PUSH2 0x772 JUMP JUMPDEST DUP1 ISZERO PUSH2 0x43A JUMPI DUP1 PUSH1 0x1F LT PUSH2 0x411 JUMPI PUSH2 0x100 DUP1 DUP4 SLOAD DIV MUL DUP4 MSTORE SWAP2 PUSH1 0x20 ADD SWAP2 PUSH2 0x43A JUMP JUMPDEST DUP3 ADD SWAP2 SWAP1 PUSH0 MSTORE PUSH1 0x20 PUSH0 KECCAK256 SWAP1 JUMPDEST DUP2 SLOAD DUP2 MSTORE SWAP1 PUSH1 0x1 ADD SWAP1 PUSH1 0x20 ADD DUP1 DUP4 GT PUSH2 0x41D JUMPI DUP3 SWAP1 SUB PUSH1 0x1F AND DUP3 ADD SWAP2 JUMPDEST POP POP POP POP POP SWAP3 POP SWAP4 POP SWAP4 POP SWAP4 POP SWAP4 POP SWAP1 SWAP2 SWAP3 SWAP4 JUMP JUMPDEST PUSH0 DUP1 SLOAD SWAP1 PUSH2 0x100 EXP SWAP1 DIV PUSH4 0xFFFFFFFF AND DUP2 JUMP JUMPDEST PUSH0 DUP1 PUSH1 0x4 SWAP1 SLOAD SWAP1 PUSH2 0x100 EXP SWAP1 DIV PUSH4 0xFFFFFFFF AND SWAP1 POP SWAP1 JUMP JUMPDEST PUSH0 DUP2 MLOAD SWAP1 POP SWAP2 SWAP1 POP JUMP JUMPDEST PUSH0 DUP3 DUP3 MSTORE PUSH1 0x20 DUP3 ADD SWAP1 POP SWAP3 SWAP2 POP POP JUMP JUMPDEST DUP3 DUP2 DUP4 MCOPY PUSH0 DUP4 DUP4 ADD MSTORE POP POP POP JUMP JUMPDEST PUSH0 PUSH1 0x1F NOT PUSH1 0x1F DUP4 ADD AND SWAP1 POP SWAP2 SWAP1 POP JUMP JUMPDEST PUSH0 PUSH2 0x4BC DUP3 PUSH2 0x47A JUMP JUMPDEST PUSH2 0x4C6 DUP2 DUP6 PUSH2 0x484 JUMP JUMPDEST SWAP4 POP PUSH2 0x4D6 DUP2 DUP6 PUSH1 0x20 DUP7 ADD PUSH2 0x494 JUMP JUMPDEST PUSH2 0x4DF DUP2 PUSH2 0x4A2 JUMP JUMPDEST DUP5 ADD SWAP2 POP POP SWAP3 SWAP2 POP POP JUMP JUMPDEST PUSH0 PUSH1 0x20 DUP3 ADD SWAP1 POP DUP2 DUP2 SUB PUSH0 DUP4 ADD MSTORE PUSH2 0x502 DUP2 DUP5 PUSH2 0x4B2 JUMP JUMPDEST SWAP1 POP SWAP3 SWAP2 POP POP JUMP JUMPDEST PUSH0 PUSH4 0xFFFFFFFF DUP3 AND SWAP1 POP SWAP2 SWAP1 POP JUMP JUMPDEST PUSH2 0x522 DUP2 PUSH2 0x50A JUMP JUMPDEST DUP3 MSTORE POP POP JUMP JUMPDEST PUSH0 PUSH1 0x20 DUP3 ADD SWAP1 POP PUSH2 0x53B PUSH0 DUP4 ADD DUP5 PUSH2 0x519 JUMP JUMPDEST SWAP3 SWAP2 POP POP JUMP JUMPDEST PUSH0 PUSH1 0x40 MLOAD SWAP1 POP SWAP1 JUMP JUMPDEST PUSH0 DUP1 REVERT JUMPDEST PUSH0 DUP1 REVERT JUMPDEST PUSH0 DUP1 REVERT JUMPDEST PUSH0 DUP1 REVERT JUMPDEST PUSH32 0x4E487B7100000000000000000000000000000000000000000000000000000000 PUSH0 MSTORE PUSH1 0x41 PUSH1 0x4 MSTORE PUSH1 0x24 PUSH0 REVERT JUMPDEST PUSH2 0x590 DUP3 PUSH2 0x4A2 JUMP JUMPDEST DUP2 ADD DUP2 DUP2 LT PUSH8 0xFFFFFFFFFFFFFFFF DUP3 GT OR ISZERO PUSH2 0x5AF JUMPI PUSH2 0x5AE PUSH2 0x55A JUMP JUMPDEST JUMPDEST DUP1 PUSH1 0x40 MSTORE POP POP POP JUMP JUMPDEST PUSH0 PUSH2 0x5C1 PUSH2 0x541 JUMP JUMPDEST SWAP1 POP PUSH2 0x5CD DUP3 DUP3 PUSH2 0x587 JUMP JUMPDEST SWAP2 SWAP1 POP JUMP JUMPDEST PUSH0 PUSH8 0xFFFFFFFFFFFFFFFF DUP3 GT ISZERO PUSH2 0x5EC JUMPI PUSH2 0x5EB PUSH2 0x55A JUMP JUMPDEST JUMPDEST PUSH2 0x5F5 DUP3 PUSH2 0x4A2 JUMP JUMPDEST SWAP1 POP PUSH1 0x20 DUP2 ADD SWAP1 POP SWAP2 SWAP1 POP JUMP JUMPDEST DUP3 DUP2 DUP4 CALLDATACOPY PUSH0 DUP4 DUP4 ADD MSTORE POP POP POP JUMP JUMPDEST PUSH0 PUSH2 0x622 PUSH2 0x61D DUP5 PUSH2 0x5D2 JUMP JUMPDEST PUSH2 0x5B8 JUMP JUMPDEST SWAP1 POP DUP3 DUP2 MSTORE PUSH1 0x20 DUP2 ADD DUP5 DUP5 DUP5 ADD GT ISZERO PUSH2 0x63E JUMPI PUSH2 0x63D PUSH2 0x556 JUMP JUMPDEST JUMPDEST PUSH2 0x649 DUP5 DUP3 DUP6 PUSH2 0x602 JUMP JUMPDEST POP SWAP4 SWAP3 POP POP POP JUMP JUMPDEST PUSH0 DUP3 PUSH1 0x1F DUP4 ADD SLT PUSH2 0x665 JUMPI PUSH2 0x664 PUSH2 0x552 JUMP JUMPDEST JUMPDEST DUP2 CALLDATALOAD PUSH2 0x675 DUP5 DUP3 PUSH1 0x20 DUP7 ADD PUSH2 0x610 JUMP JUMPDEST SWAP2 POP POP SWAP3 SWAP2 POP POP JUMP JUMPDEST PUSH0 DUP1 PUSH1 0x40 DUP4 DUP6 SUB SLT ISZERO PUSH2 0x694 JUMPI PUSH2 0x693 PUSH2 0x54A JUMP JUMPDEST JUMPDEST PUSH0 DUP4 ADD CALLDATALOAD PUSH8 0xFFFFFFFFFFFFFFFF DUP2 GT ISZERO PUSH2 0x6B1 JUMPI PUSH2 0x6B0 PUSH2 0x54E JUMP JUMPDEST JUMPDEST PUSH2 0x6BD DUP6 DUP3 DUP7 ADD PUSH2 0x651 JUMP JUMPDEST SWAP3 POP POP PUSH1 0x20 DUP4 ADD CALLDATALOAD PUSH8 0xFFFFFFFFFFFFFFFF DUP2 GT ISZERO PUSH2 0x6DE JUMPI PUSH2 0x6DD PUSH2 0x54E JUMP JUMPDEST JUMPDEST PUSH2 0x6EA DUP6 DUP3 DUP7 ADD PUSH2 0x651 JUMP JUMPDEST SWAP2 POP POP SWAP3 POP SWAP3 SWAP1 POP JUMP JUMPDEST PUSH0 PUSH1 0x80 DUP3 ADD SWAP1 POP DUP2 DUP2 SUB PUSH0 DUP4 ADD MSTORE PUSH2 0x70C DUP2 DUP8 PUSH2 0x4B2 JUMP JUMPDEST SWAP1 POP DUP2 DUP2 SUB PUSH1 0x20 DUP4 ADD MSTORE PUSH2 0x720 DUP2 DUP7 PUSH2 0x4B2 JUMP JUMPDEST SWAP1 POP PUSH2 0x72F PUSH1 0x40 DUP4 ADD DUP6 PUSH2 0x519 JUMP JUMPDEST PUSH2 0x73C PUSH1 0x60 DUP4 ADD DUP5 PUSH2 0x519 JUMP JUMPDEST SWAP6 SWAP5 POP POP POP POP POP JUMP JUMPDEST PUSH32 0x4E487B7100000000000000000000000000000000000000000000000000000000 PUSH0 MSTORE PUSH1 0x22 PUSH1 0x4 MSTORE PUSH1 0x24 PUSH0 REVERT JUMPDEST PUSH0 PUSH1 0x2 DUP3 DIV SWAP1 POP PUSH1 0x1 DUP3 AND DUP1 PUSH2 0x789 JUMPI PUSH1 0x7F DUP3 AND SWAP2 POP JUMPDEST PUSH1 0x20 DUP3 LT DUP2 SUB PUSH2 0x79C JUMPI PUSH2 0x79B PUSH2 0x745 JUMP JUMPDEST JUMPDEST POP SWAP2 SWAP1 POP JUMP JUMPDEST PUSH0 DUP2 SWAP1 POP DUP2 PUSH0 MSTORE PUSH1 0x20 PUSH0 KECCAK256 SWAP1 POP SWAP2 SWAP1 POP JUMP JUMPDEST PUSH0 PUSH1 0x20 PUSH1 0x1F DUP4 ADD DIV SWAP1 POP SWAP2 SWAP1 POP JUMP JUMPDEST PUSH0 DUP3 DUP3 SHL SWAP1 POP SWAP3 SWAP2 POP POP JUMP JUMPDEST PUSH0 PUSH1 0x8 DUP4 MUL PUSH2 0x7FE PUSH32 0xFFFFFFFFFFFFFFFFFFFFFFFFFFFFFFFFFFFFFFFFFFFFFFFFFFFFFFFFFFFFFFFF DUP3 PUSH2 0x7C3 JUMP JUMPDEST PUSH2 0x808 DUP7 DUP4 PUSH2 0x7C3 JUMP JUMPDEST SWAP6 POP DUP1 NOT DUP5 AND SWAP4 POP DUP1 DUP7 AND DUP5 OR SWAP3 POP POP POP SWAP4 SWAP3 POP POP POP JUMP JUMPDEST PUSH0 DUP2 SWAP1 POP SWAP2 SWAP1 POP JUMP JUMPDEST PUSH0 DUP2 SWAP1 POP SWAP2 SWAP1 POP JUMP JUMPDEST PUSH0 PUSH2 0x84C PUSH2 0x847 PUSH2 0x842 DUP5 PUSH2 0x820 JUMP JUMPDEST PUSH2 0x829 JUMP JUMPDEST PUSH2 0x820 JUMP JUMPDEST SWAP1 POP SWAP2 SWAP1 POP JUMP JUMPDEST PUSH0 DUP2 SWAP1 POP SWAP2 SWAP1 POP JUMP JUMPDEST PUSH2 0x865 DUP4 PUSH2 0x832 JUMP JUMPDEST PUSH2 0x879 PUSH2 0x871 DUP3 PUSH2 0x853 JUMP JUMPDEST DUP5 DUP5 SLOAD PUSH2 0x7CF JUMP JUMPDEST DUP3 SSTORE POP POP POP POP JUMP JUMPDEST PUSH0 SWAP1 JUMP JUMPDEST PUSH2 0x88D PUSH2 0x881 JUMP JUMPDEST PUSH2 0x898 DUP2 DUP5 DUP5 PUSH2 0x85C JUMP JUMPDEST POP POP POP JUMP JUMPDEST JUMPDEST DUP2 DUP2 LT ISZERO PUSH2 0x8BB JUMPI PUSH2 0x8B0 PUSH0 DUP3 PUSH2 0x885 JUMP JUMPDEST PUSH1 0x1 DUP2 ADD SWAP1 POP PUSH2 0x89E JUMP JUMPDEST POP POP JUMP JUMPDEST PUSH1 0x1F DUP3 GT ISZERO PUSH2 0x900 JUMPI PUSH2 0x8D1 DUP2 PUSH2 0x7A2 JUMP JUMPDEST PUSH2 0x8DA DUP5 PUSH2 0x7B4 JUMP JUMPDEST DUP2 ADD PUSH1 0x20 DUP6 LT ISZERO PUSH2 0x8E9 JUMPI DUP2 SWAP1 POP JUMPDEST PUSH2 0x8FD PUSH2 0x8F5 DUP6 PUSH2 0x7B4 JUMP JUMPDEST DUP4 ADD DUP3 PUSH2 0x89D JUMP JUMPDEST POP POP JUMPDEST POP POP POP JUMP JUMPDEST PUSH0 DUP3 DUP3 SHR SWAP1 POP SWAP3 SWAP2 POP POP JUMP JUMPDEST PUSH0 PUSH2 0x920 PUSH0 NOT DUP5 PUSH1 0x8 MUL PUSH2 0x905 JUMP JUMPDEST NOT DUP1 DUP4 AND SWAP2 POP POP SWAP3 SWAP2 POP POP JUMP JUMPDEST PUSH0 PUSH2 0x938 DUP4 DUP4 PUSH2 0x911 JUMP JUMPDEST SWAP2 POP DUP3 PUSH1 0x2 MUL DUP3 OR SWAP1 POP SWAP3 SWAP2 POP POP JUMP JUMPDEST PUSH2 0x951 DUP3 PUSH2 0x47A JUMP JUMPDEST PUSH8 0xFFFFFFFFFFFFFFFF DUP2 GT ISZERO PUSH2 0x96A JUMPI PUSH2 0x969 PUSH2 0x55A JUMP JUMPDEST JUMPDEST PUSH2 0x974 DUP3 SLOAD PUSH2 0x772 JUMP JUMPDEST PUSH2 0x97F DUP3 DUP3 DUP6 PUSH2 0x8BF JUMP JUMPDEST PUSH0 PUSH1 0x20 SWAP1 POP PUSH1 0x1F DUP4 GT PUSH1 0x1 DUP2 EQ PUSH2 0x9B0 JUMPI PUSH0 DUP5 ISZERO PUSH2 0x99E JUMPI DUP3 DUP8 ADD MLOAD SWAP1 POP JUMPDEST PUSH2 0x9A8 DUP6 DUP3 PUSH2 0x92D JUMP JUMPDEST DUP7 SSTORE POP PUSH2 0xA0F JUMP JUMPDEST PUSH1 0x1F NOT DUP5 AND PUSH2 0x9BE DUP7 PUSH2 0x7A2 JUMP JUMPDEST PUSH0 JUMPDEST DUP3 DUP2 LT ISZERO PUSH2 0x9E5 JUMPI DUP5 DUP10 ADD MLOAD DUP3 SSTORE PUSH1 0x1 DUP3 ADD SWAP2 POP PUSH1 0x20 DUP6 ADD SWAP5 POP PUSH1 0x20 DUP2 ADD SWAP1 POP PUSH2 0x9C0 JUMP JUMPDEST DUP7 DUP4 LT ISZERO PUSH2 0xA02 JUMPI DUP5 DUP10 ADD MLOAD PUSH2 0x9FE PUSH1 0x1F DUP10 AND DUP3 PUSH2 0x911 JUMP JUMPDEST DUP4 SSTORE POP JUMPDEST PUSH1 0x1 PUSH1 0x2 DUP9 MUL ADD DUP9 SSTORE POP POP POP JUMPDEST POP POP POP POP POP POP JUMP JUMPDEST PUSH0 DUP2 SLOAD PUSH2 0xA23 DUP2 PUSH2 0x772 JUMP JUMPDEST PUSH2 0xA2D DUP2 DUP7 PUSH2 0x484 JUMP JUMPDEST SWAP5 POP PUSH1 0x1 DUP3 AND PUSH0 DUP2 EQ PUSH2 0xA47 JUMPI PUSH1 0x1 DUP2 EQ PUSH2 0xA5D JUMPI PUSH2 0xA8F JUMP JUMPDEST PUSH1 0xFF NOT DUP4 AND DUP7 MSTORE DUP2 ISZERO ISZERO PUSH1 0x20 MUL DUP7 ADD SWAP4 POP PUSH2 0xA8F JUMP JUMPDEST PUSH2 0xA66 DUP6 PUSH2 0x7A2 JUMP JUMPDEST PUSH0 JUMPDEST DUP4 DUP2 LT ISZERO PUSH2 0xA87 JUMPI DUP2 SLOAD DUP2 DUP10 ADD MSTORE PUSH1 0x1 DUP3 ADD SWAP2 POP PUSH1 0x20 DUP2 ADD SWAP1 POP PUSH2 0xA68 JUMP JUMPDEST DUP1 DUP9 ADD SWAP6 POP POP POP JUMPDEST POP POP POP SWAP3 SWAP2 POP POP JUMP JUMPDEST PUSH0 PUSH1 0x80 DUP3 ADD SWAP1 POP DUP2 DUP2 SUB PUSH0 DUP4 ADD MSTORE PUSH2 0xAB0 DUP2 DUP8 PUSH2 0xA17 JUMP JUMPDEST SWAP1 POP DUP2 DUP2 SUB PUSH1 0x20 DUP4 ADD MSTORE PUSH2 0xAC4 DUP2 DUP7 PUSH2 0xA17 JUMP JUMPDEST SWAP1 POP PUSH2 0xAD3 PUSH1 0x40 DUP4 ADD DUP6 PUSH2 0x519 JUMP JUMPDEST PUSH2 0xAE0 PUSH1 0x60 DUP4 ADD DUP5 PUSH2 0x519 JUMP JUMPDEST SWAP6 SWAP5 POP POP POP POP POP JUMP INVALID LOG2 PUSH5 0x6970667358 0x22 SLT KECCAK256 EXTCODESIZE 0xDB 0x1F 0xB2 0xD1 SWAP14 0xA6 0xE5 PUSH0 DUP16 0xC2 SWAP9 KECCAK256 0xC7 PUSH15 0x3D0DF3C7BAA877FE876FF59ACEAC16 ADD 0xD8 PUSH5 0x736F6C6343 STOP ADDMOD BYTE STOP CALLER "
				},
				"gasEstimates": {
					"creation": {
						"codeDepositCost": "569400",
						"executionCost": "598",
						"totalCost": "569998"
					},
					"external": {
						"area()": "2507",
						"colour()": "infinite",
						"displayAll()": "infinite",
						"getPerimeter()": "2590",
						"perimeter()": "2539",
						"setColourAndShape(string,string)": "infinite",
						"shape()": "infinite"
					}
				},
				"methodIdentifiers": {
					"area()": "4d41892f",
					"colour()": "3dbc0610",
					"displayAll()": "4c9beb53",
					"getPerimeter()": "7ebeb19c",
					"perimeter()": "2cf6598f",
					"setColourAndShape(string,string)": "4309f065",
					"shape()": "0f7514a2"
				}
			},
			"storageLayout": {
				"storage": [
					{
						"astId": 3,
						"contract": "Week6/ex1.sol:Quadrangle",
						"label": "area",
						"offset": 0,
						"slot": "0",
						"type": "t_uint32"
					},
					{
						"astId": 5,
						"contract": "Week6/ex1.sol:Quadrangle",
						"label": "perimeter",
						"offset": 4,
						"slot": "0",
						"type": "t_uint32"
					},
					{
						"astId": 7,
						"contract": "Week6/ex1.sol:Quadrangle",
						"label": "colour",
						"offset": 0,
						"slot": "1",
						"type": "t_string_storage"
					},
					{
						"astId": 9,
						"contract": "Week6/ex1.sol:Quadrangle",
						"label": "shape",
						"offset": 0,
						"slot": "2",
						"type": "t_string_storage"
					}
				],
				"types": {
					"t_string_storage": {
						"encoding": "bytes",
						"label": "string",
						"numberOfBytes": "32"
					},
					"t_uint32": {
						"encoding": "inplace",
						"label": "uint32",
						"numberOfBytes": "4"
					}
				}
			},
			"userdoc": {
				"kind": "user",
				"methods": {},
				"version": 1
			}
		}
	}
}