{
	"Week6/ex9.sol": {
		"test": {
			"abi": [
				{
					"anonymous": false,
					"inputs": [
						{
							"indexed": false,
							"internalType": "bool",
							"name": "",
							"type": "bool"
						},
						{
							"indexed": false,
							"internalType": "bytes",
							"name": "",
							"type": "bytes"
						}
					],
					"name": "log",
					"type": "event"
				},
				{
					"inputs": [
						{
							"internalType": "address payable",
							"name": "_to",
							"type": "address"
						}
					],
					"name": "Call",
					"outputs": [],
					"stateMutability": "payable",
					"type": "function"
				},
				{
					"inputs": [
						{
							"internalType": "address payable",
							"name": "_to",
							"type": "address"
						}
					],
					"name": "CallReceive",
					"outputs": [],
					"stateMutability": "payable",
					"type": "function"
				},
				{
					"inputs": [
						{
							"internalType": "address payable",
							"name": "_to",
							"type": "address"
						}
					],
					"name": "Send",
					"outputs": [],
					"stateMutability": "payable",
					"type": "function"
				},
				{
					"inputs": [
						{
							"internalType": "address payable",
							"name": "_to",
							"type": "address"
						}
					],
					"name": "Transfer",
					"outputs": [],
					"stateMutability": "payable",
					"type": "function"
				}
			],
			"devdoc": {
				"kind": "dev",
				"methods": {},
				"version": 1
			},
			"evm": {
				"assembly": "    /* \"Week6/ex9.sol\":452:1060  contract test{... */\n  mstore(0x40, 0x80)\n  callvalue\n  dup1\n  iszero\n  tag_1\n  jumpi\n  0x00\n  dup1\n  revert\ntag_1:\n  pop\n  dataSize(sub_0)\n  dup1\n  dataOffset(sub_0)\n  0x00\n  codecopy\n  0x00\n  return\nstop\n\nsub_0: assembly {\n        /* \"Week6/ex9.sol\":452:1060  contract test{... */\n      mstore(0x40, 0x80)\n      jumpi(tag_1, lt(calldatasize, 0x04))\n      shr(0xe0, calldataload(0x00))\n      dup1\n      0x14132cc4\n      eq\n      tag_2\n      jumpi\n      dup1\n      0x2d339b1e\n      eq\n      tag_3\n      jumpi\n      dup1\n      0x7d4b3c5c\n      eq\n      tag_4\n      jumpi\n      dup1\n      0xd90ccf0f\n      eq\n      tag_5\n      jumpi\n    tag_1:\n      0x00\n      dup1\n      revert\n        /* \"Week6/ex9.sol\":701:902  function Call(address payable _to) public payable {... */\n    tag_2:\n      tag_6\n      0x04\n      dup1\n      calldatasize\n      sub\n      dup2\n      add\n      swap1\n      tag_7\n      swap2\n      swap1\n      tag_8\n      jump\t// in\n    tag_7:\n      tag_9\n      jump\t// in\n    tag_6:\n      stop\n        /* \"Week6/ex9.sol\":499:593  function Transfer(address payable _to) public payable {... */\n    tag_3:\n      tag_10\n      0x04\n      dup1\n      calldatasize\n      sub\n      dup2\n      add\n      swap1\n      tag_11\n      swap2\n      swap1\n      tag_8\n      jump\t// in\n    tag_11:\n      tag_12\n      jump\t// in\n    tag_10:\n      stop\n        /* \"Week6/ex9.sol\":598:696  function Send(address payable _to) public payable {... */\n    tag_4:\n      tag_13\n      0x04\n      dup1\n      calldatasize\n      sub\n      dup2\n      add\n      swap1\n      tag_14\n      swap2\n      swap1\n      tag_8\n      jump\t// in\n    tag_14:\n      tag_15\n      jump\t// in\n    tag_13:\n      stop\n        /* \"Week6/ex9.sol\":904:1058  function CallReceive(address payable _to) public payable {... */\n    tag_5:\n      tag_16\n      0x04\n      dup1\n      calldatasize\n      sub\n      dup2\n      add\n      swap1\n      tag_17\n      swap2\n      swap1\n      tag_8\n      jump\t// in\n    tag_17:\n      tag_18\n      jump\t// in\n    tag_16:\n      stop\n        /* \"Week6/ex9.sol\":701:902  function Call(address payable _to) public payable {... */\n    tag_9:\n        /* \"Week6/ex9.sol\":762:771  bool sent */\n      0x00\n        /* \"Week6/ex9.sol\":773:791  bytes memory value */\n      dup1\n        /* \"Week6/ex9.sol\":795:798  _to */\n      dup3\n        /* \"Week6/ex9.sol\":795:803  _to.call */\n      0xffffffffffffffffffffffffffffffffffffffff\n      and\n        /* \"Week6/ex9.sol\":811:820  msg.value */\n      callvalue\n        /* \"Week6/ex9.sol\":822:863  abi.encodeWithSignature(\"doesNotExist()\") */\n      add(0x24, mload(0x40))\n      mload(0x40)\n      0x20\n      dup2\n      dup4\n      sub\n      sub\n      dup2\n      mstore\n      swap1\n      0x40\n      mstore\n      and(not(0xffffffffffffffffffffffffffffffffffffffffffffffffffffffff), 0x1dcc85ae00000000000000000000000000000000000000000000000000000000)\n      0x20\n      dup3\n      add\n      dup1\n      mload\n      0xffffffffffffffffffffffffffffffffffffffffffffffffffffffff\n      dup4\n      dup2\n      dup4\n      and\n      or\n      dup4\n      mstore\n      pop\n      pop\n      pop\n      pop\n        /* \"Week6/ex9.sol\":795:864  _to.call{value: msg.value}(abi.encodeWithSignature(\"doesNotExist()\")) */\n      mload(0x40)\n      tag_20\n      swap2\n      swap1\n      tag_21\n      jump\t// in\n    tag_20:\n      0x00\n      mload(0x40)\n      dup1\n      dup4\n      sub\n      dup2\n      dup6\n      dup8\n      gas\n      call\n      swap3\n      pop\n      pop\n      pop\n      returndatasize\n      dup1\n      0x00\n      dup2\n      eq\n      tag_24\n      jumpi\n      mload(0x40)\n      swap2\n      pop\n      and(add(returndatasize, 0x3f), not(0x1f))\n      dup3\n      add\n      0x40\n      mstore\n      returndatasize\n      dup3\n      mstore\n      returndatasize\n      0x00\n      0x20\n      dup5\n      add\n      returndatacopy\n      jump(tag_23)\n    tag_24:\n      0x60\n      swap2\n      pop\n    tag_23:\n      pop\n        /* \"Week6/ex9.sol\":761:864  (bool sent, bytes memory value) = _to.call{value: msg.value}(abi.encodeWithSignature(\"doesNotExist()\")) */\n      swap2\n      pop\n      swap2\n      pop\n        /* \"Week6/ex9.sol\":879:895  log(sent, value) */\n      0xad3ec7b77a330bda935c4399b967d8eeb22fa251e8ebe00ca9aa1642ecc0f21f\n        /* \"Week6/ex9.sol\":883:887  sent */\n      dup3\n        /* \"Week6/ex9.sol\":889:894  value */\n      dup3\n        /* \"Week6/ex9.sol\":879:895  log(sent, value) */\n      mload(0x40)\n      tag_25\n      swap3\n      swap2\n      swap1\n      tag_26\n      jump\t// in\n    tag_25:\n      mload(0x40)\n      dup1\n      swap2\n      sub\n      swap1\n      log1\n        /* \"Week6/ex9.sol\":751:902  {... */\n      pop\n      pop\n        /* \"Week6/ex9.sol\":701:902  function Call(address payable _to) public payable {... */\n      pop\n      jump\t// out\n        /* \"Week6/ex9.sol\":499:593  function Transfer(address payable _to) public payable {... */\n    tag_12:\n        /* \"Week6/ex9.sol\":563:566  _to */\n      dup1\n        /* \"Week6/ex9.sol\":563:575  _to.transfer */\n      0xffffffffffffffffffffffffffffffffffffffff\n      and\n        /* \"Week6/ex9.sol\":563:586  _to.transfer(msg.value) */\n      0x08fc\n        /* \"Week6/ex9.sol\":576:585  msg.value */\n      callvalue\n        /* \"Week6/ex9.sol\":563:586  _to.transfer(msg.value) */\n      swap1\n      dup2\n      iszero\n      mul\n      swap1\n      mload(0x40)\n      0x00\n      mload(0x40)\n      dup1\n      dup4\n      sub\n      dup2\n      dup6\n      dup9\n      dup9\n      call\n      swap4\n      pop\n      pop\n      pop\n      pop\n      iszero\n      dup1\n      iszero\n      tag_29\n      jumpi\n      returndatasize\n      0x00\n      dup1\n      returndatacopy\n      revert(0x00, returndatasize)\n    tag_29:\n      pop\n        /* \"Week6/ex9.sol\":499:593  function Transfer(address payable _to) public payable {... */\n      pop\n      jump\t// out\n        /* \"Week6/ex9.sol\":598:696  function Send(address payable _to) public payable {... */\n    tag_15:\n        /* \"Week6/ex9.sol\":658:667  bool sent */\n      0x00\n        /* \"Week6/ex9.sol\":670:673  _to */\n      dup2\n        /* \"Week6/ex9.sol\":670:678  _to.send */\n      0xffffffffffffffffffffffffffffffffffffffff\n      and\n        /* \"Week6/ex9.sol\":670:689  _to.send(msg.value) */\n      0x08fc\n        /* \"Week6/ex9.sol\":679:688  msg.value */\n      callvalue\n        /* \"Week6/ex9.sol\":670:689  _to.send(msg.value) */\n      swap1\n      dup2\n      iszero\n      mul\n      swap1\n      mload(0x40)\n      0x00\n      mload(0x40)\n      dup1\n      dup4\n      sub\n      dup2\n      dup6\n      dup9\n      dup9\n      call\n      swap4\n      pop\n      pop\n      pop\n      pop\n        /* \"Week6/ex9.sol\":658:689  bool sent = _to.send(msg.value) */\n      swap1\n      pop\n        /* \"Week6/ex9.sol\":648:696  {... */\n      pop\n        /* \"Week6/ex9.sol\":598:696  function Send(address payable _to) public payable {... */\n      pop\n      jump\t// out\n        /* \"Week6/ex9.sol\":904:1058  function CallReceive(address payable _to) public payable {... */\n    tag_18:\n        /* \"Week6/ex9.sol\":966:975  bool sent */\n      0x00\n        /* \"Week6/ex9.sol\":977:995  bytes memory value */\n      dup1\n        /* \"Week6/ex9.sol\":999:1002  _to */\n      dup3\n        /* \"Week6/ex9.sol\":999:1007  _to.call */\n      0xffffffffffffffffffffffffffffffffffffffff\n      and\n        /* \"Week6/ex9.sol\":1015:1024  msg.value */\n      callvalue\n        /* \"Week6/ex9.sol\":999:1029  _to.call{value: msg.value}(\"\") */\n      mload(0x40)\n      tag_33\n      swap1\n      tag_34\n      jump\t// in\n    tag_33:\n      0x00\n      mload(0x40)\n      dup1\n      dup4\n      sub\n      dup2\n      dup6\n      dup8\n      gas\n      call\n      swap3\n      pop\n      pop\n      pop\n      returndatasize\n      dup1\n      0x00\n      dup2\n      eq\n      tag_37\n      jumpi\n      mload(0x40)\n      swap2\n      pop\n      and(add(returndatasize, 0x3f), not(0x1f))\n      dup3\n      add\n      0x40\n      mstore\n      returndatasize\n      dup3\n      mstore\n      returndatasize\n      0x00\n      0x20\n      dup5\n      add\n      returndatacopy\n      jump(tag_36)\n    tag_37:\n      0x60\n      swap2\n      pop\n    tag_36:\n      pop\n        /* \"Week6/ex9.sol\":965:1029  (bool sent, bytes memory value) = _to.call{value: msg.value}(\"\") */\n      swap2\n      pop\n      swap2\n      pop\n        /* \"Week6/ex9.sol\":1038:1054  log(sent, value) */\n      0xad3ec7b77a330bda935c4399b967d8eeb22fa251e8ebe00ca9aa1642ecc0f21f\n        /* \"Week6/ex9.sol\":1042:1046  sent */\n      dup3\n        /* \"Week6/ex9.sol\":1048:1053  value */\n      dup3\n        /* \"Week6/ex9.sol\":1038:1054  log(sent, value) */\n      mload(0x40)\n      tag_38\n      swap3\n      swap2\n      swap1\n      tag_26\n      jump\t// in\n    tag_38:\n      mload(0x40)\n      dup1\n      swap2\n      sub\n      swap1\n      log1\n        /* \"Week6/ex9.sol\":961:1058  {... */\n      pop\n      pop\n        /* \"Week6/ex9.sol\":904:1058  function CallReceive(address payable _to) public payable {... */\n      pop\n      jump\t// out\n        /* \"#utility.yul\":88:205   */\n    tag_40:\n        /* \"#utility.yul\":197:198   */\n      0x00\n        /* \"#utility.yul\":194:195   */\n      dup1\n        /* \"#utility.yul\":187:199   */\n      revert\n        /* \"#utility.yul\":334:460   */\n    tag_42:\n        /* \"#utility.yul\":371:378   */\n      0x00\n        /* \"#utility.yul\":411:453   */\n      0xffffffffffffffffffffffffffffffffffffffff\n        /* \"#utility.yul\":404:409   */\n      dup3\n        /* \"#utility.yul\":400:454   */\n      and\n        /* \"#utility.yul\":389:454   */\n      swap1\n      pop\n        /* \"#utility.yul\":334:460   */\n      swap2\n      swap1\n      pop\n      jump\t// out\n        /* \"#utility.yul\":466:570   */\n    tag_43:\n        /* \"#utility.yul\":511:518   */\n      0x00\n        /* \"#utility.yul\":540:564   */\n      tag_63\n        /* \"#utility.yul\":558:563   */\n      dup3\n        /* \"#utility.yul\":540:564   */\n      tag_42\n      jump\t// in\n    tag_63:\n        /* \"#utility.yul\":529:564   */\n      swap1\n      pop\n        /* \"#utility.yul\":466:570   */\n      swap2\n      swap1\n      pop\n      jump\t// out\n        /* \"#utility.yul\":576:714   */\n    tag_44:\n        /* \"#utility.yul\":657:689   */\n      tag_65\n        /* \"#utility.yul\":683:688   */\n      dup2\n        /* \"#utility.yul\":657:689   */\n      tag_43\n      jump\t// in\n    tag_65:\n        /* \"#utility.yul\":650:655   */\n      dup2\n        /* \"#utility.yul\":647:690   */\n      eq\n        /* \"#utility.yul\":637:708   */\n      tag_66\n      jumpi\n        /* \"#utility.yul\":704:705   */\n      0x00\n        /* \"#utility.yul\":701:702   */\n      dup1\n        /* \"#utility.yul\":694:706   */\n      revert\n        /* \"#utility.yul\":637:708   */\n    tag_66:\n        /* \"#utility.yul\":576:714   */\n      pop\n      jump\t// out\n        /* \"#utility.yul\":720:875   */\n    tag_45:\n        /* \"#utility.yul\":774:779   */\n      0x00\n        /* \"#utility.yul\":812:818   */\n      dup2\n        /* \"#utility.yul\":799:819   */\n      calldataload\n        /* \"#utility.yul\":790:819   */\n      swap1\n      pop\n        /* \"#utility.yul\":828:869   */\n      tag_68\n        /* \"#utility.yul\":863:868   */\n      dup2\n        /* \"#utility.yul\":828:869   */\n      tag_44\n      jump\t// in\n    tag_68:\n        /* \"#utility.yul\":720:875   */\n      swap3\n      swap2\n      pop\n      pop\n      jump\t// out\n        /* \"#utility.yul\":881:1226   */\n    tag_8:\n        /* \"#utility.yul\":948:954   */\n      0x00\n        /* \"#utility.yul\":997:999   */\n      0x20\n        /* \"#utility.yul\":985:994   */\n      dup3\n        /* \"#utility.yul\":976:983   */\n      dup5\n        /* \"#utility.yul\":972:995   */\n      sub\n        /* \"#utility.yul\":968:1000   */\n      slt\n        /* \"#utility.yul\":965:1084   */\n      iszero\n      tag_70\n      jumpi\n        /* \"#utility.yul\":1003:1082   */\n      tag_71\n      tag_40\n      jump\t// in\n    tag_71:\n        /* \"#utility.yul\":965:1084   */\n    tag_70:\n        /* \"#utility.yul\":1123:1124   */\n      0x00\n        /* \"#utility.yul\":1148:1209   */\n      tag_72\n        /* \"#utility.yul\":1201:1208   */\n      dup5\n        /* \"#utility.yul\":1192:1198   */\n      dup3\n        /* \"#utility.yul\":1181:1190   */\n      dup6\n        /* \"#utility.yul\":1177:1199   */\n      add\n        /* \"#utility.yul\":1148:1209   */\n      tag_45\n      jump\t// in\n    tag_72:\n        /* \"#utility.yul\":1138:1209   */\n      swap2\n      pop\n        /* \"#utility.yul\":1094:1219   */\n      pop\n        /* \"#utility.yul\":881:1226   */\n      swap3\n      swap2\n      pop\n      pop\n      jump\t// out\n        /* \"#utility.yul\":1232:1330   */\n    tag_46:\n        /* \"#utility.yul\":1283:1289   */\n      0x00\n        /* \"#utility.yul\":1317:1322   */\n      dup2\n        /* \"#utility.yul\":1311:1323   */\n      mload\n        /* \"#utility.yul\":1301:1323   */\n      swap1\n      pop\n        /* \"#utility.yul\":1232:1330   */\n      swap2\n      swap1\n      pop\n      jump\t// out\n        /* \"#utility.yul\":1336:1483   */\n    tag_47:\n        /* \"#utility.yul\":1437:1448   */\n      0x00\n        /* \"#utility.yul\":1474:1477   */\n      dup2\n        /* \"#utility.yul\":1459:1477   */\n      swap1\n      pop\n        /* \"#utility.yul\":1336:1483   */\n      swap3\n      swap2\n      pop\n      pop\n      jump\t// out\n        /* \"#utility.yul\":1489:1735   */\n    tag_48:\n        /* \"#utility.yul\":1570:1571   */\n      0x00\n        /* \"#utility.yul\":1580:1693   */\n    tag_76:\n        /* \"#utility.yul\":1594:1600   */\n      dup4\n        /* \"#utility.yul\":1591:1592   */\n      dup2\n        /* \"#utility.yul\":1588:1601   */\n      lt\n        /* \"#utility.yul\":1580:1693   */\n      iszero\n      tag_78\n      jumpi\n        /* \"#utility.yul\":1679:1680   */\n      dup1\n        /* \"#utility.yul\":1674:1677   */\n      dup3\n        /* \"#utility.yul\":1670:1681   */\n      add\n        /* \"#utility.yul\":1664:1682   */\n      mload\n        /* \"#utility.yul\":1660:1661   */\n      dup2\n        /* \"#utility.yul\":1655:1658   */\n      dup5\n        /* \"#utility.yul\":1651:1662   */\n      add\n        /* \"#utility.yul\":1644:1683   */\n      mstore\n        /* \"#utility.yul\":1616:1618   */\n      0x20\n        /* \"#utility.yul\":1613:1614   */\n      dup2\n        /* \"#utility.yul\":1609:1619   */\n      add\n        /* \"#utility.yul\":1604:1619   */\n      swap1\n      pop\n        /* \"#utility.yul\":1580:1693   */\n      jump(tag_76)\n    tag_78:\n        /* \"#utility.yul\":1727:1728   */\n      0x00\n        /* \"#utility.yul\":1718:1724   */\n      dup5\n        /* \"#utility.yul\":1713:1716   */\n      dup5\n        /* \"#utility.yul\":1709:1725   */\n      add\n        /* \"#utility.yul\":1702:1729   */\n      mstore\n        /* \"#utility.yul\":1551:1735   */\n      pop\n        /* \"#utility.yul\":1489:1735   */\n      pop\n      pop\n      pop\n      jump\t// out\n        /* \"#utility.yul\":1741:2127   */\n    tag_49:\n        /* \"#utility.yul\":1845:1848   */\n      0x00\n        /* \"#utility.yul\":1873:1911   */\n      tag_80\n        /* \"#utility.yul\":1905:1910   */\n      dup3\n        /* \"#utility.yul\":1873:1911   */\n      tag_46\n      jump\t// in\n    tag_80:\n        /* \"#utility.yul\":1927:2015   */\n      tag_81\n        /* \"#utility.yul\":2008:2014   */\n      dup2\n        /* \"#utility.yul\":2003:2006   */\n      dup6\n        /* \"#utility.yul\":1927:2015   */\n      tag_47\n      jump\t// in\n    tag_81:\n        /* \"#utility.yul\":1920:2015   */\n      swap4\n      pop\n        /* \"#utility.yul\":2024:2089   */\n      tag_82\n        /* \"#utility.yul\":2082:2088   */\n      dup2\n        /* \"#utility.yul\":2077:2080   */\n      dup6\n        /* \"#utility.yul\":2070:2074   */\n      0x20\n        /* \"#utility.yul\":2063:2068   */\n      dup7\n        /* \"#utility.yul\":2059:2075   */\n      add\n        /* \"#utility.yul\":2024:2089   */\n      tag_48\n      jump\t// in\n    tag_82:\n        /* \"#utility.yul\":2114:2120   */\n      dup1\n        /* \"#utility.yul\":2109:2112   */\n      dup5\n        /* \"#utility.yul\":2105:2121   */\n      add\n        /* \"#utility.yul\":2098:2121   */\n      swap2\n      pop\n        /* \"#utility.yul\":1849:2127   */\n      pop\n        /* \"#utility.yul\":1741:2127   */\n      swap3\n      swap2\n      pop\n      pop\n      jump\t// out\n        /* \"#utility.yul\":2133:2404   */\n    tag_21:\n        /* \"#utility.yul\":2263:2266   */\n      0x00\n        /* \"#utility.yul\":2285:2378   */\n      tag_84\n        /* \"#utility.yul\":2374:2377   */\n      dup3\n        /* \"#utility.yul\":2365:2371   */\n      dup5\n        /* \"#utility.yul\":2285:2378   */\n      tag_49\n      jump\t// in\n    tag_84:\n        /* \"#utility.yul\":2278:2378   */\n      swap2\n      pop\n        /* \"#utility.yul\":2395:2398   */\n      dup2\n        /* \"#utility.yul\":2388:2398   */\n      swap1\n      pop\n        /* \"#utility.yul\":2133:2404   */\n      swap3\n      swap2\n      pop\n      pop\n      jump\t// out\n        /* \"#utility.yul\":2410:2500   */\n    tag_50:\n        /* \"#utility.yul\":2444:2451   */\n      0x00\n        /* \"#utility.yul\":2487:2492   */\n      dup2\n        /* \"#utility.yul\":2480:2493   */\n      iszero\n        /* \"#utility.yul\":2473:2494   */\n      iszero\n        /* \"#utility.yul\":2462:2494   */\n      swap1\n      pop\n        /* \"#utility.yul\":2410:2500   */\n      swap2\n      swap1\n      pop\n      jump\t// out\n        /* \"#utility.yul\":2506:2615   */\n    tag_51:\n        /* \"#utility.yul\":2587:2608   */\n      tag_87\n        /* \"#utility.yul\":2602:2607   */\n      dup2\n        /* \"#utility.yul\":2587:2608   */\n      tag_50\n      jump\t// in\n    tag_87:\n        /* \"#utility.yul\":2582:2585   */\n      dup3\n        /* \"#utility.yul\":2575:2609   */\n      mstore\n        /* \"#utility.yul\":2506:2615   */\n      pop\n      pop\n      jump\t// out\n        /* \"#utility.yul\":2621:2789   */\n    tag_52:\n        /* \"#utility.yul\":2704:2715   */\n      0x00\n        /* \"#utility.yul\":2738:2744   */\n      dup3\n        /* \"#utility.yul\":2733:2736   */\n      dup3\n        /* \"#utility.yul\":2726:2745   */\n      mstore\n        /* \"#utility.yul\":2778:2782   */\n      0x20\n        /* \"#utility.yul\":2773:2776   */\n      dup3\n        /* \"#utility.yul\":2769:2783   */\n      add\n        /* \"#utility.yul\":2754:2783   */\n      swap1\n      pop\n        /* \"#utility.yul\":2621:2789   */\n      swap3\n      swap2\n      pop\n      pop\n      jump\t// out\n        /* \"#utility.yul\":2795:2897   */\n    tag_53:\n        /* \"#utility.yul\":2836:2842   */\n      0x00\n        /* \"#utility.yul\":2887:2889   */\n      0x1f\n        /* \"#utility.yul\":2883:2890   */\n      not\n        /* \"#utility.yul\":2878:2880   */\n      0x1f\n        /* \"#utility.yul\":2871:2876   */\n      dup4\n        /* \"#utility.yul\":2867:2881   */\n      add\n        /* \"#utility.yul\":2863:2891   */\n      and\n        /* \"#utility.yul\":2853:2891   */\n      swap1\n      pop\n        /* \"#utility.yul\":2795:2897   */\n      swap2\n      swap1\n      pop\n      jump\t// out\n        /* \"#utility.yul\":2903:3276   */\n    tag_54:\n        /* \"#utility.yul\":2989:2992   */\n      0x00\n        /* \"#utility.yul\":3017:3055   */\n      tag_91\n        /* \"#utility.yul\":3049:3054   */\n      dup3\n        /* \"#utility.yul\":3017:3055   */\n      tag_46\n      jump\t// in\n    tag_91:\n        /* \"#utility.yul\":3071:3141   */\n      tag_92\n        /* \"#utility.yul\":3134:3140   */\n      dup2\n        /* \"#utility.yul\":3129:3132   */\n      dup6\n        /* \"#utility.yul\":3071:3141   */\n      tag_52\n      jump\t// in\n    tag_92:\n        /* \"#utility.yul\":3064:3141   */\n      swap4\n      pop\n        /* \"#utility.yul\":3150:3215   */\n      tag_93\n        /* \"#utility.yul\":3208:3214   */\n      dup2\n        /* \"#utility.yul\":3203:3206   */\n      dup6\n        /* \"#utility.yul\":3196:3200   */\n      0x20\n        /* \"#utility.yul\":3189:3194   */\n      dup7\n        /* \"#utility.yul\":3185:3201   */\n      add\n        /* \"#utility.yul\":3150:3215   */\n      tag_48\n      jump\t// in\n    tag_93:\n        /* \"#utility.yul\":3240:3269   */\n      tag_94\n        /* \"#utility.yul\":3262:3268   */\n      dup2\n        /* \"#utility.yul\":3240:3269   */\n      tag_53\n      jump\t// in\n    tag_94:\n        /* \"#utility.yul\":3235:3238   */\n      dup5\n        /* \"#utility.yul\":3231:3270   */\n      add\n        /* \"#utility.yul\":3224:3270   */\n      swap2\n      pop\n        /* \"#utility.yul\":2993:3276   */\n      pop\n        /* \"#utility.yul\":2903:3276   */\n      swap3\n      swap2\n      pop\n      pop\n      jump\t// out\n        /* \"#utility.yul\":3282:3689   */\n    tag_26:\n        /* \"#utility.yul\":3415:3419   */\n      0x00\n        /* \"#utility.yul\":3453:3455   */\n      0x40\n        /* \"#utility.yul\":3442:3451   */\n      dup3\n        /* \"#utility.yul\":3438:3456   */\n      add\n        /* \"#utility.yul\":3430:3456   */\n      swap1\n      pop\n        /* \"#utility.yul\":3466:3531   */\n      tag_96\n        /* \"#utility.yul\":3528:3529   */\n      0x00\n        /* \"#utility.yul\":3517:3526   */\n      dup4\n        /* \"#utility.yul\":3513:3530   */\n      add\n        /* \"#utility.yul\":3504:3510   */\n      dup6\n        /* \"#utility.yul\":3466:3531   */\n      tag_51\n      jump\t// in\n    tag_96:\n        /* \"#utility.yul\":3578:3587   */\n      dup2\n        /* \"#utility.yul\":3572:3576   */\n      dup2\n        /* \"#utility.yul\":3568:3588   */\n      sub\n        /* \"#utility.yul\":3563:3565   */\n      0x20\n        /* \"#utility.yul\":3552:3561   */\n      dup4\n        /* \"#utility.yul\":3548:3566   */\n      add\n        /* \"#utility.yul\":3541:3589   */\n      mstore\n        /* \"#utility.yul\":3606:3682   */\n      tag_97\n        /* \"#utility.yul\":3677:3681   */\n      dup2\n        /* \"#utility.yul\":3668:3674   */\n      dup5\n        /* \"#utility.yul\":3606:3682   */\n      tag_54\n      jump\t// in\n    tag_97:\n        /* \"#utility.yul\":3598:3682   */\n      swap1\n      pop\n        /* \"#utility.yul\":3282:3689   */\n      swap4\n      swap3\n      pop\n      pop\n      pop\n      jump\t// out\n        /* \"#utility.yul\":3695:3809   */\n    tag_55:\n      pop\n      jump\t// out\n        /* \"#utility.yul\":3815:4213   */\n    tag_56:\n        /* \"#utility.yul\":3974:3977   */\n      0x00\n        /* \"#utility.yul\":3995:4078   */\n      tag_100\n        /* \"#utility.yul\":4076:4077   */\n      0x00\n        /* \"#utility.yul\":4071:4074   */\n      dup4\n        /* \"#utility.yul\":3995:4078   */\n      tag_47\n      jump\t// in\n    tag_100:\n        /* \"#utility.yul\":3988:4078   */\n      swap2\n      pop\n        /* \"#utility.yul\":4087:4180   */\n      tag_101\n        /* \"#utility.yul\":4176:4179   */\n      dup3\n        /* \"#utility.yul\":4087:4180   */\n      tag_55\n      jump\t// in\n    tag_101:\n        /* \"#utility.yul\":4205:4206   */\n      0x00\n        /* \"#utility.yul\":4200:4203   */\n      dup3\n        /* \"#utility.yul\":4196:4207   */\n      add\n        /* \"#utility.yul\":4189:4207   */\n      swap1\n      pop\n        /* \"#utility.yul\":3815:4213   */\n      swap2\n      swap1\n      pop\n      jump\t// out\n        /* \"#utility.yul\":4219:4598   */\n    tag_34:\n        /* \"#utility.yul\":4403:4406   */\n      0x00\n        /* \"#utility.yul\":4425:4572   */\n      tag_103\n        /* \"#utility.yul\":4568:4571   */\n      dup3\n        /* \"#utility.yul\":4425:4572   */\n      tag_56\n      jump\t// in\n    tag_103:\n        /* \"#utility.yul\":4418:4572   */\n      swap2\n      pop\n        /* \"#utility.yul\":4589:4592   */\n      dup2\n        /* \"#utility.yul\":4582:4592   */\n      swap1\n      pop\n        /* \"#utility.yul\":4219:4598   */\n      swap2\n      swap1\n      pop\n      jump\t// out\n\n    auxdata: 0xa26469706673582212202b7c114b55c2ed61815d0b18bab392606d300d818dedb14e7efb29fede8dfdcb64736f6c63430008120033\n}\n",
				"bytecode": {
					"linkReferences": {},
					"object": "608060405234801561001057600080fd5b50610546806100206000396000f3fe60806040526004361061003f5760003560e01c806314132cc4146100445780632d339b1e146100605780637d4b3c5c1461007c578063d90ccf0f14610098575b600080fd5b61005e6004803603810190610059919061037a565b6100b4565b005b61007a6004803603810190610075919061037a565b6101e4565b005b6100966004803603810190610091919061037a565b61022e565b005b6100b260048036038101906100ad919061037a565b61026b565b005b6000808273ffffffffffffffffffffffffffffffffffffffff16346040516024016040516020818303038152906040527f1dcc85ae000000000000000000000000000000000000000000000000000000007bffffffffffffffffffffffffffffffffffffffffffffffffffffffff19166020820180517bffffffffffffffffffffffffffffffffffffffffffffffffffffffff838183161783525050505060405161015f9190610418565b60006040518083038185875af1925050503d806000811461019c576040519150601f19603f3d011682016040523d82523d6000602084013e6101a1565b606091505b50915091507fad3ec7b77a330bda935c4399b967d8eeb22fa251e8ebe00ca9aa1642ecc0f21f82826040516101d79291906104a5565b60405180910390a1505050565b8073ffffffffffffffffffffffffffffffffffffffff166108fc349081150290604051600060405180830381858888f1935050505015801561022a573d6000803e3d6000fd5b5050565b60008173ffffffffffffffffffffffffffffffffffffffff166108fc349081150290604051600060405180830381858888f1935050505090505050565b6000808273ffffffffffffffffffffffffffffffffffffffff1634604051610292906104fb565b60006040518083038185875af1925050503d80600081146102cf576040519150601f19603f3d011682016040523d82523d6000602084013e6102d4565b606091505b50915091507fad3ec7b77a330bda935c4399b967d8eeb22fa251e8ebe00ca9aa1642ecc0f21f828260405161030a9291906104a5565b60405180910390a1505050565b600080fd5b600073ffffffffffffffffffffffffffffffffffffffff82169050919050565b60006103478261031c565b9050919050565b6103578161033c565b811461036257600080fd5b50565b6000813590506103748161034e565b92915050565b6000602082840312156103905761038f610317565b5b600061039e84828501610365565b91505092915050565b600081519050919050565b600081905092915050565b60005b838110156103db5780820151818401526020810190506103c0565b60008484015250505050565b60006103f2826103a7565b6103fc81856103b2565b935061040c8185602086016103bd565b80840191505092915050565b600061042482846103e7565b915081905092915050565b60008115159050919050565b6104448161042f565b82525050565b600082825260208201905092915050565b6000601f19601f8301169050919050565b6000610477826103a7565b610481818561044a565b93506104918185602086016103bd565b61049a8161045b565b840191505092915050565b60006040820190506104ba600083018561043b565b81810360208301526104cc818461046c565b90509392505050565b50565b60006104e56000836103b2565b91506104f0826104d5565b600082019050919050565b6000610506826104d8565b915081905091905056fea26469706673582212202b7c114b55c2ed61815d0b18bab392606d300d818dedb14e7efb29fede8dfdcb64736f6c63430008120033",
					"opcodes": "PUSH1 0x80 PUSH1 0x40 MSTORE CALLVALUE DUP1 ISZERO PUSH2 0x10 JUMPI PUSH1 0x0 DUP1 REVERT JUMPDEST POP PUSH2 0x546 DUP1 PUSH2 0x20 PUSH1 0x0 CODECOPY PUSH1 0x0 RETURN INVALID PUSH1 0x80 PUSH1 0x40 MSTORE PUSH1 0x4 CALLDATASIZE LT PUSH2 0x3F JUMPI PUSH1 0x0 CALLDATALOAD PUSH1 0xE0 SHR DUP1 PUSH4 0x14132CC4 EQ PUSH2 0x44 JUMPI DUP1 PUSH4 0x2D339B1E EQ PUSH2 0x60 JUMPI DUP1 PUSH4 0x7D4B3C5C EQ PUSH2 0x7C JUMPI DUP1 PUSH4 0xD90CCF0F EQ PUSH2 0x98 JUMPI JUMPDEST PUSH1 0x0 DUP1 REVERT JUMPDEST PUSH2 0x5E PUSH1 0x4 DUP1 CALLDATASIZE SUB DUP2 ADD SWAP1 PUSH2 0x59 SWAP2 SWAP1 PUSH2 0x37A JUMP JUMPDEST PUSH2 0xB4 JUMP JUMPDEST STOP JUMPDEST PUSH2 0x7A PUSH1 0x4 DUP1 CALLDATASIZE SUB DUP2 ADD SWAP1 PUSH2 0x75 SWAP2 SWAP1 PUSH2 0x37A JUMP JUMPDEST PUSH2 0x1E4 JUMP JUMPDEST STOP JUMPDEST PUSH2 0x96 PUSH1 0x4 DUP1 CALLDATASIZE SUB DUP2 ADD SWAP1 PUSH2 0x91 SWAP2 SWAP1 PUSH2 0x37A JUMP JUMPDEST PUSH2 0x22E JUMP JUMPDEST STOP JUMPDEST PUSH2 0xB2 PUSH1 0x4 DUP1 CALLDATASIZE SUB DUP2 ADD SWAP1 PUSH2 0xAD SWAP2 SWAP1 PUSH2 0x37A JUMP JUMPDEST PUSH2 0x26B JUMP JUMPDEST STOP JUMPDEST PUSH1 0x0 DUP1 DUP3 PUSH20 0xFFFFFFFFFFFFFFFFFFFFFFFFFFFFFFFFFFFFFFFF AND CALLVALUE PUSH1 0x40 MLOAD PUSH1 0x24 ADD PUSH1 0x40 MLOAD PUSH1 0x20 DUP2 DUP4 SUB SUB DUP2 MSTORE SWAP1 PUSH1 0x40 MSTORE PUSH32 0x1DCC85AE00000000000000000000000000000000000000000000000000000000 PUSH28 0xFFFFFFFFFFFFFFFFFFFFFFFFFFFFFFFFFFFFFFFFFFFFFFFFFFFFFFFF NOT AND PUSH1 0x20 DUP3 ADD DUP1 MLOAD PUSH28 0xFFFFFFFFFFFFFFFFFFFFFFFFFFFFFFFFFFFFFFFFFFFFFFFFFFFFFFFF DUP4 DUP2 DUP4 AND OR DUP4 MSTORE POP POP POP POP PUSH1 0x40 MLOAD PUSH2 0x15F SWAP2 SWAP1 PUSH2 0x418 JUMP JUMPDEST PUSH1 0x0 PUSH1 0x40 MLOAD DUP1 DUP4 SUB DUP2 DUP6 DUP8 GAS CALL SWAP3 POP POP POP RETURNDATASIZE DUP1 PUSH1 0x0 DUP2 EQ PUSH2 0x19C JUMPI PUSH1 0x40 MLOAD SWAP2 POP PUSH1 0x1F NOT PUSH1 0x3F RETURNDATASIZE ADD AND DUP3 ADD PUSH1 0x40 MSTORE RETURNDATASIZE DUP3 MSTORE RETURNDATASIZE PUSH1 0x0 PUSH1 0x20 DUP5 ADD RETURNDATACOPY PUSH2 0x1A1 JUMP JUMPDEST PUSH1 0x60 SWAP2 POP JUMPDEST POP SWAP2 POP SWAP2 POP PUSH32 0xAD3EC7B77A330BDA935C4399B967D8EEB22FA251E8EBE00CA9AA1642ECC0F21F DUP3 DUP3 PUSH1 0x40 MLOAD PUSH2 0x1D7 SWAP3 SWAP2 SWAP1 PUSH2 0x4A5 JUMP JUMPDEST PUSH1 0x40 MLOAD DUP1 SWAP2 SUB SWAP1 LOG1 POP POP POP JUMP JUMPDEST DUP1 PUSH20 0xFFFFFFFFFFFFFFFFFFFFFFFFFFFFFFFFFFFFFFFF AND PUSH2 0x8FC CALLVALUE SWAP1 DUP2 ISZERO MUL SWAP1 PUSH1 0x40 MLOAD PUSH1 0x0 PUSH1 0x40 MLOAD DUP1 DUP4 SUB DUP2 DUP6 DUP9 DUP9 CALL SWAP4 POP POP POP POP ISZERO DUP1 ISZERO PUSH2 0x22A JUMPI RETURNDATASIZE PUSH1 0x0 DUP1 RETURNDATACOPY RETURNDATASIZE PUSH1 0x0 REVERT JUMPDEST POP POP JUMP JUMPDEST PUSH1 0x0 DUP2 PUSH20 0xFFFFFFFFFFFFFFFFFFFFFFFFFFFFFFFFFFFFFFFF AND PUSH2 0x8FC CALLVALUE SWAP1 DUP2 ISZERO MUL SWAP1 PUSH1 0x40 MLOAD PUSH1 0x0 PUSH1 0x40 MLOAD DUP1 DUP4 SUB DUP2 DUP6 DUP9 DUP9 CALL SWAP4 POP POP POP POP SWAP1 POP POP POP JUMP JUMPDEST PUSH1 0x0 DUP1 DUP3 PUSH20 0xFFFFFFFFFFFFFFFFFFFFFFFFFFFFFFFFFFFFFFFF AND CALLVALUE PUSH1 0x40 MLOAD PUSH2 0x292 SWAP1 PUSH2 0x4FB JUMP JUMPDEST PUSH1 0x0 PUSH1 0x40 MLOAD DUP1 DUP4 SUB DUP2 DUP6 DUP8 GAS CALL SWAP3 POP POP POP RETURNDATASIZE DUP1 PUSH1 0x0 DUP2 EQ PUSH2 0x2CF JUMPI PUSH1 0x40 MLOAD SWAP2 POP PUSH1 0x1F NOT PUSH1 0x3F RETURNDATASIZE ADD AND DUP3 ADD PUSH1 0x40 MSTORE RETURNDATASIZE DUP3 MSTORE RETURNDATASIZE PUSH1 0x0 PUSH1 0x20 DUP5 ADD RETURNDATACOPY PUSH2 0x2D4 JUMP JUMPDEST PUSH1 0x60 SWAP2 POP JUMPDEST POP SWAP2 POP SWAP2 POP PUSH32 0xAD3EC7B77A330BDA935C4399B967D8EEB22FA251E8EBE00CA9AA1642ECC0F21F DUP3 DUP3 PUSH1 0x40 MLOAD PUSH2 0x30A SWAP3 SWAP2 SWAP1 PUSH2 0x4A5 JUMP JUMPDEST PUSH1 0x40 MLOAD DUP1 SWAP2 SUB SWAP1 LOG1 POP POP POP JUMP JUMPDEST PUSH1 0x0 DUP1 REVERT JUMPDEST PUSH1 0x0 PUSH20 0xFFFFFFFFFFFFFFFFFFFFFFFFFFFFFFFFFFFFFFFF DUP3 AND SWAP1 POP SWAP2 SWAP1 POP JUMP JUMPDEST PUSH1 0x0 PUSH2 0x347 DUP3 PUSH2 0x31C JUMP JUMPDEST SWAP1 POP SWAP2 SWAP1 POP JUMP JUMPDEST PUSH2 0x357 DUP2 PUSH2 0x33C JUMP JUMPDEST DUP2 EQ PUSH2 0x362 JUMPI PUSH1 0x0 DUP1 REVERT JUMPDEST POP JUMP JUMPDEST PUSH1 0x0 DUP2 CALLDATALOAD SWAP1 POP PUSH2 0x374 DUP2 PUSH2 0x34E JUMP JUMPDEST SWAP3 SWAP2 POP POP JUMP JUMPDEST PUSH1 0x0 PUSH1 0x20 DUP3 DUP5 SUB SLT ISZERO PUSH2 0x390 JUMPI PUSH2 0x38F PUSH2 0x317 JUMP JUMPDEST JUMPDEST PUSH1 0x0 PUSH2 0x39E DUP5 DUP3 DUP6 ADD PUSH2 0x365 JUMP JUMPDEST SWAP2 POP POP SWAP3 SWAP2 POP POP JUMP JUMPDEST PUSH1 0x0 DUP2 MLOAD SWAP1 POP SWAP2 SWAP1 POP JUMP JUMPDEST PUSH1 0x0 DUP2 SWAP1 POP SWAP3 SWAP2 POP POP JUMP JUMPDEST PUSH1 0x0 JUMPDEST DUP4 DUP2 LT ISZERO PUSH2 0x3DB JUMPI DUP1 DUP3 ADD MLOAD DUP2 DUP5 ADD MSTORE PUSH1 0x20 DUP2 ADD SWAP1 POP PUSH2 0x3C0 JUMP JUMPDEST PUSH1 0x0 DUP5 DUP5 ADD MSTORE POP POP POP POP JUMP JUMPDEST PUSH1 0x0 PUSH2 0x3F2 DUP3 PUSH2 0x3A7 JUMP JUMPDEST PUSH2 0x3FC DUP2 DUP6 PUSH2 0x3B2 JUMP JUMPDEST SWAP4 POP PUSH2 0x40C DUP2 DUP6 PUSH1 0x20 DUP7 ADD PUSH2 0x3BD JUMP JUMPDEST DUP1 DUP5 ADD SWAP2 POP POP SWAP3 SWAP2 POP POP JUMP JUMPDEST PUSH1 0x0 PUSH2 0x424 DUP3 DUP5 PUSH2 0x3E7 JUMP JUMPDEST SWAP2 POP DUP2 SWAP1 POP SWAP3 SWAP2 POP POP JUMP JUMPDEST PUSH1 0x0 DUP2 ISZERO ISZERO SWAP1 POP SWAP2 SWAP1 POP JUMP JUMPDEST PUSH2 0x444 DUP2 PUSH2 0x42F JUMP JUMPDEST DUP3 MSTORE POP POP JUMP JUMPDEST PUSH1 0x0 DUP3 DUP3 MSTORE PUSH1 0x20 DUP3 ADD SWAP1 POP SWAP3 SWAP2 POP POP JUMP JUMPDEST PUSH1 0x0 PUSH1 0x1F NOT PUSH1 0x1F DUP4 ADD AND SWAP1 POP SWAP2 SWAP1 POP JUMP JUMPDEST PUSH1 0x0 PUSH2 0x477 DUP3 PUSH2 0x3A7 JUMP JUMPDEST PUSH2 0x481 DUP2 DUP6 PUSH2 0x44A JUMP JUMPDEST SWAP4 POP PUSH2 0x491 DUP2 DUP6 PUSH1 0x20 DUP7 ADD PUSH2 0x3BD JUMP JUMPDEST PUSH2 0x49A DUP2 PUSH2 0x45B JUMP JUMPDEST DUP5 ADD SWAP2 POP POP SWAP3 SWAP2 POP POP JUMP JUMPDEST PUSH1 0x0 PUSH1 0x40 DUP3 ADD SWAP1 POP PUSH2 0x4BA PUSH1 0x0 DUP4 ADD DUP6 PUSH2 0x43B JUMP JUMPDEST DUP2 DUP2 SUB PUSH1 0x20 DUP4 ADD MSTORE PUSH2 0x4CC DUP2 DUP5 PUSH2 0x46C JUMP JUMPDEST SWAP1 POP SWAP4 SWAP3 POP POP POP JUMP JUMPDEST POP JUMP JUMPDEST PUSH1 0x0 PUSH2 0x4E5 PUSH1 0x0 DUP4 PUSH2 0x3B2 JUMP JUMPDEST SWAP2 POP PUSH2 0x4F0 DUP3 PUSH2 0x4D5 JUMP JUMPDEST PUSH1 0x0 DUP3 ADD SWAP1 POP SWAP2 SWAP1 POP JUMP JUMPDEST PUSH1 0x0 PUSH2 0x506 DUP3 PUSH2 0x4D8 JUMP JUMPDEST SWAP2 POP DUP2 SWAP1 POP SWAP2 SWAP1 POP JUMP INVALID LOG2 PUSH5 0x6970667358 0x22 SLT KECCAK256 0x2B PUSH29 0x114B55C2ED61815D0B18BAB392606D300D818DEDB14E7EFB29FEDE8DFD 0xCB PUSH5 0x736F6C6343 STOP ADDMOD SLT STOP CALLER "
				},
				"gasEstimates": {
					"creation": {
						"codeDepositCost": "270000",
						"executionCost": "312",
						"totalCost": "270312"
					},
					"external": {
						"Call(address)": "infinite",
						"CallReceive(address)": "infinite",
						"Send(address)": "infinite",
						"Transfer(address)": "infinite"
					}
				},
				"methodIdentifiers": {
					"Call(address)": "14132cc4",
					"CallReceive(address)": "d90ccf0f",
					"Send(address)": "7d4b3c5c",
					"Transfer(address)": "2d339b1e"
				}
			},
			"storageLayout": {
				"storage": [],
				"types": null
			},
			"userdoc": {
				"kind": "user",
				"methods": {},
				"version": 1
			}
		}
	}
}