{
	"Week7/ex1.sol": {
		"MDXToken": {
			"abi": [
				{
					"inputs": [],
					"stateMutability": "nonpayable",
					"type": "constructor"
				},
				{
					"anonymous": false,
					"inputs": [
						{
							"indexed": false,
							"internalType": "address",
							"name": "",
							"type": "address"
						},
						{
							"indexed": false,
							"internalType": "uint256",
							"name": "",
							"type": "uint256"
						}
					],
					"name": "Transfer",
					"type": "event"
				},
				{
					"inputs": [
						{
							"internalType": "address",
							"name": "_account",
							"type": "address"
						}
					],
					"name": "addAccount",
					"outputs": [],
					"stateMutability": "nonpayable",
					"type": "function"
				},
				{
					"inputs": [
						{
							"internalType": "address",
							"name": "",
							"type": "address"
						}
					],
					"name": "balanceMap",
					"outputs": [
						{
							"internalType": "uint256",
							"name": "",
							"type": "uint256"
						}
					],
					"stateMutability": "view",
					"type": "function"
				},
				{
					"inputs": [],
					"name": "banker",
					"outputs": [
						{
							"internalType": "address",
							"name": "",
							"type": "address"
						}
					],
					"stateMutability": "view",
					"type": "function"
				},
				{
					"inputs": [
						{
							"internalType": "address",
							"name": "_from",
							"type": "address"
						},
						{
							"internalType": "uint256",
							"name": "_amount",
							"type": "uint256"
						}
					],
					"name": "deposit",
					"outputs": [],
					"stateMutability": "nonpayable",
					"type": "function"
				},
				{
					"inputs": [
						{
							"internalType": "address",
							"name": "_account",
							"type": "address"
						}
					],
					"name": "freezeAccount",
					"outputs": [],
					"stateMutability": "nonpayable",
					"type": "function"
				},
				{
					"inputs": [
						{
							"internalType": "address",
							"name": "",
							"type": "address"
						}
					],
					"name": "freezeInterval",
					"outputs": [
						{
							"internalType": "uint256",
							"name": "",
							"type": "uint256"
						}
					],
					"stateMutability": "view",
					"type": "function"
				},
				{
					"inputs": [
						{
							"internalType": "address",
							"name": "",
							"type": "address"
						}
					],
					"name": "freezeMap",
					"outputs": [
						{
							"internalType": "bool",
							"name": "",
							"type": "bool"
						}
					],
					"stateMutability": "view",
					"type": "function"
				},
				{
					"inputs": [
						{
							"internalType": "address",
							"name": "_account",
							"type": "address"
						}
					],
					"name": "isFrozen",
					"outputs": [
						{
							"internalType": "bool",
							"name": "",
							"type": "bool"
						}
					],
					"stateMutability": "view",
					"type": "function"
				},
				{
					"inputs": [
						{
							"internalType": "address",
							"name": "",
							"type": "address"
						}
					],
					"name": "savings",
					"outputs": [
						{
							"internalType": "uint256",
							"name": "",
							"type": "uint256"
						}
					],
					"stateMutability": "view",
					"type": "function"
				},
				{
					"inputs": [
						{
							"internalType": "address",
							"name": "_account",
							"type": "address"
						}
					],
					"name": "thawAccount",
					"outputs": [],
					"stateMutability": "nonpayable",
					"type": "function"
				},
				{
					"inputs": [],
					"name": "tokenSupply",
					"outputs": [
						{
							"internalType": "uint256",
							"name": "",
							"type": "uint256"
						}
					],
					"stateMutability": "view",
					"type": "function"
				},
				{
					"inputs": [
						{
							"internalType": "address",
							"name": "_to",
							"type": "address"
						},
						{
							"internalType": "uint256",
							"name": "_amount",
							"type": "uint256"
						}
					],
					"name": "withdraw",
					"outputs": [],
					"stateMutability": "nonpayable",
					"type": "function"
				}
			],
			"devdoc": {
				"kind": "dev",
				"methods": {},
				"version": 1
			},
			"evm": {
				"assembly": "    /* \"Week7/ex1.sol\":408:3141  contract MDXToken is SimpleToken{... */\n  mstore(0x40, 0x80)\n    /* \"Week7/ex1.sol\":705:715  1000000000 */\n  0x3b9aca00\n    /* \"Week7/ex1.sol\":679:715  uint public tokenSupply = 1000000000 */\n  0x05\n  sstore\n    /* \"Week7/ex1.sol\":776:778  60 */\n  0x3c\n    /* \"Week7/ex1.sol\":760:778  uint interval = 60 */\n  0x06\n  sstore\n    /* \"Week7/ex1.sol\":1055:1162  constructor () {... */\n  callvalue\n  dup1\n  iszero\n  tag_1\n  jumpi\n  0x00\n  dup1\n  revert\ntag_1:\n  pop\n    /* \"Week7/ex1.sol\":1089:1099  msg.sender */\n  caller\n    /* \"Week7/ex1.sol\":1080:1086  banker */\n  0x00\n  dup1\n    /* \"Week7/ex1.sol\":1080:1099  banker = msg.sender */\n  0x0100\n  exp\n  dup2\n  sload\n  dup2\n  0xffffffffffffffffffffffffffffffffffffffff\n  mul\n  not\n  and\n  swap1\n  dup4\n  0xffffffffffffffffffffffffffffffffffffffff\n  and\n  mul\n  or\n  swap1\n  sstore\n  pop\n    /* \"Week7/ex1.sol\":749:754  10000 */\n  0x2710\n    /* \"Week7/ex1.sol\":1109:1119  balanceMap */\n  0x02\n    /* \"Week7/ex1.sol\":1109:1127  balanceMap[banker] */\n  0x00\n    /* \"Week7/ex1.sol\":1120:1126  banker */\n  dup1\n  0x00\n  swap1\n  sload\n  swap1\n  0x0100\n  exp\n  swap1\n  div\n  0xffffffffffffffffffffffffffffffffffffffff\n  and\n    /* \"Week7/ex1.sol\":1109:1127  balanceMap[banker] */\n  0xffffffffffffffffffffffffffffffffffffffff\n  and\n  0xffffffffffffffffffffffffffffffffffffffff\n  and\n  dup2\n  mstore\n  0x20\n  add\n  swap1\n  dup2\n  mstore\n  0x20\n  add\n  0x00\n  keccak256\n    /* \"Week7/ex1.sol\":1109:1134  balanceMap[banker] = INIT */\n  dup2\n  swap1\n  sstore\n  pop\n    /* \"Week7/ex1.sol\":749:754  10000 */\n  0x2710\n    /* \"Week7/ex1.sol\":1138:1149  tokenSupply */\n  0x05\n  0x00\n    /* \"Week7/ex1.sol\":1138:1155  tokenSupply-=INIT */\n  dup3\n  dup3\n  sload\n  tag_4\n  swap2\n  swap1\n  tag_5\n  jump\t// in\ntag_4:\n  swap3\n  pop\n  pop\n  dup2\n  swap1\n  sstore\n  pop\n    /* \"Week7/ex1.sol\":408:3141  contract MDXToken is SimpleToken{... */\n  jump(tag_6)\n    /* \"#utility.yul\":7:84   */\ntag_7:\n    /* \"#utility.yul\":44:51   */\n  0x00\n    /* \"#utility.yul\":73:78   */\n  dup2\n    /* \"#utility.yul\":62:78   */\n  swap1\n  pop\n    /* \"#utility.yul\":7:84   */\n  swap2\n  swap1\n  pop\n  jump\t// out\n    /* \"#utility.yul\":90:270   */\ntag_8:\n    /* \"#utility.yul\":138:215   */\n  0x4e487b7100000000000000000000000000000000000000000000000000000000\n    /* \"#utility.yul\":135:136   */\n  0x00\n    /* \"#utility.yul\":128:216   */\n  mstore\n    /* \"#utility.yul\":235:239   */\n  0x11\n    /* \"#utility.yul\":232:233   */\n  0x04\n    /* \"#utility.yul\":225:240   */\n  mstore\n    /* \"#utility.yul\":259:263   */\n  0x24\n    /* \"#utility.yul\":256:257   */\n  0x00\n    /* \"#utility.yul\":249:264   */\n  revert\n    /* \"#utility.yul\":276:470   */\ntag_5:\n    /* \"#utility.yul\":316:320   */\n  0x00\n    /* \"#utility.yul\":336:356   */\n  tag_13\n    /* \"#utility.yul\":354:355   */\n  dup3\n    /* \"#utility.yul\":336:356   */\n  tag_7\n  jump\t// in\ntag_13:\n    /* \"#utility.yul\":331:356   */\n  swap2\n  pop\n    /* \"#utility.yul\":370:390   */\n  tag_14\n    /* \"#utility.yul\":388:389   */\n  dup4\n    /* \"#utility.yul\":370:390   */\n  tag_7\n  jump\t// in\ntag_14:\n    /* \"#utility.yul\":365:390   */\n  swap3\n  pop\n    /* \"#utility.yul\":414:415   */\n  dup3\n    /* \"#utility.yul\":411:412   */\n  dup3\n    /* \"#utility.yul\":407:416   */\n  sub\n    /* \"#utility.yul\":399:416   */\n  swap1\n  pop\n    /* \"#utility.yul\":438:439   */\n  dup2\n    /* \"#utility.yul\":432:436   */\n  dup2\n    /* \"#utility.yul\":429:440   */\n  gt\n    /* \"#utility.yul\":426:463   */\n  iszero\n  tag_15\n  jumpi\n    /* \"#utility.yul\":443:461   */\n  tag_16\n  tag_8\n  jump\t// in\ntag_16:\n    /* \"#utility.yul\":426:463   */\ntag_15:\n    /* \"#utility.yul\":276:470   */\n  swap3\n  swap2\n  pop\n  pop\n  jump\t// out\n    /* \"Week7/ex1.sol\":408:3141  contract MDXToken is SimpleToken{... */\ntag_6:\n  dataSize(sub_0)\n  dup1\n  dataOffset(sub_0)\n  0x00\n  codecopy\n  0x00\n  return\nstop\n\nsub_0: assembly {\n        /* \"Week7/ex1.sol\":408:3141  contract MDXToken is SimpleToken{... */\n      mstore(0x40, 0x80)\n      callvalue\n      dup1\n      iszero\n      tag_1\n      jumpi\n      0x00\n      dup1\n      revert\n    tag_1:\n      pop\n      jumpi(tag_2, lt(calldatasize, 0x04))\n      shr(0xe0, calldataload(0x00))\n      dup1\n      0xb3a60ac7\n      gt\n      tag_15\n      jumpi\n      dup1\n      0xb3a60ac7\n      eq\n      tag_9\n      jumpi\n      dup1\n      0xd250496c\n      eq\n      tag_10\n      jumpi\n      dup1\n      0xe5839836\n      eq\n      tag_11\n      jumpi\n      dup1\n      0xe89b0e1e\n      eq\n      tag_12\n      jumpi\n      dup1\n      0xf26c159f\n      eq\n      tag_13\n      jumpi\n      dup1\n      0xf3fef3a3\n      eq\n      tag_14\n      jumpi\n      jump(tag_2)\n    tag_15:\n      dup1\n      0x04d7dc21\n      eq\n      tag_3\n      jumpi\n      dup1\n      0x0ab9db5b\n      eq\n      tag_4\n      jumpi\n      dup1\n      0x1f7cdd5f\n      eq\n      tag_5\n      jumpi\n      dup1\n      0x47e7ef24\n      eq\n      tag_6\n      jumpi\n      dup1\n      0x7824407f\n      eq\n      tag_7\n      jumpi\n      dup1\n      0x855d3af3\n      eq\n      tag_8\n      jumpi\n    tag_2:\n      0x00\n      dup1\n      revert\n        /* \"Week7/ex1.sol\":629:676  mapping (address => uint) public freezeInterval */\n    tag_3:\n      tag_16\n      0x04\n      dup1\n      calldatasize\n      sub\n      dup2\n      add\n      swap1\n      tag_17\n      swap2\n      swap1\n      tag_18\n      jump\t// in\n    tag_17:\n      tag_19\n      jump\t// in\n    tag_16:\n      mload(0x40)\n      tag_20\n      swap2\n      swap1\n      tag_21\n      jump\t// in\n    tag_20:\n      mload(0x40)\n      dup1\n      swap2\n      sub\n      swap1\n      return\n        /* \"Week7/ex1.sol\":443:464  address public banker */\n    tag_4:\n      tag_22\n      tag_23\n      jump\t// in\n    tag_22:\n      mload(0x40)\n      tag_24\n      swap2\n      swap1\n      tag_25\n      jump\t// in\n    tag_24:\n      mload(0x40)\n      dup1\n      swap2\n      sub\n      swap1\n      return\n        /* \"Week7/ex1.sol\":494:532  mapping (address=>uint) public savings */\n    tag_5:\n      tag_26\n      0x04\n      dup1\n      calldatasize\n      sub\n      dup2\n      add\n      swap1\n      tag_27\n      swap2\n      swap1\n      tag_18\n      jump\t// in\n    tag_27:\n      tag_28\n      jump\t// in\n    tag_26:\n      mload(0x40)\n      tag_29\n      swap2\n      swap1\n      tag_21\n      jump\t// in\n    tag_29:\n      mload(0x40)\n      dup1\n      swap2\n      sub\n      swap1\n      return\n        /* \"Week7/ex1.sol\":1621:1920  function deposit(address _from, uint _amount) public ownerOnly(_from) override {... */\n    tag_6:\n      tag_30\n      0x04\n      dup1\n      calldatasize\n      sub\n      dup2\n      add\n      swap1\n      tag_31\n      swap2\n      swap1\n      tag_32\n      jump\t// in\n    tag_31:\n      tag_33\n      jump\t// in\n    tag_30:\n      stop\n        /* \"Week7/ex1.sol\":679:715  uint public tokenSupply = 1000000000 */\n    tag_7:\n      tag_34\n      tag_35\n      jump\t// in\n    tag_34:\n      mload(0x40)\n      tag_36\n      swap2\n      swap1\n      tag_21\n      jump\t// in\n    tag_36:\n      mload(0x40)\n      dup1\n      swap2\n      sub\n      swap1\n      return\n        /* \"Week7/ex1.sol\":581:623  mapping (address => bool) public freezeMap */\n    tag_8:\n      tag_37\n      0x04\n      dup1\n      calldatasize\n      sub\n      dup2\n      add\n      swap1\n      tag_38\n      swap2\n      swap1\n      tag_18\n      jump\t// in\n    tag_38:\n      tag_39\n      jump\t// in\n    tag_37:\n      mload(0x40)\n      tag_40\n      swap2\n      swap1\n      tag_41\n      jump\t// in\n    tag_40:\n      mload(0x40)\n      dup1\n      swap2\n      sub\n      swap1\n      return\n        /* \"Week7/ex1.sol\":2744:2986  function thawAccount(address _account) public ownerOnly(_account) override {... */\n    tag_9:\n      tag_42\n      0x04\n      dup1\n      calldatasize\n      sub\n      dup2\n      add\n      swap1\n      tag_43\n      swap2\n      swap1\n      tag_18\n      jump\t// in\n    tag_43:\n      tag_44\n      jump\t// in\n    tag_42:\n      stop\n        /* \"Week7/ex1.sol\":535:578  mapping (address => uint) public balanceMap */\n    tag_10:\n      tag_45\n      0x04\n      dup1\n      calldatasize\n      sub\n      dup2\n      add\n      swap1\n      tag_46\n      swap2\n      swap1\n      tag_18\n      jump\t// in\n    tag_46:\n      tag_47\n      jump\t// in\n    tag_45:\n      mload(0x40)\n      tag_48\n      swap2\n      swap1\n      tag_21\n      jump\t// in\n    tag_48:\n      mload(0x40)\n      dup1\n      swap2\n      sub\n      swap1\n      return\n        /* \"Week7/ex1.sol\":3028:3137  function isFrozen(address _account) public override view returns (bool){... */\n    tag_11:\n      tag_49\n      0x04\n      dup1\n      calldatasize\n      sub\n      dup2\n      add\n      swap1\n      tag_50\n      swap2\n      swap1\n      tag_18\n      jump\t// in\n    tag_50:\n      tag_51\n      jump\t// in\n    tag_49:\n      mload(0x40)\n      tag_52\n      swap2\n      swap1\n      tag_41\n      jump\t// in\n    tag_52:\n      mload(0x40)\n      dup1\n      swap2\n      sub\n      swap1\n      return\n        /* \"Week7/ex1.sol\":1229:1504  function addAccount(address _account) public bankerOnly override {... */\n    tag_12:\n      tag_53\n      0x04\n      dup1\n      calldatasize\n      sub\n      dup2\n      add\n      swap1\n      tag_54\n      swap2\n      swap1\n      tag_18\n      jump\t// in\n    tag_54:\n      tag_55\n      jump\t// in\n    tag_53:\n      stop\n        /* \"Week7/ex1.sol\":2466:2640  function freezeAccount(address _account) public ownerOnly(_account) override {... */\n    tag_13:\n      tag_56\n      0x04\n      dup1\n      calldatasize\n      sub\n      dup2\n      add\n      swap1\n      tag_57\n      swap2\n      swap1\n      tag_18\n      jump\t// in\n    tag_57:\n      tag_58\n      jump\t// in\n    tag_56:\n      stop\n        /* \"Week7/ex1.sol\":2067:2406  function withdraw(address _to, uint _amount) public ownerOnly(_to) override {... */\n    tag_14:\n      tag_59\n      0x04\n      dup1\n      calldatasize\n      sub\n      dup2\n      add\n      swap1\n      tag_60\n      swap2\n      swap1\n      tag_32\n      jump\t// in\n    tag_60:\n      tag_61\n      jump\t// in\n    tag_59:\n      stop\n        /* \"Week7/ex1.sol\":629:676  mapping (address => uint) public freezeInterval */\n    tag_19:\n      mstore(0x20, 0x04)\n      dup1\n      0x00\n      mstore\n      keccak256(0x00, 0x40)\n      0x00\n      swap2\n      pop\n      swap1\n      pop\n      sload\n      dup2\n      jump\t// out\n        /* \"Week7/ex1.sol\":443:464  address public banker */\n    tag_23:\n      0x00\n      dup1\n      sload\n      swap1\n      0x0100\n      exp\n      swap1\n      div\n      0xffffffffffffffffffffffffffffffffffffffff\n      and\n      dup2\n      jump\t// out\n        /* \"Week7/ex1.sol\":494:532  mapping (address=>uint) public savings */\n    tag_28:\n      mstore(0x20, 0x01)\n      dup1\n      0x00\n      mstore\n      keccak256(0x00, 0x40)\n      0x00\n      swap2\n      pop\n      swap1\n      pop\n      sload\n      dup2\n      jump\t// out\n        /* \"Week7/ex1.sol\":1621:1920  function deposit(address _from, uint _amount) public ownerOnly(_from) override {... */\n    tag_33:\n        /* \"Week7/ex1.sol\":1684:1689  _from */\n      dup2\n        /* \"Week7/ex1.sol\":998:1006  _account */\n      dup1\n        /* \"Week7/ex1.sol\":984:1006  msg.sender == _account */\n      0xffffffffffffffffffffffffffffffffffffffff\n      and\n        /* \"Week7/ex1.sol\":984:994  msg.sender */\n      caller\n        /* \"Week7/ex1.sol\":984:1006  msg.sender == _account */\n      0xffffffffffffffffffffffffffffffffffffffff\n      and\n      eq\n        /* \"Week7/ex1.sol\":976:1042  require(msg.sender == _account, \"Insufficient access: owner only\") */\n      tag_63\n      jumpi\n      mload(0x40)\n      0x08c379a000000000000000000000000000000000000000000000000000000000\n      dup2\n      mstore\n      0x04\n      add\n      tag_64\n      swap1\n      tag_65\n      jump\t// in\n    tag_64:\n      mload(0x40)\n      dup1\n      swap2\n      sub\n      swap1\n      revert\n    tag_63:\n        /* \"Week7/ex1.sol\":1737:1744  _amount */\n      dup2\n        /* \"Week7/ex1.sol\":1718:1728  balanceMap */\n      0x02\n        /* \"Week7/ex1.sol\":1718:1735  balanceMap[_from] */\n      0x00\n        /* \"Week7/ex1.sol\":1729:1734  _from */\n      dup6\n        /* \"Week7/ex1.sol\":1718:1735  balanceMap[_from] */\n      0xffffffffffffffffffffffffffffffffffffffff\n      and\n      0xffffffffffffffffffffffffffffffffffffffff\n      and\n      dup2\n      mstore\n      0x20\n      add\n      swap1\n      dup2\n      mstore\n      0x20\n      add\n      0x00\n      keccak256\n      sload\n        /* \"Week7/ex1.sol\":1718:1744  balanceMap[_from]>=_amount */\n      lt\n      iszero\n        /* \"Week7/ex1.sol\":1710:1770  require(balanceMap[_from]>=_amount, \"Not enough in account\") */\n      tag_67\n      jumpi\n      mload(0x40)\n      0x08c379a000000000000000000000000000000000000000000000000000000000\n      dup2\n      mstore\n      0x04\n      add\n      tag_68\n      swap1\n      tag_69\n      jump\t// in\n    tag_68:\n      mload(0x40)\n      dup1\n      swap2\n      sub\n      swap1\n      revert\n    tag_67:\n        /* \"Week7/ex1.sol\":1783:1798  isFrozen(_from) */\n      tag_70\n        /* \"Week7/ex1.sol\":1792:1797  _from */\n      dup4\n        /* \"Week7/ex1.sol\":1783:1791  isFrozen */\n      tag_51\n        /* \"Week7/ex1.sol\":1783:1798  isFrozen(_from) */\n      jump\t// in\n    tag_70:\n        /* \"Week7/ex1.sol\":1782:1798  !isFrozen(_from) */\n      iszero\n        /* \"Week7/ex1.sol\":1774:1817  require(!isFrozen(_from), \"Account Frozen\") */\n      tag_71\n      jumpi\n      mload(0x40)\n      0x08c379a000000000000000000000000000000000000000000000000000000000\n      dup2\n      mstore\n      0x04\n      add\n      tag_72\n      swap1\n      tag_73\n      jump\t// in\n    tag_72:\n      mload(0x40)\n      dup1\n      swap2\n      sub\n      swap1\n      revert\n    tag_71:\n        /* \"Week7/ex1.sol\":1847:1854  _amount */\n      dup2\n        /* \"Week7/ex1.sol\":1828:1838  balanceMap */\n      0x02\n        /* \"Week7/ex1.sol\":1828:1845  balanceMap[_from] */\n      0x00\n        /* \"Week7/ex1.sol\":1839:1844  _from */\n      dup6\n        /* \"Week7/ex1.sol\":1828:1845  balanceMap[_from] */\n      0xffffffffffffffffffffffffffffffffffffffff\n      and\n      0xffffffffffffffffffffffffffffffffffffffff\n      and\n      dup2\n      mstore\n      0x20\n      add\n      swap1\n      dup2\n      mstore\n      0x20\n      add\n      0x00\n      keccak256\n      0x00\n        /* \"Week7/ex1.sol\":1828:1854  balanceMap[_from]-=_amount */\n      dup3\n      dup3\n      sload\n      tag_74\n      swap2\n      swap1\n      tag_75\n      jump\t// in\n    tag_74:\n      swap3\n      pop\n      pop\n      dup2\n      swap1\n      sstore\n      pop\n        /* \"Week7/ex1.sol\":1875:1882  _amount */\n      dup2\n        /* \"Week7/ex1.sol\":1859:1866  savings */\n      0x01\n        /* \"Week7/ex1.sol\":1859:1873  savings[_from] */\n      0x00\n        /* \"Week7/ex1.sol\":1867:1872  _from */\n      dup6\n        /* \"Week7/ex1.sol\":1859:1873  savings[_from] */\n      0xffffffffffffffffffffffffffffffffffffffff\n      and\n      0xffffffffffffffffffffffffffffffffffffffff\n      and\n      dup2\n      mstore\n      0x20\n      add\n      swap1\n      dup2\n      mstore\n      0x20\n      add\n      0x00\n      keccak256\n      0x00\n        /* \"Week7/ex1.sol\":1859:1882  savings[_from]+=_amount */\n      dup3\n      dup3\n      sload\n      tag_76\n      swap2\n      swap1\n      tag_77\n      jump\t// in\n    tag_76:\n      swap3\n      pop\n      pop\n      dup2\n      swap1\n      sstore\n      pop\n        /* \"Week7/ex1.sol\":1893:1913  freezeAccount(_from) */\n      tag_78\n        /* \"Week7/ex1.sol\":1907:1912  _from */\n      dup4\n        /* \"Week7/ex1.sol\":1893:1906  freezeAccount */\n      tag_58\n        /* \"Week7/ex1.sol\":1893:1913  freezeAccount(_from) */\n      jump\t// in\n    tag_78:\n        /* \"Week7/ex1.sol\":1621:1920  function deposit(address _from, uint _amount) public ownerOnly(_from) override {... */\n      pop\n      pop\n      pop\n      jump\t// out\n        /* \"Week7/ex1.sol\":679:715  uint public tokenSupply = 1000000000 */\n    tag_35:\n      sload(0x05)\n      dup2\n      jump\t// out\n        /* \"Week7/ex1.sol\":581:623  mapping (address => bool) public freezeMap */\n    tag_39:\n      mstore(0x20, 0x03)\n      dup1\n      0x00\n      mstore\n      keccak256(0x00, 0x40)\n      0x00\n      swap2\n      pop\n      sload\n      swap1\n      0x0100\n      exp\n      swap1\n      div\n      0xff\n      and\n      dup2\n      jump\t// out\n        /* \"Week7/ex1.sol\":2744:2986  function thawAccount(address _account) public ownerOnly(_account) override {... */\n    tag_44:\n        /* \"Week7/ex1.sol\":2800:2808  _account */\n      dup1\n        /* \"Week7/ex1.sol\":998:1006  _account */\n      dup1\n        /* \"Week7/ex1.sol\":984:1006  msg.sender == _account */\n      0xffffffffffffffffffffffffffffffffffffffff\n      and\n        /* \"Week7/ex1.sol\":984:994  msg.sender */\n      caller\n        /* \"Week7/ex1.sol\":984:1006  msg.sender == _account */\n      0xffffffffffffffffffffffffffffffffffffffff\n      and\n      eq\n        /* \"Week7/ex1.sol\":976:1042  require(msg.sender == _account, \"Insufficient access: owner only\") */\n      tag_80\n      jumpi\n      mload(0x40)\n      0x08c379a000000000000000000000000000000000000000000000000000000000\n      dup2\n      mstore\n      0x04\n      add\n      tag_81\n      swap1\n      tag_65\n      jump\t// in\n    tag_81:\n      mload(0x40)\n      dup1\n      swap2\n      sub\n      swap1\n      revert\n    tag_80:\n        /* \"Week7/ex1.sol\":2858:2873  block.timestamp */\n      timestamp\n        /* \"Week7/ex1.sol\":2831:2845  freezeInterval */\n      0x04\n        /* \"Week7/ex1.sol\":2831:2855  freezeInterval[_account] */\n      0x00\n        /* \"Week7/ex1.sol\":2846:2854  _account */\n      dup5\n        /* \"Week7/ex1.sol\":2831:2855  freezeInterval[_account] */\n      0xffffffffffffffffffffffffffffffffffffffff\n      and\n      0xffffffffffffffffffffffffffffffffffffffff\n      and\n      dup2\n      mstore\n      0x20\n      add\n      swap1\n      dup2\n      mstore\n      0x20\n      add\n      0x00\n      keccak256\n      sload\n        /* \"Week7/ex1.sol\":2831:2873  freezeInterval[_account] < block.timestamp */\n      lt\n        /* \"Week7/ex1.sol\":2823:2892  require(freezeInterval[_account] < block.timestamp, \"Account Frozen\") */\n      tag_83\n      jumpi\n      mload(0x40)\n      0x08c379a000000000000000000000000000000000000000000000000000000000\n      dup2\n      mstore\n      0x04\n      add\n      tag_84\n      swap1\n      tag_73\n      jump\t// in\n    tag_84:\n      mload(0x40)\n      dup1\n      swap2\n      sub\n      swap1\n      revert\n    tag_83:\n        /* \"Week7/ex1.sol\":2922:2927  false */\n      0x00\n        /* \"Week7/ex1.sol\":2902:2911  freezeMap */\n      0x03\n        /* \"Week7/ex1.sol\":2902:2921  freezeMap[_account] */\n      0x00\n        /* \"Week7/ex1.sol\":2912:2920  _account */\n      dup5\n        /* \"Week7/ex1.sol\":2902:2921  freezeMap[_account] */\n      0xffffffffffffffffffffffffffffffffffffffff\n      and\n      0xffffffffffffffffffffffffffffffffffffffff\n      and\n      dup2\n      mstore\n      0x20\n      add\n      swap1\n      dup2\n      mstore\n      0x20\n      add\n      0x00\n      keccak256\n      0x00\n        /* \"Week7/ex1.sol\":2902:2927  freezeMap[_account]=false */\n      0x0100\n      exp\n      dup2\n      sload\n      dup2\n      0xff\n      mul\n      not\n      and\n      swap1\n      dup4\n      iszero\n      iszero\n      mul\n      or\n      swap1\n      sstore\n      pop\n        /* \"Week7/ex1.sol\":2978:2979  1 */\n      0x01\n        /* \"Week7/ex1.sol\":2960:2975  block.timestamp */\n      timestamp\n        /* \"Week7/ex1.sol\":2960:2979  block.timestamp - 1 */\n      tag_85\n      swap2\n      swap1\n      tag_75\n      jump\t// in\n    tag_85:\n        /* \"Week7/ex1.sol\":2935:2949  freezeInterval */\n      0x04\n        /* \"Week7/ex1.sol\":2935:2959  freezeInterval[_account] */\n      0x00\n        /* \"Week7/ex1.sol\":2950:2958  _account */\n      dup5\n        /* \"Week7/ex1.sol\":2935:2959  freezeInterval[_account] */\n      0xffffffffffffffffffffffffffffffffffffffff\n      and\n      0xffffffffffffffffffffffffffffffffffffffff\n      and\n      dup2\n      mstore\n      0x20\n      add\n      swap1\n      dup2\n      mstore\n      0x20\n      add\n      0x00\n      keccak256\n        /* \"Week7/ex1.sol\":2935:2979  freezeInterval[_account]=block.timestamp - 1 */\n      dup2\n      swap1\n      sstore\n      pop\n        /* \"Week7/ex1.sol\":2744:2986  function thawAccount(address _account) public ownerOnly(_account) override {... */\n      pop\n      pop\n      jump\t// out\n        /* \"Week7/ex1.sol\":535:578  mapping (address => uint) public balanceMap */\n    tag_47:\n      mstore(0x20, 0x02)\n      dup1\n      0x00\n      mstore\n      keccak256(0x00, 0x40)\n      0x00\n      swap2\n      pop\n      swap1\n      pop\n      sload\n      dup2\n      jump\t// out\n        /* \"Week7/ex1.sol\":3028:3137  function isFrozen(address _account) public override view returns (bool){... */\n    tag_51:\n        /* \"Week7/ex1.sol\":3094:3098  bool */\n      0x00\n        /* \"Week7/ex1.sol\":3112:3121  freezeMap */\n      0x03\n        /* \"Week7/ex1.sol\":3112:3131  freezeMap[_account] */\n      0x00\n        /* \"Week7/ex1.sol\":3122:3130  _account */\n      dup4\n        /* \"Week7/ex1.sol\":3112:3131  freezeMap[_account] */\n      0xffffffffffffffffffffffffffffffffffffffff\n      and\n      0xffffffffffffffffffffffffffffffffffffffff\n      and\n      dup2\n      mstore\n      0x20\n      add\n      swap1\n      dup2\n      mstore\n      0x20\n      add\n      0x00\n      keccak256\n      0x00\n      swap1\n      sload\n      swap1\n      0x0100\n      exp\n      swap1\n      div\n      0xff\n      and\n        /* \"Week7/ex1.sol\":3103:3133  return ( freezeMap[_account] ) */\n      swap1\n      pop\n        /* \"Week7/ex1.sol\":3028:3137  function isFrozen(address _account) public override view returns (bool){... */\n      swap2\n      swap1\n      pop\n      jump\t// out\n        /* \"Week7/ex1.sol\":1229:1504  function addAccount(address _account) public bankerOnly override {... */\n    tag_55:\n        /* \"Week7/ex1.sol\":880:886  banker */\n      0x00\n      dup1\n      sload\n      swap1\n      0x0100\n      exp\n      swap1\n      div\n      0xffffffffffffffffffffffffffffffffffffffff\n      and\n        /* \"Week7/ex1.sol\":866:886  msg.sender == banker */\n      0xffffffffffffffffffffffffffffffffffffffff\n      and\n        /* \"Week7/ex1.sol\":866:876  msg.sender */\n      caller\n        /* \"Week7/ex1.sol\":866:886  msg.sender == banker */\n      0xffffffffffffffffffffffffffffffffffffffff\n      and\n      eq\n        /* \"Week7/ex1.sol\":858:923  require(msg.sender == banker, \"Insufficient access: banker only\") */\n      tag_88\n      jumpi\n      mload(0x40)\n      0x08c379a000000000000000000000000000000000000000000000000000000000\n      dup2\n      mstore\n      0x04\n      add\n      tag_89\n      swap1\n      tag_90\n      jump\t// in\n    tag_89:\n      mload(0x40)\n      dup1\n      swap2\n      sub\n      swap1\n      revert\n    tag_88:\n        /* \"Week7/ex1.sol\":749:754  10000 */\n      0x2710\n        /* \"Week7/ex1.sol\":1306:1317  tokenSupply */\n      sload(0x05)\n        /* \"Week7/ex1.sol\":1306:1323  tokenSupply>=INIT */\n      lt\n      iszero\n        /* \"Week7/ex1.sol\":1298:1350  require(tokenSupply>=INIT, \"Tokens supply exceeded\") */\n      tag_92\n      jumpi\n      mload(0x40)\n      0x08c379a000000000000000000000000000000000000000000000000000000000\n      dup2\n      mstore\n      0x04\n      add\n      tag_93\n      swap1\n      tag_94\n      jump\t// in\n    tag_93:\n      mload(0x40)\n      dup1\n      swap2\n      sub\n      swap1\n      revert\n    tag_92:\n        /* \"Week7/ex1.sol\":749:754  10000 */\n      0x2710\n        /* \"Week7/ex1.sol\":1360:1370  balanceMap */\n      0x02\n        /* \"Week7/ex1.sol\":1360:1380  balanceMap[_account] */\n      0x00\n        /* \"Week7/ex1.sol\":1371:1379  _account */\n      dup4\n        /* \"Week7/ex1.sol\":1360:1380  balanceMap[_account] */\n      0xffffffffffffffffffffffffffffffffffffffff\n      and\n      0xffffffffffffffffffffffffffffffffffffffff\n      and\n      dup2\n      mstore\n      0x20\n      add\n      swap1\n      dup2\n      mstore\n      0x20\n      add\n      0x00\n      keccak256\n        /* \"Week7/ex1.sol\":1360:1387  balanceMap[_account] = INIT */\n      dup2\n      swap1\n      sstore\n      pop\n        /* \"Week7/ex1.sol\":749:754  10000 */\n      0x2710\n        /* \"Week7/ex1.sol\":1391:1402  tokenSupply */\n      0x05\n      0x00\n        /* \"Week7/ex1.sol\":1391:1408  tokenSupply-=INIT */\n      dup3\n      dup3\n      sload\n      tag_95\n      swap2\n      swap1\n      tag_75\n      jump\t// in\n    tag_95:\n      swap3\n      pop\n      pop\n      dup2\n      swap1\n      sstore\n      pop\n        /* \"Week7/ex1.sol\":1440:1445  false */\n      0x00\n        /* \"Week7/ex1.sol\":1418:1427  freezeMap */\n      0x03\n        /* \"Week7/ex1.sol\":1418:1437  freezeMap[_account] */\n      0x00\n        /* \"Week7/ex1.sol\":1428:1436  _account */\n      dup4\n        /* \"Week7/ex1.sol\":1418:1437  freezeMap[_account] */\n      0xffffffffffffffffffffffffffffffffffffffff\n      and\n      0xffffffffffffffffffffffffffffffffffffffff\n      and\n      dup2\n      mstore\n      0x20\n      add\n      swap1\n      dup2\n      mstore\n      0x20\n      add\n      0x00\n      keccak256\n      0x00\n        /* \"Week7/ex1.sol\":1418:1445  freezeMap[_account] = false */\n      0x0100\n      exp\n      dup2\n      sload\n      dup2\n      0xff\n      mul\n      not\n      and\n      swap1\n      dup4\n      iszero\n      iszero\n      mul\n      or\n      swap1\n      sstore\n      pop\n        /* \"Week7/ex1.sol\":1482:1497  block.timestamp */\n      timestamp\n        /* \"Week7/ex1.sol\":1455:1469  freezeInterval */\n      0x04\n        /* \"Week7/ex1.sol\":1455:1479  freezeInterval[_account] */\n      0x00\n        /* \"Week7/ex1.sol\":1470:1478  _account */\n      dup4\n        /* \"Week7/ex1.sol\":1455:1479  freezeInterval[_account] */\n      0xffffffffffffffffffffffffffffffffffffffff\n      and\n      0xffffffffffffffffffffffffffffffffffffffff\n      and\n      dup2\n      mstore\n      0x20\n      add\n      swap1\n      dup2\n      mstore\n      0x20\n      add\n      0x00\n      keccak256\n        /* \"Week7/ex1.sol\":1455:1497  freezeInterval[_account] = block.timestamp */\n      dup2\n      swap1\n      sstore\n      pop\n        /* \"Week7/ex1.sol\":1229:1504  function addAccount(address _account) public bankerOnly override {... */\n      pop\n      jump\t// out\n        /* \"Week7/ex1.sol\":2466:2640  function freezeAccount(address _account) public ownerOnly(_account) override {... */\n    tag_58:\n        /* \"Week7/ex1.sol\":2524:2532  _account */\n      dup1\n        /* \"Week7/ex1.sol\":998:1006  _account */\n      dup1\n        /* \"Week7/ex1.sol\":984:1006  msg.sender == _account */\n      0xffffffffffffffffffffffffffffffffffffffff\n      and\n        /* \"Week7/ex1.sol\":984:994  msg.sender */\n      caller\n        /* \"Week7/ex1.sol\":984:1006  msg.sender == _account */\n      0xffffffffffffffffffffffffffffffffffffffff\n      and\n      eq\n        /* \"Week7/ex1.sol\":976:1042  require(msg.sender == _account, \"Insufficient access: owner only\") */\n      tag_97\n      jumpi\n      mload(0x40)\n      0x08c379a000000000000000000000000000000000000000000000000000000000\n      dup2\n      mstore\n      0x04\n      add\n      tag_98\n      swap1\n      tag_65\n      jump\t// in\n    tag_98:\n      mload(0x40)\n      dup1\n      swap2\n      sub\n      swap1\n      revert\n    tag_97:\n        /* \"Week7/ex1.sol\":2569:2573  true */\n      0x01\n        /* \"Week7/ex1.sol\":2547:2556  freezeMap */\n      0x03\n        /* \"Week7/ex1.sol\":2547:2566  freezeMap[_account] */\n      0x00\n        /* \"Week7/ex1.sol\":2557:2565  _account */\n      dup5\n        /* \"Week7/ex1.sol\":2547:2566  freezeMap[_account] */\n      0xffffffffffffffffffffffffffffffffffffffff\n      and\n      0xffffffffffffffffffffffffffffffffffffffff\n      and\n      dup2\n      mstore\n      0x20\n      add\n      swap1\n      dup2\n      mstore\n      0x20\n      add\n      0x00\n      keccak256\n      0x00\n        /* \"Week7/ex1.sol\":2547:2573  freezeMap[_account] = true */\n      0x0100\n      exp\n      dup2\n      sload\n      dup2\n      0xff\n      mul\n      not\n      and\n      swap1\n      dup4\n      iszero\n      iszero\n      mul\n      or\n      swap1\n      sstore\n      pop\n        /* \"Week7/ex1.sol\":2628:2636  interval */\n      sload(0x06)\n        /* \"Week7/ex1.sol\":2610:2625  block.timestamp */\n      timestamp\n        /* \"Week7/ex1.sol\":2610:2636  block.timestamp + interval */\n      tag_100\n      swap2\n      swap1\n      tag_77\n      jump\t// in\n    tag_100:\n        /* \"Week7/ex1.sol\":2583:2597  freezeInterval */\n      0x04\n        /* \"Week7/ex1.sol\":2583:2607  freezeInterval[_account] */\n      0x00\n        /* \"Week7/ex1.sol\":2598:2606  _account */\n      dup5\n        /* \"Week7/ex1.sol\":2583:2607  freezeInterval[_account] */\n      0xffffffffffffffffffffffffffffffffffffffff\n      and\n      0xffffffffffffffffffffffffffffffffffffffff\n      and\n      dup2\n      mstore\n      0x20\n      add\n      swap1\n      dup2\n      mstore\n      0x20\n      add\n      0x00\n      keccak256\n        /* \"Week7/ex1.sol\":2583:2636  freezeInterval[_account] = block.timestamp + interval */\n      dup2\n      swap1\n      sstore\n      pop\n        /* \"Week7/ex1.sol\":2466:2640  function freezeAccount(address _account) public ownerOnly(_account) override {... */\n      pop\n      pop\n      jump\t// out\n        /* \"Week7/ex1.sol\":2067:2406  function withdraw(address _to, uint _amount) public ownerOnly(_to) override {... */\n    tag_61:\n        /* \"Week7/ex1.sol\":2129:2132  _to */\n      dup2\n        /* \"Week7/ex1.sol\":998:1006  _account */\n      dup1\n        /* \"Week7/ex1.sol\":984:1006  msg.sender == _account */\n      0xffffffffffffffffffffffffffffffffffffffff\n      and\n        /* \"Week7/ex1.sol\":984:994  msg.sender */\n      caller\n        /* \"Week7/ex1.sol\":984:1006  msg.sender == _account */\n      0xffffffffffffffffffffffffffffffffffffffff\n      and\n      eq\n        /* \"Week7/ex1.sol\":976:1042  require(msg.sender == _account, \"Insufficient access: owner only\") */\n      tag_102\n      jumpi\n      mload(0x40)\n      0x08c379a000000000000000000000000000000000000000000000000000000000\n      dup2\n      mstore\n      0x04\n      add\n      tag_103\n      swap1\n      tag_65\n      jump\t// in\n    tag_103:\n      mload(0x40)\n      dup1\n      swap2\n      sub\n      swap1\n      revert\n    tag_102:\n        /* \"Week7/ex1.sol\":2147:2163  thawAccount(_to) */\n      tag_105\n        /* \"Week7/ex1.sol\":2159:2162  _to */\n      dup4\n        /* \"Week7/ex1.sol\":2147:2158  thawAccount */\n      tag_44\n        /* \"Week7/ex1.sol\":2147:2163  thawAccount(_to) */\n      jump\t// in\n    tag_105:\n        /* \"Week7/ex1.sol\":2176:2185  freezeMap */\n      0x03\n        /* \"Week7/ex1.sol\":2176:2190  freezeMap[_to] */\n      0x00\n        /* \"Week7/ex1.sol\":2186:2189  _to */\n      dup5\n        /* \"Week7/ex1.sol\":2176:2190  freezeMap[_to] */\n      0xffffffffffffffffffffffffffffffffffffffff\n      and\n      0xffffffffffffffffffffffffffffffffffffffff\n      and\n      dup2\n      mstore\n      0x20\n      add\n      swap1\n      dup2\n      mstore\n      0x20\n      add\n      0x00\n      keccak256\n      0x00\n      swap1\n      sload\n      swap1\n      0x0100\n      exp\n      swap1\n      div\n      0xff\n      and\n        /* \"Week7/ex1.sol\":2175:2190  !freezeMap[_to] */\n      iszero\n        /* \"Week7/ex1.sol\":2167:2209  require(!freezeMap[_to], \"Account Frozen\") */\n      tag_106\n      jumpi\n      mload(0x40)\n      0x08c379a000000000000000000000000000000000000000000000000000000000\n      dup2\n      mstore\n      0x04\n      add\n      tag_107\n      swap1\n      tag_73\n      jump\t// in\n    tag_107:\n      mload(0x40)\n      dup1\n      swap2\n      sub\n      swap1\n      revert\n    tag_106:\n        /* \"Week7/ex1.sol\":2235:2242  _amount */\n      dup2\n        /* \"Week7/ex1.sol\":2221:2228  savings */\n      0x01\n        /* \"Week7/ex1.sol\":2221:2233  savings[_to] */\n      0x00\n        /* \"Week7/ex1.sol\":2229:2232  _to */\n      dup6\n        /* \"Week7/ex1.sol\":2221:2233  savings[_to] */\n      0xffffffffffffffffffffffffffffffffffffffff\n      and\n      0xffffffffffffffffffffffffffffffffffffffff\n      and\n      dup2\n      mstore\n      0x20\n      add\n      swap1\n      dup2\n      mstore\n      0x20\n      add\n      0x00\n      keccak256\n      sload\n        /* \"Week7/ex1.sol\":2221:2242  savings[_to]>=_amount */\n      lt\n      iszero\n        /* \"Week7/ex1.sol\":2213:2265  require(savings[_to]>=_amount, \"insufficient funds\") */\n      tag_108\n      jumpi\n      mload(0x40)\n      0x08c379a000000000000000000000000000000000000000000000000000000000\n      dup2\n      mstore\n      0x04\n      add\n      tag_109\n      swap1\n      tag_110\n      jump\t// in\n    tag_109:\n      mload(0x40)\n      dup1\n      swap2\n      sub\n      swap1\n      revert\n    tag_108:\n        /* \"Week7/ex1.sol\":2337:2344  _amount */\n      dup2\n        /* \"Week7/ex1.sol\":2320:2330  balanceMap */\n      0x02\n        /* \"Week7/ex1.sol\":2320:2335  balanceMap[_to] */\n      0x00\n        /* \"Week7/ex1.sol\":2331:2334  _to */\n      dup6\n        /* \"Week7/ex1.sol\":2320:2335  balanceMap[_to] */\n      0xffffffffffffffffffffffffffffffffffffffff\n      and\n      0xffffffffffffffffffffffffffffffffffffffff\n      and\n      dup2\n      mstore\n      0x20\n      add\n      swap1\n      dup2\n      mstore\n      0x20\n      add\n      0x00\n      keccak256\n      0x00\n        /* \"Week7/ex1.sol\":2320:2344  balanceMap[_to]+=_amount */\n      dup3\n      dup3\n      sload\n      tag_111\n      swap2\n      swap1\n      tag_77\n      jump\t// in\n    tag_111:\n      swap3\n      pop\n      pop\n      dup2\n      swap1\n      sstore\n      pop\n        /* \"Week7/ex1.sol\":2363:2370  _amount */\n      dup2\n        /* \"Week7/ex1.sol\":2349:2356  savings */\n      0x01\n        /* \"Week7/ex1.sol\":2349:2361  savings[_to] */\n      0x00\n        /* \"Week7/ex1.sol\":2357:2360  _to */\n      dup6\n        /* \"Week7/ex1.sol\":2349:2361  savings[_to] */\n      0xffffffffffffffffffffffffffffffffffffffff\n      and\n      0xffffffffffffffffffffffffffffffffffffffff\n      and\n      dup2\n      mstore\n      0x20\n      add\n      swap1\n      dup2\n      mstore\n      0x20\n      add\n      0x00\n      keccak256\n      0x00\n        /* \"Week7/ex1.sol\":2349:2370  savings[_to]-=_amount */\n      dup3\n      dup3\n      sload\n      tag_112\n      swap2\n      swap1\n      tag_75\n      jump\t// in\n    tag_112:\n      swap3\n      pop\n      pop\n      dup2\n      swap1\n      sstore\n      pop\n        /* \"Week7/ex1.sol\":2380:2402  Transfer(_to, _amount) */\n      0x69ca02dd4edd7bf0a4abb9ed3b7af3f14778db5d61921c7dc7cd545266326de2\n        /* \"Week7/ex1.sol\":2389:2392  _to */\n      dup4\n        /* \"Week7/ex1.sol\":2394:2401  _amount */\n      dup4\n        /* \"Week7/ex1.sol\":2380:2402  Transfer(_to, _amount) */\n      mload(0x40)\n      tag_113\n      swap3\n      swap2\n      swap1\n      tag_114\n      jump\t// in\n    tag_113:\n      mload(0x40)\n      dup1\n      swap2\n      sub\n      swap1\n      log1\n        /* \"Week7/ex1.sol\":2067:2406  function withdraw(address _to, uint _amount) public ownerOnly(_to) override {... */\n      pop\n      pop\n      pop\n      jump\t// out\n        /* \"#utility.yul\":88:205   */\n    tag_116:\n        /* \"#utility.yul\":197:198   */\n      0x00\n        /* \"#utility.yul\":194:195   */\n      dup1\n        /* \"#utility.yul\":187:199   */\n      revert\n        /* \"#utility.yul\":334:460   */\n    tag_118:\n        /* \"#utility.yul\":371:378   */\n      0x00\n        /* \"#utility.yul\":411:453   */\n      0xffffffffffffffffffffffffffffffffffffffff\n        /* \"#utility.yul\":404:409   */\n      dup3\n        /* \"#utility.yul\":400:454   */\n      and\n        /* \"#utility.yul\":389:454   */\n      swap1\n      pop\n        /* \"#utility.yul\":334:460   */\n      swap2\n      swap1\n      pop\n      jump\t// out\n        /* \"#utility.yul\":466:562   */\n    tag_119:\n        /* \"#utility.yul\":503:510   */\n      0x00\n        /* \"#utility.yul\":532:556   */\n      tag_149\n        /* \"#utility.yul\":550:555   */\n      dup3\n        /* \"#utility.yul\":532:556   */\n      tag_118\n      jump\t// in\n    tag_149:\n        /* \"#utility.yul\":521:556   */\n      swap1\n      pop\n        /* \"#utility.yul\":466:562   */\n      swap2\n      swap1\n      pop\n      jump\t// out\n        /* \"#utility.yul\":568:690   */\n    tag_120:\n        /* \"#utility.yul\":641:665   */\n      tag_151\n        /* \"#utility.yul\":659:664   */\n      dup2\n        /* \"#utility.yul\":641:665   */\n      tag_119\n      jump\t// in\n    tag_151:\n        /* \"#utility.yul\":634:639   */\n      dup2\n        /* \"#utility.yul\":631:666   */\n      eq\n        /* \"#utility.yul\":621:684   */\n      tag_152\n      jumpi\n        /* \"#utility.yul\":680:681   */\n      0x00\n        /* \"#utility.yul\":677:678   */\n      dup1\n        /* \"#utility.yul\":670:682   */\n      revert\n        /* \"#utility.yul\":621:684   */\n    tag_152:\n        /* \"#utility.yul\":568:690   */\n      pop\n      jump\t// out\n        /* \"#utility.yul\":696:835   */\n    tag_121:\n        /* \"#utility.yul\":742:747   */\n      0x00\n        /* \"#utility.yul\":780:786   */\n      dup2\n        /* \"#utility.yul\":767:787   */\n      calldataload\n        /* \"#utility.yul\":758:787   */\n      swap1\n      pop\n        /* \"#utility.yul\":796:829   */\n      tag_154\n        /* \"#utility.yul\":823:828   */\n      dup2\n        /* \"#utility.yul\":796:829   */\n      tag_120\n      jump\t// in\n    tag_154:\n        /* \"#utility.yul\":696:835   */\n      swap3\n      swap2\n      pop\n      pop\n      jump\t// out\n        /* \"#utility.yul\":841:1170   */\n    tag_18:\n        /* \"#utility.yul\":900:906   */\n      0x00\n        /* \"#utility.yul\":949:951   */\n      0x20\n        /* \"#utility.yul\":937:946   */\n      dup3\n        /* \"#utility.yul\":928:935   */\n      dup5\n        /* \"#utility.yul\":924:947   */\n      sub\n        /* \"#utility.yul\":920:952   */\n      slt\n        /* \"#utility.yul\":917:1036   */\n      iszero\n      tag_156\n      jumpi\n        /* \"#utility.yul\":955:1034   */\n      tag_157\n      tag_116\n      jump\t// in\n    tag_157:\n        /* \"#utility.yul\":917:1036   */\n    tag_156:\n        /* \"#utility.yul\":1075:1076   */\n      0x00\n        /* \"#utility.yul\":1100:1153   */\n      tag_158\n        /* \"#utility.yul\":1145:1152   */\n      dup5\n        /* \"#utility.yul\":1136:1142   */\n      dup3\n        /* \"#utility.yul\":1125:1134   */\n      dup6\n        /* \"#utility.yul\":1121:1143   */\n      add\n        /* \"#utility.yul\":1100:1153   */\n      tag_121\n      jump\t// in\n    tag_158:\n        /* \"#utility.yul\":1090:1153   */\n      swap2\n      pop\n        /* \"#utility.yul\":1046:1163   */\n      pop\n        /* \"#utility.yul\":841:1170   */\n      swap3\n      swap2\n      pop\n      pop\n      jump\t// out\n        /* \"#utility.yul\":1176:1253   */\n    tag_122:\n        /* \"#utility.yul\":1213:1220   */\n      0x00\n        /* \"#utility.yul\":1242:1247   */\n      dup2\n        /* \"#utility.yul\":1231:1247   */\n      swap1\n      pop\n        /* \"#utility.yul\":1176:1253   */\n      swap2\n      swap1\n      pop\n      jump\t// out\n        /* \"#utility.yul\":1259:1377   */\n    tag_123:\n        /* \"#utility.yul\":1346:1370   */\n      tag_161\n        /* \"#utility.yul\":1364:1369   */\n      dup2\n        /* \"#utility.yul\":1346:1370   */\n      tag_122\n      jump\t// in\n    tag_161:\n        /* \"#utility.yul\":1341:1344   */\n      dup3\n        /* \"#utility.yul\":1334:1371   */\n      mstore\n        /* \"#utility.yul\":1259:1377   */\n      pop\n      pop\n      jump\t// out\n        /* \"#utility.yul\":1383:1605   */\n    tag_21:\n        /* \"#utility.yul\":1476:1480   */\n      0x00\n        /* \"#utility.yul\":1514:1516   */\n      0x20\n        /* \"#utility.yul\":1503:1512   */\n      dup3\n        /* \"#utility.yul\":1499:1517   */\n      add\n        /* \"#utility.yul\":1491:1517   */\n      swap1\n      pop\n        /* \"#utility.yul\":1527:1598   */\n      tag_163\n        /* \"#utility.yul\":1595:1596   */\n      0x00\n        /* \"#utility.yul\":1584:1593   */\n      dup4\n        /* \"#utility.yul\":1580:1597   */\n      add\n        /* \"#utility.yul\":1571:1577   */\n      dup5\n        /* \"#utility.yul\":1527:1598   */\n      tag_123\n      jump\t// in\n    tag_163:\n        /* \"#utility.yul\":1383:1605   */\n      swap3\n      swap2\n      pop\n      pop\n      jump\t// out\n        /* \"#utility.yul\":1611:1729   */\n    tag_124:\n        /* \"#utility.yul\":1698:1722   */\n      tag_165\n        /* \"#utility.yul\":1716:1721   */\n      dup2\n        /* \"#utility.yul\":1698:1722   */\n      tag_119\n      jump\t// in\n    tag_165:\n        /* \"#utility.yul\":1693:1696   */\n      dup3\n        /* \"#utility.yul\":1686:1723   */\n      mstore\n        /* \"#utility.yul\":1611:1729   */\n      pop\n      pop\n      jump\t// out\n        /* \"#utility.yul\":1735:1957   */\n    tag_25:\n        /* \"#utility.yul\":1828:1832   */\n      0x00\n        /* \"#utility.yul\":1866:1868   */\n      0x20\n        /* \"#utility.yul\":1855:1864   */\n      dup3\n        /* \"#utility.yul\":1851:1869   */\n      add\n        /* \"#utility.yul\":1843:1869   */\n      swap1\n      pop\n        /* \"#utility.yul\":1879:1950   */\n      tag_167\n        /* \"#utility.yul\":1947:1948   */\n      0x00\n        /* \"#utility.yul\":1936:1945   */\n      dup4\n        /* \"#utility.yul\":1932:1949   */\n      add\n        /* \"#utility.yul\":1923:1929   */\n      dup5\n        /* \"#utility.yul\":1879:1950   */\n      tag_124\n      jump\t// in\n    tag_167:\n        /* \"#utility.yul\":1735:1957   */\n      swap3\n      swap2\n      pop\n      pop\n      jump\t// out\n        /* \"#utility.yul\":1963:2085   */\n    tag_125:\n        /* \"#utility.yul\":2036:2060   */\n      tag_169\n        /* \"#utility.yul\":2054:2059   */\n      dup2\n        /* \"#utility.yul\":2036:2060   */\n      tag_122\n      jump\t// in\n    tag_169:\n        /* \"#utility.yul\":2029:2034   */\n      dup2\n        /* \"#utility.yul\":2026:2061   */\n      eq\n        /* \"#utility.yul\":2016:2079   */\n      tag_170\n      jumpi\n        /* \"#utility.yul\":2075:2076   */\n      0x00\n        /* \"#utility.yul\":2072:2073   */\n      dup1\n        /* \"#utility.yul\":2065:2077   */\n      revert\n        /* \"#utility.yul\":2016:2079   */\n    tag_170:\n        /* \"#utility.yul\":1963:2085   */\n      pop\n      jump\t// out\n        /* \"#utility.yul\":2091:2230   */\n    tag_126:\n        /* \"#utility.yul\":2137:2142   */\n      0x00\n        /* \"#utility.yul\":2175:2181   */\n      dup2\n        /* \"#utility.yul\":2162:2182   */\n      calldataload\n        /* \"#utility.yul\":2153:2182   */\n      swap1\n      pop\n        /* \"#utility.yul\":2191:2224   */\n      tag_172\n        /* \"#utility.yul\":2218:2223   */\n      dup2\n        /* \"#utility.yul\":2191:2224   */\n      tag_125\n      jump\t// in\n    tag_172:\n        /* \"#utility.yul\":2091:2230   */\n      swap3\n      swap2\n      pop\n      pop\n      jump\t// out\n        /* \"#utility.yul\":2236:2710   */\n    tag_32:\n        /* \"#utility.yul\":2304:2310   */\n      0x00\n        /* \"#utility.yul\":2312:2318   */\n      dup1\n        /* \"#utility.yul\":2361:2363   */\n      0x40\n        /* \"#utility.yul\":2349:2358   */\n      dup4\n        /* \"#utility.yul\":2340:2347   */\n      dup6\n        /* \"#utility.yul\":2336:2359   */\n      sub\n        /* \"#utility.yul\":2332:2364   */\n      slt\n        /* \"#utility.yul\":2329:2448   */\n      iszero\n      tag_174\n      jumpi\n        /* \"#utility.yul\":2367:2446   */\n      tag_175\n      tag_116\n      jump\t// in\n    tag_175:\n        /* \"#utility.yul\":2329:2448   */\n    tag_174:\n        /* \"#utility.yul\":2487:2488   */\n      0x00\n        /* \"#utility.yul\":2512:2565   */\n      tag_176\n        /* \"#utility.yul\":2557:2564   */\n      dup6\n        /* \"#utility.yul\":2548:2554   */\n      dup3\n        /* \"#utility.yul\":2537:2546   */\n      dup7\n        /* \"#utility.yul\":2533:2555   */\n      add\n        /* \"#utility.yul\":2512:2565   */\n      tag_121\n      jump\t// in\n    tag_176:\n        /* \"#utility.yul\":2502:2565   */\n      swap3\n      pop\n        /* \"#utility.yul\":2458:2575   */\n      pop\n        /* \"#utility.yul\":2614:2616   */\n      0x20\n        /* \"#utility.yul\":2640:2693   */\n      tag_177\n        /* \"#utility.yul\":2685:2692   */\n      dup6\n        /* \"#utility.yul\":2676:2682   */\n      dup3\n        /* \"#utility.yul\":2665:2674   */\n      dup7\n        /* \"#utility.yul\":2661:2683   */\n      add\n        /* \"#utility.yul\":2640:2693   */\n      tag_126\n      jump\t// in\n    tag_177:\n        /* \"#utility.yul\":2630:2693   */\n      swap2\n      pop\n        /* \"#utility.yul\":2585:2703   */\n      pop\n        /* \"#utility.yul\":2236:2710   */\n      swap3\n      pop\n      swap3\n      swap1\n      pop\n      jump\t// out\n        /* \"#utility.yul\":2716:2806   */\n    tag_127:\n        /* \"#utility.yul\":2750:2757   */\n      0x00\n        /* \"#utility.yul\":2793:2798   */\n      dup2\n        /* \"#utility.yul\":2786:2799   */\n      iszero\n        /* \"#utility.yul\":2779:2800   */\n      iszero\n        /* \"#utility.yul\":2768:2800   */\n      swap1\n      pop\n        /* \"#utility.yul\":2716:2806   */\n      swap2\n      swap1\n      pop\n      jump\t// out\n        /* \"#utility.yul\":2812:2921   */\n    tag_128:\n        /* \"#utility.yul\":2893:2914   */\n      tag_180\n        /* \"#utility.yul\":2908:2913   */\n      dup2\n        /* \"#utility.yul\":2893:2914   */\n      tag_127\n      jump\t// in\n    tag_180:\n        /* \"#utility.yul\":2888:2891   */\n      dup3\n        /* \"#utility.yul\":2881:2915   */\n      mstore\n        /* \"#utility.yul\":2812:2921   */\n      pop\n      pop\n      jump\t// out\n        /* \"#utility.yul\":2927:3137   */\n    tag_41:\n        /* \"#utility.yul\":3014:3018   */\n      0x00\n        /* \"#utility.yul\":3052:3054   */\n      0x20\n        /* \"#utility.yul\":3041:3050   */\n      dup3\n        /* \"#utility.yul\":3037:3055   */\n      add\n        /* \"#utility.yul\":3029:3055   */\n      swap1\n      pop\n        /* \"#utility.yul\":3065:3130   */\n      tag_182\n        /* \"#utility.yul\":3127:3128   */\n      0x00\n        /* \"#utility.yul\":3116:3125   */\n      dup4\n        /* \"#utility.yul\":3112:3129   */\n      add\n        /* \"#utility.yul\":3103:3109   */\n      dup5\n        /* \"#utility.yul\":3065:3130   */\n      tag_128\n      jump\t// in\n    tag_182:\n        /* \"#utility.yul\":2927:3137   */\n      swap3\n      swap2\n      pop\n      pop\n      jump\t// out\n        /* \"#utility.yul\":3143:3312   */\n    tag_129:\n        /* \"#utility.yul\":3227:3238   */\n      0x00\n        /* \"#utility.yul\":3261:3267   */\n      dup3\n        /* \"#utility.yul\":3256:3259   */\n      dup3\n        /* \"#utility.yul\":3249:3268   */\n      mstore\n        /* \"#utility.yul\":3301:3305   */\n      0x20\n        /* \"#utility.yul\":3296:3299   */\n      dup3\n        /* \"#utility.yul\":3292:3306   */\n      add\n        /* \"#utility.yul\":3277:3306   */\n      swap1\n      pop\n        /* \"#utility.yul\":3143:3312   */\n      swap3\n      swap2\n      pop\n      pop\n      jump\t// out\n        /* \"#utility.yul\":3318:3499   */\n    tag_130:\n        /* \"#utility.yul\":3458:3491   */\n      0x496e73756666696369656e74206163636573733a206f776e6572206f6e6c7900\n        /* \"#utility.yul\":3454:3455   */\n      0x00\n        /* \"#utility.yul\":3446:3452   */\n      dup3\n        /* \"#utility.yul\":3442:3456   */\n      add\n        /* \"#utility.yul\":3435:3492   */\n      mstore\n        /* \"#utility.yul\":3318:3499   */\n      pop\n      jump\t// out\n        /* \"#utility.yul\":3505:3871   */\n    tag_131:\n        /* \"#utility.yul\":3647:3650   */\n      0x00\n        /* \"#utility.yul\":3668:3735   */\n      tag_186\n        /* \"#utility.yul\":3732:3734   */\n      0x1f\n        /* \"#utility.yul\":3727:3730   */\n      dup4\n        /* \"#utility.yul\":3668:3735   */\n      tag_129\n      jump\t// in\n    tag_186:\n        /* \"#utility.yul\":3661:3735   */\n      swap2\n      pop\n        /* \"#utility.yul\":3744:3837   */\n      tag_187\n        /* \"#utility.yul\":3833:3836   */\n      dup3\n        /* \"#utility.yul\":3744:3837   */\n      tag_130\n      jump\t// in\n    tag_187:\n        /* \"#utility.yul\":3862:3864   */\n      0x20\n        /* \"#utility.yul\":3857:3860   */\n      dup3\n        /* \"#utility.yul\":3853:3865   */\n      add\n        /* \"#utility.yul\":3846:3865   */\n      swap1\n      pop\n        /* \"#utility.yul\":3505:3871   */\n      swap2\n      swap1\n      pop\n      jump\t// out\n        /* \"#utility.yul\":3877:4296   */\n    tag_65:\n        /* \"#utility.yul\":4043:4047   */\n      0x00\n        /* \"#utility.yul\":4081:4083   */\n      0x20\n        /* \"#utility.yul\":4070:4079   */\n      dup3\n        /* \"#utility.yul\":4066:4084   */\n      add\n        /* \"#utility.yul\":4058:4084   */\n      swap1\n      pop\n        /* \"#utility.yul\":4130:4139   */\n      dup2\n        /* \"#utility.yul\":4124:4128   */\n      dup2\n        /* \"#utility.yul\":4120:4140   */\n      sub\n        /* \"#utility.yul\":4116:4117   */\n      0x00\n        /* \"#utility.yul\":4105:4114   */\n      dup4\n        /* \"#utility.yul\":4101:4118   */\n      add\n        /* \"#utility.yul\":4094:4141   */\n      mstore\n        /* \"#utility.yul\":4158:4289   */\n      tag_189\n        /* \"#utility.yul\":4284:4288   */\n      dup2\n        /* \"#utility.yul\":4158:4289   */\n      tag_131\n      jump\t// in\n    tag_189:\n        /* \"#utility.yul\":4150:4289   */\n      swap1\n      pop\n        /* \"#utility.yul\":3877:4296   */\n      swap2\n      swap1\n      pop\n      jump\t// out\n        /* \"#utility.yul\":4302:4473   */\n    tag_132:\n        /* \"#utility.yul\":4442:4465   */\n      0x4e6f7420656e6f75676820696e206163636f756e740000000000000000000000\n        /* \"#utility.yul\":4438:4439   */\n      0x00\n        /* \"#utility.yul\":4430:4436   */\n      dup3\n        /* \"#utility.yul\":4426:4440   */\n      add\n        /* \"#utility.yul\":4419:4466   */\n      mstore\n        /* \"#utility.yul\":4302:4473   */\n      pop\n      jump\t// out\n        /* \"#utility.yul\":4479:4845   */\n    tag_133:\n        /* \"#utility.yul\":4621:4624   */\n      0x00\n        /* \"#utility.yul\":4642:4709   */\n      tag_192\n        /* \"#utility.yul\":4706:4708   */\n      0x15\n        /* \"#utility.yul\":4701:4704   */\n      dup4\n        /* \"#utility.yul\":4642:4709   */\n      tag_129\n      jump\t// in\n    tag_192:\n        /* \"#utility.yul\":4635:4709   */\n      swap2\n      pop\n        /* \"#utility.yul\":4718:4811   */\n      tag_193\n        /* \"#utility.yul\":4807:4810   */\n      dup3\n        /* \"#utility.yul\":4718:4811   */\n      tag_132\n      jump\t// in\n    tag_193:\n        /* \"#utility.yul\":4836:4838   */\n      0x20\n        /* \"#utility.yul\":4831:4834   */\n      dup3\n        /* \"#utility.yul\":4827:4839   */\n      add\n        /* \"#utility.yul\":4820:4839   */\n      swap1\n      pop\n        /* \"#utility.yul\":4479:4845   */\n      swap2\n      swap1\n      pop\n      jump\t// out\n        /* \"#utility.yul\":4851:5270   */\n    tag_69:\n        /* \"#utility.yul\":5017:5021   */\n      0x00\n        /* \"#utility.yul\":5055:5057   */\n      0x20\n        /* \"#utility.yul\":5044:5053   */\n      dup3\n        /* \"#utility.yul\":5040:5058   */\n      add\n        /* \"#utility.yul\":5032:5058   */\n      swap1\n      pop\n        /* \"#utility.yul\":5104:5113   */\n      dup2\n        /* \"#utility.yul\":5098:5102   */\n      dup2\n        /* \"#utility.yul\":5094:5114   */\n      sub\n        /* \"#utility.yul\":5090:5091   */\n      0x00\n        /* \"#utility.yul\":5079:5088   */\n      dup4\n        /* \"#utility.yul\":5075:5092   */\n      add\n        /* \"#utility.yul\":5068:5115   */\n      mstore\n        /* \"#utility.yul\":5132:5263   */\n      tag_195\n        /* \"#utility.yul\":5258:5262   */\n      dup2\n        /* \"#utility.yul\":5132:5263   */\n      tag_133\n      jump\t// in\n    tag_195:\n        /* \"#utility.yul\":5124:5263   */\n      swap1\n      pop\n        /* \"#utility.yul\":4851:5270   */\n      swap2\n      swap1\n      pop\n      jump\t// out\n        /* \"#utility.yul\":5276:5440   */\n    tag_134:\n        /* \"#utility.yul\":5416:5432   */\n      0x4163636f756e742046726f7a656e000000000000000000000000000000000000\n        /* \"#utility.yul\":5412:5413   */\n      0x00\n        /* \"#utility.yul\":5404:5410   */\n      dup3\n        /* \"#utility.yul\":5400:5414   */\n      add\n        /* \"#utility.yul\":5393:5433   */\n      mstore\n        /* \"#utility.yul\":5276:5440   */\n      pop\n      jump\t// out\n        /* \"#utility.yul\":5446:5812   */\n    tag_135:\n        /* \"#utility.yul\":5588:5591   */\n      0x00\n        /* \"#utility.yul\":5609:5676   */\n      tag_198\n        /* \"#utility.yul\":5673:5675   */\n      0x0e\n        /* \"#utility.yul\":5668:5671   */\n      dup4\n        /* \"#utility.yul\":5609:5676   */\n      tag_129\n      jump\t// in\n    tag_198:\n        /* \"#utility.yul\":5602:5676   */\n      swap2\n      pop\n        /* \"#utility.yul\":5685:5778   */\n      tag_199\n        /* \"#utility.yul\":5774:5777   */\n      dup3\n        /* \"#utility.yul\":5685:5778   */\n      tag_134\n      jump\t// in\n    tag_199:\n        /* \"#utility.yul\":5803:5805   */\n      0x20\n        /* \"#utility.yul\":5798:5801   */\n      dup3\n        /* \"#utility.yul\":5794:5806   */\n      add\n        /* \"#utility.yul\":5787:5806   */\n      swap1\n      pop\n        /* \"#utility.yul\":5446:5812   */\n      swap2\n      swap1\n      pop\n      jump\t// out\n        /* \"#utility.yul\":5818:6237   */\n    tag_73:\n        /* \"#utility.yul\":5984:5988   */\n      0x00\n        /* \"#utility.yul\":6022:6024   */\n      0x20\n        /* \"#utility.yul\":6011:6020   */\n      dup3\n        /* \"#utility.yul\":6007:6025   */\n      add\n        /* \"#utility.yul\":5999:6025   */\n      swap1\n      pop\n        /* \"#utility.yul\":6071:6080   */\n      dup2\n        /* \"#utility.yul\":6065:6069   */\n      dup2\n        /* \"#utility.yul\":6061:6081   */\n      sub\n        /* \"#utility.yul\":6057:6058   */\n      0x00\n        /* \"#utility.yul\":6046:6055   */\n      dup4\n        /* \"#utility.yul\":6042:6059   */\n      add\n        /* \"#utility.yul\":6035:6082   */\n      mstore\n        /* \"#utility.yul\":6099:6230   */\n      tag_201\n        /* \"#utility.yul\":6225:6229   */\n      dup2\n        /* \"#utility.yul\":6099:6230   */\n      tag_135\n      jump\t// in\n    tag_201:\n        /* \"#utility.yul\":6091:6230   */\n      swap1\n      pop\n        /* \"#utility.yul\":5818:6237   */\n      swap2\n      swap1\n      pop\n      jump\t// out\n        /* \"#utility.yul\":6243:6423   */\n    tag_136:\n        /* \"#utility.yul\":6291:6368   */\n      0x4e487b7100000000000000000000000000000000000000000000000000000000\n        /* \"#utility.yul\":6288:6289   */\n      0x00\n        /* \"#utility.yul\":6281:6369   */\n      mstore\n        /* \"#utility.yul\":6388:6392   */\n      0x11\n        /* \"#utility.yul\":6385:6386   */\n      0x04\n        /* \"#utility.yul\":6378:6393   */\n      mstore\n        /* \"#utility.yul\":6412:6416   */\n      0x24\n        /* \"#utility.yul\":6409:6410   */\n      0x00\n        /* \"#utility.yul\":6402:6417   */\n      revert\n        /* \"#utility.yul\":6429:6623   */\n    tag_75:\n        /* \"#utility.yul\":6469:6473   */\n      0x00\n        /* \"#utility.yul\":6489:6509   */\n      tag_204\n        /* \"#utility.yul\":6507:6508   */\n      dup3\n        /* \"#utility.yul\":6489:6509   */\n      tag_122\n      jump\t// in\n    tag_204:\n        /* \"#utility.yul\":6484:6509   */\n      swap2\n      pop\n        /* \"#utility.yul\":6523:6543   */\n      tag_205\n        /* \"#utility.yul\":6541:6542   */\n      dup4\n        /* \"#utility.yul\":6523:6543   */\n      tag_122\n      jump\t// in\n    tag_205:\n        /* \"#utility.yul\":6518:6543   */\n      swap3\n      pop\n        /* \"#utility.yul\":6567:6568   */\n      dup3\n        /* \"#utility.yul\":6564:6565   */\n      dup3\n        /* \"#utility.yul\":6560:6569   */\n      sub\n        /* \"#utility.yul\":6552:6569   */\n      swap1\n      pop\n        /* \"#utility.yul\":6591:6592   */\n      dup2\n        /* \"#utility.yul\":6585:6589   */\n      dup2\n        /* \"#utility.yul\":6582:6593   */\n      gt\n        /* \"#utility.yul\":6579:6616   */\n      iszero\n      tag_206\n      jumpi\n        /* \"#utility.yul\":6596:6614   */\n      tag_207\n      tag_136\n      jump\t// in\n    tag_207:\n        /* \"#utility.yul\":6579:6616   */\n    tag_206:\n        /* \"#utility.yul\":6429:6623   */\n      swap3\n      swap2\n      pop\n      pop\n      jump\t// out\n        /* \"#utility.yul\":6629:6820   */\n    tag_77:\n        /* \"#utility.yul\":6669:6672   */\n      0x00\n        /* \"#utility.yul\":6688:6708   */\n      tag_209\n        /* \"#utility.yul\":6706:6707   */\n      dup3\n        /* \"#utility.yul\":6688:6708   */\n      tag_122\n      jump\t// in\n    tag_209:\n        /* \"#utility.yul\":6683:6708   */\n      swap2\n      pop\n        /* \"#utility.yul\":6722:6742   */\n      tag_210\n        /* \"#utility.yul\":6740:6741   */\n      dup4\n        /* \"#utility.yul\":6722:6742   */\n      tag_122\n      jump\t// in\n    tag_210:\n        /* \"#utility.yul\":6717:6742   */\n      swap3\n      pop\n        /* \"#utility.yul\":6765:6766   */\n      dup3\n        /* \"#utility.yul\":6762:6763   */\n      dup3\n        /* \"#utility.yul\":6758:6767   */\n      add\n        /* \"#utility.yul\":6751:6767   */\n      swap1\n      pop\n        /* \"#utility.yul\":6786:6789   */\n      dup1\n        /* \"#utility.yul\":6783:6784   */\n      dup3\n        /* \"#utility.yul\":6780:6790   */\n      gt\n        /* \"#utility.yul\":6777:6813   */\n      iszero\n      tag_211\n      jumpi\n        /* \"#utility.yul\":6793:6811   */\n      tag_212\n      tag_136\n      jump\t// in\n    tag_212:\n        /* \"#utility.yul\":6777:6813   */\n    tag_211:\n        /* \"#utility.yul\":6629:6820   */\n      swap3\n      swap2\n      pop\n      pop\n      jump\t// out\n        /* \"#utility.yul\":6826:7008   */\n    tag_137:\n        /* \"#utility.yul\":6966:7000   */\n      0x496e73756666696369656e74206163636573733a2062616e6b6572206f6e6c79\n        /* \"#utility.yul\":6962:6963   */\n      0x00\n        /* \"#utility.yul\":6954:6960   */\n      dup3\n        /* \"#utility.yul\":6950:6964   */\n      add\n        /* \"#utility.yul\":6943:7001   */\n      mstore\n        /* \"#utility.yul\":6826:7008   */\n      pop\n      jump\t// out\n        /* \"#utility.yul\":7014:7380   */\n    tag_138:\n        /* \"#utility.yul\":7156:7159   */\n      0x00\n        /* \"#utility.yul\":7177:7244   */\n      tag_215\n        /* \"#utility.yul\":7241:7243   */\n      0x20\n        /* \"#utility.yul\":7236:7239   */\n      dup4\n        /* \"#utility.yul\":7177:7244   */\n      tag_129\n      jump\t// in\n    tag_215:\n        /* \"#utility.yul\":7170:7244   */\n      swap2\n      pop\n        /* \"#utility.yul\":7253:7346   */\n      tag_216\n        /* \"#utility.yul\":7342:7345   */\n      dup3\n        /* \"#utility.yul\":7253:7346   */\n      tag_137\n      jump\t// in\n    tag_216:\n        /* \"#utility.yul\":7371:7373   */\n      0x20\n        /* \"#utility.yul\":7366:7369   */\n      dup3\n        /* \"#utility.yul\":7362:7374   */\n      add\n        /* \"#utility.yul\":7355:7374   */\n      swap1\n      pop\n        /* \"#utility.yul\":7014:7380   */\n      swap2\n      swap1\n      pop\n      jump\t// out\n        /* \"#utility.yul\":7386:7805   */\n    tag_90:\n        /* \"#utility.yul\":7552:7556   */\n      0x00\n        /* \"#utility.yul\":7590:7592   */\n      0x20\n        /* \"#utility.yul\":7579:7588   */\n      dup3\n        /* \"#utility.yul\":7575:7593   */\n      add\n        /* \"#utility.yul\":7567:7593   */\n      swap1\n      pop\n        /* \"#utility.yul\":7639:7648   */\n      dup2\n        /* \"#utility.yul\":7633:7637   */\n      dup2\n        /* \"#utility.yul\":7629:7649   */\n      sub\n        /* \"#utility.yul\":7625:7626   */\n      0x00\n        /* \"#utility.yul\":7614:7623   */\n      dup4\n        /* \"#utility.yul\":7610:7627   */\n      add\n        /* \"#utility.yul\":7603:7650   */\n      mstore\n        /* \"#utility.yul\":7667:7798   */\n      tag_218\n        /* \"#utility.yul\":7793:7797   */\n      dup2\n        /* \"#utility.yul\":7667:7798   */\n      tag_138\n      jump\t// in\n    tag_218:\n        /* \"#utility.yul\":7659:7798   */\n      swap1\n      pop\n        /* \"#utility.yul\":7386:7805   */\n      swap2\n      swap1\n      pop\n      jump\t// out\n        /* \"#utility.yul\":7811:7983   */\n    tag_139:\n        /* \"#utility.yul\":7951:7975   */\n      0x546f6b656e7320737570706c7920657863656564656400000000000000000000\n        /* \"#utility.yul\":7947:7948   */\n      0x00\n        /* \"#utility.yul\":7939:7945   */\n      dup3\n        /* \"#utility.yul\":7935:7949   */\n      add\n        /* \"#utility.yul\":7928:7976   */\n      mstore\n        /* \"#utility.yul\":7811:7983   */\n      pop\n      jump\t// out\n        /* \"#utility.yul\":7989:8355   */\n    tag_140:\n        /* \"#utility.yul\":8131:8134   */\n      0x00\n        /* \"#utility.yul\":8152:8219   */\n      tag_221\n        /* \"#utility.yul\":8216:8218   */\n      0x16\n        /* \"#utility.yul\":8211:8214   */\n      dup4\n        /* \"#utility.yul\":8152:8219   */\n      tag_129\n      jump\t// in\n    tag_221:\n        /* \"#utility.yul\":8145:8219   */\n      swap2\n      pop\n        /* \"#utility.yul\":8228:8321   */\n      tag_222\n        /* \"#utility.yul\":8317:8320   */\n      dup3\n        /* \"#utility.yul\":8228:8321   */\n      tag_139\n      jump\t// in\n    tag_222:\n        /* \"#utility.yul\":8346:8348   */\n      0x20\n        /* \"#utility.yul\":8341:8344   */\n      dup3\n        /* \"#utility.yul\":8337:8349   */\n      add\n        /* \"#utility.yul\":8330:8349   */\n      swap1\n      pop\n        /* \"#utility.yul\":7989:8355   */\n      swap2\n      swap1\n      pop\n      jump\t// out\n        /* \"#utility.yul\":8361:8780   */\n    tag_94:\n        /* \"#utility.yul\":8527:8531   */\n      0x00\n        /* \"#utility.yul\":8565:8567   */\n      0x20\n        /* \"#utility.yul\":8554:8563   */\n      dup3\n        /* \"#utility.yul\":8550:8568   */\n      add\n        /* \"#utility.yul\":8542:8568   */\n      swap1\n      pop\n        /* \"#utility.yul\":8614:8623   */\n      dup2\n        /* \"#utility.yul\":8608:8612   */\n      dup2\n        /* \"#utility.yul\":8604:8624   */\n      sub\n        /* \"#utility.yul\":8600:8601   */\n      0x00\n        /* \"#utility.yul\":8589:8598   */\n      dup4\n        /* \"#utility.yul\":8585:8602   */\n      add\n        /* \"#utility.yul\":8578:8625   */\n      mstore\n        /* \"#utility.yul\":8642:8773   */\n      tag_224\n        /* \"#utility.yul\":8768:8772   */\n      dup2\n        /* \"#utility.yul\":8642:8773   */\n      tag_140\n      jump\t// in\n    tag_224:\n        /* \"#utility.yul\":8634:8773   */\n      swap1\n      pop\n        /* \"#utility.yul\":8361:8780   */\n      swap2\n      swap1\n      pop\n      jump\t// out\n        /* \"#utility.yul\":8786:8954   */\n    tag_141:\n        /* \"#utility.yul\":8926:8946   */\n      0x696e73756666696369656e742066756e64730000000000000000000000000000\n        /* \"#utility.yul\":8922:8923   */\n      0x00\n        /* \"#utility.yul\":8914:8920   */\n      dup3\n        /* \"#utility.yul\":8910:8924   */\n      add\n        /* \"#utility.yul\":8903:8947   */\n      mstore\n        /* \"#utility.yul\":8786:8954   */\n      pop\n      jump\t// out\n        /* \"#utility.yul\":8960:9326   */\n    tag_142:\n        /* \"#utility.yul\":9102:9105   */\n      0x00\n        /* \"#utility.yul\":9123:9190   */\n      tag_227\n        /* \"#utility.yul\":9187:9189   */\n      0x12\n        /* \"#utility.yul\":9182:9185   */\n      dup4\n        /* \"#utility.yul\":9123:9190   */\n      tag_129\n      jump\t// in\n    tag_227:\n        /* \"#utility.yul\":9116:9190   */\n      swap2\n      pop\n        /* \"#utility.yul\":9199:9292   */\n      tag_228\n        /* \"#utility.yul\":9288:9291   */\n      dup3\n        /* \"#utility.yul\":9199:9292   */\n      tag_141\n      jump\t// in\n    tag_228:\n        /* \"#utility.yul\":9317:9319   */\n      0x20\n        /* \"#utility.yul\":9312:9315   */\n      dup3\n        /* \"#utility.yul\":9308:9320   */\n      add\n        /* \"#utility.yul\":9301:9320   */\n      swap1\n      pop\n        /* \"#utility.yul\":8960:9326   */\n      swap2\n      swap1\n      pop\n      jump\t// out\n        /* \"#utility.yul\":9332:9751   */\n    tag_110:\n        /* \"#utility.yul\":9498:9502   */\n      0x00\n        /* \"#utility.yul\":9536:9538   */\n      0x20\n        /* \"#utility.yul\":9525:9534   */\n      dup3\n        /* \"#utility.yul\":9521:9539   */\n      add\n        /* \"#utility.yul\":9513:9539   */\n      swap1\n      pop\n        /* \"#utility.yul\":9585:9594   */\n      dup2\n        /* \"#utility.yul\":9579:9583   */\n      dup2\n        /* \"#utility.yul\":9575:9595   */\n      sub\n        /* \"#utility.yul\":9571:9572   */\n      0x00\n        /* \"#utility.yul\":9560:9569   */\n      dup4\n        /* \"#utility.yul\":9556:9573   */\n      add\n        /* \"#utility.yul\":9549:9596   */\n      mstore\n        /* \"#utility.yul\":9613:9744   */\n      tag_230\n        /* \"#utility.yul\":9739:9743   */\n      dup2\n        /* \"#utility.yul\":9613:9744   */\n      tag_142\n      jump\t// in\n    tag_230:\n        /* \"#utility.yul\":9605:9744   */\n      swap1\n      pop\n        /* \"#utility.yul\":9332:9751   */\n      swap2\n      swap1\n      pop\n      jump\t// out\n        /* \"#utility.yul\":9757:10089   */\n    tag_114:\n        /* \"#utility.yul\":9878:9882   */\n      0x00\n        /* \"#utility.yul\":9916:9918   */\n      0x40\n        /* \"#utility.yul\":9905:9914   */\n      dup3\n        /* \"#utility.yul\":9901:9919   */\n      add\n        /* \"#utility.yul\":9893:9919   */\n      swap1\n      pop\n        /* \"#utility.yul\":9929:10000   */\n      tag_232\n        /* \"#utility.yul\":9997:9998   */\n      0x00\n        /* \"#utility.yul\":9986:9995   */\n      dup4\n        /* \"#utility.yul\":9982:9999   */\n      add\n        /* \"#utility.yul\":9973:9979   */\n      dup6\n        /* \"#utility.yul\":9929:10000   */\n      tag_124\n      jump\t// in\n    tag_232:\n        /* \"#utility.yul\":10010:10082   */\n      tag_233\n        /* \"#utility.yul\":10078:10080   */\n      0x20\n        /* \"#utility.yul\":10067:10076   */\n      dup4\n        /* \"#utility.yul\":10063:10081   */\n      add\n        /* \"#utility.yul\":10054:10060   */\n      dup5\n        /* \"#utility.yul\":10010:10082   */\n      tag_123\n      jump\t// in\n    tag_233:\n        /* \"#utility.yul\":9757:10089   */\n      swap4\n      swap3\n      pop\n      pop\n      pop\n      jump\t// out\n\n    auxdata: 0xa2646970667358221220ecd4d3773afe097aa7a5649e21ef852be14a5df3a1ad312c2361870ee32d397464736f6c634300081a0033\n}\n",
				"bytecode": {
					"linkReferences": {},
					"object": "6080604052633b9aca00600555603c60065534801561001c575f80fd5b50335f806101000a81548173ffffffffffffffffffffffffffffffffffffffff021916908373ffffffffffffffffffffffffffffffffffffffff16021790555061271060025f805f9054906101000a900473ffffffffffffffffffffffffffffffffffffffff1673ffffffffffffffffffffffffffffffffffffffff1673ffffffffffffffffffffffffffffffffffffffff1681526020019081526020015f208190555061271060055f8282546100d39190610115565b92505081905550610148565b5f819050919050565b7f4e487b71000000000000000000000000000000000000000000000000000000005f52601160045260245ffd5b5f61011f826100df565b915061012a836100df565b9250828203905081811115610142576101416100e8565b5b92915050565b6110fa806101555f395ff3fe608060405234801561000f575f80fd5b50600436106100b2575f3560e01c8063b3a60ac71161006f578063b3a60ac71461019e578063d250496c146101ba578063e5839836146101ea578063e89b0e1e1461021a578063f26c159f14610236578063f3fef3a314610252576100b2565b806304d7dc21146100b65780630ab9db5b146100e65780631f7cdd5f1461010457806347e7ef24146101345780637824407f14610150578063855d3af31461016e575b5f80fd5b6100d060048036038101906100cb9190610c6b565b61026e565b6040516100dd9190610cae565b60405180910390f35b6100ee610283565b6040516100fb9190610cd6565b60405180910390f35b61011e60048036038101906101199190610c6b565b6102a6565b60405161012b9190610cae565b60405180910390f35b61014e60048036038101906101499190610d19565b6102bb565b005b6101586104a7565b6040516101659190610cae565b60405180910390f35b61018860048036038101906101839190610c6b565b6104ad565b6040516101959190610d71565b60405180910390f35b6101b860048036038101906101b39190610c6b565b6104ca565b005b6101d460048036038101906101cf9190610c6b565b61065e565b6040516101e19190610cae565b60405180910390f35b61020460048036038101906101ff9190610c6b565b610673565b6040516102119190610d71565b60405180910390f35b610234600480360381019061022f9190610c6b565b6106c5565b005b610250600480360381019061024b9190610c6b565b610890565b005b61026c60048036038101906102679190610d19565b6109a7565b005b6004602052805f5260405f205f915090505481565b5f8054906101000a900473ffffffffffffffffffffffffffffffffffffffff1681565b6001602052805f5260405f205f915090505481565b818073ffffffffffffffffffffffffffffffffffffffff163373ffffffffffffffffffffffffffffffffffffffff161461032a576040517f08c379a000000000000000000000000000000000000000000000000000000000815260040161032190610de4565b60405180910390fd5b8160025f8573ffffffffffffffffffffffffffffffffffffffff1673ffffffffffffffffffffffffffffffffffffffff1681526020019081526020015f205410156103aa576040517f08c379a00000000000000000000000000000000000000000000000000000000081526004016103a190610e4c565b60405180910390fd5b6103b383610673565b156103f3576040517f08c379a00000000000000000000000000000000000000000000000000000000081526004016103ea90610eb4565b60405180910390fd5b8160025f8573ffffffffffffffffffffffffffffffffffffffff1673ffffffffffffffffffffffffffffffffffffffff1681526020019081526020015f205f82825461043f9190610eff565b925050819055508160015f8573ffffffffffffffffffffffffffffffffffffffff1673ffffffffffffffffffffffffffffffffffffffff1681526020019081526020015f205f8282546104929190610f32565b925050819055506104a283610890565b505050565b60055481565b6003602052805f5260405f205f915054906101000a900460ff1681565b808073ffffffffffffffffffffffffffffffffffffffff163373ffffffffffffffffffffffffffffffffffffffff1614610539576040517f08c379a000000000000000000000000000000000000000000000000000000000815260040161053090610de4565b60405180910390fd5b4260045f8473ffffffffffffffffffffffffffffffffffffffff1673ffffffffffffffffffffffffffffffffffffffff1681526020019081526020015f2054106105b8576040517f08c379a00000000000000000000000000000000000000000000000000000000081526004016105af90610eb4565b60405180910390fd5b5f60035f8473ffffffffffffffffffffffffffffffffffffffff1673ffffffffffffffffffffffffffffffffffffffff1681526020019081526020015f205f6101000a81548160ff0219169083151502179055506001426106199190610eff565b60045f8473ffffffffffffffffffffffffffffffffffffffff1673ffffffffffffffffffffffffffffffffffffffff1681526020019081526020015f20819055505050565b6002602052805f5260405f205f915090505481565b5f60035f8373ffffffffffffffffffffffffffffffffffffffff1673ffffffffffffffffffffffffffffffffffffffff1681526020019081526020015f205f9054906101000a900460ff169050919050565b5f8054906101000a900473ffffffffffffffffffffffffffffffffffffffff1673ffffffffffffffffffffffffffffffffffffffff163373ffffffffffffffffffffffffffffffffffffffff1614610752576040517f08c379a000000000000000000000000000000000000000000000000000000000815260040161074990610faf565b60405180910390fd5b6127106005541015610799576040517f08c379a000000000000000000000000000000000000000000000000000000000815260040161079090611017565b60405180910390fd5b61271060025f8373ffffffffffffffffffffffffffffffffffffffff1673ffffffffffffffffffffffffffffffffffffffff1681526020019081526020015f208190555061271060055f8282546107f09190610eff565b925050819055505f60035f8373ffffffffffffffffffffffffffffffffffffffff1673ffffffffffffffffffffffffffffffffffffffff1681526020019081526020015f205f6101000a81548160ff0219169083151502179055504260045f8373ffffffffffffffffffffffffffffffffffffffff1673ffffffffffffffffffffffffffffffffffffffff1681526020019081526020015f208190555050565b808073ffffffffffffffffffffffffffffffffffffffff163373ffffffffffffffffffffffffffffffffffffffff16146108ff576040517f08c379a00000000000000000000000000000000000000000000000000000000081526004016108f690610de4565b60405180910390fd5b600160035f8473ffffffffffffffffffffffffffffffffffffffff1673ffffffffffffffffffffffffffffffffffffffff1681526020019081526020015f205f6101000a81548160ff021916908315150217905550600654426109629190610f32565b60045f8473ffffffffffffffffffffffffffffffffffffffff1673ffffffffffffffffffffffffffffffffffffffff1681526020019081526020015f20819055505050565b818073ffffffffffffffffffffffffffffffffffffffff163373ffffffffffffffffffffffffffffffffffffffff1614610a16576040517f08c379a0000000000000000000000000000000000000000000000000000000008152600401610a0d90610de4565b60405180910390fd5b610a1f836104ca565b60035f8473ffffffffffffffffffffffffffffffffffffffff1673ffffffffffffffffffffffffffffffffffffffff1681526020019081526020015f205f9054906101000a900460ff1615610aa9576040517f08c379a0000000000000000000000000000000000000000000000000000000008152600401610aa090610eb4565b60405180910390fd5b8160015f8573ffffffffffffffffffffffffffffffffffffffff1673ffffffffffffffffffffffffffffffffffffffff1681526020019081526020015f20541015610b29576040517f08c379a0000000000000000000000000000000000000000000000000000000008152600401610b209061107f565b60405180910390fd5b8160025f8573ffffffffffffffffffffffffffffffffffffffff1673ffffffffffffffffffffffffffffffffffffffff1681526020019081526020015f205f828254610b759190610f32565b925050819055508160015f8573ffffffffffffffffffffffffffffffffffffffff1673ffffffffffffffffffffffffffffffffffffffff1681526020019081526020015f205f828254610bc89190610eff565b925050819055507f69ca02dd4edd7bf0a4abb9ed3b7af3f14778db5d61921c7dc7cd545266326de28383604051610c0092919061109d565b60405180910390a1505050565b5f80fd5b5f73ffffffffffffffffffffffffffffffffffffffff82169050919050565b5f610c3a82610c11565b9050919050565b610c4a81610c30565b8114610c54575f80fd5b50565b5f81359050610c6581610c41565b92915050565b5f60208284031215610c8057610c7f610c0d565b5b5f610c8d84828501610c57565b91505092915050565b5f819050919050565b610ca881610c96565b82525050565b5f602082019050610cc15f830184610c9f565b92915050565b610cd081610c30565b82525050565b5f602082019050610ce95f830184610cc7565b92915050565b610cf881610c96565b8114610d02575f80fd5b50565b5f81359050610d1381610cef565b92915050565b5f8060408385031215610d2f57610d2e610c0d565b5b5f610d3c85828601610c57565b9250506020610d4d85828601610d05565b9150509250929050565b5f8115159050919050565b610d6b81610d57565b82525050565b5f602082019050610d845f830184610d62565b92915050565b5f82825260208201905092915050565b7f496e73756666696369656e74206163636573733a206f776e6572206f6e6c79005f82015250565b5f610dce601f83610d8a565b9150610dd982610d9a565b602082019050919050565b5f6020820190508181035f830152610dfb81610dc2565b9050919050565b7f4e6f7420656e6f75676820696e206163636f756e7400000000000000000000005f82015250565b5f610e36601583610d8a565b9150610e4182610e02565b602082019050919050565b5f6020820190508181035f830152610e6381610e2a565b9050919050565b7f4163636f756e742046726f7a656e0000000000000000000000000000000000005f82015250565b5f610e9e600e83610d8a565b9150610ea982610e6a565b602082019050919050565b5f6020820190508181035f830152610ecb81610e92565b9050919050565b7f4e487b71000000000000000000000000000000000000000000000000000000005f52601160045260245ffd5b5f610f0982610c96565b9150610f1483610c96565b9250828203905081811115610f2c57610f2b610ed2565b5b92915050565b5f610f3c82610c96565b9150610f4783610c96565b9250828201905080821115610f5f57610f5e610ed2565b5b92915050565b7f496e73756666696369656e74206163636573733a2062616e6b6572206f6e6c795f82015250565b5f610f99602083610d8a565b9150610fa482610f65565b602082019050919050565b5f6020820190508181035f830152610fc681610f8d565b9050919050565b7f546f6b656e7320737570706c79206578636565646564000000000000000000005f82015250565b5f611001601683610d8a565b915061100c82610fcd565b602082019050919050565b5f6020820190508181035f83015261102e81610ff5565b9050919050565b7f696e73756666696369656e742066756e647300000000000000000000000000005f82015250565b5f611069601283610d8a565b915061107482611035565b602082019050919050565b5f6020820190508181035f8301526110968161105d565b9050919050565b5f6040820190506110b05f830185610cc7565b6110bd6020830184610c9f565b939250505056fea2646970667358221220ecd4d3773afe097aa7a5649e21ef852be14a5df3a1ad312c2361870ee32d397464736f6c634300081a0033",
					"opcodes": "PUSH1 0x80 PUSH1 0x40 MSTORE PUSH4 0x3B9ACA00 PUSH1 0x5 SSTORE PUSH1 0x3C PUSH1 0x6 SSTORE CALLVALUE DUP1 ISZERO PUSH2 0x1C JUMPI PUSH0 DUP1 REVERT JUMPDEST POP CALLER PUSH0 DUP1 PUSH2 0x100 EXP DUP2 SLOAD DUP2 PUSH20 0xFFFFFFFFFFFFFFFFFFFFFFFFFFFFFFFFFFFFFFFF MUL NOT AND SWAP1 DUP4 PUSH20 0xFFFFFFFFFFFFFFFFFFFFFFFFFFFFFFFFFFFFFFFF AND MUL OR SWAP1 SSTORE POP PUSH2 0x2710 PUSH1 0x2 PUSH0 DUP1 PUSH0 SWAP1 SLOAD SWAP1 PUSH2 0x100 EXP SWAP1 DIV PUSH20 0xFFFFFFFFFFFFFFFFFFFFFFFFFFFFFFFFFFFFFFFF AND PUSH20 0xFFFFFFFFFFFFFFFFFFFFFFFFFFFFFFFFFFFFFFFF AND PUSH20 0xFFFFFFFFFFFFFFFFFFFFFFFFFFFFFFFFFFFFFFFF AND DUP2 MSTORE PUSH1 0x20 ADD SWAP1 DUP2 MSTORE PUSH1 0x20 ADD PUSH0 KECCAK256 DUP2 SWAP1 SSTORE POP PUSH2 0x2710 PUSH1 0x5 PUSH0 DUP3 DUP3 SLOAD PUSH2 0xD3 SWAP2 SWAP1 PUSH2 0x115 JUMP JUMPDEST SWAP3 POP POP DUP2 SWAP1 SSTORE POP PUSH2 0x148 JUMP JUMPDEST PUSH0 DUP2 SWAP1 POP SWAP2 SWAP1 POP JUMP JUMPDEST PUSH32 0x4E487B7100000000000000000000000000000000000000000000000000000000 PUSH0 MSTORE PUSH1 0x11 PUSH1 0x4 MSTORE PUSH1 0x24 PUSH0 REVERT JUMPDEST PUSH0 PUSH2 0x11F DUP3 PUSH2 0xDF JUMP JUMPDEST SWAP2 POP PUSH2 0x12A DUP4 PUSH2 0xDF JUMP JUMPDEST SWAP3 POP DUP3 DUP3 SUB SWAP1 POP DUP2 DUP2 GT ISZERO PUSH2 0x142 JUMPI PUSH2 0x141 PUSH2 0xE8 JUMP JUMPDEST JUMPDEST SWAP3 SWAP2 POP POP JUMP JUMPDEST PUSH2 0x10FA DUP1 PUSH2 0x155 PUSH0 CODECOPY PUSH0 RETURN INVALID PUSH1 0x80 PUSH1 0x40 MSTORE CALLVALUE DUP1 ISZERO PUSH2 0xF JUMPI PUSH0 DUP1 REVERT JUMPDEST POP PUSH1 0x4 CALLDATASIZE LT PUSH2 0xB2 JUMPI PUSH0 CALLDATALOAD PUSH1 0xE0 SHR DUP1 PUSH4 0xB3A60AC7 GT PUSH2 0x6F JUMPI DUP1 PUSH4 0xB3A60AC7 EQ PUSH2 0x19E JUMPI DUP1 PUSH4 0xD250496C EQ PUSH2 0x1BA JUMPI DUP1 PUSH4 0xE5839836 EQ PUSH2 0x1EA JUMPI DUP1 PUSH4 0xE89B0E1E EQ PUSH2 0x21A JUMPI DUP1 PUSH4 0xF26C159F EQ PUSH2 0x236 JUMPI DUP1 PUSH4 0xF3FEF3A3 EQ PUSH2 0x252 JUMPI PUSH2 0xB2 JUMP JUMPDEST DUP1 PUSH4 0x4D7DC21 EQ PUSH2 0xB6 JUMPI DUP1 PUSH4 0xAB9DB5B EQ PUSH2 0xE6 JUMPI DUP1 PUSH4 0x1F7CDD5F EQ PUSH2 0x104 JUMPI DUP1 PUSH4 0x47E7EF24 EQ PUSH2 0x134 JUMPI DUP1 PUSH4 0x7824407F EQ PUSH2 0x150 JUMPI DUP1 PUSH4 0x855D3AF3 EQ PUSH2 0x16E JUMPI JUMPDEST PUSH0 DUP1 REVERT JUMPDEST PUSH2 0xD0 PUSH1 0x4 DUP1 CALLDATASIZE SUB DUP2 ADD SWAP1 PUSH2 0xCB SWAP2 SWAP1 PUSH2 0xC6B JUMP JUMPDEST PUSH2 0x26E JUMP JUMPDEST PUSH1 0x40 MLOAD PUSH2 0xDD SWAP2 SWAP1 PUSH2 0xCAE JUMP JUMPDEST PUSH1 0x40 MLOAD DUP1 SWAP2 SUB SWAP1 RETURN JUMPDEST PUSH2 0xEE PUSH2 0x283 JUMP JUMPDEST PUSH1 0x40 MLOAD PUSH2 0xFB SWAP2 SWAP1 PUSH2 0xCD6 JUMP JUMPDEST PUSH1 0x40 MLOAD DUP1 SWAP2 SUB SWAP1 RETURN JUMPDEST PUSH2 0x11E PUSH1 0x4 DUP1 CALLDATASIZE SUB DUP2 ADD SWAP1 PUSH2 0x119 SWAP2 SWAP1 PUSH2 0xC6B JUMP JUMPDEST PUSH2 0x2A6 JUMP JUMPDEST PUSH1 0x40 MLOAD PUSH2 0x12B SWAP2 SWAP1 PUSH2 0xCAE JUMP JUMPDEST PUSH1 0x40 MLOAD DUP1 SWAP2 SUB SWAP1 RETURN JUMPDEST PUSH2 0x14E PUSH1 0x4 DUP1 CALLDATASIZE SUB DUP2 ADD SWAP1 PUSH2 0x149 SWAP2 SWAP1 PUSH2 0xD19 JUMP JUMPDEST PUSH2 0x2BB JUMP JUMPDEST STOP JUMPDEST PUSH2 0x158 PUSH2 0x4A7 JUMP JUMPDEST PUSH1 0x40 MLOAD PUSH2 0x165 SWAP2 SWAP1 PUSH2 0xCAE JUMP JUMPDEST PUSH1 0x40 MLOAD DUP1 SWAP2 SUB SWAP1 RETURN JUMPDEST PUSH2 0x188 PUSH1 0x4 DUP1 CALLDATASIZE SUB DUP2 ADD SWAP1 PUSH2 0x183 SWAP2 SWAP1 PUSH2 0xC6B JUMP JUMPDEST PUSH2 0x4AD JUMP JUMPDEST PUSH1 0x40 MLOAD PUSH2 0x195 SWAP2 SWAP1 PUSH2 0xD71 JUMP JUMPDEST PUSH1 0x40 MLOAD DUP1 SWAP2 SUB SWAP1 RETURN JUMPDEST PUSH2 0x1B8 PUSH1 0x4 DUP1 CALLDATASIZE SUB DUP2 ADD SWAP1 PUSH2 0x1B3 SWAP2 SWAP1 PUSH2 0xC6B JUMP JUMPDEST PUSH2 0x4CA JUMP JUMPDEST STOP JUMPDEST PUSH2 0x1D4 PUSH1 0x4 DUP1 CALLDATASIZE SUB DUP2 ADD SWAP1 PUSH2 0x1CF SWAP2 SWAP1 PUSH2 0xC6B JUMP JUMPDEST PUSH2 0x65E JUMP JUMPDEST PUSH1 0x40 MLOAD PUSH2 0x1E1 SWAP2 SWAP1 PUSH2 0xCAE JUMP JUMPDEST PUSH1 0x40 MLOAD DUP1 SWAP2 SUB SWAP1 RETURN JUMPDEST PUSH2 0x204 PUSH1 0x4 DUP1 CALLDATASIZE SUB DUP2 ADD SWAP1 PUSH2 0x1FF SWAP2 SWAP1 PUSH2 0xC6B JUMP JUMPDEST PUSH2 0x673 JUMP JUMPDEST PUSH1 0x40 MLOAD PUSH2 0x211 SWAP2 SWAP1 PUSH2 0xD71 JUMP JUMPDEST PUSH1 0x40 MLOAD DUP1 SWAP2 SUB SWAP1 RETURN JUMPDEST PUSH2 0x234 PUSH1 0x4 DUP1 CALLDATASIZE SUB DUP2 ADD SWAP1 PUSH2 0x22F SWAP2 SWAP1 PUSH2 0xC6B JUMP JUMPDEST PUSH2 0x6C5 JUMP JUMPDEST STOP JUMPDEST PUSH2 0x250 PUSH1 0x4 DUP1 CALLDATASIZE SUB DUP2 ADD SWAP1 PUSH2 0x24B SWAP2 SWAP1 PUSH2 0xC6B JUMP JUMPDEST PUSH2 0x890 JUMP JUMPDEST STOP JUMPDEST PUSH2 0x26C PUSH1 0x4 DUP1 CALLDATASIZE SUB DUP2 ADD SWAP1 PUSH2 0x267 SWAP2 SWAP1 PUSH2 0xD19 JUMP JUMPDEST PUSH2 0x9A7 JUMP JUMPDEST STOP JUMPDEST PUSH1 0x4 PUSH1 0x20 MSTORE DUP1 PUSH0 MSTORE PUSH1 0x40 PUSH0 KECCAK256 PUSH0 SWAP2 POP SWAP1 POP SLOAD DUP2 JUMP JUMPDEST PUSH0 DUP1 SLOAD SWAP1 PUSH2 0x100 EXP SWAP1 DIV PUSH20 0xFFFFFFFFFFFFFFFFFFFFFFFFFFFFFFFFFFFFFFFF AND DUP2 JUMP JUMPDEST PUSH1 0x1 PUSH1 0x20 MSTORE DUP1 PUSH0 MSTORE PUSH1 0x40 PUSH0 KECCAK256 PUSH0 SWAP2 POP SWAP1 POP SLOAD DUP2 JUMP JUMPDEST DUP2 DUP1 PUSH20 0xFFFFFFFFFFFFFFFFFFFFFFFFFFFFFFFFFFFFFFFF AND CALLER PUSH20 0xFFFFFFFFFFFFFFFFFFFFFFFFFFFFFFFFFFFFFFFF AND EQ PUSH2 0x32A JUMPI PUSH1 0x40 MLOAD PUSH32 0x8C379A000000000000000000000000000000000000000000000000000000000 DUP2 MSTORE PUSH1 0x4 ADD PUSH2 0x321 SWAP1 PUSH2 0xDE4 JUMP JUMPDEST PUSH1 0x40 MLOAD DUP1 SWAP2 SUB SWAP1 REVERT JUMPDEST DUP2 PUSH1 0x2 PUSH0 DUP6 PUSH20 0xFFFFFFFFFFFFFFFFFFFFFFFFFFFFFFFFFFFFFFFF AND PUSH20 0xFFFFFFFFFFFFFFFFFFFFFFFFFFFFFFFFFFFFFFFF AND DUP2 MSTORE PUSH1 0x20 ADD SWAP1 DUP2 MSTORE PUSH1 0x20 ADD PUSH0 KECCAK256 SLOAD LT ISZERO PUSH2 0x3AA JUMPI PUSH1 0x40 MLOAD PUSH32 0x8C379A000000000000000000000000000000000000000000000000000000000 DUP2 MSTORE PUSH1 0x4 ADD PUSH2 0x3A1 SWAP1 PUSH2 0xE4C JUMP JUMPDEST PUSH1 0x40 MLOAD DUP1 SWAP2 SUB SWAP1 REVERT JUMPDEST PUSH2 0x3B3 DUP4 PUSH2 0x673 JUMP JUMPDEST ISZERO PUSH2 0x3F3 JUMPI PUSH1 0x40 MLOAD PUSH32 0x8C379A000000000000000000000000000000000000000000000000000000000 DUP2 MSTORE PUSH1 0x4 ADD PUSH2 0x3EA SWAP1 PUSH2 0xEB4 JUMP JUMPDEST PUSH1 0x40 MLOAD DUP1 SWAP2 SUB SWAP1 REVERT JUMPDEST DUP2 PUSH1 0x2 PUSH0 DUP6 PUSH20 0xFFFFFFFFFFFFFFFFFFFFFFFFFFFFFFFFFFFFFFFF AND PUSH20 0xFFFFFFFFFFFFFFFFFFFFFFFFFFFFFFFFFFFFFFFF AND DUP2 MSTORE PUSH1 0x20 ADD SWAP1 DUP2 MSTORE PUSH1 0x20 ADD PUSH0 KECCAK256 PUSH0 DUP3 DUP3 SLOAD PUSH2 0x43F SWAP2 SWAP1 PUSH2 0xEFF JUMP JUMPDEST SWAP3 POP POP DUP2 SWAP1 SSTORE POP DUP2 PUSH1 0x1 PUSH0 DUP6 PUSH20 0xFFFFFFFFFFFFFFFFFFFFFFFFFFFFFFFFFFFFFFFF AND PUSH20 0xFFFFFFFFFFFFFFFFFFFFFFFFFFFFFFFFFFFFFFFF AND DUP2 MSTORE PUSH1 0x20 ADD SWAP1 DUP2 MSTORE PUSH1 0x20 ADD PUSH0 KECCAK256 PUSH0 DUP3 DUP3 SLOAD PUSH2 0x492 SWAP2 SWAP1 PUSH2 0xF32 JUMP JUMPDEST SWAP3 POP POP DUP2 SWAP1 SSTORE POP PUSH2 0x4A2 DUP4 PUSH2 0x890 JUMP JUMPDEST POP POP POP JUMP JUMPDEST PUSH1 0x5 SLOAD DUP2 JUMP JUMPDEST PUSH1 0x3 PUSH1 0x20 MSTORE DUP1 PUSH0 MSTORE PUSH1 0x40 PUSH0 KECCAK256 PUSH0 SWAP2 POP SLOAD SWAP1 PUSH2 0x100 EXP SWAP1 DIV PUSH1 0xFF AND DUP2 JUMP JUMPDEST DUP1 DUP1 PUSH20 0xFFFFFFFFFFFFFFFFFFFFFFFFFFFFFFFFFFFFFFFF AND CALLER PUSH20 0xFFFFFFFFFFFFFFFFFFFFFFFFFFFFFFFFFFFFFFFF AND EQ PUSH2 0x539 JUMPI PUSH1 0x40 MLOAD PUSH32 0x8C379A000000000000000000000000000000000000000000000000000000000 DUP2 MSTORE PUSH1 0x4 ADD PUSH2 0x530 SWAP1 PUSH2 0xDE4 JUMP JUMPDEST PUSH1 0x40 MLOAD DUP1 SWAP2 SUB SWAP1 REVERT JUMPDEST TIMESTAMP PUSH1 0x4 PUSH0 DUP5 PUSH20 0xFFFFFFFFFFFFFFFFFFFFFFFFFFFFFFFFFFFFFFFF AND PUSH20 0xFFFFFFFFFFFFFFFFFFFFFFFFFFFFFFFFFFFFFFFF AND DUP2 MSTORE PUSH1 0x20 ADD SWAP1 DUP2 MSTORE PUSH1 0x20 ADD PUSH0 KECCAK256 SLOAD LT PUSH2 0x5B8 JUMPI PUSH1 0x40 MLOAD PUSH32 0x8C379A000000000000000000000000000000000000000000000000000000000 DUP2 MSTORE PUSH1 0x4 ADD PUSH2 0x5AF SWAP1 PUSH2 0xEB4 JUMP JUMPDEST PUSH1 0x40 MLOAD DUP1 SWAP2 SUB SWAP1 REVERT JUMPDEST PUSH0 PUSH1 0x3 PUSH0 DUP5 PUSH20 0xFFFFFFFFFFFFFFFFFFFFFFFFFFFFFFFFFFFFFFFF AND PUSH20 0xFFFFFFFFFFFFFFFFFFFFFFFFFFFFFFFFFFFFFFFF AND DUP2 MSTORE PUSH1 0x20 ADD SWAP1 DUP2 MSTORE PUSH1 0x20 ADD PUSH0 KECCAK256 PUSH0 PUSH2 0x100 EXP DUP2 SLOAD DUP2 PUSH1 0xFF MUL NOT AND SWAP1 DUP4 ISZERO ISZERO MUL OR SWAP1 SSTORE POP PUSH1 0x1 TIMESTAMP PUSH2 0x619 SWAP2 SWAP1 PUSH2 0xEFF JUMP JUMPDEST PUSH1 0x4 PUSH0 DUP5 PUSH20 0xFFFFFFFFFFFFFFFFFFFFFFFFFFFFFFFFFFFFFFFF AND PUSH20 0xFFFFFFFFFFFFFFFFFFFFFFFFFFFFFFFFFFFFFFFF AND DUP2 MSTORE PUSH1 0x20 ADD SWAP1 DUP2 MSTORE PUSH1 0x20 ADD PUSH0 KECCAK256 DUP2 SWAP1 SSTORE POP POP POP JUMP JUMPDEST PUSH1 0x2 PUSH1 0x20 MSTORE DUP1 PUSH0 MSTORE PUSH1 0x40 PUSH0 KECCAK256 PUSH0 SWAP2 POP SWAP1 POP SLOAD DUP2 JUMP JUMPDEST PUSH0 PUSH1 0x3 PUSH0 DUP4 PUSH20 0xFFFFFFFFFFFFFFFFFFFFFFFFFFFFFFFFFFFFFFFF AND PUSH20 0xFFFFFFFFFFFFFFFFFFFFFFFFFFFFFFFFFFFFFFFF AND DUP2 MSTORE PUSH1 0x20 ADD SWAP1 DUP2 MSTORE PUSH1 0x20 ADD PUSH0 KECCAK256 PUSH0 SWAP1 SLOAD SWAP1 PUSH2 0x100 EXP SWAP1 DIV PUSH1 0xFF AND SWAP1 POP SWAP2 SWAP1 POP JUMP JUMPDEST PUSH0 DUP1 SLOAD SWAP1 PUSH2 0x100 EXP SWAP1 DIV PUSH20 0xFFFFFFFFFFFFFFFFFFFFFFFFFFFFFFFFFFFFFFFF AND PUSH20 0xFFFFFFFFFFFFFFFFFFFFFFFFFFFFFFFFFFFFFFFF AND CALLER PUSH20 0xFFFFFFFFFFFFFFFFFFFFFFFFFFFFFFFFFFFFFFFF AND EQ PUSH2 0x752 JUMPI PUSH1 0x40 MLOAD PUSH32 0x8C379A000000000000000000000000000000000000000000000000000000000 DUP2 MSTORE PUSH1 0x4 ADD PUSH2 0x749 SWAP1 PUSH2 0xFAF JUMP JUMPDEST PUSH1 0x40 MLOAD DUP1 SWAP2 SUB SWAP1 REVERT JUMPDEST PUSH2 0x2710 PUSH1 0x5 SLOAD LT ISZERO PUSH2 0x799 JUMPI PUSH1 0x40 MLOAD PUSH32 0x8C379A000000000000000000000000000000000000000000000000000000000 DUP2 MSTORE PUSH1 0x4 ADD PUSH2 0x790 SWAP1 PUSH2 0x1017 JUMP JUMPDEST PUSH1 0x40 MLOAD DUP1 SWAP2 SUB SWAP1 REVERT JUMPDEST PUSH2 0x2710 PUSH1 0x2 PUSH0 DUP4 PUSH20 0xFFFFFFFFFFFFFFFFFFFFFFFFFFFFFFFFFFFFFFFF AND PUSH20 0xFFFFFFFFFFFFFFFFFFFFFFFFFFFFFFFFFFFFFFFF AND DUP2 MSTORE PUSH1 0x20 ADD SWAP1 DUP2 MSTORE PUSH1 0x20 ADD PUSH0 KECCAK256 DUP2 SWAP1 SSTORE POP PUSH2 0x2710 PUSH1 0x5 PUSH0 DUP3 DUP3 SLOAD PUSH2 0x7F0 SWAP2 SWAP1 PUSH2 0xEFF JUMP JUMPDEST SWAP3 POP POP DUP2 SWAP1 SSTORE POP PUSH0 PUSH1 0x3 PUSH0 DUP4 PUSH20 0xFFFFFFFFFFFFFFFFFFFFFFFFFFFFFFFFFFFFFFFF AND PUSH20 0xFFFFFFFFFFFFFFFFFFFFFFFFFFFFFFFFFFFFFFFF AND DUP2 MSTORE PUSH1 0x20 ADD SWAP1 DUP2 MSTORE PUSH1 0x20 ADD PUSH0 KECCAK256 PUSH0 PUSH2 0x100 EXP DUP2 SLOAD DUP2 PUSH1 0xFF MUL NOT AND SWAP1 DUP4 ISZERO ISZERO MUL OR SWAP1 SSTORE POP TIMESTAMP PUSH1 0x4 PUSH0 DUP4 PUSH20 0xFFFFFFFFFFFFFFFFFFFFFFFFFFFFFFFFFFFFFFFF AND PUSH20 0xFFFFFFFFFFFFFFFFFFFFFFFFFFFFFFFFFFFFFFFF AND DUP2 MSTORE PUSH1 0x20 ADD SWAP1 DUP2 MSTORE PUSH1 0x20 ADD PUSH0 KECCAK256 DUP2 SWAP1 SSTORE POP POP JUMP JUMPDEST DUP1 DUP1 PUSH20 0xFFFFFFFFFFFFFFFFFFFFFFFFFFFFFFFFFFFFFFFF AND CALLER PUSH20 0xFFFFFFFFFFFFFFFFFFFFFFFFFFFFFFFFFFFFFFFF AND EQ PUSH2 0x8FF JUMPI PUSH1 0x40 MLOAD PUSH32 0x8C379A000000000000000000000000000000000000000000000000000000000 DUP2 MSTORE PUSH1 0x4 ADD PUSH2 0x8F6 SWAP1 PUSH2 0xDE4 JUMP JUMPDEST PUSH1 0x40 MLOAD DUP1 SWAP2 SUB SWAP1 REVERT JUMPDEST PUSH1 0x1 PUSH1 0x3 PUSH0 DUP5 PUSH20 0xFFFFFFFFFFFFFFFFFFFFFFFFFFFFFFFFFFFFFFFF AND PUSH20 0xFFFFFFFFFFFFFFFFFFFFFFFFFFFFFFFFFFFFFFFF AND DUP2 MSTORE PUSH1 0x20 ADD SWAP1 DUP2 MSTORE PUSH1 0x20 ADD PUSH0 KECCAK256 PUSH0 PUSH2 0x100 EXP DUP2 SLOAD DUP2 PUSH1 0xFF MUL NOT AND SWAP1 DUP4 ISZERO ISZERO MUL OR SWAP1 SSTORE POP PUSH1 0x6 SLOAD TIMESTAMP PUSH2 0x962 SWAP2 SWAP1 PUSH2 0xF32 JUMP JUMPDEST PUSH1 0x4 PUSH0 DUP5 PUSH20 0xFFFFFFFFFFFFFFFFFFFFFFFFFFFFFFFFFFFFFFFF AND PUSH20 0xFFFFFFFFFFFFFFFFFFFFFFFFFFFFFFFFFFFFFFFF AND DUP2 MSTORE PUSH1 0x20 ADD SWAP1 DUP2 MSTORE PUSH1 0x20 ADD PUSH0 KECCAK256 DUP2 SWAP1 SSTORE POP POP POP JUMP JUMPDEST DUP2 DUP1 PUSH20 0xFFFFFFFFFFFFFFFFFFFFFFFFFFFFFFFFFFFFFFFF AND CALLER PUSH20 0xFFFFFFFFFFFFFFFFFFFFFFFFFFFFFFFFFFFFFFFF AND EQ PUSH2 0xA16 JUMPI PUSH1 0x40 MLOAD PUSH32 0x8C379A000000000000000000000000000000000000000000000000000000000 DUP2 MSTORE PUSH1 0x4 ADD PUSH2 0xA0D SWAP1 PUSH2 0xDE4 JUMP JUMPDEST PUSH1 0x40 MLOAD DUP1 SWAP2 SUB SWAP1 REVERT JUMPDEST PUSH2 0xA1F DUP4 PUSH2 0x4CA JUMP JUMPDEST PUSH1 0x3 PUSH0 DUP5 PUSH20 0xFFFFFFFFFFFFFFFFFFFFFFFFFFFFFFFFFFFFFFFF AND PUSH20 0xFFFFFFFFFFFFFFFFFFFFFFFFFFFFFFFFFFFFFFFF AND DUP2 MSTORE PUSH1 0x20 ADD SWAP1 DUP2 MSTORE PUSH1 0x20 ADD PUSH0 KECCAK256 PUSH0 SWAP1 SLOAD SWAP1 PUSH2 0x100 EXP SWAP1 DIV PUSH1 0xFF AND ISZERO PUSH2 0xAA9 JUMPI PUSH1 0x40 MLOAD PUSH32 0x8C379A000000000000000000000000000000000000000000000000000000000 DUP2 MSTORE PUSH1 0x4 ADD PUSH2 0xAA0 SWAP1 PUSH2 0xEB4 JUMP JUMPDEST PUSH1 0x40 MLOAD DUP1 SWAP2 SUB SWAP1 REVERT JUMPDEST DUP2 PUSH1 0x1 PUSH0 DUP6 PUSH20 0xFFFFFFFFFFFFFFFFFFFFFFFFFFFFFFFFFFFFFFFF AND PUSH20 0xFFFFFFFFFFFFFFFFFFFFFFFFFFFFFFFFFFFFFFFF AND DUP2 MSTORE PUSH1 0x20 ADD SWAP1 DUP2 MSTORE PUSH1 0x20 ADD PUSH0 KECCAK256 SLOAD LT ISZERO PUSH2 0xB29 JUMPI PUSH1 0x40 MLOAD PUSH32 0x8C379A000000000000000000000000000000000000000000000000000000000 DUP2 MSTORE PUSH1 0x4 ADD PUSH2 0xB20 SWAP1 PUSH2 0x107F JUMP JUMPDEST PUSH1 0x40 MLOAD DUP1 SWAP2 SUB SWAP1 REVERT JUMPDEST DUP2 PUSH1 0x2 PUSH0 DUP6 PUSH20 0xFFFFFFFFFFFFFFFFFFFFFFFFFFFFFFFFFFFFFFFF AND PUSH20 0xFFFFFFFFFFFFFFFFFFFFFFFFFFFFFFFFFFFFFFFF AND DUP2 MSTORE PUSH1 0x20 ADD SWAP1 DUP2 MSTORE PUSH1 0x20 ADD PUSH0 KECCAK256 PUSH0 DUP3 DUP3 SLOAD PUSH2 0xB75 SWAP2 SWAP1 PUSH2 0xF32 JUMP JUMPDEST SWAP3 POP POP DUP2 SWAP1 SSTORE POP DUP2 PUSH1 0x1 PUSH0 DUP6 PUSH20 0xFFFFFFFFFFFFFFFFFFFFFFFFFFFFFFFFFFFFFFFF AND PUSH20 0xFFFFFFFFFFFFFFFFFFFFFFFFFFFFFFFFFFFFFFFF AND DUP2 MSTORE PUSH1 0x20 ADD SWAP1 DUP2 MSTORE PUSH1 0x20 ADD PUSH0 KECCAK256 PUSH0 DUP3 DUP3 SLOAD PUSH2 0xBC8 SWAP2 SWAP1 PUSH2 0xEFF JUMP JUMPDEST SWAP3 POP POP DUP2 SWAP1 SSTORE POP PUSH32 0x69CA02DD4EDD7BF0A4ABB9ED3B7AF3F14778DB5D61921C7DC7CD545266326DE2 DUP4 DUP4 PUSH1 0x40 MLOAD PUSH2 0xC00 SWAP3 SWAP2 SWAP1 PUSH2 0x109D JUMP JUMPDEST PUSH1 0x40 MLOAD DUP1 SWAP2 SUB SWAP1 LOG1 POP POP POP JUMP JUMPDEST PUSH0 DUP1 REVERT JUMPDEST PUSH0 PUSH20 0xFFFFFFFFFFFFFFFFFFFFFFFFFFFFFFFFFFFFFFFF DUP3 AND SWAP1 POP SWAP2 SWAP1 POP JUMP JUMPDEST PUSH0 PUSH2 0xC3A DUP3 PUSH2 0xC11 JUMP JUMPDEST SWAP1 POP SWAP2 SWAP1 POP JUMP JUMPDEST PUSH2 0xC4A DUP2 PUSH2 0xC30 JUMP JUMPDEST DUP2 EQ PUSH2 0xC54 JUMPI PUSH0 DUP1 REVERT JUMPDEST POP JUMP JUMPDEST PUSH0 DUP2 CALLDATALOAD SWAP1 POP PUSH2 0xC65 DUP2 PUSH2 0xC41 JUMP JUMPDEST SWAP3 SWAP2 POP POP JUMP JUMPDEST PUSH0 PUSH1 0x20 DUP3 DUP5 SUB SLT ISZERO PUSH2 0xC80 JUMPI PUSH2 0xC7F PUSH2 0xC0D JUMP JUMPDEST JUMPDEST PUSH0 PUSH2 0xC8D DUP5 DUP3 DUP6 ADD PUSH2 0xC57 JUMP JUMPDEST SWAP2 POP POP SWAP3 SWAP2 POP POP JUMP JUMPDEST PUSH0 DUP2 SWAP1 POP SWAP2 SWAP1 POP JUMP JUMPDEST PUSH2 0xCA8 DUP2 PUSH2 0xC96 JUMP JUMPDEST DUP3 MSTORE POP POP JUMP JUMPDEST PUSH0 PUSH1 0x20 DUP3 ADD SWAP1 POP PUSH2 0xCC1 PUSH0 DUP4 ADD DUP5 PUSH2 0xC9F JUMP JUMPDEST SWAP3 SWAP2 POP POP JUMP JUMPDEST PUSH2 0xCD0 DUP2 PUSH2 0xC30 JUMP JUMPDEST DUP3 MSTORE POP POP JUMP JUMPDEST PUSH0 PUSH1 0x20 DUP3 ADD SWAP1 POP PUSH2 0xCE9 PUSH0 DUP4 ADD DUP5 PUSH2 0xCC7 JUMP JUMPDEST SWAP3 SWAP2 POP POP JUMP JUMPDEST PUSH2 0xCF8 DUP2 PUSH2 0xC96 JUMP JUMPDEST DUP2 EQ PUSH2 0xD02 JUMPI PUSH0 DUP1 REVERT JUMPDEST POP JUMP JUMPDEST PUSH0 DUP2 CALLDATALOAD SWAP1 POP PUSH2 0xD13 DUP2 PUSH2 0xCEF JUMP JUMPDEST SWAP3 SWAP2 POP POP JUMP JUMPDEST PUSH0 DUP1 PUSH1 0x40 DUP4 DUP6 SUB SLT ISZERO PUSH2 0xD2F JUMPI PUSH2 0xD2E PUSH2 0xC0D JUMP JUMPDEST JUMPDEST PUSH0 PUSH2 0xD3C DUP6 DUP3 DUP7 ADD PUSH2 0xC57 JUMP JUMPDEST SWAP3 POP POP PUSH1 0x20 PUSH2 0xD4D DUP6 DUP3 DUP7 ADD PUSH2 0xD05 JUMP JUMPDEST SWAP2 POP POP SWAP3 POP SWAP3 SWAP1 POP JUMP JUMPDEST PUSH0 DUP2 ISZERO ISZERO SWAP1 POP SWAP2 SWAP1 POP JUMP JUMPDEST PUSH2 0xD6B DUP2 PUSH2 0xD57 JUMP JUMPDEST DUP3 MSTORE POP POP JUMP JUMPDEST PUSH0 PUSH1 0x20 DUP3 ADD SWAP1 POP PUSH2 0xD84 PUSH0 DUP4 ADD DUP5 PUSH2 0xD62 JUMP JUMPDEST SWAP3 SWAP2 POP POP JUMP JUMPDEST PUSH0 DUP3 DUP3 MSTORE PUSH1 0x20 DUP3 ADD SWAP1 POP SWAP3 SWAP2 POP POP JUMP JUMPDEST PUSH32 0x496E73756666696369656E74206163636573733A206F776E6572206F6E6C7900 PUSH0 DUP3 ADD MSTORE POP JUMP JUMPDEST PUSH0 PUSH2 0xDCE PUSH1 0x1F DUP4 PUSH2 0xD8A JUMP JUMPDEST SWAP2 POP PUSH2 0xDD9 DUP3 PUSH2 0xD9A JUMP JUMPDEST PUSH1 0x20 DUP3 ADD SWAP1 POP SWAP2 SWAP1 POP JUMP JUMPDEST PUSH0 PUSH1 0x20 DUP3 ADD SWAP1 POP DUP2 DUP2 SUB PUSH0 DUP4 ADD MSTORE PUSH2 0xDFB DUP2 PUSH2 0xDC2 JUMP JUMPDEST SWAP1 POP SWAP2 SWAP1 POP JUMP JUMPDEST PUSH32 0x4E6F7420656E6F75676820696E206163636F756E740000000000000000000000 PUSH0 DUP3 ADD MSTORE POP JUMP JUMPDEST PUSH0 PUSH2 0xE36 PUSH1 0x15 DUP4 PUSH2 0xD8A JUMP JUMPDEST SWAP2 POP PUSH2 0xE41 DUP3 PUSH2 0xE02 JUMP JUMPDEST PUSH1 0x20 DUP3 ADD SWAP1 POP SWAP2 SWAP1 POP JUMP JUMPDEST PUSH0 PUSH1 0x20 DUP3 ADD SWAP1 POP DUP2 DUP2 SUB PUSH0 DUP4 ADD MSTORE PUSH2 0xE63 DUP2 PUSH2 0xE2A JUMP JUMPDEST SWAP1 POP SWAP2 SWAP1 POP JUMP JUMPDEST PUSH32 0x4163636F756E742046726F7A656E000000000000000000000000000000000000 PUSH0 DUP3 ADD MSTORE POP JUMP JUMPDEST PUSH0 PUSH2 0xE9E PUSH1 0xE DUP4 PUSH2 0xD8A JUMP JUMPDEST SWAP2 POP PUSH2 0xEA9 DUP3 PUSH2 0xE6A JUMP JUMPDEST PUSH1 0x20 DUP3 ADD SWAP1 POP SWAP2 SWAP1 POP JUMP JUMPDEST PUSH0 PUSH1 0x20 DUP3 ADD SWAP1 POP DUP2 DUP2 SUB PUSH0 DUP4 ADD MSTORE PUSH2 0xECB DUP2 PUSH2 0xE92 JUMP JUMPDEST SWAP1 POP SWAP2 SWAP1 POP JUMP JUMPDEST PUSH32 0x4E487B7100000000000000000000000000000000000000000000000000000000 PUSH0 MSTORE PUSH1 0x11 PUSH1 0x4 MSTORE PUSH1 0x24 PUSH0 REVERT JUMPDEST PUSH0 PUSH2 0xF09 DUP3 PUSH2 0xC96 JUMP JUMPDEST SWAP2 POP PUSH2 0xF14 DUP4 PUSH2 0xC96 JUMP JUMPDEST SWAP3 POP DUP3 DUP3 SUB SWAP1 POP DUP2 DUP2 GT ISZERO PUSH2 0xF2C JUMPI PUSH2 0xF2B PUSH2 0xED2 JUMP JUMPDEST JUMPDEST SWAP3 SWAP2 POP POP JUMP JUMPDEST PUSH0 PUSH2 0xF3C DUP3 PUSH2 0xC96 JUMP JUMPDEST SWAP2 POP PUSH2 0xF47 DUP4 PUSH2 0xC96 JUMP JUMPDEST SWAP3 POP DUP3 DUP3 ADD SWAP1 POP DUP1 DUP3 GT ISZERO PUSH2 0xF5F JUMPI PUSH2 0xF5E PUSH2 0xED2 JUMP JUMPDEST JUMPDEST SWAP3 SWAP2 POP POP JUMP JUMPDEST PUSH32 0x496E73756666696369656E74206163636573733A2062616E6B6572206F6E6C79 PUSH0 DUP3 ADD MSTORE POP JUMP JUMPDEST PUSH0 PUSH2 0xF99 PUSH1 0x20 DUP4 PUSH2 0xD8A JUMP JUMPDEST SWAP2 POP PUSH2 0xFA4 DUP3 PUSH2 0xF65 JUMP JUMPDEST PUSH1 0x20 DUP3 ADD SWAP1 POP SWAP2 SWAP1 POP JUMP JUMPDEST PUSH0 PUSH1 0x20 DUP3 ADD SWAP1 POP DUP2 DUP2 SUB PUSH0 DUP4 ADD MSTORE PUSH2 0xFC6 DUP2 PUSH2 0xF8D JUMP JUMPDEST SWAP1 POP SWAP2 SWAP1 POP JUMP JUMPDEST PUSH32 0x546F6B656E7320737570706C7920657863656564656400000000000000000000 PUSH0 DUP3 ADD MSTORE POP JUMP JUMPDEST PUSH0 PUSH2 0x1001 PUSH1 0x16 DUP4 PUSH2 0xD8A JUMP JUMPDEST SWAP2 POP PUSH2 0x100C DUP3 PUSH2 0xFCD JUMP JUMPDEST PUSH1 0x20 DUP3 ADD SWAP1 POP SWAP2 SWAP1 POP JUMP JUMPDEST PUSH0 PUSH1 0x20 DUP3 ADD SWAP1 POP DUP2 DUP2 SUB PUSH0 DUP4 ADD MSTORE PUSH2 0x102E DUP2 PUSH2 0xFF5 JUMP JUMPDEST SWAP1 POP SWAP2 SWAP1 POP JUMP JUMPDEST PUSH32 0x696E73756666696369656E742066756E64730000000000000000000000000000 PUSH0 DUP3 ADD MSTORE POP JUMP JUMPDEST PUSH0 PUSH2 0x1069 PUSH1 0x12 DUP4 PUSH2 0xD8A JUMP JUMPDEST SWAP2 POP PUSH2 0x1074 DUP3 PUSH2 0x1035 JUMP JUMPDEST PUSH1 0x20 DUP3 ADD SWAP1 POP SWAP2 SWAP1 POP JUMP JUMPDEST PUSH0 PUSH1 0x20 DUP3 ADD SWAP1 POP DUP2 DUP2 SUB PUSH0 DUP4 ADD MSTORE PUSH2 0x1096 DUP2 PUSH2 0x105D JUMP JUMPDEST SWAP1 POP SWAP2 SWAP1 POP JUMP JUMPDEST PUSH0 PUSH1 0x40 DUP3 ADD SWAP1 POP PUSH2 0x10B0 PUSH0 DUP4 ADD DUP6 PUSH2 0xCC7 JUMP JUMPDEST PUSH2 0x10BD PUSH1 0x20 DUP4 ADD DUP5 PUSH2 0xC9F JUMP JUMPDEST SWAP4 SWAP3 POP POP POP JUMP INVALID LOG2 PUSH5 0x6970667358 0x22 SLT KECCAK256 0xEC 0xD4 0xD3 PUSH24 0x3AFE097AA7A5649E21EF852BE14A5DF3A1AD312C2361870E 0xE3 0x2D CODECOPY PUSH21 0x64736F6C634300081A003300000000000000000000 "
				},
				"gasEstimates": {
					"creation": {
						"codeDepositCost": "869200",
						"executionCost": "infinite",
						"totalCost": "infinite"
					},
					"external": {
						"addAccount(address)": "infinite",
						"balanceMap(address)": "2824",
						"banker()": "2528",
						"deposit(address,uint256)": "infinite",
						"freezeAccount(address)": "infinite",
						"freezeInterval(address)": "2803",
						"freezeMap(address)": "2944",
						"isFrozen(address)": "2914",
						"savings(address)": "2847",
						"thawAccount(address)": "infinite",
						"tokenSupply()": "2514",
						"withdraw(address,uint256)": "infinite"
					}
				},
				"methodIdentifiers": {
					"addAccount(address)": "e89b0e1e",
					"balanceMap(address)": "d250496c",
					"banker()": "0ab9db5b",
					"deposit(address,uint256)": "47e7ef24",
					"freezeAccount(address)": "f26c159f",
					"freezeInterval(address)": "04d7dc21",
					"freezeMap(address)": "855d3af3",
					"isFrozen(address)": "e5839836",
					"savings(address)": "1f7cdd5f",
					"thawAccount(address)": "b3a60ac7",
					"tokenSupply()": "7824407f",
					"withdraw(address,uint256)": "f3fef3a3"
				}
			},
			"storageLayout": {
				"storage": [
					{
						"astId": 42,
						"contract": "Week7/ex1.sol:MDXToken",
						"label": "banker",
						"offset": 0,
						"slot": "0",
						"type": "t_address"
					},
					{
						"astId": 46,
						"contract": "Week7/ex1.sol:MDXToken",
						"label": "savings",
						"offset": 0,
						"slot": "1",
						"type": "t_mapping(t_address,t_uint256)"
					},
					{
						"astId": 50,
						"contract": "Week7/ex1.sol:MDXToken",
						"label": "balanceMap",
						"offset": 0,
						"slot": "2",
						"type": "t_mapping(t_address,t_uint256)"
					},
					{
						"astId": 54,
						"contract": "Week7/ex1.sol:MDXToken",
						"label": "freezeMap",
						"offset": 0,
						"slot": "3",
						"type": "t_mapping(t_address,t_bool)"
					},
					{
						"astId": 58,
						"contract": "Week7/ex1.sol:MDXToken",
						"label": "freezeInterval",
						"offset": 0,
						"slot": "4",
						"type": "t_mapping(t_address,t_uint256)"
					},
					{
						"astId": 61,
						"contract": "Week7/ex1.sol:MDXToken",
						"label": "tokenSupply",
						"offset": 0,
						"slot": "5",
						"type": "t_uint256"
					},
					{
						"astId": 67,
						"contract": "Week7/ex1.sol:MDXToken",
						"label": "interval",
						"offset": 0,
						"slot": "6",
						"type": "t_uint256"
					}
				],
				"types": {
					"t_address": {
						"encoding": "inplace",
						"label": "address",
						"numberOfBytes": "20"
					},
					"t_bool": {
						"encoding": "inplace",
						"label": "bool",
						"numberOfBytes": "1"
					},
					"t_mapping(t_address,t_bool)": {
						"encoding": "mapping",
						"key": "t_address",
						"label": "mapping(address => bool)",
						"numberOfBytes": "32",
						"value": "t_bool"
					},
					"t_mapping(t_address,t_uint256)": {
						"encoding": "mapping",
						"key": "t_address",
						"label": "mapping(address => uint256)",
						"numberOfBytes": "32",
						"value": "t_uint256"
					},
					"t_uint256": {
						"encoding": "inplace",
						"label": "uint256",
						"numberOfBytes": "32"
					}
				}
			},
			"userdoc": {
				"kind": "user",
				"methods": {},
				"version": 1
			}
		}
	}
}